:100000000C9447240C9466240C9466240C94662467
:100010000C9466240C9466240C9466240C94662438
:100020000C9466240C9466240C9466240C94662428
:100030000C9466240C942C320C9466240C94662444
:100040000C9466240C9466240C9466240C94662408
:100050000C94672B0C9466240C9466240C946624F0
:100060000C9466240C9466240C9466240C946624E8
:100070000C9466240C9466240C9466240C946624D8
:100080000C9466240C9466240C946624D3412E436D
:100090000342074307432E432E432E432E432E4352
:1000A0002E432E432E43D341CD412E432E432E4388
:1000B0002E43FD412E432E43D3412E432E432E4348
:1000C0002E432E432E432E432E432E43D34129430A
:1000D0000342074307432E432E432E432E432E4312
:1000E0002E432E432E43D341CD412E432E43244352
:1000F0002E43FD412E432E43D341504337444643C4
:10010000A4438B4337443744374437443744374458
:10011000374437445A436E433744374437443744AF
:100120004243374437446E433744374437443744B7
:10013000374437443744374437445043D243464327
:10014000A4438B4337443744374437443744374418
:10015000374437445A436E4337443744D2433744D5
:100160004243374437446E43696C736C7B6C7D6CDF
:100170007F6C816C836C856C886C258D4B8D728D4A
:100180008C8D958DB58DCE8DDD8D288EFA8D16904A
:100190001E902390479051909B90669066905E9041
:1001A000B1B170B170B170B170B134B13BB142B1A5
:1001B00052B160B159B1EEB8F8B94CBAD0BA03BB7C
:1001C0007FBB59BD2FBE6EBE1EBF5FBF93B9AFB917
:1001D0006E616E00696E660000407A10F35A00A0EE
:1001E000724E18090010A5D4E80000E87648170000
:1001F00000E40B54020000CA9A3B000000E1F50540
:10020000000080969800000040420F000000A08689
:1002100001000000102700000000E80300000000BB
:100220006400000000000A0000000000010000005F
:1002300000002C76D888DC674F0823DFC1DFAE5979
:10024000E1B1B796E5E3E453C63AE651997696E80C
:10025000E6C28426EB898C9B62ED407C6FFCEFBC90
:100260009C9F40F2BAA56FA5F490055A2AF75C93BB
:100270006B6CF9676DC11BFCE0E40D47FEF520E6F1
:10028000B500D0ED902E0300943577050080841ED4
:10029000080000204E0A000000C80C333333330F2F
:1002A000986E12831141EF8D2114893BE65516CFCC
:1002B000FEE6DB18D1844B381BF77C1D901DA4BBD8
:1002C000E424203284725E228100C9F124ECA1E58D
:1002D0003D2763735F64697361626C652077617346
:1002E0003A2025642C2077616E743A2025640A0038
:1002F00063735F656E61626C65207761733A202578
:10030000642C2077616E743A2025640A007361665C
:1003100065667265653A2046524545204552524F02
:100320005220282575292C20746F703A28257529AC
:100330000A00736166656D616C6C6F6328256429C2
:10034000206661696C6564210A007361666563619A
:100350006C6C6F632825642C256429206661696CA8
:100360006564210A0020205F5F62726B76616C3ADF
:10037000202020202535750A0020204D616C6C6FEF
:1003800063207374617274202535752020656E6456
:100390003A202535750A002020486561703A20739F
:1003A000746172743A202535752C20656E643A208C
:1003B0002535750A00202044617461202073746122
:1003C00072743A202535752C20656E643A202535E7
:1003D000750A0020204253532020207374617274E8
:1003E0003A202535752C20656E643A202535750A2E
:1003F000002020537461636B20467265653A2020AB
:1004000025750A002020537461636B20546F703A85
:1004100020202025750A00467265652052616D3ADC
:1004200025750A00535049305F4D6F64653A204985
:100430006E76616C6964206D6F6465282564290A95
:10044000007274635F72656164206572726F720A14
:10045000007274635F7772697465206572726F727F
:100460000A007274635F696E69742072616D202D79
:10047000207772697465206572726F720A007274F7
:1004800063205F77726974652065706F63682066AA
:1004900061696C65640A007274635F72756E202D09
:1004A000207772697465206572726F720A007274C7
:1004B000635F72756E2072656164206572726F721F
:1004C0000A007274635F737461746520726561649D
:1004D000206572726F720A002573206578706563FB
:1004E00074656420256420617267756D656E747330
:1004F000206F6E6C7920676F742025640A003D3D83
:100500003D3D3D3D3D3D3D3D3D3D3D3D3D3D3D3D1B
:100510003D3D3D3D3D3D3D3D3D3D3D3D0A00546938
:100520006D65727320656E61626C65640A00436C70
:100530006F636B20496E7374616C6C65640A004371
:100540006C6F636B207461736B20696E69742066D5
:1005500061696C65640A00436C6F636B20496E6966
:10056000740A0054696D65727320636F6E66696703
:10057000757265640A0054696D65727320696E69ED
:10058000742063616C6C65640A005B54696D653A44
:1005900025735D0A005B25732054696D653A2573E8
:1005A0005D0A005B5365636F6E64733A2025735D6B
:1005B0000A00256C642E2530396C64007365745F05
:1005C00074696D6572733A204E6F206D6F7265208D
:1005D00074696D657273210A00636C6B2074696DB8
:1005E000653A2020202025730A00636C6B20736518
:1005F000636F6E64733A20256C750A005254432071
:1006000072656164206661696C65640A0072746376
:100610002074696D653A2020202025730A007274C9
:1006200063207365636F6E64733A20256C750A00EE
:10063000757365207365746461746520636F6D6D97
:10064000616E6420746F206368616E6765207469F1
:100650006D650A0072746320726561642065727250
:100660006F72616674657220696E69740A007274D3
:100670006320666F72636520696E697420666169C4
:100680006C65640A00617474656D7074696E6720CE
:1006900072746320696E69740A0072746320756EE7
:1006A000696E6974696C697A65640A004453542000
:1006B000454E44202020202020202020474D543A21
:1006C0002025730A0044535420535441525420208F
:1006D0002020202020474D543A2025730A004453FF
:1006E0005420454E442020206C6F63616C74696D0A
:1006F000653A2025730A0044535420535441525400
:10070000206C6F63616C74696D653A2025730A0013
:1007100072746320666F72636520696E6974206607
:1007200061696C65640A00696E76616C6964206D4C
:10073000696E3A2025640A00696E76616C696420EE
:10074000686F75723A2025640A00696E76616C697B
:1007500064206461793A2025640A00696E76616CD0
:100760006964206D6F6E3A2025640A00696E7661B7
:100770006C696420796561723A2025640A00456ECF
:1007800074657220646174652059595959204D4D22
:100790002044442048483A4D4D3A5353203E0025CA
:1007A000732025732025326420253032643A2530A9
:1007B00032643A25303264202534640073656C65F8
:1007C0006374206661696C6564210A00454E4420AB
:1007D0004D4D4320494E49540A004D4D4320426C33
:1007E0006F636B2053697A653A20256C640A004D6B
:1007F0004D4320426C6F636B2053697A65202D2036
:1008000072656164206661696C65640A002C20432E
:100810006F646520706167653A2025750A004C4653
:100820004E20456E61626C65640053544152542001
:100830004D4D4320494E49540A004D4D43205449E3
:100840004D454F55540A004D4D4320436C6F636B2B
:10085000207461736B20696E6974206661696C65D0
:10086000640A000A0025732025752F253032752F64
:100870002530327520253032753A253032752025E5
:10088000396C752025730066617466735F66696CE8
:10089000696E666F5F6C6973743A20656D70747908
:1008A0000A0025752066696C65732C20256C7520FF
:1008B00062797465732E0A257520666F6C646572A3
:1008C000732E0A256C75204B4220746F74616C2066
:1008D0006469736B2073706163652E0A256C7520E3
:1008E0004B4220617661696C61626C652E0A00562C
:1008F0006F6C756D6520532F4E2020202020202006
:10090000202020202020203D20253034582D253047
:1009100034580A00566F6C756D65206E616D6520E8
:100920002020202020202020202020203D20257352
:100930000A004461746120737461727420286C62CF
:10094000612920202020202020203D20256C750AB0
:100950000044495220737461727420286C62612CC7
:10096000636C7573746F7229203D20256C750A00C5
:1009700046415420737461727420286C626129208E
:1009800020202020202020203D20256C750A004EAC
:10099000756D626572206F6620636C757374657225
:1009A000732020202020203D20256C750A005365EF
:1009B00063746F72732F4641542020202020202022
:1009C0002020202020203D20256C750A00526F6FCA
:1009D000742044495220656E74726965732020202A
:1009E00020202020203D2025750A004E756D62656F
:1009F00072206F6620464154732020202020202042
:100A00002020203D2025750A0042797465732F430C
:100A10006C757374657220202020202020202020F7
:100A2000203D20256C750A0046415420747970657C
:100A300020202020202020202020202020202020B6
:100A40003D2025730A0066617466732073746174B7
:100A500075733A25730A0072633D25750A002C20D0
:100A60002531306C754B2062797465732066726530
:100A7000650A002534752046696C652873292C2584
:100A800031306C7520627974657320746F74616C99
:100A90000A25347520446972287329004C697374DF
:100AA000696E673A5B25735D0A003D3D3D3D3D3D06
:100AB0003D3D3D3D3D3D3D3D3D3D3D3D3D3D3D3D66
:100AC0003D3D3D3D3D3D3D3D0A00454E44204D4DA3
:100AD0004320544553540A004D4D432044697265E8
:100AE00063746F7279204C6973740A0053544152D5
:100AF00054204D4D4320544553540A003D3D3D3D47
:100B00003D3D3D3D3D3D3D3D3D3D3D3D3D3D3D3D15
:100B10003D3D3D3D3D3D3D3D3D3D0A00696E643AF4
:100B200025642C617267633A25640A004E6F746510
:100B30003A206661746673207465737473204D5532
:100B4000535420737461727420776974682022662C
:100B50006174667322206B6579776F72640A6661CF
:100B60007466732068656C700A6661746673206DC4
:100B70006D635F746573740A6661746673206D6D6E
:100B8000635F696E69740A6661746673206C7320B2
:100B90006469720A66617466732073746174757334
:100BA0002066696C650A0A00666174667320686570
:100BB0006C700A004578706563746564202F646505
:100BC000762F736461202E2E202F6465762F736438
:100BD0006A0A0025730A0025733A2025730A000962
:100BE0006374696D653A2025730A00096D74696D37
:100BF000653A2025730A00096174696D653A2025FC
:100C0000730A00094749443A202020256C750A00E0
:100C1000095549443A202020256C750A00094D6F7A
:100C200064653A2020256C6F0A00556E6B6E6F77F5
:100C30006E0A0046696C650A004449520A0009546C
:100C40007970653A2020000953697A653A20202599
:100C50006C750A005365656B206661696C6564009C
:100C600066707574632073747265616D2D3E707566
:100C700074204E554C4C0A0066676574632073748B
:100C80007265616D2D3E676574204E554C4C0A00AF
:100C900043616E27206F70656E3A2025730A0053FA
:100CA000756D3A2025303458682C202535750A009A
:100CB00043616E27206F70656E3A2025730A0057D6
:100CC00072697465206572726F720A0043616E27E3
:100CD00074206F70656E3A2025730A0046696C6552
:100CE000733A2025640A006E616D653A5B25735D79
:100CF00020746F6F206C6F6E672077697468206650
:100D0000756C6C20706174680A006F70656E646940
:100D100072206661696C65640A006C733A206361D5
:100D20006E6E6F742073746174205B25735D0A00AE
:100D30004C697374696E673A5B25735D0A006C7366
:100D40003A2043616E277420676574206375727260
:100D5000656E74206469726563746F72790A002528
:100D600073206E6F6E65206E6F6E65202531326C5C
:100D7000642025732025730A0025730A0063616EC1
:100D8000206E6F7420737461743A2025730A000D0D
:100D9000004D6F72652E2E000A000A00203A2000D6
:100DA000202020002530327820002530386C782033
:100DB0003A200043616E27206F70656E3A202573DC
:100DC0000A00256C7520627974657320636F706901
:100DD00065642E0A00436F706965643A20253038D7
:100DE0006C640D005772697465206572726F720AC7
:100DF000000A436F7079696E672E2E2E0A004361D8
:100E00006E2774206F70656E3A2025730A00437256
:100E1000656174696E672025730A0043616E2774EB
:100E2000206F70656E3A2025730A004F70656E69F9
:100E30006E672025730A00256C64206279746573DF
:100E40000A000A0043616E2774206F70656E3A20B5
:100E500025730A0025730A00706F73697820707219
:100E600065666978206973206F7074696F6E616C54
:100E70000A706F7369782063686D6F642066696CAF
:100E800065204E4E4E0A706F73697820636174203E
:100E900066696C65205B2D705D0A706F73697820E0
:100EA0006364206469720A706F73697820636F707D
:100EB000792066696C65312066696C65320A706FED
:100EC0007369782068657864756D702066696C65F3
:100ED000205B2D705D0A706F736978206C6F6720DE
:100EE0007374720A706F736978206C73206469720E
:100EF000205B2D6C5D0A706F736978206D6B64697F
:100F000072206469720A706F736978206D6B667302
:100F10000A706F7369782070616765204E4E0A70A1
:100F20006F736978207077640A706F7369782073C3
:100F30007461742066696C650A706F7369782073D8
:100F4000756D2066696C650A706F73697820726DC3
:100F50002066696C650A706F73697820726D6469C8
:100F600072206469720A706F7369782072656E61AD
:100F70006D65206F6C64206E65770A706F73697899
:100F80002075706C6F61642066696C650A0A007078
:100F90006F7369782068656C700A00436C6F7365C5
:100FA000206572726F723A20005365656B2065721E
:100FB000726F723A20005772697465206572726FA1
:100FC000723A200052656164206572726F723A2035
:100FD000004F70656E206572726F723A5B25735DAB
:100FE00020005B5050522044495341424C4520411F
:100FF0004C4C5D0A004750494220436C6F636B20A4
:101000007461736B20696E6974206661696C6564D4
:101010000A005B677069625F77726974655F7374F9
:10102000722073656E742825642920657870656365
:10103000746564282564295D0A00677069625F77BA
:10104000726974655F7374723A2073697A65203DC2
:1010500020300A005B677069625F726561645F736C
:101060007472207265616428256429206578706532
:1010700063746564282564295D0A00677069625F8E
:10108000726561645F73747228696E643A256429BD
:101090003A2041544E20253032584820756E6578EC
:1010A0007065637465640A00677069625F72656188
:1010B000645F7374723A2073697A65203D20300A48
:1010C00000204D534120253032586800204D5441B6
:1010D00020253032586800204D4C412025303258B0
:1010E0006800202020202000253032582025632051
:1010F000003C4E5246443D25642C4E4441563D250D
:10110000643E0A003C4255532077616974696E67FA
:1011100020666F72204441563D3D313E0A003C42FC
:1011200055532077616974696E6720666F72204E2F
:101130004441433D3D313E0A003C425553207761D6
:101140006974696E6720666F72204E5246443D3D59
:10115000303E0A003C4255532077616974696E67DE
:1011600020666F72204E5246443D3D312026262097
:101170004E444143203D3D20303E0A003C42555301
:101180002077616974696E6720666F7220444156EA
:101190003D3D313E0A00677069625F756E72656140
:1011A000643A206572726F722C2063616E206F6EDC
:1011B0006C792062652063616C6C6564206F6E637E
:1011C00065210A005B52454E2048495D0A005B528A
:1011D000454E204C4F575D0A005B4946432053451E
:1011E0004E545D0A005B5050523A25303258482C1C
:1011F0002050494E3A25303258482C204444523A27
:1012000025303258485D0A005B44505052206269D4
:10121000743A25642C206D61736B3A25303258483E
:101220005D0A00677069625F64697361626C655F23
:101230005050523A20626974202564206F757420E2
:101240006F662072616E67650A005B4550505220E0
:101250006269743A25642C206D61736B3A253032D3
:1012600058485D0A00677069625F656E61626C650F
:101270005F5050523A20626974202564206F757463
:10128000206F662072616E67650A005B47504942B5
:1012900020535441544520494E49545D0A005B4750
:1012A000504942204255535F494E49545D0A000A55
:1012B000002E00256300207C2000202530325800BD
:1012C0000A005B44756D703A2025645D0A005B502E
:1012D00052494E54455220636C6F73655D0A005B42
:1012E00053412025303258482C206C697374656E48
:1012F0003A25303258482C2074616C6B3A253032D4
:1013000058485D0A005B534120253032584820413F
:101310004D49474F5D0A005B534120253032584804
:1013200020535338305D0A005B5441202530325839
:10133000485D0A005B5052494E544552204F50457B
:101340004E5D0A005B5441202530325848205052EF
:10135000494E5445525D0A005B54412025303258B5
:101360004820414D49474F5D0A005B5441202530DC
:1013700032584820535338305D0A005B554E545D57
:101380000A005B4C412025303258485D0A005B4C16
:1013900041202530325848205052494E5445525D24
:1013A0000A005B4C412025303258482053533830D6
:1013B0005D0A005B4C4120253032584820414D49A0
:1013C000474F5D0A000A005B554E4C5D0A005B48C2
:1013D0005049422028253032584829206E6F742009
:1013E000646566696E65645D0A005B44434C5D0A32
:1013F000005B53444320414D49474F5D0A005B5316
:10140000444320535338305D0A005B5344435D0A24
:10141000005B5350445D0A005B5350455D0A005B1E
:1014200050505520756E737570706F727465645D81
:101430000A005B50504320756E737570706F727444
:1014400065645D0A005B4944454E5420556E6974DD
:101450003A25303258483D25303458485D0A005B03
:101460004944454E5420556E69743A2530325848E7
:101470003D2530345848204641494C45445D0A00DA
:101480003C4D45444941204D495353494E473E0A3E
:10149000003C494E544552525550543E0A003C427D
:1014A00055533E0A003C54494D454F55543E0A00A1
:1014B0003C4946433E0A00436170747572696E6729
:1014C00020436C6F7365640A00446F6E650A0065A3
:1014D000786974696E672E2E2E0A005072657373D8
:1014E00020414E59206B657920746F2065786974AE
:1014F0000A0046554C4C2047504942204255532043
:1015000068616E647368616B65206C6F6767696E94
:1015100067207265717565737465640A0043617054
:10152000747572696E6720475049422042555320B6
:10153000746F3A25730A00436172642069732077DF
:10154000726974652070726F7465637465640A00F3
:10155000257320686164202564206572726F727340
:101560000A00506F72742064647220442052443A1E
:101570005B25303258485D0A00506F7274206464F5
:101580007220432052443A5B25303258485D0A00AD
:10159000506F72742064647220422052443A5B257A
:1015A000303258485D0A00506F72742064647220B3
:1015B000412052443A5B25303258485D0A00506F52
:1015C0007274206C6174636820442052443A5B2535
:1015D000303258485D0A00506F7274206C61746339
:1015E0006820432052443A5B25303258485D0A0057
:1015F000506F7274206C6174636820422052443AC8
:101600005B25303258485D0A00506F7274206C615F
:1016100074636820412052443A5B25303258485D5B
:101620000A00506F72742070696E73204420524417
:101630003A5B25303258485D0A00506F7274207052
:10164000696E7320432052443A5B25303258485D1E
:101650000A00506F72742070696E732042205244E9
:101660003A5B25303258485D0A00506F7274207022
:10167000696E7320412052443A5B25303258485DF0
:101680000A0064656275673D25303458480A006772
:1016900070696220707265666978206973206F7066
:1016A00074696F6E616C0A6770696220616464724C
:1016B00065737365730A6770696220636F6E66692C
:1016C000670A67706962206465627567204E0A6701
:1016D00070696220656C61707365640A6770696225
:1016E00020656C61707365645F72657365740A6709
:1016F000706962207461736B0A677069622074722A
:101700006163652066696C656E616D652E747874C1
:10171000205B4255535D0A67706962206966630AFF
:101720006770696220706C6F742066696C656E61A9
:101730006D652E7478740A67706962207070725FCC
:101740006269745F6F6E204E0A6770696220707004
:10175000725F6269745F6F6666204E0A67706962C5
:10176000207070725F7365742058580A67706962E0
:10177000207070725F696E69740A677069622070A8
:101780006F727420726561642070696E732020200E
:101790005B412D445D0A6770696220706F7274202E
:1017A00072656164206C6174636820205B412D4424
:1017B0005D0A6770696220706F727420726561647F
:1017C00020646472202020205B412D445D0A6770F4
:1017D000696220706F7274207772697465206C6121
:1017E000746368205B412D445D2076616C0A6770EC
:1017F000696220706F7274207772697465207069F5
:101800006E7320205B412D445D2076616C0A0A00D6
:10181000677069622068656C700A005B53533830EA
:1018200020556E6B6E6F776E2053433A2025303211
:1018300058482C206C697374656E3A2530325848CC
:101840002C2074616C6B3A25303258485D0A005B7D
:101850005353383020534320556E6B6E6F776E3A7A
:101860002025303258482C206C697374656E3A25F7
:10187000303258482C2074616C6B3A25303258480D
:101880005D0A005B53533830205472616E7370618F
:1018900072656E745D0A005B416D69676F20436C11
:1018A0006561725D0A005B53533830205265706F7A
:1018B00072742053746174655D0A005B5353303059
:1018C00020457865637574652053746174655D0A9D
:1018D000005B5353383020436F6D6D616E6420534D
:1018E000746174655D0A005B47504942204572721D
:1018F0006F722052657475726E202D205772697454
:1019000065204552524F525D0A005B5353383020D8
:10191000496E6372656D656E7420746F2028256C46
:101920005848295D0A005B416D69676F20436C650B
:1019300061725D0A005B4750494220526561642034
:101940004572726F725D0A005B5353383020534406
:10195000435D0A005B535338302071737461742007
:10196000253032585D0A005B535338302071737450
:1019700061742073656E64204641494C45445D0A9C
:10198000005B53533830205365656B3A2530386C13
:1019900058485D0A005B53533830205365656B200F
:1019A0004F564552464C4F57206174202530386CB5
:1019B00058485D0A005B53533830205472616E738F
:1019C000706172656E7420436F6D6D616E642C2062
:1019D0004572726F722061742028256429206F6619
:1019E0002028256429204F5020436F6465735D0AC9
:1019F000005B5353383020496E76616C6964204F28
:101A00005020436F646520282530325848295D0AEC
:101A1000005B535338302043616E63656C2028258A
:101A200064295D0A005B53533830204368616E6E51
:101A3000656C20496E646570656E64656E742043E4
:101A40006C65617220282564295D0A005B53533858
:101A500030205772697465204C6F6F706261636BE0
:101A6000202D20544F444F5D0A005B5353383020E3
:101A700052656164204C6F6F706261636B202D2032
:101A8000544F444F5D0A005B535338302048502D6B
:101A900049422050617269747920436865636B69BB
:101AA0006E67202D20544F444F5D0A005B4750491C
:101AB0004220627566666572204F564552464C4F0D
:101AC00057215D0A005B47504942205265616420FE
:101AD0004552524F525D0A005B53533830204578CF
:101AE000656375746520436F6D6D616E642C204570
:101AF00072726F722061742028256429206F66201D
:101B000028256429204F5020436F6465735D0A00C7
:101B10005B5353383020496E76616C6964204F50B6
:101B200020436F646520282530325848295D0A001B
:101B30005B5353383020496E696174652044696194
:101B4000676E6F73746963202D20544F444F5D0A94
:101B5000005B5353383020526571756573742053A0
:101B600074617475735D0A005B5353383020446FA1
:101B70006F72204C6F636B202D20544F444F5D0AD1
:101B8000005B5353383020446F6F7220556E4C6F9A
:101B9000636B202D20544F444F5D0A005B53533834
:101BA000302053657420537461747573204D6173D4
:101BB0006B202D20544F444F5D0A005B5353383047
:101BC00020496E697469616C697A65204D65646944
:101BD0006120544F444F5D0A005B5353383020441A
:101BE000657363726962655D0A005B535338302028
:101BF00056616C6964617465204B6579202D2054B1
:101C00004F444F5D0A005B535338302052656C657A
:101C10006173652044656E696564204E4F2D4F5099
:101C20005D0A005B535338302052656C6561736503
:101C3000204E4F2D4F505D0A005B53533830204CDF
:101C40006F6361746520616E6420566572696679A0
:101C5000202D20544F444F5D0A005B5353383020F1
:101C60005365742052657475726E204164647265A8
:101C70007373696E67202D20544F444F5D0A005BDB
:101C800053533830205365742052656C6561736519
:101C9000204E4F2D4F505D0A005B53533830205378
:101CA000657420525053204E4F2D4F505D0A005BFB
:101CB00053533830204E4F2D4F505D0A005B535325
:101CC000383020536574204C656E6774683A282557
:101CD00030386C5848295D0A005B53533830205324
:101CE000657420416464726573733A282530386CDA
:101CF0005848295D0A005B53533830204C6F6361AC
:101D0000746520616E642057726974655D0A005BBA
:101D100053533830204C6F6361746520616E6420CA
:101D2000526561645D0A005B53533830205365741B
:101D300020566F6C756D653A20282564295D0A0070
:101D40005B535338302053657420556E69743A28BC
:101D50002564295D0A005B4750494220627566662A
:101D60006572204F564552464C4F57215D0A005B25
:101D70005353383020436F6D6D616E64205374612E
:101D80007465204750494220526561642045525293
:101D90004F525D0A005B5353383020566F6C756D9F
:101DA000653A256420696E76616C69645D0A005B42
:101DB0005353383020554E49543A256420696E7685
:101DC000616C69645D0A005B53533830204465736D
:101DD000637269626520566F6C756D652046414976
:101DE0004C45445D0A005B535338302044657363AF
:101DF0007269626520556E6974204641494C4544BC
:101E00005D0A005B53533830204465736372696226
:101E10006520436F6E74726F6C6C65722046414929
:101E20004C45445D0A005B5353383020446573636E
:101E3000726962655D0A005B535338302053656EEA
:101E40006420537461747573204641494C45445D68
:101E50000A005B535338302053656E64205374611D
:101E60007475735D0A002020202025643A25730ACA
:101E70000025733A0A005B53533830204C6F63617E
:101E8000746520616E642057726974652057726FA3
:101E9000746520546F74616C28256C7848295D0A3C
:101EA000005B53533830204C6F6361746520616E62
:101EB0006420577269746520444944204E4F542071
:101EC00046494E4953485D0A005B53533830204C15
:101ED0006F6361746520616E642057726974652058
:101EE00077726F7465282530325848295D0A005B87
:101EF0004469736B205772697465204572726F7202
:101F00005D0A005B4750494220526561642045727A
:101F1000726F725D0A005B53533830204C6F6361FF
:101F2000746520616E642057726974652061742045
:101F30002530386C584828256C5848295D0A005BC4
:101F40005353383020427566666572656420526569
:101F5000616420546F74616C28256C584829206294
:101F6000797465735D0A005B53533830204275669F
:101F70006665726564205265616420444944204E60
:101F80004F542046494E4953485D0A005B5353382D
:101F90003020475049422057726974652057727249
:101FA0006F725D0A005B53533830204469736B20B5
:101FB00052656164204572726F725D0A005B535313
:101FC0003830204469736B205265616420253032BB
:101FD00058482062797465735D0A005B535338304A
:101FE000204C6F6361746520616E6420526561648A
:101FF000206174202530386C584828256C584829B1
:102000005D0A005B535338302045584543207374B4
:102010006174653A2564206572726F725D0A005BB7
:102020005353383020253032584820494E49545DAA
:102030000A005B53533830205465737420446F6E2C
:10204000655D0A005B5353383020546573745D0A34
:10205000005B414D49474F204578656375746520A5
:1020600052657175657374204C6F676963616C208C
:10207000416464726573735D0A005B414D49474F6B
:102080002045786963757465205265717565737450
:102090002053746174757320556E6275666665723F
:1020A00065645D0A005B414D49474F204578656393
:1020B000757465205265717565737420537461740D
:1020C00075732042756666657265645D0A005B41E2
:1020D0004D49474F2045786563757465205772698F
:1020E00074652042756666657265645D0A005B41D1
:1020F0004D49474F204578656375746520496E6981
:102100007469616C697A655D0A005B414D49474FAE
:10211000204578656375746520577269746520552C
:102120006E62756666657265645D0A005B414D4965
:10213000474F20457865637574652052656164205A
:1021400042756666657265645D0A005B414D49478C
:102150004F2045786563757465205265616420552C
:102160006E62756666657265645D0A005B414D4925
:10217000474F204578656375746520436F6C642014
:102180004C6F616420526561645D0A005B414D499A
:10219000474F204578656375746528253032584867
:1021A000293A206C697374656E3A25303258482C90
:1021B0002074616C6B3A25303258485D0A005B41EF
:1021C0004D49474F20466F726D61745D0A005B4157
:1021D0004D49474F205265616420427566666572BD
:1021E000656420436F6D6D616E645D0A005B414DF7
:1021F00049474F205265717565737420537461743B
:10220000757320556E627566666572656420436FEE
:102210006D6D616E645D0A005B414D49474F20570B
:102220007269746520427566666572656420436FE5
:102230006D6D616E645D0A005B414D49474F2052F0
:10224000657175657374204C6F676963616C2041BB
:1022500064647265737320436F6D6D616E645D0AB3
:10226000005B414D49474F20496E697469616C6953
:102270007A6520436F6D6D616E645D0A005B414D50
:1022800049474F20577269746520556E62756666BE
:102290006572656420436F6D6D616E645D0A005BFD
:1022A000414D49474F205665726966795D0A005B6A
:1022B000414D49474F205265616420556E627566F5
:1022C000666572656420436F6D6D616E645D0A00C2
:1022D0005B414D49474F20526571756573742053BA
:1022E0007461747573204275666665726564204317
:1022F0006F6D6D616E645D0A005B414D49474F2013
:102300005365656B206C656E3D365D0A005B414D23
:1023100049474F205365656B206C656E3D355D0AFE
:10232000005B414D49474F20436F6C64204C6F6107
:1023300064205265616420436F6D6D616E645D0A57
:10234000005B414D49474F20436F6D6D616E6428BE
:102350002530325848293A20475049422072656159
:10236000642062797465733A25303258485D0A00FA
:102370005B414D49474F20436F6D6D616E643A4735
:102380005049422072656164206572726F725D0A05
:10239000005B414D49474F20436F6D6D616E643A5C
:1023A000475049422072656164206572726F725DA8
:1023B0000A005B414D49474F5F436F6D6D616E642D
:1023C0003A47504942207772697465206572726F8E
:1023D000725D0A005B414D49474F20436F6D6D614F
:1023E0006E64282530325848293A206C6973746528
:1023F0006E3A25303258482C2074616C6B3A253087
:102400003258485D0A005B45202020416D69676FA6
:10241000204552524F52207365636F6E646172792A
:102420003A2025303258482C2073746174653A255F
:10243000303258482C206C697374656E696E673A47
:1024400025303258482C2074616C6B696E673A25D0
:10245000303258485D0A005B554E5420416D696723
:102460006F20544F444F207365636F6E64617279BF
:102470003A2025303258482C2073746174653A250F
:10248000303258482C206C697374656E696E673AF7
:1024900025303258482C2074616C6B696E673A2580
:1024A000303258485D0A005B54202020416D696736
:1024B0006F20544F444F207365636F6E646172796F
:1024C0003A2025303258482C2073746174653A25BF
:1024D000303258482C206C697374656E696E673AA7
:1024E00025303258482C2074616C6B696E673A2530
:1024F000303258485D0A005B4C202020416D6967EE
:102500006F20544F444F207365636F6E646172791E
:102510003A2025303258482C2073746174653A256E
:10252000303258482C206C697374656E696E673A56
:1025300025303258482C2074616C6B696E673A25DF
:10254000303258485D0A005B5520416D69676F2045
:10255000544F444F207365636F6E646172793A2003
:1025600025303258482C2073746174653A25303216
:1025700058482C206F70636F64653A253032584894
:102580002C206C656E3A2533642C206C697374655D
:102590006E696E673A25303258482C2074616C6B36
:1025A000696E673A25303258485D0A005B554E54D3
:1025B00020416D69676F20544F444F207365636FEE
:1025C0006E646172793A2025303258482C20737439
:1025D0006174653A25303258482C206F70636F64FF
:1025E000653A25303258482C206C656E3A253364A4
:1025F0002C206C697374656E696E673A25303258A9
:10260000482C2074616C6B696E673A2530325848EB
:102610005D0A005B54202020416D69676F20544F94
:10262000444F207365636F6E646172793A20253080
:102630003258482C2073746174653A2530325848FA
:102640002C206F70636F64653A25303258482C2017
:102650006C656E3A2533642C206C697374656E6901
:102660006E673A25303258482C2074616C6B696E65
:10267000673A25303258485D0A005B4C20202041E3
:102680006D69676F20544F444F207365636F6E64AC
:102690006172793A2025303258482C207374617465
:1026A000653A25303258482C206F70636F64653A64
:1026B00025303258482C206C656E3A2533642C2026
:1026C0006C697374656E696E673A25303258482CB0
:1026D0002074616C6B696E673A25303258485D0A28
:1026E000005B414D49474F20436C6561725D0A00B4
:1026F0005B414D49474F20475049422077726974EA
:1027000065206572726F725D0A005B414D49474FEB
:102710002057616B6575705D0A005B44534A202544
:10272000303258485D0A005B41494D474F3A2044DA
:10273000534A2073656E64206661696C65645D0A46
:10274000005B414D49474F205772697465204750DF
:1027500049422072656164206572726F725D0A0081
:102760005B414D49474F2047504942207772697479
:1027700065206572726F725D0A005B414D49474F7B
:1027800020466F726D617420446F6E655D0A005B58
:10279000414D49474F20666F726D61745D0A005B61
:1027A000414D49474F2025732C20503A2530386C35
:1027B00078482C20553A256420433A256420483A2D
:1027C000256420533A25645D0A005B414D49474F1B
:1027D0002076657269667920503A2530386C584801
:1027E0002C20736563746F72733A25303458485DDA
:1027F0000A005B414D49474F20257320706F7320BD
:102800004F564552464C4F575D0A005B414D494774
:102810004F20475049422077726974652065727273
:102820006F725D0A005B414D49474F2073656E64CE
:10283000207374617475735D0A005B414D49474FA5
:102840002047504942207772697465206572726F23
:10285000725D0A005B414D49474F2073656E6420ED
:102860006C6F676963616C20616464726573735D2A
:102870000A005B414D49474F20726571756573745D
:10288000207374617475735D0A007265636569769F
:1028900065643A5B25645D2062797465730A007231
:1028A000656365697665643A5B25645D2025730A16
:1028B0000072656365697665643A5B25645D202511
:1028C000730A007072696E746572206E6F74206492
:1028D0006566696E65640A005B5343205052494E39
:1028E0005445522054616C6B3A2025303258485D73
:1028F0000A005B5343205052494E544552204C69C4
:102900007374656E3A2025303258485D0A002530D0
:10291000386C640D007772697465206661696C6556
:10292000643A2077616E7465642025642C20676F9B
:10293000743A25640A000A444F4E453A202530383F
:102940006C640A004552524F522064757272696E6F
:10295000672077726974650A0065786974696E67C3
:102960002E2E2E0A00436170747572696E67207096
:102970006C6F7420746F3A25730A002F706C6F743B
:102980002D253032642573253034642D2530326492
:1029900025303264253032642E706C74000A004198
:1029A0004D49474F25640043616E206E6F7420755A
:1029B0007365206E6F6E2032353620627974652023
:1029C000736563746F72730A00535338302D256436
:1029D0000043616E206E6F7420757365206E6F6E9C
:1029E00020323536206279746520736563746F72A6
:1029F000730A000A000A00454E440A000A004144D6
:102A00004452455353002020434F4E4649470A0045
:102A10005052494E5445520A0043594C494E444580
:102A2000525300484541445300534543544F525379
:102A30005F5045525F545241434B004259544553F5
:102A40005F5045525F534543544F52002020474545
:102A50004F4D455452590A004944002020434F4EDF
:102A60004649470A0046494C4500505052004144EF
:102A700044524553530020204845414445520A00E2
:102A8000414D49474F0A00494E5445524C45415625
:102A900045004D41585F424C4F434B5F4E554D42B0
:102AA0004552004D41585F534543544F52004D41EC
:102AB000585F48454144004D41585F43594C494E89
:102AC000444552002020564F4C554D450A00524572
:102AD0004D4F5641424C455F564F4C554D45530066
:102AE00046495845445F564F4C554D4553004D415E
:102AF00058494D554D5F494E5445524C45415645F8
:102B0000004143434553535F54494D45004F505492
:102B1000494D414C5F52455452595F54494D45000F
:102B2000434F4E54494E4F55535F5452414E5346B6
:102B300045525F5241544500424C4F434B5F54490C
:102B40004D450042555253545F53495A4500425532
:102B50004646455245445F424C4F434B5300425911
:102B60005445535F5045525F424C4F434B004445E0
:102B7000564943455F4E554D42455200554E4954C6
:102B80005F54595045002020554E49540A0054596D
:102B90005045005452414E534645525F52415445B0
:102BA00000554E4954535F494E5354414C4C454493
:102BB000002020434F4E54524F4C4C45520A00497E
:102BC000440020204845414445520A0046494C45AE
:102BD000005050520041444452455353002020437A
:102BE0004F4E4649470A00535338300A0043757226
:102BF00072656E7420436F6E666967757261746981
:102C00006F6E2053657474696E67730A000A002042
:102C1000205052494E5445525F4D5341203D20258E
:102C2000303258480A0020205052494E5445525FD5
:102C30004D5441203D2025303258480A0020205074
:102C400052494E5445525F4D4C41203D2025303273
:102C500058480A002020414D49474F5F4D534120BD
:102C600020203D2025303258480A002020414D497F
:102C7000474F5F4D54412020203D20253032584899
:102C80000A002020414D49474F5F4D4C41202020F4
:102C90003D2025303258480A002020535338305FF9
:102CA0004D5341202020203D2025303258480A0035
:102CB0002020535338305F4D5441202020203D20A8
:102CC00025303258480A002020535338305F4D4C8D
:102CD00041202020203D2025303258480A004C69F0
:102CE0007374656E20616E642054616C6B20416466
:102CF00064726573732053657474696E67730A0038
:102D000020202020252D323573203D2022257322BE
:102D10000A0020202020252D323573203D20253823
:102D20006C78482028256C64290A00526561645F2C
:102D3000436F6E6669673A202A2A2A2A2A2A206562
:102D400072726F727328256429202A2A2A2A2A2A55
:102D50000A00526561645F436F6E6669673A20726C
:102D600065616428256429206C696E65730A004DCD
:102D7000697373696E6720454E442073746174658E
:102D80006D656E74206174206C696E653A25640A05
:102D900000556E65787065637465642053544154C2
:102DA000453A2025732C206174206C696E653A25A4
:102DB000640A00556E657870656374656420414DE2
:102DC00049474F2047454D4554525920746F6B6514
:102DD0006E3A2025732C206174206C696E653A254B
:102DE000640A00556E657870656374656420414DB2
:102DF00049474F20434F4E46494720746F6B656EDD
:102E00003A2025732C206174206C696E653A256424
:102E10000A00556E657870656374656420484541A5
:102E200044455220434F4E46494720746F6B656EB0
:102E30003A2025732C206174206C696E653A2564F4
:102E40000A00536B697070696E672025732C2061CE
:102E500074206C696E653A25640A00556E65787059
:102E6000656374656420414D49474F205354415276
:102E70005420746F6B656E3A2025732C206174208A
:102E80006C696E653A25640A00556E6578706563F5
:102E9000746564205353383020564F4C554D4520AF
:102EA000746F6B656E3A2025732C206174206C69F9
:102EB0006E653A25640A00556E65787065637465C1
:102EC00064205353383020554E495420746F6B653D
:102ED0006E3A2025732C206174206C696E653A254A
:102EE000640A00556E657870656374656420535399
:102EF000383020434F4E54524F4C4C455220746F43
:102F00006B656E3A2025732C206174206C696E65A8
:102F10003A25640A00556E657870656374656420AF
:102F20005353383020434F4E46494720746F6B65EA
:102F30006E3A2025732C206174206C696E653A25E9
:102F4000640A00556E657870656374656420535338
:102F5000383020434F4E46494720746F6B656E3AB8
:102F60002025732C206174206C696E653A25640AF3
:102F700000556E657870656374656420535338300E
:102F800020535441525420746F6B656E3A20257360
:102F90002C206174206C696E653A25640A00556EB8
:102FA0006578706563746564205052494E5445528B
:102FB00020434F4E46494720746F6B656E3A20257B
:102FC000732C206174206C696E653A25640A005583
:102FD0006E6578706563746564205052494E54453F
:102FE0005220746F6B656E3A2025732C206174201B
:102FF0006C696E653A25640A00556E657870656384
:1030000074656420535441525420746F6B656E3A5A
:103010002025732C206174206C696E653A25640A42
:1030200000536B697070696E672025732C20617482
:10303000206C696E653A25640A00526561645F43DD
:103040006F6E6669673A206F70656E282573292058
:103050006661696C65640A0052656164696E673A0D
:103060002025730A006C696E653A25642C2025734F
:103070002069732061626F76652072616E676520DA
:1030800025640A006C696E653A25642C202573203E
:1030900069732062656C6F772072616E67652025A9
:1030A000640A006C696E653A25642C206D6973733F
:1030B000696E672076616C75650A00616C6C6F6380
:1030C0005F6465766963653A20696E76616C6964F0
:1030D00020747970653A25643A25730A00616C6C36
:1030E0006F635F6465766963653A204465766963FA
:1030F00065207461626C652069732066756C6C0A6A
:10310000007365745F6163746976655F6465766991
:1031100063653A2825642920696E76616C696420AC
:10312000747970653A25643A25730A007365745F93
:103130006163746976655F6465766963653A206981
:103140006E6465783A20256420747970653A256448
:103150003A25732C207374617465203D3D204E55D3
:103160004C4C0A007365745F6163746976655F64D3
:1031700065766963653A20696E6465782025642008
:10318000756E696E6974616C697A656420747970B2
:10319000653A25643A25730A007365745F61637448
:1031A0006976655F6465766963653A20696E646512
:1031B000783A256420747970653A25643A25732C31
:1031C00020646576203D3D204E554C4C0A007365C9
:1031D000745F6163746976655F6465766963653A97
:1031E00020696E6465783A25642061646472657351
:1031F000733A202530325848206F7574206F66204E
:1032000072616E67650A007365745F6163746976E5
:10321000655F6465766963653A28256429206F7562
:1032200074206F662072616E67650A00466F726D6A
:103230006174696E673A2077726F74653A5B256CCA
:10324000645D20736563746F72730A006C69665FF6
:103250006372656174655F696D6167653A20736566
:1032600063746F727320697320300A006C69665F43
:103270006372656174655F696D6167653A20646951
:1032800072736563746F727320697320300A006C07
:1032900069665F6372656174655F696D6167653AF0
:1032A000206C69666C6162656C20697320656D7065
:1032B00074790A006C69665F6372656174655F6941
:1032C0006D6167653A206C6966696D6167656E61FD
:1032D0006D6520697320656D7074790A0072656E82
:1032E000616D65643A202531307320746F2025317B
:1032F00030730A006C69665F72656E616D653A5B7A
:1033000025735D206C6966206E616D653A5B25737F
:103310005D206E6F7420666F756E640A006C69665E
:103320005F72656E616D655F66696C653A206E659A
:1033300077206C69666E616D6520636F6E7461697C
:103340006E73206261642063686172616374657288
:10335000730A006C69665F72656E616D655F6669B0
:103360006C653A206E6577206C69666E616D6520CC
:10337000697320656D7074790A006C69665F7265A7
:103380006E616D655F66696C653A206F6C64206C78
:1033900069666E616D6520697320656D7074790A68
:1033A000006C69665F72656E616D655F66696C650C
:1033B0003A206C6966696D6167656E616D6520694B
:1033C0007320656D7074790A0044656C657465647A
:1033D0003A20253130730A004C494620696D6167F7
:1033E000653A5B25735D206C6966206E616D653A98
:1033F0005B25735D206E6F7420666F756E640A00C6
:103400004C494620696D6167653A5B25735D2C20E8
:103410004C4946206E616D653A5B25735D0A006C10
:1034200069665F64656C5F66696C653A206C6966A5
:103430006E616D6520697320656D7074790A006C2A
:1034400069665F64656C5F66696C653A206C696685
:10345000696D6167656E616D6520697320656D706A
:1034600074790A0057726F74653A2025386C640AC3
:103470000057726F74653A2025386C640D004C4912
:103480004620696D6167653A5B25735D2C206E6F20
:103490007420656E6F75676820667265652073704D
:1034A00061636520666F723A5B25735D0A00466949
:1034B0006C65206E6F7420666F756E643A25730AB2
:1034C000004C494620696D6167653A5B25735D2C48
:1034D000204C4946206E616D653A5B25735D2C205A
:1034E000757365722066696C653A5B25735D0A00C9
:1034F0006C69665F6164643A207573657266696CB5
:103500006520697320656D7074790A006C69665F67
:103510006164643A206C69666E616D652069732030
:10352000656D7074790A006C69665F6164643A2045
:103530006C6966696D6167656E616D652069732090
:10354000656D7074790A0057726F74653A2025387A
:103550006C640A0057726F74653A2025386C640DEC
:103560000046696C65206E6F7420666F756E643AF4
:1035700025730A004C494620696D616765206E6FAE
:103580007420666F756E643A25730A0057726F7403
:10359000653A2025386C640A006C69665F6578744A
:1035A000726163745F653031305F61735F61736353
:1035B00069693A207772697465206572726F720A60
:1035C0000057726F74653A2025386C640D006C6981
:1035D000665F657874726163745F653031305F6116
:1035E000735F61736369693A2077726974652065F6
:1035F00072726F720A006C69665F657874726163DB
:10360000745F653031305F61735F61736369693A1C
:1036100020756E657870656374656420636F6E7481
:10362000726F6C20627974653A5B25303258485D60
:103630002040206F66667365743A2025386C782CBC
:1036400020696E643A25303258480A006C69665F1A
:10365000657874726163745F653031305F61735F88
:1036600061736369693A20737472696E6720746F5D
:103670006F206269672073697A65203D2025640A9E
:103680000045787472616374696E673A2025730A25
:103690000046696C65202573206861732077726F1E
:1036A0006E6720747970653A5B25303458485D2028
:1036B0006578706563746564203078453031302EEC
:1036C0002E3078453031330A004C49462046696C2B
:1036D00065206E6F7420666F756E643A25730A00FC
:1036E0004C494620696D616765206E6F7420666F76
:1036F000756E643A25730A0057726F74653A202517
:10370000386C640A0046696C6520536563746F7297
:10371000733A202020202025346C78480A0046691E
:1037200072737420536563746F723A2020202020D6
:1037300025346C78480A00496E6465783A20202068
:103740002020202020202020202534640A004E61E3
:103750006D653A20202020202020202020202020BD
:103760002025730A004E6577204469726563746F83
:10377000727920496E666F726D6174696F6E204157
:10378000465445522077726974650A004C494620B8
:10379000696D6167653A5B25735D2C206E6F7420DF
:1037A000656E6F756768206672656520737061630A
:1037B0006520666F723A5B25735D0A004C494620AE
:1037C000696D6167653A5B25735D2C204C49462025
:1037D0006E616D653A5B25735D2C20757365722093
:1037E00066696C653A5B25735D0A006C69665F61AA
:1037F00064645F61736369695F66696C655F617367
:103800005F653031303A207573657266696C65208A
:103810006E6F7420666F756E640A006C69665F6116
:1038200064645F61736369695F66696C655F617336
:103830005F653031303A207573657266696C65205A
:10384000697320656D7074790A006C69665F6164E4
:10385000645F61736369695F66696C655F61735F0B
:10386000653031303A206C69666E616D6520697330
:1038700020656D7074790A006C69665F6164645FCD
:1038800061736369695F66696C655F61735F653009
:1038900031303A206C6966696D6167656E616D658E
:1038A00020697320656D7074790A0057726F7465B2
:1038B0003A2025386C640D0057726F74653A2025E4
:1038C000386C640D0057726F74653A2025386C644B
:1038D0000D00457870656374656420736563746F6B
:1038E0007220626F756E6472792C206F66667365E4
:1038F000743A25640A006C69665F653031305F6434
:1039000061705F736563746F723A20657870656388
:1039100074656420736563746F7220626F756E6482
:1039200072793A206F66667365743A25640A006C92
:1039300069665F66696E645F66696C653A5B25738C
:103940005D206C69666C6162656C20746F6F2062CB
:1039500069670A006C69665F66696E645F66696CB8
:10396000653A5B25735D20696E76616C69642063DE
:103970006861726163746572730A0025386C642033
:103980004672656520736563746F72730A0025382B
:103990006C64205573656420736563746F72730A79
:1039A0000025386C64205075726765640A002538FC
:1039B0006C642046696C65730A000A00252D31305D
:1039C00073202025303458682020202020202538DE
:1039D0006C586820202025396C6425632020202025
:1039E000202025346420202025730A004C494620DD
:1039F0004469726563746F72793A5B25735D2077F1
:103A000061726E696E672046696C65427974657390
:103A10003A256C6420617320736563746F72733A26
:103A2000256C6420213D2046696C65536563746F85
:103A300072733A256C640A004E414D4520202020C7
:103A400020202020205459504520202053544152FA
:103A50005420534543544F52202020202020202022
:103A600053495A452020202052454353495A452066
:103A70002020444154450A00566F6C756D653A5BD1
:103A800025735D20446174653A5B25735D0A006CA3
:103A900069665F6F70656E5F766F6C756D653A5BBA
:103AA00025735D206572726F72206469726563743C
:103AB0006F727920636865636B206661696C656409
:103AC0000A006C69665F6F70656E5F766F6C756D0E
:103AD000653A5B25735D206572726F7220766F6C3C
:103AE000756D652076616C696461746520666169D5
:103AF0006C65640A006C69665F6F70656E5F766FF7
:103B00006C756D653A5B25735D206572726F72200E
:103B10007265616420766F6C756D6520686561649F
:103B20006572206661696C65640A006C69665F6F26
:103B300070656E5F766F6C756D653A5B25735D20A1
:103B40006572726F7220766F6C756D652068656145
:103B5000646572206172656120746F6F20736D619E
:103B60006C6C3A5B256C645D0A006C69665F6E651F
:103B7000776469723A20696E6465783A5B25645DA2
:103B800020616464696E672061743A5B256C645DD2
:103B9000746F207075726765642073706163653A35
:103BA0005B256C645D20736563746F72732C206693
:103BB0007265653A5B256C645D0A006C69665F6ED0
:103BC00065776469723A206E6F7420656E6F7567F1
:103BD0006820667265652073706163653A5B256C69
:103BE000645D0A006C69665F6E65776469723A208D
:103BF0006E6F7420656E6F756768206672656520EC
:103C000073706163653A5B256C645D20666F72203A
:103C100073697A653A5B256C645D0A006C69665F5E
:103C20007570646174655F667265653A5B25735D86
:103C3000206572726F722070726576696F7573207D
:103C40007265636F72642066696C6520617265617C
:103C5000206F7665726C6170732074686973206F71
:103C60006E653A5B25735D0A006C69665F63686523
:103C7000636B5F6469723A206572726F722C20699F
:103C80006E6465783A25640A006C69665F636865EE
:103C9000636B646972696E6465783A5B25735D2055
:103CA00064697265636F727920696E6465783A5BE6
:103CB00025645D206F7574206F6620626F756E6479
:103CC000730A0057726F74653A20256C640A0057B6
:103CD000726F74653A20256C640D0057726F7465BD
:103CE0003A20256C640D0057726F74653A20256C7C
:103CF000640D004C4946204469726563746F7279A3
:103D00003A5B25735D20696E76616C69642073652A
:103D100063746F722073697A653A256C640A004C8B
:103D20004946204469726563746F72793A5B257302
:103D30005D20696E76616C69642046696C654279C4
:103D4000746573203D3D20300A004C49462044698B
:103D5000726563746F72793A5B25735D2077617267
:103D60006E696E672046696C6542797465733A25A1
:103D70006C6420617320736563746F72733A256C91
:103D800064203C2046696C65536563746F72733AB6
:103D9000256C640A004C4946204469726563746F5F
:103DA00072793A5B25735D20696E76616C69642077
:103DB00046696C6542797465733A256C6420617359
:103DC00020736563746F72733A256C64203E2046DD
:103DD000696C65536563746F72733A256C640A008D
:103DE0004C4946204469726563746F72793A5B2569
:103DF000735D20696E76616C696420566F6C756DB9
:103E000065204E756D6265723A2558680A004C4906
:103E100046204469726563746F72793A5B25735DFD
:103E200020696E76616C696420656E6420736563D9
:103E3000746F723A256C5868203E20746F74616C00
:103E400020736563746F72733A256C58680A004C6E
:103E50004946204469726563746F72793A5B2573D1
:103E60005D20696E76616C69642073746172742080
:103E7000736563746F723A256C5868203C206669DC
:103E80006520617265612073746172743A256C58A3
:103E9000680A004C4946204469726563746F727900
:103EA0003A5B25735D20696E76616C6964204E61B2
:103EB0006D650A004C494620566F6C756D6520692A
:103EC0006E76616C69642066696C652073746172DA
:103ED00074203E20696D6167652073697A650A0008
:103EE0004C494620566F6C756D6520696E76616C25
:103EF0006964204469726563746F727920536563E5
:103F0000746F7220436F756E74203C20310A004C30
:103F1000494620566F6C756D6520696E76616C69D7
:103F20006420737461727420736563746F723A25D0
:103F30006C640A004C494620566F6C756D652069AB
:103F40006E76616C69642062797465732061742097
:103F50006F66667365742032322632332073686F61
:103F6000756C64206265207A65726F0A004C494660
:103F700020566F6C756D6520696E76616C69642082
:103F80006279746573206174206F6666736574204E
:103F900031342631352073686F756C64206265207A
:103FA0007A65726F0A004C49462056657273696FD4
:103FB0006E3A202530345848203E20310A004C49C2
:103FC0004620566F6C756D6520696E76616C69640C
:103FD0002053797374656D33303030204944202884
:103FE00025303458482920657870656374656420ED
:103FF00031303030480A004C494620566F6C756DA0
:104000006520696E76616C696420566F6C756D65AC
:10401000204E616D65000A004449522046696C6576
:1040200020446174653A2020202020202020257320
:104030000A004449522046696C6520736563746FB9
:10404000722073697A653A20253858680A00444915
:10405000522046696C652062797465733A2020208D
:104060002020202025386C58680A004449522046F8
:10407000696C6520736563746F72733A2020202029
:104080002025386C58680A004449522046696C65FE
:104090002073746172743A2020202020202025385B
:1040A0006C58680A004449522046696C6520566F76
:1040B0006C756D65233A2020202020253858680A29
:1040C000004449522046696C6520547970653A2055
:1040D00020202020202020253858680A00444952FA
:1040E0002046696C65204E616D653A2020202020B5
:1040F00020202025730A00564F4C20446174653AF5
:104100002020202020202020202020202025730A6D
:1041100000564F4C204C494656657273696F6E3A93
:1041200020202020202020253858680A00564F4C97
:1041300020333030304C494669643A20202020201A
:10414000202020253858680A00564F4C20446972B8
:1041500020736563746F72733A202020202020251D
:10416000386C58680A00564F4C20446972207374AA
:104170006172743A202020202020202025386C589D
:10418000680A00564F4C204C494669643A2020206A
:10419000202020202020202020253858680A005682
:1041A0004F4C204C6162656C3A202020202020205A
:1041B000202020202025730A004C4946207075726B
:1041C0006765643A20202020202020202020202500
:1041D000386C58680A004C49462066696C65733A29
:1041E00020202020202020202020202025386C582E
:1041F000680A004C494620667265653A20202020F6
:1042000020202020202020202025386C58680A00FB
:104210004C494620757365643A20202020202020D8
:1042200020202020202025386C58680A004C494660
:104230002066696C6520736563746F72733A202021
:1042400020202025386C58680A004C4946206669B1
:104250006C6573746172743A202020202020202025
:1042600025386C58680A004C494620627974657399
:104270003A20202020202020202020202025386CBB
:1042800058680A004C494620736563746F72733A2C
:104290002020202020202020202025386C58680A4B
:1042A000004C4946206E616D653A20202020202078
:1042B0002020202020202025730A000A25730A00D0
:1042C0006C69665F77726974653A205772697465C4
:1042D0003A5B25735D206F66667365743A5B256C87
:1042E000645D2077726974653A5B25645D2065784A
:1042F0007065637465643A5B25645D0A006C696689
:104300005F726561643A20726561643A5B25735D32
:10431000206F66667365743A5B256C645D20777206
:104320006974653A5B256C645D20657870656374BB
:1043300065643A5B25645D0A006C69665F7265615D
:10434000645F6D73673A202573205365656B206544
:1043500072726F7220256C640A006C69665F7374F8
:1043600061743A2043616E277420737461743A2536
:10437000730A006C69665F6F70656E3A2043616E08
:104380002774206F70656E3A5B25735D206D6F64D6
:10439000653A5B25735D0A006C69665F66726565E8
:1043A0003A204E554C4C20706F696E7465720A004D
:1043B0006C69665F63616C6C6F633A5B256C645D0E
:1043C000206E6F7420656E6F756768206672656514
:1043D000206D656D6F72790A006C69662061646496
:1043E000206C6966696D616765206C69666E616DD8
:1043F000652066726F6D5F61736369695F66696C82
:10440000650A6C69662061646462696E206C696625
:10441000696D616765206C69666E616D65206672A5
:104420006F6D5F6C69665F66696C650A6C696620B2
:10443000637265617465206C6966696D616765208A
:104440006C6162656C206469726563746F72795F18
:10445000736563746F727320736563746F72730A2C
:104460006C69662064656C206C6966696D6167655E
:10447000206E616D650A6C696620646972206C69E2
:1044800066696D6167650A6C69662065787472613A
:104490006374206C6966696D616765206C69666E1E
:1044A000616D6520746F5F61736369695F66696CD4
:1044B000650A6C6966206578747261637462696EFE
:1044C000206C6966696D616765206C69666E616DF7
:1044D0006520746F5F6C69665F66696C650A202091
:1044E0002020657874726163747320612066696C42
:1044F0006520696E746F2061207369676C65206642
:10450000696C65204C494620696D6167650A6C6974
:10451000662072656E616D65206C6966696D6167A4
:1045200065206F6C646C69666E616D65206E657781
:104530006C69666E616D650A557365202D64206136
:1045400066746572206669727374206B6579776F23
:10455000726420276C6966272061626F7665206629
:104560006F72204C49462066696C65737973746577
:104570006D20646562756767696E670A0A006C6919
:10458000662068656C700A005374617274696E67A6
:104590002047504942205441534B0A0064656275DC
:1045A000676C6576656C2020203D20253034784886
:1045B0000A004750494220537461746520696E694E
:1045C0007420646F6E650A00475049422046696C4A
:1045D0006520696E697420646F6E650A00475049F2
:1045E000422054696D657220696E697420646F6E33
:1045F000650A00475049422054696D657220536531
:104600007475700A005072696E74657220496E6923
:104610007420646F6E650A00696E697469616C6903
:104620007A696E672047504942206275730A0053C9
:10463000595354454D5F5441534B5F434F554E546E
:1046400045525F5245533A256C640A00436C6F63D0
:104650006B20636C65617265640A00696E697469D8
:10466000616C697A696E6720493243206275730A0A
:1046700000696E697469616C697A696E672053506C
:1046800049206275730A002020204C6173742075E4
:104690007064617465642066696C653A2025730AEC
:1046A00000202020474954206C617374207075737A
:1046B0006865643A20202025730A002D3E20687426
:1046C0007470733A2F2F6769746875622E636F6D0B
:1046D0002F6D61676F72652F687038356469736B11
:1046E0000A0020474E552076657273696F6E20333D
:1046F0000A002028432920323031342D3230323024
:10470000206279204D696B6520476F72650A004809
:10471000503835204469736B20616E64204465769F
:1047200069636520456D756C61746F720A0052652E
:10473000717565737465642042617564205261749B
:10474000653A20256C642C2041637475616C3A20B5
:10475000256C640A0043505520436C6F636B203D09
:1047600020256C750A0053746172740A00457272D8
:104770006F723A5B25735D0A000A3E0064656C61E6
:10478000795F74657374730A74696D650A7365740F
:10479000646174650A6D656D0A0A004D792064656F
:1047A0006C6179730A0053797374656D2064656C6C
:1047B0006179730A000A002020204C61737420750F
:1047C0007064617465642066696C653A2025730ABB
:1047D00000202020474954206C6173742070757349
:1047E0006865643A20202025730A002D3E206874F5
:1047F0007470733A2F2F6769746875622E636F6DDA
:104800002F6D61676F72652F687038356469736BDF
:104810000A0020474E552076657273696F6E20330B
:104820000A002028632920323031342D32303230D2
:10483000206279204D696B6520476F72650A0048D8
:10484000503835204469736B20616E64204465766E
:1048500069636520456D756C61746F720A005374ED
:10486000616E6420616C6F6E652076657273696F2E
:104870006E206F66204C4946207574696C697469B6
:10488000657320666F72206C696E75780A0011245A
:104890001FBECFEFD0E4DEBFCDBF17E1A0E0B1E097
:1048A000ECE1FCED01E00BBF02C007900D92AE30D1
:1048B000B107D9F72EE1AEE0B7E101C01D92A13EEC
:1048C000B207E1F70E94DEE60C940CEE0C940000B7
:1048D0002F923F924F925F926F927F928F929F9210
:1048E000AF92BF92CF92DF92EF92FF920F931F93FE
:1048F000CF93DF93CDB7DEB760970FB6F894DEBFE6
:104900000FBECDBF7C011B016A01FC01178216821C
:10491000838181FF44C39E012F5F3F4F3901F7011F
:104920009381F10193FD859193FF81911F0188236C
:1049300009F431C3853239F493FD859193FF819158
:104940001F01853239F4B70190E00E947C7856014E
:104950006501E5CF10E0512C912CFFE1F915D8F05D
:104960008B3279F038F4803279F08332A1F4F92D6A
:10497000F0612EC08D3261F0803369F4292D216001
:104980002DC0392D3260932E892D8460982E2AC037
:10499000E92DE86015C097FC2DC020ED280F2A30C6
:1049A00088F496FE06C03AE0139F200D1124122FC2
:1049B00019C08AE0589E200D1124522EE92DE06284
:1049C0009E2E10C08E3231F496FCE5C2F92DF064B3
:1049D0009F2E08C08C3621F4292D2068922E02C00B
:1049E000883641F4F10193FD859193FF81911F0178
:1049F0008111B3CF9BEB980F933020F4992D9061E8
:104A0000805E07C09BE9980F933008F066C1992D2E
:104A10009F7E96FF16E09F73992E853619F4906459
:104A2000992E08C0863621F4392F3068932E02C0A3
:104A30001111115097FE07C01C3350F444244394C5
:104A4000410E27E00BC0183038F027E017E005C012
:104A500027E09CE3492E02C0212F412C560184E01F
:104A6000A80EB11CF6016081718182819381042DB1
:104A7000A3010E94B9EC6C01F981FC87F0FF02C030
:104A8000F3FF06C091FC06C092FE06C000E205C01E
:104A90000DE203C00BE201C000E08C858C7019F0C0
:104AA00001115AC29BC297FE10C04C0CFC85F4FF4A
:104AB00004C08A81813309F44A94141474F528E0FF
:104AC000241578F588E0482E2CC096FC2AC0812F4A
:104AD00090E08C159D059CF03CEFC3163FEFD3068C
:104AE00074F0892D8068982E0AC0E2E0F0E0EC0FA7
:104AF000FD1FE10FF11D8081803319F41150111158
:104B0000F4CF97FE0EC044244394410E812F90E0D1
:104B1000C816D9062CF41C1904C04424439401C0BF
:104B200010E097FE06C01C141D0434F4C601019663
:104B300005C085E090E002C081E090E0011101969F
:104B4000112331F0212F30E02F5F3F4F820F931F51
:104B5000252D30E08217930714F4581A01C0512C08
:104B6000892D897049F4552039F0B70180E290E031
:104B70000E947C785A94F7CF002329F0B701802F48
:104B800090E00E947C7893FC09C0552039F0B70171
:104B900080E390E00E947C785A94F7CF97FE4CC057
:104BA0004601D7FE02C0812C912CC60188199909B3
:104BB000F301E80FF91FFE87ED87960124193109EB
:104BC000388B2F87012F10E01195019511093FEFC8
:104BD0008316930629F4B7018EE290E00E947C7858
:104BE000C814D9044CF08F8598898815990524F448
:104BF000ED85FE85818101C080E3F1E08F1A910887
:104C00002D853E852F5F3F4F3E872D87801691066D
:104C10002CF0B70190E00E947C78D9CFC814D90459
:104C200041F49A81963320F4953319F43C8534FF8E
:104C300081E3B70190E04EC08A81813319F09C85F1
:104C40009F7E9C87B70190E00E947C78111105C07F
:104C500094FC18C085E690E017C0B7018EE290E0A2
:104C60000E947C781E5F82E001E0080FF301E80FEC
:104C7000F11D8081B70190E00E947C78802F0113A4
:104C8000F3CFE6CF85E490E0B7010E947C78D7FCB3
:104C900006C0C114D10441F4EC85E4FF05C0D194F1
:104CA000C194D1088DE201C08BE2B70190E00E946F
:104CB0007C7880E32AE0C216D1042CF08F5FFAE002
:104CC000CF1AD108F7CFB70190E00E947C78B701E6
:104CD000C601C0960E947C7854C1833631F0833778
:104CE00079F0833509F056C020C0560132E0A30E9A
:104CF000B11CF6018081898301E010E0630112C0DC
:104D00005601F2E0AF0EB11CF601C080D18096FED4
:104D100003C0612F70E002C06FEF7FEFC6010E94F9
:104D2000A3ED8C01F92DFF7714C0560122E0A20EED
:104D3000B11CF601C080D18096FE03C0612F70E0E7
:104D400002C06FEF7FEFC6010E9491ED8C01F92D3B
:104D5000F0689F2EF3FD1AC0852D90E00817190703
:104D6000A8F4B70180E290E00E947C785A94F4CFD6
:104D7000F60197FC859197FE81916F01B70190E054
:104D80000E947C7851105A940150110901151105A7
:104D900079F7F7C0843611F0893661F5560197FE30
:104DA00009C024E0A20EB11CF601608171818281EC
:104DB00093810AC0F2E0AF0EB11CF60160817181EF
:104DC000072E000C880B990BF92DFF769F2E97FF6D
:104DD00009C090958095709561957F4F8F4F9F4F3B
:104DE000F0689F2E2AE030E0A3010E94AEEDC82EAD
:104DF000C6183FC0092D853721F40F7E2AE030E028
:104E00001DC0097F8F3691F018F4883559F0C3C062
:104E1000803719F0883711F0BEC0006104FF09C067
:104E2000046007C094FE08C0066006C028E030E0B9
:104E300005C020E130E002C020E132E0560107FF6A
:104E400009C084E0A80EB11CF601608171818281E5
:104E5000938108C0F2E0AF0EB11CF6016081718150
:104E600080E090E0A3010E94AEEDC82EC6180F7737
:104E7000902E96FE0BC0092D0E7FC11650F494FEA5
:104E80000AC092FC08C0092D0E7E05C0DC2C092D3D
:104E900003C0DC2C01C0D12E04FF0DC0FE01EC0DBF
:104EA000F11D8081803311F4097E09C002FF06C024
:104EB000D394D39404C0802F867809F0D39403FD53
:104EC00011C000FF06C01C2DD51480F4150D1D194E
:104ED0000DC0D51458F4B70180E290E00E947C78B0
:104EE000D394F7CFD51410F45D1801C0512C04FFF2
:104EF00010C0B70180E390E00E947C7802FF17C0E9
:104F000001FD03C088E790E002C088E590E0B701AA
:104F10000CC0802F867859F001FF02C08BE201C0DF
:104F200080E207FD8DE2B70190E00E947C78C11617
:104F300038F4B70180E390E00E947C781150F7CFFD
:104F4000CA94F301EC0DF11D8081B70190E00E943D
:104F50007C78C110F5CF15C0F4E0F51560F584E05C
:104F6000581A93FE1FC0011127C02C8523FF2AC0A9
:104F700000ED11E0392D3071932EF80184918111EB
:104F800024C0552009F4E4CCB70180E290E00E94EF
:104F90007C785A94F6CFF7018681978126C08FEFEF
:104FA0009FEF23C0B70180E290E00E947C785A9482
:104FB0005110F8CFD8CF512CB701802F90E00E942C
:104FC0007C78D3CF04ED11E0D5CF91108052B7019A
:104FD00090E00E947C780F5F1F4FCFCF23E0251514
:104FE00010F483E0BDCF512CC0CF60960FB6F8947B
:104FF000DEBF0FBECDBFDF91CF911F910F91FF900C
:10500000EF90DF90CF90BF90AF909F908F907F9068
:105010006F905F904F903F902F900895E82FE69506
:10502000E695E69593E0E99FF001112432A1282F3F
:10503000277081E090E001C0880F2A95EAF7982F49
:105040009095932392A391A1892B81A30895E82F92
:10505000E695E695E69593E0E99FF001112432A1EB
:10506000282F277081E090E001C0880F2A95EAF789
:10507000932F982B92A391A1892B81A30895E7CF19
:105080000895CF93C82F809104018C17A9F08F3F0A
:1050900099F01F92CF931F928F9382ED92E01F920F
:1050A0009F938F930E94C2448DB79EB707960FB609
:1050B000F8949EBF0FBE8DBF8C2FC9DF8FEF8093FA
:1050C0000401CF9108957AC40895A2C40895A1E07F
:1050D000B0E0EDE6F8E20C94D1E8898361E070E09D
:1050E000CE0101966BD42196E2E00C94EDE8CF92CC
:1050F000DF92EF92FF926B017C01842FA8DF8FEF8C
:1051000080930401C701B60134D480E090E0F5D368
:105110008FEFDDDFC0920001D0920101E092020129
:10512000F0920301FF90EF90DF90CF900895CF921F
:10513000DF92EF92FF92CF93DF936B017C01EA0144
:10514000809104018F3F99F0DF934F931F928F93CB
:1051500080EF92E01F929F938F930E94C2448DB77D
:105160009EB707960FB6F8949EBF0FBE8DBF809175
:10517000000190910101A0910201B09103018C15F1
:105180009D05AE05BF0521F0AE01C701B601AFDF39
:105190008C2F44DFC0930401DF91CF91FF90EF90FB
:1051A000DF90CF900895A1E0B0E0E9EDF8E20C9433
:1051B000D1E8898361E070E0CE01019613D4898142
:1051C0002196E2E00C94EDE8A2E0B0E0EAEEF8E22D
:1051D0000C94D1E82091DD1E3091DE1E21153105A1
:1051E00011F421EE3EE1CE010196821B930B229633
:1051F000E2E00C94EDE8A2E0B0E0E1E0F9E20C942A
:10520000D1E8E2DF89839A839F938F9387E194E0CB
:105210001F929F938F930E94C2448FEF90E49F93BD
:105220008F9384E094E01F929F938F930E94C244D7
:10523000CE0101969F938F9381EF93E01F929F93EE
:105240008F930E94C24481EE9EE19F938F938EE0E4
:1052500097E19F938F9383ED93E01F929F938F939A
:105260000E94C2448EE097E19F938F9380E091E08B
:105270009F938F9385EB93E01F929F938F930E9450
:10528000C24480E090E09F938F9381EE9EE19F93D4
:105290008F9387E993E01F929F938F930E94C2445C
:1052A0000FB6F894DEBF0FBECDBF809149028F9339
:1052B000809148028F9380914B028F9380914A0294
:1052C0008F9389E793E01F929F938F930E94C2442C
:1052D0008091DE1E8F938091DD1E8F9385E693E093
:1052E0001F929F938F930E94C2440FB6F894DEBF23
:1052F0000FBECDBF2296E2E00C94EDE8EF92FF9254
:105300000F931F93CF93DF93182F092FF62EE72EBD
:105310000E947EEBEC01892B99F4EF92FF920F93A0
:105320001F938AE493E01F929F938F930E94C2443D
:105330008DB79EB707960FB6F8949EBF0FBE8DBF70
:10534000CE01CDB7DEB7E6E00C94E9E80F931F93EA
:10535000CF93DF93182F092F61E070E00E947EEB5E
:10536000EC01892B71F40F931F9382E393E01F925A
:105370009F938F930E94C2440F900F900F900F90B5
:105380000F90CE01DF91CF911F910F91089500975B
:1053900039F12091DD1E3091DE1E2115310511F409
:1053A00021EE3EE14EE1813E940730F028173907A7
:1053B00018F00C9430EC08953F932F939F938F93A4
:1053C0008DE093E01F929F938F930E94C24413DF5E
:1053D0008DB79EB707960FB6F8949EBF0FBE8DBFD0
:1053E0000895643671058105910558F06456710978
:1053F00081099109E3EFF1E03197F1F700C0000076
:10540000F0CF6A3071058105910548F06A50710945
:1054100081099109F2E4FA95F1F700C0F2CF611524
:1054200071058105910549F0615071098109910962
:1054300026E02A95F1F700C0F2CF089561157105B5
:105440008105910509F441C0E3EFF1E03197F1F7EF
:1054500000C00000E3EFF1E03197F1F700C0000079
:10546000E3EFF1E03197F1F700C00000E3EFF1E086
:105470003197F1F700C00000E3EFF1E03197F1F769
:1054800000C00000E3EFF1E03197F1F700C0000049
:10549000E3EFF1E03197F1F700C00000E3EFF1E056
:1054A0003197F1F700C00000E3EFF1E03197F1F739
:1054B00000C00000E3EFF1E03197F1F700C0000019
:1054C0006150710981099109B9CF08954F925F9296
:1054D0006F927F928F929F92AF92BF92CF92DF9204
:1054E000EF92FF92CF93DF935A01E9010E941CEAE9
:1054F0002B013C0120E030E040E051E40E94D2EA80
:105500009B01AC0160E876E988E99BE40E9483E9AD
:1055100020E030E040E85FE30E941AE90E9435EBAA
:105520000E94F0E96B017C01C11480E1D806E1041E
:10553000F10458F481E090E0F50191838083812C9F
:10554000912CA12C21E4B22E31C0F50111821082E0
:1055500020E030E040E851E4C301B2010E94D2EA09
:105560009B01AC0160E876E988E99BE40E9483E94D
:1055700020E030E040E85FE30E941AE90E9435EB4A
:105580000E94F0E96B017C01812C912C90E8A92EFE
:1055900091E4B92EC114F0E1DF06E104F10430F02A
:1055A000CC24CA948FE0D82EE12CF12CC701B6018F
:1055B0006F5F7F4F8F4F9F4F0E941CEAA5019401A0
:1055C0000E94D2EA9B01AC0160E876E988E99BE49D
:1055D0000E9483E90E94F0E9688379838A839B8330
:1055E000C601DF91CF91FF90EF90DF90CF90BF90F9
:1055F000AF909F908F907F906F905F904F900895A5
:10560000A6E0B0E0E6E0FBE20C94D1E81E821D8249
:10561000811136C0CB01BA019E012F5F3F4FAE0111
:105620004B5F5F4F53DFF8941092A8191092A7199F
:105630001092A4191092A5191092A6191092A919E6
:105640007894F894589A599A5098519A28E9209346
:10565000C1002D813E81232B19F022E02093C00050
:105660009093C5008093C400789465EF7BE28AE054
:105670009CE20E94E37B69817A818B819C8103C0DB
:1056800060E070E0CB012696E2E00C94EDE827E5BF
:10569000829FC0011124FC01EC55F64E8381948158
:1056A0008035910584F4308121E0230F2083DF01D0
:1056B000A30FB11D16966C930196948383832035B6
:1056C00028F01082089585818160858308951F9256
:1056D0000F920FB60F9211240BB60F922F933F9398
:1056E0004F935F936F937F938F939F93AF93BF93EA
:1056F000EF93FF936091C60080E0C9DFFF91EF91C7
:10570000BF91AF919F918F917F916F915F914F91D9
:105710003F912F910F900BBE0F900FBE0F901F90D7
:105720001895811107C0F8948091A7199091A81934
:10573000789408958FEF9FEF0895811121C080E044
:10574000F0DF18161906DCF7F894E091A51991E03E
:105750009E0F9093A519F0E0EC55F64E868190359A
:1057600010F01092A5192091A7193091A819215075
:1057700031093093A8192093A719789490E00895DF
:105780008FEF9FEF0895D9DF99270895611109C020
:105790002091C00025FFFCCF282F2F772093C60033
:1057A0000895613049F42091C80025FFFCCF282FCF
:1057B0002F772093CE0008958FEF9FEF0895CF931A
:1057C00081110FC0E0DFC82F60E090E0DFDFCD3057
:1057D00029F460E08AE090E0D9DFCAE08C2F90E005
:1057E00002C08FEF9FEFCF91089580E0E8CF08953A
:1057F0001F93CF93DF93EC01162FC8DFCA30D1057A
:1058000021F4612F8DE090E0C1DFCE01DF91CF91D7
:105810001F910895CF93DF93EC0160E070E0E8DF23
:10582000CE01DF91CF9108957CCF0895CF92DF9282
:10583000EF92FF926B017C018091101790911117EC
:10584000A0911217B09113178C159D05AE05BF05D9
:1058500009F44EC060E07DE281E391E0A70196018A
:105860000E9454E8203831054105510528F42034C0
:1058700031054105510530F08DB58E7F8DBD8CB55C
:1058800082601BC08DB5203231054105510528F0DD
:1058900081608DBD8CB582601FC02031310541050E
:1058A000510510F08E7F06C02830310541055105A5
:1058B00040F081608DBD8CB58D7F8CBD8CB58160D5
:1058C0000EC0243031054105510510F08E7F01C016
:1058D00081608DBD8CB58D7F8CBD8CB58E7F8CBD70
:1058E000C0921017D0921117E0921217F09213176E
:1058F000FF90EF90DF90CF900895CF93DF93EC016E
:105900008130910571F02CF4892BC1F48CB5877F1F
:1059100011C08230910561F0039781F48CB58860E5
:1059200002C08CB5877F8CBD8CB584608CBD14C0E3
:105930008CB588608CBD8CB58B7FF8CFDF93CF930F
:1059400084E294E01F929F938F930E94C2440F9031
:105950000F900F900F900F90D0930F17C0930E17CA
:10596000DF91CF9108958EBD0DB407FEFDCF8EB5AA
:105970000895CF92DF92EF92FF926B017C012C9AF7
:10598000249A6AE070E080E090E02BDD2F9A279A5D
:105990002D9A259A26988CB580648CBD8CB5806133
:1059A0008CBD80E090E0A9DFC701B6013FDF8FEF3B
:1059B000DADFFF90EF90DF90CF9008950F931F9361
:1059C000CF93DF938C01EB011C161D0634F4F80114
:1059D00081918F01C8DF2197F7CFDF91CF911F9180
:1059E0000F9108950F931F93CF93DF938C01EB01D9
:1059F0001C161D0644F4F8018081B5DFF80181937F
:105A00008F012197F5CFDF91CF911F910F910895CD
:105A10000F931F93CF93DF938C01EB011C161D0690
:105A20003CF48FEFA0DFF80181938F012197F6CF2F
:105A3000DF91CF911F910F910895409A419AECEB1D
:105A4000F0E09081946090838093B9006093B800F7
:105A5000089594EA9093BC0024E6629FB00111245B
:105A6000615071099B0140E050E0E4EA2F3F9FEF55
:105A7000390741F141155105F1F49091BC0097FFB0
:105A800013C09091B900987F903161F0983339F04C
:105A9000983041F084E08093BC0081E00895E09369
:105AA000BC0006C041E050E092E49A95F1F700C0D6
:105AB00021503109DBCF232B29F484E08093BC00F3
:105AC00082E008958093BB0084E88093BC006F3F20
:105AD0008FEF780771F02091BC00CB01019727FD73
