:100000000C9401240C9420240C9420240C9420247F
:100010000C9420240C9420240C9420240C94202450
:100020000C9420240C9420240C9420240C94202440
:100030000C9420240C94AF310C9420240C94202494
:100040000C9420240C9420240C9420240C94202420
:100050000C94D0270C9420240C9420240C9420245D
:100060000C9420240C9420240C94D22B0C94202447
:100070000C9420240C9420240C9420240C942024F0
:100080000C9420240C9420240C942024DF412F4332
:100090001742024302432F432F432F432F432F4343
:1000A0002F432F432F43DF41DC412F432F43254371
:1000B0002F4311422F432F43DF412F432F432F4321
:1000C0002F432F432F432F432F432F43DF412A43F7
:1000D0001742024302432F432F432F432F432F4303
:1000E0002F432F432F43DF41DC412F432F43204336
:1000F0002F4311422F432F43DF415443954447433D
:10010000AF43934395449544954495449544954411
:100110009544954461437543954495443B449544C7
:10012000434395449544754395449544954495447B
:10013000954495449544954495445443E34347433B
:10014000AF439343954495449544954495449544D1
:10015000954495446143754395449544E3439544E0
:100160004343954495447543A468AE68B668B9683E
:10017000BC68BF68C268C568C86872867B86AC8682
:10018000C586E186EE860A8734871787449B169CCE
:10019000529C819C919CAE9C0E9D1D9E1D9E1D9E01
:1001A000429D6E9DBC9DD89DE19BF49BE5BAA4BA8F
:1001B000A4BAA4BAA4BA68BA6FBA76BA86BA94BA1C
:1001C0008DBA63735F64697361626C652077617374
:1001D0003A2025642C2077616E743A2025640A0049
:1001E00063735F656E61626C65207761733A202589
:1001F000642C2077616E743A2025640A007361666E
:1002000065667265653A2046524545204552524F13
:100210005220282575292C20746F703A28257529BD
:100220000A00736166656D616C6C6F6328256429D3
:10023000206661696C6564210A00736166656361AB
:100240006C6C6F632825642C256429206661696CB9
:100250006564210A0020205F5F62726B76616C3AF0
:10026000202020202535750A0020204D616C6C6F00
:1002700063207374617274202535752020656E6467
:100280003A202535750A002020486561703A2073B0
:10029000746172743A202535752C20656E643A209D
:1002A0002535750A00202044617461202073746133
:1002B00072743A202535752C20656E643A202535F8
:1002C000750A0020204253532020207374617274F9
:1002D0003A202535752C20656E643A202535750A3F
:1002E000002020537461636B20467265653A2020BC
:1002F00025750A002020537461636B20546F703A97
:1003000020202025750A00467265652052616D3AED
:1003100025750A00535049305F4D6F64653A204996
:100320006E76616C6964206D6F6465282564290AA6
:10033000000A007461736B3A2025640A0069326315
:100340005F7461736B2E6572726F723A2025640A56
:10035000006932635F7461736B2E646F6E653A205F
:1003600025640A000A00202054575F4D545F444121
:1003700054415F4E41434B0A00202054575F4D5477
:100380005F534C415F4E41434B0A00202054575F5E
:100390004D525F534C415F4E41434B0A0020204F6A
:1003A000505F4552524F520A0020204F505F4C453B
:1003B0004E0A0020204F505F54494D454F55540A76
:1003C00000202025730A006932635F74696D6572CD
:1003D00020696E6974206661696C65640A0069321F
:1003E000635F696E6974207072657363616C652008
:1003F0006F766572666C6F770A00493243206F70C2
:100400005B25645D2D3E6C656E203D3D20300A000D
:10041000493243206F705B25645D2D3E6275662016
:100420003D3D204E554C4C0A00493243206F705BD5
:10043000494E444558202564203E3D2025645D0AF0
:10044000007274635F696E697420207772697465E5
:100450002065706F6368206661696C65640A00726C
:1004600074635F72756E207772697465206572724D
:100470006F720A007274635F72756E2072656164D8
:10048000206572726F720A007274635F72656164D4
:10049000206572726F720A007274635F777269749A
:1004A00065206572726F720A006932635F727463ED
:1004B0005F726561642064617461206572726F723D
:1004C0000A006932635F7274635F72656164206100
:1004D000646472657373206572726F720A006932A8
:1004E000635F7274635F77726974652064617461BD
:1004F000206572726F720A002573206578706563DB
:1005000074656420256420617267756D656E74730F
:10051000206F6E6C7920676F742025640A003D3D62
:100520003D3D3D3D3D3D3D3D3D3D3D3D3D3D3D3DFB
:100530003D3D3D3D3D3D3D3D3D3D3D3D0A00546918
:100540006D65727320656E61626C65640A00436C50
:100550006F636B20496E7374616C6C65640A004351
:100560006C6F636B207461736B20696E69742066B5
:1005700061696C65640A00436C6F636B20496E6946
:10058000740A0054696D65727320636F6E666967E3
:10059000757265640A0054696D65727320696E69CD
:1005A000742063616C6C65640A005B54696D653A24
:1005B00025735D0A005B25732054696D653A2573C8
:1005C0005D0A00256C642E2530396C6400736574F7
:1005D0005F74696D6572733A204E6F206D6F72653E
:1005E0002074696D657273210A00636C6B207469F5
:1005F0006D653A2020202025730A00636C6B207300
:1006000065636F6E64733A20256C750A005254431B
:100610002072656164206661696C65640A007274A9
:10062000632074696D653A2020202025730A0072CA
:100630007463207365636F6E64733A20256C750A6A
:1006400000757365207365746461746520636F6DF4
:100650006D616E6420746F206368616E67652074DD
:10066000696D650A00727463207265616420657249
:10067000726F72616674657220696E69740A0072C5
:10068000746320666F72636520696E6974206661A9
:10069000696C65640A00617474656D7074696E6775
:1006A0002072746320696E69740A00727463207525
:1006B0006E696E6974696C697A65640A0072746344
:1006C00020666F72636520696E6974206661696C6B
:1006D00065640A00696E76616C6964206D696E3AC2
:1006E0002025640A00696E76616C696420686F7504
:1006F000723A2025640A00696E76616C6964206430
:1007000061793A2025640A00696E76616C6964201B
:100710006D6F6E3A2025640A00696E76616C6964BB
:1007200020796561723A2025640A00456E7465720D
:1007300020646174652059595959204D4D20444415
:100740002048483A4D4D3A5353203E00257320250A
:10075000732025326420253032643A253032643AE1
:1007600025303264202534640073656C6563742021
:100770006661696C6564210A00454E44204D4D4315
:1007800020494E49540A004D4D4320426C6F636B23
:100790002053697A653A20256C640A004D4D432048
:1007A000426C6F636B2053697A65202D20726561FE
:1007B00064206661696C65640A002C20436F64657F
:1007C00020706167653A2025750A004C464E204529
:1007D0006E61626C6564004D4D432043617264201C
:1007E000496E7365727465640A002A2A2A204D4D89
:1007F000432043617264204E4F5420496E736572EA
:1008000074656421202A2A2A0A0053544152542034
:100810004D4D4320494E49540A004D4D4320544903
:100820004D454F55540A004D4D4320436C6F636B4B
:10083000207461736B20696E6974206661696C65F0
:10084000640A000A0025732025752F253032752F84
:100850002530327520253032753A25303275202505
:10086000396C752025730066617466735F66696C08
:10087000696E666F5F6C6973743A20656D70747928
:100880000A0025752066696C65732C20256C75201F
:1008900062797465732E0A257520666F6C646572C3
:1008A000732E0A256C75204B4220746F74616C2086
:1008B0006469736B2073706163652E0A256C752003
:1008C0004B4220617661696C61626C652E0A00564C
:1008D0006F6C756D6520532F4E2020202020202026
:1008E000202020202020203D20253034582D253068
:1008F00034580A00566F6C756D65206E616D652009
:100900002020202020202020202020203D20257372
:100910000A004461746120737461727420286C62EF
:10092000612920202020202020203D20256C750AD0
:100930000044495220737461727420286C62612CE7
:10094000636C7573746F7229203D20256C750A00E5
:1009500046415420737461727420286C62612920AE
:1009600020202020202020203D20256C750A004ECC
:10097000756D626572206F6620636C757374657245
:10098000732020202020203D20256C750A0053650F
:1009900063746F72732F4641542020202020202042
:1009A0002020202020203D20256C750A00526F6FEA
:1009B000742044495220656E74726965732020204A
:1009C00020202020203D2025750A004E756D62658F
:1009D00072206F6620464154732020202020202062
:1009E0002020203D2025750A0042797465732F432D
:1009F0006C75737465722020202020202020202018
:100A0000203D20256C750A0046415420747970659C
:100A100020202020202020202020202020202020D6
:100A20003D2025730A0066617466732073746174D7
:100A300075733A25730A0072633D25750A002C20F0
:100A40002531306C754B2062797465732066726550
:100A5000650A002534752046696C652873292C25A4
:100A600031306C7520627974657320746F74616CB9
:100A70000A25347520446972287329004C697374FF
:100A8000696E673A5B25735D0A003D3D3D3D3D3D26
:100A90003D3D3D3D3D3D3D3D3D3D3D3D3D3D3D3D86
:100AA0003D3D3D3D3D3D3D3D0A00454E44204D4DC3
:100AB0004320544553540A004D4D43204469726508
:100AC00063746F7279204C6973740A0053544152F5
:100AD00054204D4D4320544553540A003D3D3D3D67
:100AE0003D3D3D3D3D3D3D3D3D3D3D3D3D3D3D3D36
:100AF0003D3D3D3D3D3D3D3D3D3D0A004E6F7465F4
:100B00003A206661746673207465737473204D5562
:100B1000535420737461727420776974682022665C
:100B20006174667322206B6579776F72640A6661FF
:100B30007466732068656C700A6661746673206DF4
:100B40006D635F746573740A6661746673206D6D9E
:100B5000635F696E69740A6661746673206C7320E2
:100B60006469720A66617466732073746174757364
:100B70000A0A0066617466732068656C700A002555
:100B8000730A0025733A2025730A005365656B20AC
:100B90006661696C65640066707574632073747255
:100BA00065616D2D3E707574204E554C4C0A006683
:100BB000676574632073747265616D2D3E6765743B
:100BC000204E554C4C0A0046696C65733A202564EA
:100BD0000A006E616D653A5B25735D20746F6F204E
:100BE0006C6F6E6720776974682066756C6C207016
:100BF0006174680A006F70656E646972206661696D
:100C00006C65640A006C733A2063616E6E6F7420C9
:100C100073746174205B25735D0A004C6973746999
:100C20006E673A5B25735D0A006C733A2043616E10
:100C30002774206765742063757272656E74206412
:100C400069726563746F72790A002573206E6F6E26
:100C500065206E6F6E65202531326C64202573200F
:100C600025730A0025730A0063616E206E6F74207D
:100C7000737461743A2025730A000D004D6F72651C
:100C80002E2E00256C7520627974657320636F7059
:100C90006965642E0A00436F706965643A202530E7
:100CA000386C640D005772697465206572726F72DA
:100CB0000A000A436F7079696E672E2E2E0A004370
:100CC000616E2774206F70656E3A2025730A0043A9
:100CD00072656174696E672025730A0043616E272F
:100CE00074206F70656E3A2025730A004F70656E30
:100CF000696E672025730A00256C6420627974652B
:100D0000730A000A0043616E2774206F70656E3AA3
:100D10002025730A00726D64697220257320666154
:100D2000696C65640A00726D202573206661696CC8
:100D300065640A0072656E616D6520257320746FAD
:100D40002025730A0025730A006D6B6469722025E3
:100D500073206661696C65640A006C733A206E7575
:100D60006C6C20617267756D656E7420232025643C
:100D70000A006368646972202573206661696C6586
:100D8000640A004E6F74653A20706F736978207042
:100D90007265666978206973206F7074696F6E611F
:100DA0006C0A706F736978206361742066696C6582
:100DB000205B2D705D0A706F736978206364206416
:100DC00069720A706F73697820636F707920666941
:100DD0006C65312066696C65320A706F73697820C2
:100DE0006C7320646972205B2D6C5D0A706F73698F
:100DF00078206D6B646972206469720A706F736920
:100E0000782070616765204E4E0A706F7369782094
:100E10007077640A706F73697820726D2066696CF0
:100E2000650A706F73697820726D646972206469F5
:100E3000720A706F7369782072656E616D65206FDC
:100E40006C64206E65770A0A00706F736978206899
:100E5000656C700A00436C6F7365206572726F7207
:100E60003A20005365656B206572726F723A2000FC
:100E70005772697465206572726F723A200052650C
:100E80006164206572726F723A20004F70656E2047
:100E90006572726F723A5B25735D20005B50505231
:100EA0002044495341424C4520414C4C5D0A004787
:100EB00050494220436C6F636B207461736B2069EF
:100EC0006E6974206661696C65640A005B677069AD
:100ED000625F77726974655F7374722073656E7494
:100EE0002825642920657870656374656428256405
:100EF000295D0A003C4255532077616974696E6729
:100F000020666F72204441563D3D313E0A003C67E9
:100F10007069625F77726974655F73747220746957
:100F20006D656F75742077616974696E6720666F8F
:100F3000722041544E203D20313E0A0067706962A4
:100F40005F77726974655F7374723A2073697A654A
:100F5000203D20300A005B677069625F72656164E2
:100F60005F73747220726561642825642920657836
:100F7000706563746564282564295D0A006770697B
:100F8000625F726561645F73747228696E643A258A
:100F900064293A2041544E20253032584820756E3D
:100FA00065787065637465640A00677069625F7272
:100FB0006561645F7374723A2073697A65203D20BD
:100FC000300A00204D534120253032586800204D12
:100FD000544120253032586800204D4C41202530A6
:100FE000325868002020202020002530325820254B
:100FF000632000677069625F726561645F62797423
:10100000653A204946432073746174653D25640A3E
:1010100000677069625F726561645F627974653AE6
:101020002073746174653D25640A003C4750494251
:101030002054582054494D454F55543E0A003C67B2
:101040007069625F77726974655F62797465207434
:10105000696D656F75742077616974696E67206664
:101060006F72204E4441433D3D313E0A003C677063
:1010700069625F77726974655F627974652074690B
:101080006D656F75742077616974696E6720666F2E
:1010900072204E5246443D3D31202626204E44418A
:1010A00043203D3D20303E0A003C677069625F7717
:1010B000726974655F627974652074696D656F75B6
:1010C000742077616974696E6720666F72204E5272
:1010D00046443D3D31202626204E444143203D3D9F
:1010E00020303E0A00677069625F77726974655FDD
:1010F000627974653A2041544E203D203020776853
:10110000696C652077616974696E6720666F72200B
:101110004E524644204C4F57207374617465203DF5
:1011200025640A00677069625F77726974655F623F
:101130007974653A204946432073746174653D258E
:10114000640A00677069625F77726974655F6279CB
:1011500074653A204B45592073746174653D25646C
:101160000A00677069625F756E726561643A206536
:1011700072726F722C2063616E206F6E6C792062C8
:10118000652063616C6C6564206F6E6365210A0085
:101190005B44505052206269743A25642C206D6182
:1011A000736B3A25303258485D0A00677069625F98
:1011B00064697361626C655F5050523A2062697471
:1011C000202564206F7574206F662072616E6765DC
:1011D0000A005B45505052206269743A25642C2005
:1011E0006D61736B3A25303258485D0A006770694B
:1011F000625F656E61626C655F5050523A20626951
:1012000074202564206F7574206F662072616E678C
:10121000650A005B475049422053544154452049D8
:101220004E49545D0A005B47504942204255535F86
:10123000494E49545D0A005B5052494E5445522074
:10124000636C6F73655D0A005B5341202530325833
:10125000482C206C697374656E3A25303258482CDE
:101260002074616C6B3A25303258485D0A005B533C
:101270004120253032584820414D49474F5D0A00F2
:101280005B534120253032584820535338305D0A93
:10129000005B54412025303258485D0A005B5052B3
:1012A000494E544552204F50454E5D0A005B544113
:1012B000202530325848205052494E5445525D0A3C
:1012C000005B544120253032584820414D49474F5A
:1012D0005D0A005B54412025303258482053533872
:1012E000305D0A005B554E545D0A005B4C41202581
:1012F000303258485D0A005B4C4120253032584856
:10130000205052494E5445525D0A005B4C41202505
:101310003032584820535338305D0A005B4C41202E
:10132000253032584820414D49474F5D0A000A0098
:101330005B554E4C5D0A005B4750494220282530E2
:1013400032584829206E6F7420646566696E656442
:1013500020544F444F5D0A005B44434C5D0A005BE0
:1013600053444320414D49474F5D0A005B5344437A
:1013700020535338305D0A005B5344435D0A005BE1
:101380005350445D0A005B5350455D0A005B50506A
:101390005520756E737570706F7274656420544F4C
:1013A000444F5D0A005B50504320756E737570703A
:1013B0006F7274656420544F444F5D0A005B49446A
:1013C000454E5420556E69743A25303258483D25B3
:1013D000303458485D0A005B4944454E5420556EF0
:1013E00069743A25303258483D25303458482046F3
:1013F00041494C45445D0A003C4D45444941204D1E
:10140000495353494E473E0A003C494E54455252B7
:101410005550543E0A003C4255533E0A003C544944
:101420004D454F55543E0A003C4946433E0A004351
:101430006170747572696E6720436C6F7365640ABE
:1014400000446F6E650A0065786974696E672E2EB8
:101450002E0A00507265737320414E59206B6579D6
:1014600020746F20657869740A0046554C4C2047FB
:10147000504942204255532068616E647368616B25
:1014800065206C6F6767696E67207265717565733B
:101490007465640A00436170747572696E672047F1
:1014A0005049422042555320746F3A25730A004335
:1014B0006172642069732077726974652070726F3D
:1014C0007465637465640A002573206F70656E200F
:1014D0006661696C7572650A002573206861642015
:1014E0002564206572726F72730A006465627567A5
:1014F0003D25303458480A004E6F74653A206770B5
:10150000696220707265666978206973206F7074F3
:10151000696F6E616C0A67706962206164647265EC
:10152000737365730A202020446973706C6179209D
:10153000616C6C2064657669636520475049422080
:101540006275732061646472657373657320616E84
:1015500064205050522076616C7565730A6770691B
:101560006220636F6E666967205B2D765D0A2020BE
:1015700020446973706C61792063757272656E7452
:101580002064726976657320636F6E666967757231
:101590006174696F6E0A2020202D76205665726274
:1015A0006F7365202D2073686F772066756C6C20D3
:1015B00064657461696C0A6770696220646562754C
:1015C00067204E0A2020206465627567206D657370
:1015D00073616765207265706F7274696E672073DE
:1015E00065652068706469736B2E63666720666F3B
:1015F000722064657461696C730A67706962206542
:101600006C61707365640A6770696220656C6170F3
:101610007365645F72657365740A677069622069D7
:1016200066630A6770696220706C6F742066696C0B
:10163000656E616D652E7478740A677069622070DA
:101640006C6F745F6563686F0A67706962207461AC
:10165000736B0A67706962207472616365206669E2
:101660006C656E616D652E747874205B4255535DB8
:101670000A202020446973706C6179206163746969
:1016800076697479206F66204750494220627573ED
:1016900020616E64206C6F672069740A20202042EC
:1016A0005553202D20696E636C7564652068616EEA
:1016B000647368616B65207374617465730A0A0AE8
:1016C00000677069622068656C700A000A00252D49
:1016D000313673202020202020202532640A002566
:1016E0002D31367320414D49474F20253264202546
:1016F000730A00252D3136732053533830202025AE
:1017000032642025730A00617267765B25645D2070
:101710003D2025730A00414D49474F256400666FFF
:10172000726D6174696E6720257320256C64207367
:101730006563746F72730A0043616E206E6F74206C
:10174000757365206E6F6E20323536206279746550
:1017500020736563746F72730A00535338302D25FC
:101760006400666F726D6174696E67202573202551
:101770006C6420736563746F72730A0043616E203A
:101780006E6F7420757365206E6F6E203235362053
:101790006279746520736563746F72730A005761B0
:1017A000726E696E673A2025732042595445535F23
:1017B0005045525F534543544F5220213D2032350E
:1017C000362C2041646A757374696E6720746F20CB
:1017D0003235360A005761726E696E673A2025739A
:1017E0002042595445535F5045525F424C4F434B42
:1017F00020213D203235362C2041646A757374698E
:101800006E6720746F203235360A00687064697222
:101810005F706172616D657465727320696E766167
:101820006C696420545950450A00616C6C6F635FA9
:101830006465766963653A20696E76616C696420D7
:10184000747970653A25643A25730A00616C6C6F8F
:10185000635F6465766963653A20446576696365AC
:10186000207461626C652069732066756C6C0A0077
:101870007365745F6163746976655F6465766963D7
:10188000653A2825642920696E76616C6964207444
:101890007970653A25643A25730A007365745F614F
:1018A00063746976655F6465766963653A20696E1D
:1018B0006465783A20256420747970653A25643A25
:1018C00025732C207374617465203D3D204E554C6A
:1018D0004C0A007365745F6163746976655F646563
:1018E000766963653A20696E6465782025642075A1
:1018F0006E696E6974616C697A656420747970656B
:101900003A25643A25730A007365745F61637469EC
:1019100076655F6465766963653A20696E646578AB
:101920003A256420747970653A25643A25732C2031
:10193000646576203D3D204E554C4C0A007365741D
:101940005F6163746976655F6465766963653A2093
:10195000696E6465783A25642061646472657373A6
:101960003A202530325848206F7574206F662072F7
:10197000616E67650A007365745F6163746976659B
:101980005F6465766963653A28256429206F7574FC
:10199000206F662072616E67650A000A000A0020E7
:1019A0002020202320424C4F434B53203D20256CC8
:1019B000640A0020202320485038352042415349F2
:1019C000432041444452455353203A443725643020
:1019D0000A00414D49474F2025730A00202020204E
:1019E0002320424C4F434B53203D20256C640A007A
:1019F000202023204850383520424153494320417C
:101A0000444452455353203A44372564300A005326
:101A10005338302025730A0043757272656E742046
:101A2000436F6E66696775726174696F6E20536586
:101A30007474696E67730A000A000A005052494EB6
:101A40005445520A00414D49474F2025730A00531F
:101A50005338302025730A00446576696365204158
:101A600064647265737365730A00526561645F43F1
:101A70006F6E6669673A202A2A2A2A2A2A20657206
:101A8000726F727328256429202A2A2A2A2A2A0A90
:101A900000526561645F436F6E6669673A207265E4
:101AA000616428256429206C696E65730A004D699C
:101AB0007373696E6720454E442073746174656D5D
:101AC000656E74206174206C696E653A25640A0045
:101AD000556E657870656374656420535441544550
:101AE0003A2025732C206174206C696E653A256458
:101AF0000A00556E657870656374656420414D49D0
:101B0000474F2047454D4554525920746F6B656EC1
:101B10003A2025732C206174206C696E653A256427
:101B20000A00556E657870656374656420414D499F
:101B3000474F20434F4E46494720746F6B656E3ABE
:101B40002025732C206174206C696E653A25640A27
:101B500000556E657870656374656420484541443E
:101B6000455220434F4E46494720746F6B656E3A8D
:101B70002025732C206174206C696E653A25640AF7
:101B800000556E657870656374656420414D494702
:101B90004F20535441525420746F6B656E3A202588
:101BA000732C206174206C696E653A25640A0055B7
:101BB0006E657870656374656420535338302056C1
:101BC0004F4C554D4520746F6B656E3A2025732C34
:101BD000206174206C696E653A25640A00556E6553
:101BE00078706563746564205353383020554E49CE
:101BF0005420746F6B656E3A2025732C206174201D
:101C00006C696E653A25640A00556E657870656387
:101C1000746564205353383020434F4E54524F4C18
:101C20004C455220746F6B656E3A2025732C2061F1
:101C300074206C696E653A25640A00556E6578708B
:101C40006563746564205353383020434F4E4649D2
:101C50004720746F6B656E3A2025732C20617420C9
:101C60006C696E653A25640A00556E657870656327
:101C7000746564205353383020434F4E4649472003
:101C8000746F6B656E3A2025732C206174206C692B
:101C90006E653A25640A00556E65787065637465F3
:101CA00064205353383020535441525420746F6B86
:101CB000656E3A2025732C206174206C696E653A3C
:101CC00025640A00556E65787065637465642050FC
:101CD00052494E54455220434F4E46494720746F57
:101CE0006B656E3A2025732C206174206C696E65DB
:101CF0003A25640A00556E657870656374656420E2
:101D00005052494E54455220746F6B656E3A2025EF
:101D1000732C206174206C696E653A25640A005545
:101D20006E657870656374656420746F6B656E3A78
:101D30002025732C206174206C696E653A25640A35
:101D400000556E657870656374656420746F6B65AB
:101D50006E3A2025732C206174206C696E653A25DB
:101D6000640A00526561645F436F6E6669673A207A
:101D70006F70656E28257329206661696C65640A39
:101D80000052656164696E673A2025730A00257305
:101D90000A00252D323573203D2025730A00252D9C
:101DA000323573203D2025386C78482028256C6416
:101DB000290A00466F756E64204D6F64656C3A2089
:101DC00025730A0025732025730A004572726F720D
:101DD0003A2068706469722E696E69206E6F742093
:101DE000666F756E64210A005B5353383020556E60
:101DF0006B6E6F776E2053433A2025303258482C53
:101E0000206C697374656E3A25303258482C207402
:101E1000616C6B3A25303258485D0A005B53533889
:101E20003020534320556E6B6E6F776E3A2025300D
:101E30003258482C206C697374656E3A25303258DC
:101E4000482C2074616C6B3A25303258485D0A008A
:101E50005B53533830205472616E73706172656EDB
:101E6000745D0A005B416D69676F20436C65617248
:101E70005D0A005B53533830205265706F727420D6
:101E800053746174655D0A005B53533030204578AC
:101E900065637574652053746174655D0A005B53F6
:101EA00053383020436F6D6D616E642053746174DC
:101EB000655D0A005B47504942204572726F72208F
:101EC00052657475726E202D2057726974652045B5
:101ED00052524F525D0A005B416D69676F20436C3F
:101EE0006561725D0A005B4750494220526561643A
:101EF000204572726F725D0A005B53533830205375
:101F000044435D0A005B535338302071737461742D
:101F100020253032585D0A005B53533830207173EE
:101F20007461742073656E64204641494C45445D7C
:101F30000A005B53533830205365656B3A253038BF
:101F40006C58485D0A005B53533830205365656B0D
:101F5000204F564552464C4F57206174202530384B
:101F60006C58485D0A005B53533830205472616EE0
:101F700073706172656E7420436F6D6D616E642C59
:101F8000204572726F722061742028256429206FA9
:101F9000662028256429204F5020436F6465735DB7
:101FA0000A005B5353383020496E76616C696420B7
:101FB0004F5020436F646520282530325848295DF2
:101FC0000A005B535338302043616E63656C2028F0
:101FD0002564295D0A005B53533830204368616EE5
:101FE0006E656C20496E646570656E64656E742004
:101FF000436C65617220282564295D0A005B535398
:102000003830205772697465204C6F6F706261635D
:102010006B202D20544F444F5D0A005B53533830E2
:102020002052656164204C6F6F706261636B202D7C
:1020300020544F444F5D0A005B53533830204850C2
:102040002D49422050617269747920436865636B41
:10205000696E67202D20544F444F5D0A005B475046
:10206000494220627566666572204F564552464C5D
:102070004F57215D0A005B47504942205265616419
:10208000204552524F525D0A005B53533830204571
:1020900078656375746520436F6D6D616E642C2087
:1020A0004572726F722061742028256429206F6642
:1020B0002028256429204F5020436F6465735D0AF2
:1020C000005B5353383020496E76616C6964204F51
:1020D0005020436F646520282530325848295D0A16
:1020E000005B5353383020496E6974696174652010
:1020F000446961676E6F73746963202D20544F4487
:102100004F5D0A005B53533830205265717565731B
:1021100074205374617475735D0A005B53533830D7
:1021200020446F6F72204C6F636B202D20544F44FE
:102130004F5D0A005B5353383020446F6F72205557
:102140006E4C6F636B202D20544F444F5D0A005B33
:102150005353383020536574205374617475732061
:102160004D61736B202D20544F444F5D0A005B532B
:1021700053383020496E697469616C697A65204D05
:102180006564696120544F444F5D0A005B535338C6
:10219000302044657363726962655D0A005B535366
:1021A00038302056616C6964617465204B65792014
:1021B0002D20544F444F5D0A005B5353383020525A
:1021C000656C656173652044656E696564204E4F7A
:1021D0002D4F505D0A005B535338302052656C65BB
:1021E000617365204E4F2D4F505D0A005B5353388D
:1021F00030204C6F6361746520616E642056657297
:10220000696679202D20544F444F5D0A005B53537B
:102210003830205365742052657475726E204164A5
:102220006472657373696E67202D20544F444F5D4F
:102230000A005B53533830205365742052656C6537
:10224000617365204E4F2D4F505D0A005B5353382C
:10225000302053657420525053204E4F2D4F505D07
:102260000A005B53533830204E4F2D4F505D0A000B
:102270005B5353383020536574204C656E67746827
:102280003A282530386C5848295D0A005B5353388A
:10229000302053657420416464726573733A282555
:1022A00030386C5848295D0A005B53533830204C55
:1022B0006F6361746520616E642057726974655D37
:1022C0000A005B53533830204C6F636174652061A2
:1022D0006E6420526561645D0A005B5353383020A0
:1022E00053657420566F6C756D653A2028256429F6
:1022F0005D0A005B535338302053657420556E6976
:10230000743A282564295D0A005B475049422062DF
:102310007566666572204F564552464C4F57215D93
:102320000A005B5353383020436F6D6D616E64203B
:10233000537461746520475049422052656164209E
:102340004552524F525D0A005B5353383020566F4E
:102350006C756D653A256420696E76616C69645DA3
:102360000A005B5353383020554E49543A256420B7
:10237000696E76616C69645D0A005B535338302086
:10238000446573637269626520566F6C756D652074
:102390004641494C45445D0A005B53533830204464
:1023A0006573637269626520556E697420464149A0
:1023B0004C45445D0A005B535338302044657363D9
:1023C0007269626520436F6E74726F6C6C65722007
:1023D0004641494C45445D0A005B53533830204424
:1023E000657363726962655D0A005B535338302020
:1023F00053656E6420537461747573204641494C73
:1024000045445D0A005B535338302053656E6420A9
:102410005374617475735D0A002020202025643A8E
:1024200025730A0025733A0A005B53533830204C59
:102430006F6361746520616E6420577269746520F2
:1024400057726F746520546F74616C28256C7848DE
:10245000295D0A005B53533830204C6F636174650B
:1024600020616E6420577269746520444944204E8F
:102470004F542046494E4953485D0A005B53533838
:1024800030204C6F6361746520616E6420577269FF
:1024900074652077726F7465282530325848295D3D
:1024A0000A005B4469736B2057726974652045723A
:1024B000726F725D0A005B47504942205265616449
:1024C000204572726F725D0A005B53533830204CA6
:1024D0006F6361746520616E642057726974652052
:1024E0006174202530386C584828256C5848295D7F
:1024F0000A005B5353383020427566666572656426
:10250000205265616420546F74616C28256C5848B2
:10251000292062797465735D0A005B53533830205B
:10252000427566666572656420526561642044493F
:1025300044204E4F542046494E4953485D0A005BA3
:1025400053533830204750494220577269746520F0
:102550004572726F725D0A005B53533830204469D4
:10256000736B2052656164204572726F725D0A0060
:102570005B53533830204469736B2052656164208B
:1025800025303258482062797465735D0A005B53C8
:10259000533830204C6F6361746520616E64205243
:1025A000656164206174202530386C584828256C9A
:1025B0005848295D0A005B5353383020455845433D
:1025C0002073746174653A2564206572726F725D60
:1025D0000A005B5353383020253032584820494E8A
:1025E00049545D0A005B414D49474F20457865637A
:1025F0007574652052657175657374204C6F6769D9
:1026000063616C20416464726573735D0A005B41B1
:102610004D49474F2045786963757465205265714F
:10262000756573742053746174757320556E62758B
:102630006666657265645D0A005B414D49474F20DF
:10264000457865637574652052657175657374208E
:102650005374617475732042756666657265645D56
:102660000A005B414D49474F2045786563757465A5
:102670002057726974652042756666657265645D8F
:102680000A005B414D49474F204578656375746585
:1026900020496E697469616C697A655D0A005B4105
:1026A0004D49474F204578656375746520577269B9
:1026B000746520556E62756666657265645D0A00B4
:1026C0005B414D49474F20457865637574652052DD
:1026D0006561642042756666657265645D0A005BCB
:1026E000414D49474F2045786563757465205265B3
:1026F000616420556E62756666657265645D0A0088
:102700005B414D49474F20457865637574652043AB
:102710006F6C64204C6F616420526561645D0A00D7
:102720005B414D49474F20457865637574652825A1
:1027300030325848293A206C697374656E3A2530F6
:102740003258482C2074616C6B3A25303258485D01
:102750000A005B414D49474F20466F726D61745DC1
:102760000A005B414D49474F205265616420427524
:1027700066666572656420436F6D6D616E645D0AA7
:10278000005B414D49474F20526571756573742058
:1027900053746174757320556E62756666657265F3
:1027A0006420436F6D6D616E645D0A005B414D494D
:1027B000474F205772697465204275666665726579
:1027C0006420436F6D6D616E645D0A005B414D492D
:1027D000474F2052657175657374204C6F6769634C
:1027E000616C204164647265737320436F6D6D6129
:1027F0006E645D0A005B414D49474F20496E697424
:1028000069616C697A6520436F6D6D616E645D0A04
:10281000005B414D49474F20577269746520556EE2
:10282000627566666572656420436F6D6D616E6486
:102830005D0A005B414D49474F20566572696679D4
:102840005D0A005B414D49474F2052656164205548
:102850006E627566666572656420436F6D6D616E4C
:10286000645D0A005B414D49474F205265717565B3
:102870007374205374617475732042756666657253
:10288000656420436F6D6D616E645D0A005B414D50
:1028900049474F205365656B206C656E3D365D0A78
:1028A000005B414D49474F205365656B206C656E59
:1028B0003D355D0A005B414D49474F20436F6C64D5
:1028C000204C6F6164205265616420436F6D6D61BF
:1028D0006E645D0A005B414D49474F20436F6D6D4B
:1028E000616E64282530325848293A2047504942C1
:1028F00020726561642062797465733A25303258BC
:10290000485D0A005B414D49474F20436F6D6D6143
:102910006E643A4750494220726561642065727264
:102920006F725D0A005B414D49474F20436F6D6DEB
:10293000616E643A47504942207265616420657255
:10294000726F725D0A005B414D49474F5F436F6D87
:102950006D616E643A475049422077726974652010
:102960006572726F725D0A005B414D49474F2043AB
:102970006F6D6D616E64282530325848293A206C9D
:10298000697374656E3A25303258482C2074616C36
:102990006B3A25303258485D0A005B4520202041C3
:1029A0006D69676F204552524F52207365636F6E99
:1029B000646172793A2025303258482C2073746152
:1029C00074653A25303258482C206C697374656EF2
:1029D000696E673A25303258482C2074616C6B69F7
:1029E0006E673A25303258485D0A005B554E5420D8
:1029F000416D69676F20544F444F207365636F6E5C
:102A0000646172793A2025303258482C2073746101
:102A100074653A25303258482C206C697374656EA1
:102A2000696E673A25303258482C2074616C6B69A6
:102A30006E673A25303258485D0A005B54202020EA
:102A4000416D69676F20544F444F207365636F6E0B
:102A5000646172793A2025303258482C20737461B1
:102A600074653A25303258482C206C697374656E51
:102A7000696E673A25303258482C2074616C6B6956
:102A80006E673A25303258485D0A005B4C202020A2
:102A9000416D69676F20544F444F207365636F6EBB
:102AA000646172793A2025303258482C2073746161
:102AB00074653A25303258482C206C697374656E01
:102AC000696E673A25303258482C2074616C6B6906
:102AD0006E673A25303258485D0A005B5520416DDB
:102AE00069676F20544F444F207365636F6E646154
:102AF00072793A2025303258482C207374617465FD
:102B00003A25303258482C206F70636F64653A253F
:102B1000303258482C206C656E3A2533642C206C7A
:102B2000697374656E696E673A25303258482C2097
:102B300074616C6B696E673A25303258485D0A00E3
:102B40005B554E5420416D69676F20544F444F20B0
:102B50007365636F6E646172793A2025303258482C
:102B60002C2073746174653A25303258482C206FDC
:102B700070636F64653A25303258482C206C656E5E
:102B80003A2533642C206C697374656E696E673AFC
:102B900025303258482C2074616C6B696E673A2579
:102BA000303258485D0A005B54202020416D69672F
:102BB0006F20544F444F207365636F6E6461727968
:102BC0003A2025303258482C2073746174653A25B8
:102BD000303258482C206F70636F64653A2530326C
:102BE00058482C206C656E3A2533642C206C697330
:102BF00074656E696E673A25303258482C207461CE
:102C00006C6B696E673A25303258485D0A005B4C40
:102C1000202020416D69676F20544F444F20736519
:102C2000636F6E646172793A2025303258482C20E7
:102C300073746174653A25303258482C206F706384
:102C40006F64653A25303258482C206C656E3A2501
:102C500033642C206C697374656E696E673A253035
:102C60003258482C2074616C6B696E673A2530329B
:102C700058485D0A005B414D49474F20436C6561F0
:102C8000725D0A005B44534A2025303258485D0A81
:102C9000005B41494D474F3A2044534A2073656ECB
:102CA00064206661696C65645D0A005B414D49475B
:102CB0004F205772697465206469736B207772695D
:102CC0007465206572726F725D0A005B414D494701
:102CD0004F205772697465204750494220726561E0
:102CE00064206572726F725D0A00414D49474F73EF
:102CF0002D3E73746174653A25640A005B414D4949
:102D0000474F2047504942207772697465206572A9
:102D1000726F725D0A00414D49474F732D3E7374C7
:102D20006174653A25640A005B414D49474F20466E
:102D30006F726D617420446F6E655D0A005B414D7A
:102D400049474F20666F726D61745D0A005B414DAB
:102D500049474F2025732C20503A2530386C78484D
:102D60002C20553A256420433A256420483A2564AE
:102D700020533A25645D0A005B414D49474F207658
:102D8000657269667920503A2530386C58482C2095
:102D9000736563746F72733A25303458485D0A0066
:102DA0005B414D49474F20257320706F73204F566C
:102DB0004552464C4F575D0A005B414D49474F20F5
:102DC00047504942207772697465206572726F724C
:102DD0005D0A005B414D49474F2073656E64207367
:102DE00074617475735D0A005B414D49474F20471C
:102DF000504942207772697465206572726F725D06
:102E00000A005B414D49474F2073656E64206C6F2B
:102E1000676963616C20616464726573735D0A0045
:102E20005B414D49474F207265717565737420731E
:102E300074617475735D0A005B5343205052494EB0
:102E40005445522054616C6B3A2025303258485D0D
:102E50000A005B5343205052494E544552204C695E
:102E60007374656E3A2025303258485D0A0025306B
:102E7000386C640D007772697465206661696C65F1
:102E8000643A2077616E7465642025642C20676F36
:102E9000743A25640A000A444F4E453A20253038DA
:102EA0006C640A004552524F522064757272696E0A
:102EB000672077726974650A0065786974696E675E
:102EC0002E2E2E0A00436170747572696E67207031
:102ED0006C6F7420746F3A25730A002F706C6F74D6
:102EE0002D253032642573253034642D253032642D
:102EF00025303264253032642E706C740009466FC0
:102F0000726D617474696E673A2077726F746520B0
:102F1000256C6420736563746F72730A006C696654
:102F20005F6372656174655F696D6167653A20739F
:102F30006563746F727320697320300A006C696670
:102F40005F6372656174655F696D6167653A20648E
:102F50006972736563746F727320697320300A003D
:102F60006C69665F6372656174655F696D616765F1
:102F70003A206C69666C6162656C20697320656DCE
:102F80007074790A006C69665F6372656174655F6D
:102F9000696D6167653A206C6966696D6167656E28
:102FA000616D6520697320656D7074790A007265C2
:102FB0006E616D65643A202531307320746F202571
:102FC0003130730A006C69665F72656E616D653AD7
:102FD0005B25735D206C6966206E616D653A5B25CB
:102FE000735D206E6F7420666F756E640A006C6985
:102FF000665F72656E616D655F66696C653A206ECD
:103000006577206C69666E616D6520636F6E7461B3
:10301000696E7320626164206368617261637465C4
:1030200072730A006C69665F72656E616D655F66DA
:10303000696C653A206E6577206C69666E616D65B6
:1030400020697320656D7074790A006C69665F721F
:10305000656E616D655F66696C653A206F6C6420B2
:103060006C69666E616D6520697320656D70747939
:103070000A006C69665F72656E616D655F66696C9A
:10308000653A206C6966696D6167656E616D652082
:10309000697320656D7074790A0044656C657465A8
:1030A000643A20253130730A004C494620696D612D
:1030B00067653A5B25735D206C6966206E616D659E
:1030C0003A5B25735D206E6F7420666F756E640ABF
:1030D000004C494620696D6167653A5B25735D2C3C
:1030E000204C4946206E616D653A5B25735D0A0090
:1030F0006C69665F64656C5F66696C653A206C69D3
:10310000666E616D6520697320656D7074790A0063
:103110006C69665F64656C5F66696C653A206C69B2
:1031200066696D6167656E616D6520697320656DA7
:103130007074790A000957726F74653A2025386CEB
:10314000640A000957726F74653A2025386C640D63
:10315000004C494620696D6167653A5B25735D2CBB
:10316000206E6F7420656E6F756768206672656586
:1031700020737061636520666F723A5B25735D0A28
:103180000046696C65206E6F7420666F756E643AD8
:1031900025730A004C494620696D6167653A5B25D5
:1031A000735D2C204C4946206E616D653A5B25733A
:1031B0005D2C20757365722066696C653A5B2573BA
:1031C0005D0A006C69665F6164643A2075736572BC
:1031D00066696C6520697320656D7074790A006C8E
:1031E00069665F6164643A206C69666E616D652032
:1031F000697320656D7074790A006C69665F61643B
:10320000643A206C6966696D6167656E616D652001
:10321000697320656D7074790A000957726F74655F
:103220003A2025386C640A000957726F74653A2099
:1032300025386C640D0046696C65206E6F742066DD
:103240006F756E643A25730A004C494620696D61BA
:103250006765206E6F7420666F756E643A25730A19
:10326000000957726F74653A2025386C640A006C47
:1032700069665F657874726163745F653031305F71
:1032800061735F61736369693A207772697465205D
:103290006572726F720A000957726F74653A202561
:1032A000386C640D006C69665F6578747261637474
:1032B0005F653031305F61735F61736369693A20C4
:1032C0007772697465206572726F720A006C696644
:1032D0005F657874726163745F653031305F61730C
:1032E0005F61736369693A20756E657870656374B0
:1032F000656420636F6E74726F6C20627974653AD6
:103300005B25303258485D2040206F6666736574D7
:103310003A2025386C782C20696E643A2530325872
:10332000480A006C69665F657874726163745F65F2
:103330003031305F61735F61736369693A20737420
:1033400072696E6720746F6F206269672073697A93
:1033500065203D2025640A004578747261637469B4
:103360006E673A2025730A0046696C652025732034
:103370006861732077726F6E6720747970653A5B4D
:1033800025303458485D2065787065637465642025
:103390003078453031302E2E3078453031330A00C8
:1033A0004C49462046696C65206E6F7420666F75C7
:1033B0006E643A25730A004C494620696D61676561
:1033C000206E6F7420666F756E643A25730A00096B
:1033D00057726F74653A2025386C640A0046696C30
:1033E0006520536563746F72733A20202020202576
:1033F000346C78480A0046697273742053656374AC
:103400006F723A202020202025346C78480A004929
:103410006E6465783A202020202020202020202063
:10342000202534640A004E616D653A20202020205A
:1034300020202020202020202025730A004E6577A0
:10344000204469726563746F727920496E666F7289
:103450006D6174696F6E20414654455220777269E0
:1034600074650A004C494620696D6167653A5B25C1
:10347000735D2C206E6F7420656E6F7567682066B3
:1034800072656520737061636520666F723A5B25B3
:10349000735D0A004C494620696D6167653A5B259A
:1034A000735D2C204C4946206E616D653A5B257337
:1034B0005D2C20757365722066696C653A5B2573B7
:1034C0005D0A006C69665F6164645F61736369696A
:1034D0005F66696C655F61735F653031303A207596
:1034E00073657266696C65206E6F7420666F756EA9
:1034F000640A006C69665F6164645F617363696933
:103500005F66696C655F61735F653031303A207565
:1035100073657266696C6520697320656D70747976
:103520000A006C69665F6164645F61736369695F07
:1035300066696C655F61735F653031303A206C6934
:10354000666E616D6520697320656D7074790A001F
:103550006C69665F6164645F61736369695F666912
:103560006C655F61735F653031303A206C69666904
:103570006D6167656E616D6520697320656D70743E
:10358000790A000957726F74653A2025386C640D0A
:10359000000957726F74653A2025386C640D000974
:1035A00057726F74653A2025386C640D0045787049
:1035B000656374656420736563746F7220626F75F0
:1035C0006E6472792C206F66667365743A25640A9E
:1035D000006C69665F653031305F6461705F736590
:1035E00063746F723A2065787065637465642073E4
:1035F0006563746F7220626F756E6472793A206FC2
:1036000066667365743A25640A006C69665F66696C
:103610006E645F66696C653A5B25735D206C6966F4
:103620006C6162656C20746F6F206269670A006C60
:1036300069665F66696E645F66696C653A5B25738F
:103640005D20696E76616C69642063686172616394
:10365000746572730A0025386C64204672656520B3
:10366000736563746F72730A0025386C6420557338
:10367000656420736563746F72730A0025386C6427
:10368000204469722020736563746F72730A002589
:10369000386C6420446972202073746172740A006B
:1036A00025386C64205075726765640A0025386C93
:1036B000642046696C65730A000A00252D31307359
:1036C0002020253034586820202020202025386CE8
:1036D000586820202025396C642563202020202074
:1036E0002025346420202025730A004C49462044BC
:1036F00069726563746F72793A5B25735D207761D7
:10370000726E696E672046696C6542797465733ABA
:10371000256C6420617320736563746F72733A253E
:103720006C6420213D2046696C65536563746F723B
:10373000733A256C640A004E414D4520202020201C
:1037400020202020545950452020205354415254C9
:1037500020534543544F5220202020202020205326
:10376000495A452020202052454353495A4520209C
:1037700020444154450A00566F6C756D653A5B25CF
:10378000735D20446174653A5B25735D0A006C6962
:10379000665F6F70656E5F766F6C756D653A5B2501
:1037A000735D206572726F72206469726563746FF5
:1037B000727920636865636B206661696C65640A71
:1037C000006C69665F6F70656E5F766F6C756D65B6
:1037D0003A5B25735D206572726F7220766F6C752F
:1037E0006D652076616C6964617465206661696CE1
:1037F00065640A006C69665F6F70656E5F766F6CFA
:10380000756D653A5B25735D206572726F7220720B
:1038100065616420766F6C756D65206865616465AF
:1038200072206661696C65640A006C69665F6F701E
:10383000656E5F766F6C756D653A5B25735D2065AF
:1038400072726F7220766F6C756D65206865616449
:103850006572206172656120746F6F20736D616C99
:103860006C3A5B256C645D0A006C69665F6E657717
:103870006469723A20696E6465783A5B25645D20FC
:10388000616464696E672061743A5B256C645D7481
:103890006F207075726765642073706163653A5B51
:1038A000256C645D20736563746F72732C2066727F
:1038B00065653A5B256C645D0A006C69665F6E65E0
:1038C000776469723A206E6F7420656E6F756768F1
:1038D00020667265652073706163653A5B256C6470
:1038E0005D0A006C69665F6E65776469723A206E86
:1038F0006F7420656E6F75676820667265652073EA
:10390000706163653A5B256C645D20666F7220733D
:10391000697A653A5B256C645D0A006C69665F755F
:1039200070646174655F667265653A5B25735D20DE
:103930006572726F722070726576696F757320722E
:1039400065636F72642066696C65206172656120D1
:103950006F7665726C6170732074686973206F6E26
:10396000653A5B25735D0A006C69665F6368656331
:103970006B5F6469723A206572726F722C20696E97
:103980006465783A25640A006C69665F63686563FC
:103990006B646972696E6465783A5B25735D206457
:1039A000697265636F727920696E6465783A5B2528
:1039B000645D206F7574206F6620626F756E64732E
:1039C0000A000957726F74653A20256C640A000971
:1039D00057726F74653A20256C640D000957726F39
:1039E00074653A20256C640D000957726F74653A4E
:1039F00020256C640D004372656174696E673A2519
:103A0000732C204C6162656C3A5B25735D2C2044FD
:103A100069726563746F72792053746172742025C2
:103A20006C642C204469726563746F7279205369E9
:103A30007A653A20256C642C2046696C65205365B4
:103A400063746F72733A256C640A004C49462044D3
:103A500069726563746F72793A5B25735D20696E74
:103A600076616C696420736563746F722073697A20
:103A7000653A256C640A004C4946204469726563C6
:103A8000746F72793A5B25735D20696E76616C693B
:103A9000642046696C654279746573203D3D203031
:103AA0000A004C4946204469726563746F72793A22
:103AB0005B25735D207761726E696E672046696C65
:103AC0006542797465733A256C642061732073656F
:103AD00063746F72733A256C64203C2046696C6590
:103AE000536563746F72733A256C640A004C4946DF
:103AF000204469726563746F72793A5B25735D2047
:103B0000696E76616C69642046696C65427974659A
:103B1000733A256C6420617320736563746F7273EC
:103B20003A256C64203E2046696C65536563746F6A
:103B300072733A256C640A004C49462044697265E8
:103B400063746F72793A5B25735D20696E76616C80
:103B5000696420566F6C756D65204E756D62657277
:103B60003A2558680A004C494620446972656374D6
:103B70006F72793A5B25735D20696E76616C69645A
:103B800020656E6420736563746F723A256C5868A3
:103B9000203E20746F74616C20736563746F727360
:103BA0003A256C58680A004C49462044697265639E
:103BB000746F72793A5B25735D20696E76616C690A
:103BC0006420737461727420736563746F723A2534
:103BD0006C5868203C2066696520617265612073BD
:103BE000746172743A256C58680A004C4946204446
:103BF00069726563746F72793A5B25735D20696ED3
:103C000076616C6964204E616D650A004C494620FE
:103C1000566F6C756D6520696E76616C696420669F
:103C2000696C65207374617274203E20696D6167F0
:103C3000652073697A650A004C494620566F6C7599
:103C40006D6520696E76616C696420446972656394
:103C5000746F727920536563746F7220436F756E51
:103C600074203C20310A004C494620566F6C756D1B
:103C70006520696E76616C6964207374617274206A
:103C8000736563746F723A256C640A004C49462070
:103C9000566F6C756D6520696E76616C6964206223
:103CA00079746573206174206F6666736574203261
:103CB000322632332073686F756C64206265207A17
:103CC00065726F0A004C494620566F6C756D652011
:103CD000696E76616C6964206279746573206174C1
:103CE000206F666673657420313426313520736821
:103CF0006F756C64206265207A65726F0A004C49AA
:103D0000462056657273696F6E3A202530345848E4
:103D1000203E20310A004C494620566F6C756D6577
:103D200020696E76616C69642053797374656D33B4
:103D30003030302049442028253034584829206527
:103D4000787065637465642031303030480A004C07
:103D5000494620566F6C756D6520696E76616C6999
:103D60006420566F6C756D65204E616D65000A00AC
:103D70004449522046696C6520446174653A2020AC
:103D800020202020202025730A0044495220466923
:103D90006C6520736563746F722073697A653A206D
:103DA000253858680A004449522046696C652062EB
:103DB000797465733A2020202020202025386C5803
:103DC000680A004449522046696C65207365637433
:103DD0006F72733A202020202025386C58680A0022
:103DE0004449522046696C652073746172743A20AC
:103DF00020202020202025386C58680A0044495291
:103E00002046696C6520566F6C756D65233A2020DD
:103E1000202020253858680A004449522046696C01
:103E20006520547970653A2020202020202020250C
:103E30003858680A004449522046696C65204E6132
:103E40006D653A202020202020202025730A00566E
:103E50004F4C20446174653A2020202020202020EF
:103E6000202020202025730A00564F4C204C494624
:103E700056657273696F6E3A20202020202020251D
:103E80003858680A00564F4C20333030304C494681
:103E900069643A2020202020202020253858680AF4
:103EA00000564F4C2044697220736563746F7273BF
:103EB0003A20202020202025386C58680A00564FD0
:103EC0004C204469722073746172743A202020205F
:103ED0002020202025386C58680A00564F4C204C72
:103EE000494669643A2020202020202020202020DC
:103EF00020253858680A00564F4C204C6162656C8A
:103F00003A20202020202020202020202025730A55
:103F1000004C4946207075726765643A2020202065
:103F20002020202020202025386C58680A004C4989
:103F3000462066696C65733A2020202020202020CE
:103F40002020202025386C58680A004C49462066FD
:103F50007265653A2020202020202020202020206B
:103F60002025386C58680A004C49462075736564F2
:103F70003A2020202020202020202020202025380A
:103F80006C58680A004C49462066696C6520736568
:103F900063746F72733A202020202025386C586893
:103FA0000A004C49462066696C6573746172743A04
:103FB000202020202020202025386C58680A004C22
:103FC00049462062797465733A2020202020202001
:103FD000202020202025386C58680A004C494620B3
:103FE000736563746F72733A202020202020202094
:103FF000202025386C58680A004C4946206E616DB7
:10400000653A20202020202020202020202020254C
:10401000730A000A25730A006C69665F7772697417
:10402000653A2057726974653A5B25735D206F6647
:10403000667365743A5B256C645D2077726974659C
:104040003A5B25645D2065787065637465643A5BEE
:1040500025645D0A006C69665F726561643A20726E
:104060006561643A5B25735D206F66667365743ABB
:104070005B256C645D2077726974653A5B256C64BE
:104080005D2065787065637465643A5B25645D0ADC
:10409000006C69665F726561645F6D73673A2025C5
:1040A00073205365656B206572726F7220256C6496
:1040B0000A006C69665F737461743A2043616E270D
:1040C0007420737461743A25730A006C69665F6FBB
:1040D00070656E3A2043616E2774206F70656E3A8A
:1040E0005B25735D206D6F64653A5B25735D0A0027
:1040F0006C69665F667265653A204E554C4C20705F
:104100006F696E7465720A006C69665F63616C6CDE
:104110006F633A5B256C645D206E6F7420656E6F13
:104120007567682066726565206D656D6F72790AC6
:10413000004469736B3A202573206E6F7420666F9C
:10414000756E6420696E2068706469722E696E698C
:104150000A006C696620616464206C6966696D613F
:104160006765206C69666E616D652066726F6D5F54
:1041700061736369695F66696C650A6C6966206171
:10418000646462696E206C6966696D616765206C44
:1041900069666E616D652066726F6D5F6C69665FE2
:1041A00066696C650A6C6966206372656174652076
:1041B0006C6966696D616765206C6162656C20641D
:1041C00069726563746F72795F736563746F72731C
:1041D00020736563746F72730A6C6966206372651D
:1041E0006174656469736B206C6966696D6167658C
:1041F000206C6162656C206D6F64656C0A6C696629
:104200002064656C206C6966696D616765206E610C
:104210006D650A6C696620646972206C6966696DF7
:104220006167650A6C6966206578747261637420E1
:104230006C6966696D616765206C69666E616D6544
:1042400020746F5F61736369695F66696C650A6C8E
:104250006966206578747261637462696E206C6946
:1042600066696D616765206C69666E616D65207455
:104270006F5F6C69665F66696C650A202020206547
:104280007874726163747320612066696C6520695B
:104290006E746F2061207369676C652066696C6558
:1042A000204C494620696D6167650A6C6966207219
:1042B000656E616D65206C6966696D616765206F0B
:1042C0006C646C69666E616D65206E65776C69669D
:1042D0006E616D650A557365202D642020616674DA
:1042E000657220276C696627206B6579776F726429
:1042F00020746F20656E61626C65204C49462066B3
:10430000696C6573797374656D2064656275676740
:10431000696E670A0A006C69662068656C700A003D
:104320005374617274696E6720475049422054414A
:10433000534B0A00493243204C4344206973204EBA
:104340004F54206174746163686564210A00252DEF
:1043500031367300252D31367300535338303D25E7
:104360006420414D49474F3D25640064656275678F
:104370006C6576656C2020203D2025303478480A15
:10438000004750494220537461746520696E697416
:1043900020646F6E650A00475049422046696C658B
:1043A00020696E697420646F6E650A004750494247
:1043B0002054696D657220696E697469616C697AEF
:1043C00065640A00475049422054696D6572205364
:1043D000657475700A005072696E74657220696E3A
:1043E000697469616C697A65640A004750494220C2
:1043F00062757320696E697469616C697A65640AB3
:10440000004D4D4320696E697469616C697A656419
:104410000A004D4D4320696E697469616C697A695F
:104420006E672073746172740A0053797374656DDA
:10443000205461736B20496E7465727275707420BC
:10444000526174653A20256C64204E616E6F205372
:1044500065636F6E64730A00436C6F636B20636CFB
:1044600065617265640A00496E697469616C697A94
:10447000696E67205254430A00496E697469616C21
:10448000697A696E6720493243206275730A004970
:104490006E697469616C697A696E6720535049204E
:1044A0006275730A002020204C617374207570645B
:1044B000617465642066696C653A2025730A002082
:1044C0002020474954206C617374207075736865AF
:1044D000643A20202025730A002D3E2068747470F1
:1044E000733A2F2F6769746875622E636F6D2F6D35
:1044F00061676F72652F687038356469736B0A0085
:1045000020474E552076657273696F6E20330A001E
:104510002028432920323031342D3230323020628D
:1045200079204D696B6520476F72650A00485038E5
:1045300035204469736B20616E642044657669633D
:104540006520456D756C61746F720A0052657175F6
:104550006573746564204261756420526174653AC4
:1045600020256C642C2041637475616C3A20256CA5
:10457000640A0043505520436C6F636B203D202537
:104580006C750A0053746172740A002020205B2548
:10459000735D0A004572726F723A20417267756DE1
:1045A000656E7420636F756E74203D2025640A006B
:1045B0004F4B0A00496E70757420646562756767B9
:1045C000696E673A2025730A002020205B25735D01
:1045D0000A00417267756D656E7420636F756E7445
:1045E000203D2025640A000A3E006261636B6C690D
:1045F0006768742030785252474742420A68656CB7
:10460000700A696E7075740A2020202D20746F67FF
:10461000676C6520696E7075742064656275676784
:10462000696E670A6D656D0A2020202D206469730C
:10463000706C61792066726565206D656D6F727949
:104640000A72657365740A2020202D2072657365D7
:104650007420656D756C61746F720A736574646142
:1046600074650A2020202D207365742064617465B0
:104670000A74696D650A2020202D20646973706CAE
:1046800061792063757272656E742074696D650A54
:104690000A00252D31367300252D3136730049323D
:1046A00043204C4344206973204E4F54206174745E
:1046B0006163686564210A00252D31367300252D5C
:1046C000313673006C63645F7461736B20696E696B
:1046D00074206661696C65640A00493243204C436A
:1046E0004420696E697469616C697A6174696F6E7E
:1046F0002073746172740A00493243204C43442091
:104700006973204E4F54206174746163686564213D
:104710000A0025732025326420253032643A253082
:1047200032643A25303264000A002020204C617344
:104730007420757064617465642066696C653A20E4
:1047400025730A00202020474954206C617374208F
:104750007075736865643A20202025730A002D3E29
:104760002068747470733A2F2F6769746875622EAD
:10477000636F6D2F6D61676F72652F687038356478
:1047800069736B0A0020474E552076657273696F16
:104790006E20330A002028632920323031342D3234
:1047A000303230206279204D696B6520476F726529
:1047B0000A0048503835204469736B20616E6420CC
:1047C00044657669636520456D756C61746F720A26
:1047D000005374616E6420616C6F6E652076657243
:1047E00073696F6E206F66204C4946207574696C42
:1047F000697469657320666F72206C696E75780ADA
:10480000000011241FBECFEFD0E4DEBFCDBF17E103
:10481000A0E0B1E0E8E3FFEC01E00BBF02C00790CD
:104820000D92A635B107D9F722E2A6E5B7E101C09E
:104830001D92A73BB207E1F70E9411E10C949AE7A1
:104840000C940000E82FE695E695E69593E0E99F45
:10485000F001112432A1282F277081E090E001C0DF
:10486000880F2A95EAF7982F9095932392A391A108
:10487000892B81A30895E82FE695E695E69593E0C8
:10488000E99FF001112432A1282F277081E090E0E8
:1048900001C0880F2A95EAF7932F982B92A391A134
:1048A000892B81A30895E7CF0895CF93ADB7BEB705
:1048B00017970FB6F894BEBF0FBEADBFC82F80913B
:1048C0000A018C1799F08F3F89F02C2F30E0EDB75B
:1048D000FEB73783268390E09583848382EC91E052
:1048E000A0E081839283A3830E9418458C2FC3DFAD
:1048F0008FEF80930A01ADB7BEB717960FB6F89445
:10490000BEBF0FBEADBFCF910895CDC40895F5C40D
:104910000895A1E0B0E0EFE8F4E20C94ABE3898302
:1049200061E070E0CE010196BED42196E2E00C94E5
:10493000C7E3CF92DF92EF92FF926B017C01842F4D
:104940009ADF8FEF80930A01C701B6017FD480E020
:1049500090E03CD48FEFDDDFC0920601D0920701DA
:10496000E0920801F0920901FF90EF90DF90CF9064
:104970000895CF92DF92EF92FF92CF93DF93ADB77E
:10498000BEB717970FB6F894BEBF0FBEADBF6B0191
:104990007C01EA0180910A018F3F79F0EDB7FEB703
:1049A0004683D78390E09583848380EE91E0A0E0F6
:1049B00081839283A3830E94184580910601909180
:1049C0000701A0910801B09109018C159D05AE0564
:1049D000BF0521F0AE01C701B601ABDF8C2F32DF7E
:1049E000C0930A01ADB7BEB717960FB6F894BEBF15
:1049F0000FBEADBFDF91CF91FF90EF90DF90CF90D2
:104A00000895A1E0B0E0E7E0F5E20C94ABE3898320
:104A100061E070E0CE0101965AD489812196E2E0EE
:104A20000C94C7E3809356172C9A249A08951092F9
:104A300056172C98249A0895A2E0B0E0E2E2F5E23D
:104A40000C94ABE32091B3223091B42221153105AF
:104A500011F427EB32E2CE010196821B930B2296D2
:104A6000E2E00C94C7E3A9E0B0E0E9E3F5E20C94DE
:104A7000ABE3E2DF99878887EDB7FEB79583848340
:104A800087E093E0A0E081839283A3830E9418458E
:104A90008FEF90E4EDB7FEB79583848384EF92E0C7
:104AA000A0E081839283A3830E941845CE010896DB
:104AB000EDB7FEB79583848381EE92E0A0E0818319
:104AC0009283A3830E94184587EB92E2EDB7FEB76D
:104AD0009783868386E597E19583848383EC92E0D0
:104AE000A0E081839283A3830E94184586E597E125
:104AF000EDB7FEB79783868380E091E0958384834A
:104B000085EA92E0A0E081839283A3830E94184506
:104B100080E090E0EDB7FEB79783868387EB92E263
:104B20009583848387E892E0A0E081839283A383C6
:104B30000E9418458091000190910101EDB7FEB7E8
:104B400097838683809102019091030195838483EA
:104B500089E692E0A0E081839283A3830E941845B6
:104B60008091B3229091B422EDB7FEB795838483F0
:104B700085E592E0A0E081839283A3830E9418459B
:104B80002996E2E00C94C7E3EF92FF920F931F93F4
:104B9000CF93DF93ADB7BEB717970FB6F894BEBFEC
:104BA0000FBEADBF8C017B010E9458E6EC01892B42
:104BB00071F4EDB7FEB7F782E682158304838AE3CA
:104BC00092E0A0E081839283A3830E941845CE01E6
:104BD000CDB7DEB72796E6E00C94C3E30F931F939F
:104BE000CF93DF9300D000D01F928C0161E070E082
:104BF0000E9458E6EC01892B61F4EDB7FEB71583EE
:104C0000048382E292E0A0E081839283A3830E94E6
:104C10001845CE01CDB7DEB72596E4E00C94C5E388
:104C2000ADB7BEB717970FB6F894BEBF0FBEADBFF6
:104C3000009711F12091B3223091B4222115310552
:104C400011F427EB32E242E2873B940730F0281759
:104C5000390718F00E940AE70FC0EDB7FEB7378397
:104C60002683958384838DEF91E0A0E081839283F6
:104C7000A3830E941845F7DEADB7BEB717960FB6EF
:104C8000F894BEBF0FBEADBF0895643671058105AF
:104C9000910558F06456710981099109E3EFF1E03B
:104CA0003197F1F700C00000F0CF6A30710581053F
:104CB000910548F06A50710981099109F2E4FA9569
:104CC000F1F700C0F2CF611571058105910549F03A
:104CD000615071098109910926E02A95F1F700C018
:104CE000F2CF0895611571058105910509F441C060
:104CF000E3EFF1E03197F1F700C00000E3EFF1E0FE
:104D00003197F1F700C00000E3EFF1E03197F1F7E0
:104D100000C00000E3EFF1E03197F1F700C00000C0
:104D2000E3EFF1E03197F1F700C00000E3EFF1E0CD
:104D30003197F1F700C00000E3EFF1E03197F1F7B0
:104D400000C00000E3EFF1E03197F1F700C0000090
:104D5000E3EFF1E03197F1F700C00000E3EFF1E09D
:104D60003197F1F700C00000615071098109910984
:104D7000B9CF089581110EC0F8941092FA1A1092CA
:104D8000F91A1092F61A1092F71A1092F81A109255
:104D9000FB1A789408954F925F926F927F928F9250
:104DA0009F92AF92BF92CF92DF92EF92FF92CF93FA
:104DB000DF935A01E9010E94F6E42B013C0120E057
:104DC00030E040E051E40E94ACE59B01AC0160E8BA
:104DD00076E988E99BE40E945DE420E030E040E869
:104DE0005FE30E94F4E30E940FE60E94CAE46B01B5
:104DF0007C01C11480E1D806E104F10458F481E09B
:104E000090E0F50191838083812C912CA12C21E4E9
:104E1000B22E31C0F5011182108220E030E040E86E
:104E200051E4C301B2010E94ACE59B01AC0160E812
:104E300076E988E99BE40E945DE420E030E040E808
:104E40005FE30E94F4E30E940FE60E94CAE46B0154
:104E50007C01812C912C90E8A92E91E4B92EC114EB
:104E6000F0E1DF06E104F10430F0CC24CA948FE0D5
:104E7000D82EE12CF12CC701B6016F5F7F4F8F4F09
:104E80009F4F0E94F6E4A50194010E94ACE59B01AE
:104E9000AC0160E876E988E99BE40E945DE40E9449
:104EA000CAE4688379838A839B83C601DF91CF91AB
:104EB000FF90EF90DF90CF90BF90AF909F908F903A
:104EC0007F906F905F904F900895A6E0B0E0EBE682
:104ED000F7E20C94ABE31E821D82811136C0CB0138
:104EE000BA019E012F5F3F4FAE014B5F5F4F53DF13
:104EF000F8941092FA1A1092F91A1092F61A109267
:104F0000F71A1092F81A1092FB1A7894F894589A9B
:104F1000599A5098519A28E92093C1002D813E81D9
:104F2000232B19F022E02093C0009093C5008093BA
:104F3000C40078946EE578E283E798E20E94C67731
:104F400069817A818B819C8103C060E070E0CB0134
:104F50002696E2E00C94C7E3CF93DF9327E5829F88
:104F6000C0011124FC01EA50F54E83819481803503
:104F7000910584F4308121E0230F2083EF01C30FDA
:104F8000D11D6F776E83019694838383203528F03B
:104F9000108203C0858181608583DF91CF91089560
:104FA0001F920F920FB60F9211240BB60F922F93F0
:104FB0003F934F935F936F937F938F939F93AF93A1
:104FC000BF93EF93FF936091C60080E0C5DFFF9130
:104FD000EF91BF91AF919F918F917F916F915F9171
:104FE0004F913F912F910F900BBE0F900FBE0F90DE
:104FF0001F901895811107C0F8948091F91A90912B
:10500000FA1A789408958FEF9FEF0895811121C0C7
:1050100080E0F0DF18161906DCF7F894E091F71A33
:1050200091E09E0F9093F71AF0E0EA50F54E8681DA
:10503000903510F01092F71A2091F91A3091FA1A5F
:10504000215031093093FA1A2093F91A789490E09C
:1050500008958FEF9FEF0895D9DF99270895611183
:1050600009C02091C00025FFFCCF282F2F77209367
:10507000C6000895613049F42091C80025FFFCCF97
:10508000282F2F772093CE0008958FEF9FEF08955C
:10509000CF9381110FC0E0DFC82F60E090E0DFDF29
:1050A000CD3029F460E08AE090E0D9DFCAE08C2FAF
:1050B00090E002C08FEF9FEFCF91089580E0E8CF9E
:1050C00008951F93CF93DF93EC01162FC8DFCA30EA
:1050D000D10521F4612F8DE090E0C1DFCE01DF9199
:1050E000CF911F910895CF93DF93EC0160E070E0C2
:1050F000E8DFCE01DF91CF9108957CCF0895CF9264
:10510000DF92EF92FF926B017C0180915917909191
:105110005A17A0915B17B0915C178C159D05AE05D1
:10512000BF0509F44EC060E07DE281E391E0A70194
:1051300096010E942EE3203831054105510528F4DF
:10514000203431054105510530F08DB58E7F8DBD80
:105150008CB582601BC08DB52032310541055105EB
:1051600028F081608DBD8CB582601FC02031310573
:105170004105510510F08E7F06C0283031054105EC
:10518000510540F081608DBD8CB58D7F8CBD8CB597
:1051900081600EC0243031054105510510F08E7F2D
:1051A00001C081608DBD8CB58D7F8CBD8CB58E7F2F
:1051B0008CBDC0925917D0925A17E0925B17F092AB
:1051C0005C17FF90EF90DF90CF900895CF93DF931F
:1051D00000D000D01F92EC018130910571F02CF4C9
:1051E000892BC1F48CB5877F11C08230910561F0A5
:1051F000039781F48CB5886002C08CB5877F8CBD25
:105200008CB584608CBD12C08CB588608CBD8CB5AB
:105210008B7FF8CFEDB7FEB7D583C48384E193E0ED
:10522000A0E081839283A3830E941845D0935817EE
:10523000C0935717CDB7DEB72596E2E00C94C7E3CD
:105240008EBD0DB407FEFDCF8EB50895CF92DF92CF
:10525000EF92FF92CF93DF931F92CDB7DEB76B0132
:105260007C011CBC2F9A279A2D9A259A26982C9857
:10527000249A8CB580618CBD8CB580648CBD8DB555
:1052800089838EB5898380E090E0A0DFC701B601F5
:1052900036DF8FEFD5DF0F90DF91CF91FF90EF904A
:1052A000DF90CF9008950F931F93CF93DF938C01DE
:1052B000EB011C161D0634F4F80181918F01C0DF4B
:1052C0002197F7CFDF91CF911F910F9108950F9301
:1052D0001F93CF93DF938C01EB011C161D0644F442
:1052E000F8018081ADDFF80181938F012197F5CF1F
:1052F000DF91CF911F910F9108950F931F93CF933B
:10530000DF938C01EB011C161D063CF48FEF98DF38
:10531000F80181938F012197F6CFDF91CF911F91F3
:105320000F9108952FB780914E1B811104C0809179
:105330004F1B81110BC08091511B9091521B009704
:1053400029F001979093521B8093511B2FBF089512
:10535000ADB7BEB717970FB6F894BEBF0FBEADBFBF
:10536000282F082E000C330B803188F080E190E06C
:10537000EDB7FEB7978386833583248389E294E073
:10538000A0E081839283A3830E94184524C0F90181
:10539000EE0FFF1FE25AF84E0190F081E02D30979A
:1053A000D1F080859185892B39F4EDB7FEB735832F
:1053B000248380E194E009C0868181110EC0EDB79D
:1053C000FEB7358324838AEF93E0A0E08183928344
:1053D000A3830E94184580E001C081E0ADB7BEB74D
:1053E00017960FB6F894BEBF0FBEADBF08958FB726
:1053F000F894EEE5F7E11192119297E1EE37F90793
:10540000D1F710927E1791E09093801710927F173A
:10541000109281178FBF0895EF92FF920F931F9301
:10542000CF93DF93D82FC62F7A01022F1FB76AE0E0
:1054300070E081E090E0A8DBFC01892B89F0F89412
:1054400011821282DD0FC170CD2BC0838AE090E003
:1054500095838483138206831782F186E0861FBFBB
:10546000CF01CDB7DEB7E6E00C94C3E3CF9300D015
:105470001F929B01AC01CFB760E07DE281E391E038
:105480000E942EE3DA01C9014097A109B109AC01DC
:10549000BD017695679557954795CA018827892B51
:1054A00059F08EED93E0A0E0EDB7FEB781839283D3
:1054B000A3830E9418453AC0F8944093B800109214
:1054C0004E1B81E080934F1B10927E1780938017B4
:1054D000409A419A84E88093BC001092BA0080916F
:1054E000B9008C7F8093B90080915D1781111DC038
:1054F000EEE5F7E11192119227E1EE37F207D1F7CD
:1055000061E070E082E999E20E94C632019651F4AE
:1055100087EC93E0A0E0EDB7FEB781839283A3838D
:105520000E94184581E080935D17CFBF0F900F90C8
:105530000F90CF91089561E070E080E090E0A5DBEE
:1055400080914E1B882339F081E090914F1B91117F
:1055500003C080E0089581E0089561E070E080E09C
:1055600090E093DB80917E17882339F081E0909161
:105570008017911103C080E0089581E00895EDE463
:10558000FBE1128281E081838AE090E0958384834D
:1055900085EA8093BC000895EF92FF920F931F93CA
:1055A000CF93DF93FFB6F894109280171092811773
:1055B00010927F17C0E0D0E0EE24E3940AE010E000
:1055C0008C2FC6DE8823D1F0EC2FEE0FFF0BE25AB2
:1055D000F84E0190F081E02DE18212821382178251
:1055E00015830483D11107C08AE0ADE4BBE10190CB
:1055F0000D928A95E1F7CF5FD1E0E2CFDD2391F004
:1056000089E69BE2909383178093821781E08093D1
:105610007E17109280178091B9008C7F8093B9001B
:10562000AEDF15C0109283171092821710927E176A
:1056300081E08093801780934F1B10924E1B84E86B
:105640008093BC008091B9008C7F8093B900109248
:10565000BA00FFBECDB7DEB7E6E00C94C3E39FB758
:10566000F894109283171092821731E030934E1BFA
:1056700010924F1B880F6170682B60934D1B109226
:10568000501B2093531B1092541B5093561B409356
:10569000551B8091B9008C7F8093B9001092BA009D
:1056A0009FBF6DDF48DF8823E9F381E09091501BB5
:1056B000911180E00895EDE4FBE181E082831182A5
:1056C00084E98093BC006AE070E080E090E0DDCA8D
:1056D0000895CF93DF9380917E17882309F446C005
:1056E00080917F1735DE8823B1F0E0917F17EE0FB0
:1056F000FF0BE25AF84EC081D1818AE0EDE4FBE174
:10570000DE0101900D928A95E1F78B81882319F0D3
:1057100081E08093811780917F178F5F19DE882346
:1057200029F1E0917F17EF5FE0937F17EE0FFF0BFA
:10573000E25AF84E0190F081E02D8181813019F01C
:105740008281811113C08AE090E095838483138263
:10575000178281E0818312828AE0ADE4BBE101908F
:105760000D928A95E1F70BDF81E00FC010927E1752
:1057700081E08093801780934F1B10924E1B1092F4
:10578000501B1092541B97DF80E0DF91CF9108955A
:10579000E0918217F0918317309711F009950895E1
:1057A0008ACF08951F920F920FB60F9211240BB655
:1057B0000F922F933F934F935F936F937F938F93AA
:1057C0009F93AF93BF93EF93FF938091B900909114
:1057D0004E1B992309F190914F1B91111DC02091EF
:1057E000551B3091561B21153105B1F09091531B7B
:1057F000992391F04091511B5091521B452B71F40C
:105800008091501B81608093501B10927E1781E025
:1058100080938017809381174EDF9BC0887F8033F1
:1058200009F483C070F4883109F128F48830C9F094
:105830008031B9F083C0803209F465C08832B1F09C
:105840007DC0883409F468C038F4883309F457C03F
:10585000803409F442C072C0803579F18835B9F0DE
:105860006DC01092541B80914D1B0EC08091541B33
:105870008917ECF491E0980F9093541BF901E80F0D
:10588000F11D87FDFA9580818093BB0036C0809121
:10589000541B891764F491E0980F9093541B9091D6
:1058A000BB00F901E80FF11D87FDFA95908381E0B7
:1058B00080934F1B10924E1B4BC08091541B891735
:1058C00064F491E0980F9093541B9091BB00F90100
:1058D000E80FF11D87FDFA9590838091541B082EE7
:1058E000000C990B01962091531B022E000C330BD8
:1058F0008217930714F485EC03C085E801C085EA9C
:105900008093BC0026C081E080934F1B10924E1BF9
:105910008091501B88601AC081E080934F1B1092C9
:105920004E1B8091501B806111C081E080934F1B02
:1059300010924E1B8091501B806208C081E08093C2
:105940004F1B10924E1B8091501B80648093501B04
:105950001FDFFF91EF91BF91AF919F918F917F9149
:105960006F915F914F913F912F910F900BBE0F90D0
:105970000FBE0F901F901895CF9300D000D01F92AC
:10598000FC01C381CC2309F467C080914F1B8111B6
:1059900003C088E293E002C083E293E0EDB7FEB774
:1059A0009583848381EC93E0A0E081839283A38339
:1059B0000E941845C0FF0AC083EB93E0A0E0EDB75A
:1059C000FEB781839283A3830E941845C1FF0AC05A
:1059D00089EA93E0A0E0EDB7FEB781839283A383C9
:1059E0000E941845C2FF0AC08DE993E0A0E0EDB720
:1059F000FEB781839283A3830E941845C4FF0AC027
:105A00008BE893E0A0E0EDB7FEB781839283A38398
:105A10000E941845C3FF0AC089E793E0A0E0EDB7F4
:105A2000FEB781839283A3830E941845C5FF0AC0F5
:105A300086E693E0A0E0EDB7FEB781839283A3836F
:105A40000E94184584E693E0A0E0EDB7FEB781839D
:105A50009283A3830E9418450F900F900F900F9090
:105A60000F90CF9108956F927F928F92AF92BF92D5
:105A7000CF92DF92EF920F931F93CF93DF9300D0DB
:105A800000D01F928091801790E0EDB7FEB795830C
:105A9000848381E593E0A0E081839283A3830E94C5
:105AA00018458091811790E0EDB7FEB79583848308
:105AB0008DE393E0A0E081839283A3830E94184545
:105AC000CEE5D7E100E010E083E393E06C01E12C48
:105AD00081E393E03C01812C302F212F5E010F5F89
