:100000000C9452220C9471220C9471220C94712243
:100010000C9471220C9471220C9471220C94712214
:100020000C9471220C9471220C9471220C94712204
:100030000C9471220C94F3320C9471220C94712262
:100040000C9471220C9471220C9471220C947122E4
:100050000C94BC290C9471220C9471220C94712282
:100060000C9471220C9471220C948F2C0C9471229C
:100070000C9471220C9471220C9471220C947122B4
:100080000C9471220C9471220C947122BE42114482
:10009000EE42EA43EA43114411441144114411442D
:1000A000114411441144BE42B84211441144114458
:1000B0001144E84211441144BE4211441144114418
:1000C000114411441144114411441144BE420C44E2
:1000D000EE42EA43EA4311441144114411441144ED
:1000E000114411441144BE42B84211441144074422
:1000F0001144E84211441144BE4233441A45294494
:1001000087446E441A451A451A451A451A451A4538
:100110001A451A453D4451441A451A451A451A458F
:1001200025441A451A4551441A451A451A451A4597
:100130001A451A451A451A451A453344B544294407
:1001400087446E441A451A451A451A451A451A45F8
:100150001A451A453D4451441A451A45B5441A45B5
:1001600025441A451A45514431693B69436946693A
:1001700049694C694F69526955698686AF86D6864A
:10018000F086F9861B87368745878D876187768954
:100190007E898389A789B189FB89C689C689BE8979
:1001A0001C9BEE9B2A9C599C699C869CE69CF59D19
:1001B000F59DF59D1A9D469D949DB09DB99BCC9B48
:1001C000ACB96BB96BB96BB96BB92FB936B93DB96D
:1001D0004DB95BB954B96E616E00696E660000403E
:1001E0007A10F35A00A0724E18090010A5D4E80046
:1001F00000E87648170000E40B54020000CA9A3B5E
:10020000000000E1F50500008096980000004042E3
:100210000F000000A0860100000010270000000071
:10022000E803000000006400000000000A00000075
:1002300000000100000000002C76D888DC674F0821
:1002400023DFC1DFAE59E1B1B796E5E3E453C63A27
:10025000E651997696E8E6C28426EB898C9B62ED9E
:10026000407C6FFCEFBC9C9F40F2BAA56FA5F49058
:10027000055A2AF75C936B6CF9676DC11BFCE0E4CF
:100280000D47FEF520E6B500D0ED902E0300943525
:1002900077050080841E080000204E0A000000C878
:1002A0000C333333330F986E12831141EF8D2114C9
:1002B000893BE65516CFFEE6DB18D1844B381BF799
:1002C0007C1D901DA4BBE424203284725E22810038
:1002D000C9F124ECA1E53D2763735F646973616232
:1002E0006C65207761733A2025642C2077616E74E9
:1002F0003A2025640A0063735F656E61626C652055
:100300007761733A2025642C2077616E743A20253A
:10031000640A0073616665667265653A20465245F7
:1003200045204552524F5220282575292C20746FA4
:10033000703A282575290A00736166656D616C6CD9
:100340006F6328256429206661696C6564210A0051
:100350007361666563616C6C6F632825642C25642A
:1003600029206661696C6564210A0020205F5F6254
:10037000726B76616C3A202020202535750A0020AA
:10038000204D616C6C6F632073746172742025352D
:10039000752020656E643A202535750A00202048B6
:1003A0006561703A2073746172743A202535752C3A
:1003B00020656E643A202535750A0020204461745A
:1003C00061202073746172743A202535752C206584
:1003D0006E643A202535750A0020204253532020B0
:1003E0002073746172743A202535752C20656E6413
:1003F0003A202535750A002020537461636B20462E
:100400007265653A202025750A00202053746163C7
:100410006B20546F703A20202025750A00467265C3
:10042000652052616D3A25750A00535049305F4D81
:100430006F64653A20496E76616C6964206D6F6403
:1004400065282564290A007274635F7265616420FF
:100450006572726F720A007274635F777269746595
:10046000206572726F720A007274635F696E6974DC
:10047000202077726974652065706F6368206661FB
:10048000696C65640A007274635F72756E202D205A
:100490007772697465207374617475732065727204
:1004A0006F720A007274635F72756E2072656164A8
:1004B00020737461747573206572726F720A0025FF
:1004C00073206578706563746564202564206172AB
:1004D00067756D656E7473206F6E6C7920676F74CD
:1004E0002025640A003D3D3D3D3D3D3D3D3D3D3DBA
:1004F0003D3D3D3D3D3D3D3D3D3D3D3D3D3D3D3D2C
:100500003D3D3D0A0054696D65727320656E616200
:100510006C65640A00436C6F636B20496E73746191
:100520006C6C65640A00436C6F636B207461736B61
:1005300020696E6974206661696C65640A00436CA9
:100540006F636B20496E69740A0054696D6572733C
:1005500020636F6E666967757265640A0054696D21
:1005600065727320696E69742063616C6C65640ADE
:10057000005B54696D653A25735D0A005B25732045
:1005800054696D653A25735D0A00256C642E25302B
:10059000396C64007365745F74696D6572733A20B9
:1005A0004E6F206D6F72652074696D657273210ADC
:1005B00000636C6B2074696D653A202020202573E0
:1005C0000A00636C6B207365636F6E64733A202559
:1005D0006C750A005254432072656164206661693B
:1005E0006C65640A007274632074696D653A20203A
:1005F000202025730A00727463207365636F6E6434
:10060000733A20256C750A007573652073657464F0
:1006100061746520636F6D6D616E6420746F20631B
:1006200068616E67652074696D650A007274632085
:1006300072656164206572726F72616674657220A2
:10064000696E69740A0072746320666F7263652054
:10065000696E6974206661696C65640A006174740E
:10066000656D7074696E672072746320696E697459
:100670000A0072746320756E696E6974696C697AB8
:1006800065640A0072746320666F72636520696E28
:100690006974206661696C65640A00696E76616CD4
:1006A0006964206D696E3A2025640A00696E76617E
:1006B0006C696420686F75723A2025640A00696E5F
:1006C00076616C6964206461793A2025640A006966
:1006D0006E76616C6964206D6F6E3A2025640A0045
:1006E000696E76616C696420796561723A2025646F
:1006F0000A00456E74657220646174652059595909
:1007000059204D4D2044442048483A4D4D3A5353CA
:10071000203E0025732025732025326420253032A9
:10072000643A253032643A2530326420253464003E
:1007300073656C656374206661696C6564210A0089
:10074000454E44204D4D4320494E49540A004D4DDD
:100750004320426C6F636B2053697A653A20256CA5
:10076000640A004D4D4320426C6F636B2053697ADD
:1007700065202D2072656164206661696C65640A7C
:10078000002C20436F646520706167653A202575F1
:100790000A004C464E20456E61626C6564005354FD
:1007A000415254204D4D4320494E49540A004D4D6D
:1007B000432054494D454F55540A004D4D43204365
:1007C0006C6F636B207461736B20696E6974206653
:1007D00061696C65640A000A0025732025752F2560
:1007E0003032752F2530327520253032753A25305C
:1007F00032752025396C7520257300666174667327
:100800005F66696C696E666F5F6C6973743A2065C8
:100810006D7074790A0025752066696C65732C20EB
:10082000256C752062797465732E0A257520666FB4
:100830006C646572732E0A256C75204B4220746FB0
:1008400074616C206469736B2073706163652E0A38
:10085000256C75204B4220617661696C61626C6524
:100860002E0A00566F6C756D6520532F4E20202088
:1008700020202020202020202020203D2025303432
:10088000582D253034580A00566F6C756D65206EF2
:10089000616D652020202020202020202020202085
:1008A0003D2025730A004461746120737461727481
:1008B00020286C62612920202020202020203D203B
:1008C000256C750A004449522073746172742028A3
:1008D0006C62612C636C7573746F7229203D2025E6
:1008E0006C750A0046415420737461727420286C40
:1008F0006261292020202020202020203D20256CFE
:10090000750A004E756D626572206F6620636C75A6
:1009100073746572732020202020203D20256C7583
:100920000A00536563746F72732F46415420202070
:10093000202020202020202020203D20256C750A0A
:1009400000526F6F742044495220656E747269655D
:100950007320202020202020203D2025750A004ED5
:10096000756D626572206F662046415473202020A9
:10097000202020202020203D2025750A0042797467
:1009800065732F436C7573746572202020202020BE
:1009900020202020203D20256C750A00464154204F
:1009A0007479706520202020202020202020202005
:1009B000202020203D2025730A0066617466732084
:1009C0007374617475733A25730A0072633D2575FB
:1009D0000A002C202531306C754B206279746573C8
:1009E00020667265650A002534752046696C6528A5
:1009F00073292C2531306C752062797465732074ED
:100A00006F74616C0A25347520446972287329005B
:100A10004C697374696E673A5B25735D0A003D3DEE
:100A20003D3D3D3D3D3D3D3D3D3D3D3D3D3D3D3DF6
:100A30003D3D3D3D3D3D3D3D3D3D3D3D0A00454E3D
:100A400044204D4D4320544553540A004D4D4320FE
:100A50004469726563746F7279204C6973740A001B
:100A60005354415254204D4D4320544553540A0091
:100A70003D3D3D3D3D3D3D3D3D3D3D3D3D3D3D3DA6
:100A80003D3D3D3D3D3D3D3D3D3D3D3D3D3D0A0006
:100A9000696E643A25642C617267633A25640A00C2
:100AA0004E6F74653A206661746673207465737462
:100AB00073204D5553542073746172742077697498
:100AC000682022666174667322206B6579776F7285
:100AD000640A66617466732068656C700A66617486
:100AE0006673206D6D635F746573740A6661746606
:100AF00073206D6D635F696E69740A6661746673F5
:100B0000206C73206469720A666174667320737462
:100B1000617475732066696C650A0A0066617466A3
:100B2000732068656C700A0025730A0025733A20EB
:100B300025730A005365656B206661696C65640006
:100B400066707574632073747265616D2D3E707587
:100B500074204E554C4C0A006667657463207374AC
:100B60007265616D2D3E676574204E554C4C0A00D0
:100B700046696C65733A2025640A006E616D653ABA
:100B80005B25735D20746F6F206C6F6E67207769D3
:100B900074682066756C6C20706174680A006F70F0
:100BA000656E646972206661696C65640A006C73C5
:100BB0003A2063616E6E6F742073746174205B25DC
:100BC000735D0A004C697374696E673A5B25735DE7
:100BD0000A006C733A2043616E27742067657420A5
:100BE00063757272656E74206469726563746F7286
:100BF000790A002573206E6F6E65206E6F6E65201A
:100C00002531326C642025732025730A0025730A70
:100C10000063616E206E6F7420737461743A2025D6
:100C2000730A000D004D6F72652E2E00256C752025
:100C3000627974657320636F706965642E0A00437E
:100C40006F706965643A202530386C640D00577206
:100C5000697465206572726F720A000A436F707959
:100C6000696E672E2E2E0A0043616E2774206F7006
:100C7000656E3A2025730A004372656174696E6778
:100C80002025730A0043616E2774206F70656E3AE9
:100C90002025730A004F70656E696E672025730A00
:100CA00000256C642062797465730A000A00436150
:100CB0006E2774206F70656E3A2025730A00726D7E
:100CC000646972202573206661696C65640A00722C
:100CD0006D202573206661696C65640A0072656E1B
:100CE000616D6520257320746F2025730A002573BC
:100CF0000A006D6B646972202573206661696C65FA
:100D0000640A006368646972202573206661696CF7
:100D100065640A004E6F74653A20706F73697820BD
:100D2000707265666978206973206F7074696F6E80
:100D3000616C0A706F736978206361742066696CF6
:100D400065205B2D705D0A706F7369782063642085
:100D50006469720A706F73697820636F70792066B6
:100D6000696C65312066696C65320A706F736978E9
:100D7000206C7320646972205B2D6C5D0A706F7348
:100D80006978206D6B646972206469720A706F7390
:100D900069782070616765204E4E0A706F736978BC
:100DA000207077640A706F73697820726D206669AD
:100DB0006C650A706F73697820726D646972206463
:100DC00069720A706F7369782072656E616D652053
:100DD0006F6C64206E65770A0A00706F7369782003
:100DE00068656C700A00436C6F7365206572726F82
:100DF000723A20005365656B206572726F723A20FB
:100E0000005772697465206572726F723A200052E1
:100E1000656164206572726F723A20004F70656E72
:100E2000206572726F723A5B25735D20005B5050D3
:100E3000522044495341424C4520414C4C5D0A00EC
:100E40004750494220436C6F636B207461736B2081
:100E5000696E6974206661696C65640A005B67701D
:100E600069625F77726974655F7374722073656E0F
:100E70007428256429206578706563746564282565
:100E800064295D0A00677069625F77726974655FE3
:100E90007374723A2073697A65203D20300A005BD2
:100EA000677069625F726561645F737472207265F6
:100EB00061642825642920657870656374656428F9
:100EC0002564295D0A00677069625F726561645F0D
:100ED00073747228696E643A2564293A2041544E2D
:100EE00020253032584820756E65787065637465CA
:100EF000640A00677069625F726561645F7374722F
:100F00003A2073697A65203D20300A00204D534114
:100F100020253032586800204D5441202530325869
:100F20006800204D4C412025303258680020202098
:100F30002020002530325820256320003C4E5246A8
:100F4000443D25642C4E4441563D25643E0A003CF8
:100F50004255532077616974696E6720666F72200D
:100F60004441563D3D313E0A003C42555320776195
:100F70006974696E6720666F72204E4441433D3D3F
:100F8000313E0A003C4255532077616974696E67AF
:100F900020666F72204E5246443D3D303E0A003C72
:100FA0004255532077616974696E6720666F7220BD
:100FB0004E5246443D3D31202626204E444143209A
:100FC0003D3D20303E0A003C425553207761697414
:100FD000696E6720666F72204441563D3D313E0A7E
:100FE00000677069625F756E726561643A20657250
:100FF000726F722C2063616E206F6E6C7920626557
:101000002063616C6C6564206F6E6365210A005B10
:101010004946432053454E545D0A005B44505052AC
:10102000206269743A25642C206D61736B3A253017
:101030003258485D0A00677069625F646973616273
:101040006C655F5050523A20626974202564206FAD
:101050007574206F662072616E67650A005B45508B
:101060005052206269743A25642C206D61736B3A8A
:1010700025303258485D0A00677069625F656E61AD
:10108000626C655F5050523A20626974202564207A
:101090006F7574206F662072616E67650A005B472A
:1010A00050494220535441544520494E49545D0A09
:1010B000005B47504942204255535F494E49545DB9
:1010C0000A005B5052494E54455220636C6F736561
:1010D0005D0A005B53412025303258482C206C6952
:1010E0007374656E3A25303258482C2074616C6BED
:1010F0003A25303258485D0A005B53412025303292
:10110000584820414D49474F5D0A005B5341202517
:101110003032584820535338305D0A005B54412028
:1011200025303258485D0A005B5052494E544552B2
:10113000204F50454E5D0A005B5441202530325807
:1011400048205052494E5445525D0A005B5441209C
:10115000253032584820414D49474F5D0A005B54C5
:101160004120253032584820535338305D0A005B07
:10117000554E545D0A005B4C412025303258485D85
:101180000A005B4C41202530325848205052494ECD
:101190005445525D0A005B4C4120253032584820AE
:1011A000535338305D0A005B4C412025303258489B
:1011B00020414D49474F5D0A000A005B554E4C5D8A
:1011C0000A005B47504942202825303258482920E0
:1011D0006E6F7420646566696E656420544F444F79
:1011E0005D0A005B44434C5D0A005B53444320416D
:1011F0004D49474F5D0A005B5344432053533830F9
:101200005D0A005B5344435D0A005B5350445D0A32
:10121000005B5350455D0A005B50505520756E735E
:101220007570706F7274656420544F444F5D0A008E
:101230005B50504320756E737570706F7274656487
:1012400020544F444F5D0A005B4944454E5420559D
:101250006E69743A25303258483D25303458485D1F
:101260000A005B4944454E5420556E69743A253056
:101270003258483D2530345848204641494C454471
:101280005D0A003C4D45444941204D495353494E68
:10129000473E0A003C494E544552525550543E0A6E
:1012A000003C4255533E0A003C54494D454F55546D
:1012B0003E0A003C4946433E0A0043617074757221
:1012C000696E6720436C6F7365640A00446F6E65D6
:1012D0000A0065786974696E672E2E2E0A005072B6
:1012E00065737320414E59206B657920746F2065BA
:1012F0007869740A0046554C4C20475049422042B8
:1013000055532068616E647368616B65206C6F670C
:1013100067696E67207265717565737465640A002C
:10132000436170747572696E67204750494220426C
:10133000555320746F3A25730A0043617264206923
:10134000732077726974652070726F746563746559
:10135000640A002573206F70656E206661696C7584
:1013600072650A0025732068616420256420657217
:10137000726F72730A0064656275673D2530345878
:10138000480A004E6F74653A206770696220707277
:1013900065666978206973206F7074696F6E616C1F
:1013A0000A67706962206164647265737365730AA9
:1013B000202020446973706C617920616C6C20641A
:1013C00065766963652047504942206275732061E4
:1013D000646472657373657320616E64205050524B
:1013E0002076616C7565730A6770696220636F6E41
:1013F000666967205B2D765D0A2020204469737042
:101400006C61792063757272656E7420647269769E
:10141000657320636F6E66696775726174696F6E5C
:101420000A2020202D7620566572626F7365202D6C
:101430002073686F772066756C6C206465746169D1
:101440006C0A67706962206465627567204E0A20C5
:1014500020206465627567206D6573736167652020
:101460007265706F7274696E67207365652068704D
:101470006469736B2E63666720666F72206465749F
:1014800061696C730A6770696220656C617073656D
:10149000640A6770696220656C61707365645F726D
:1014A000657365740A67706962206966630A6770AC
:1014B000696220706C6F742066696C656E616D6521
:1014C0002E7478740A6770696220706C6F745F653F
:1014D00063686F0A67706962207461736B0A677072
:1014E00069622074726163652066696C656E616D06
:1014F000652E747874205B4255535D0A2020204489
:101500006973706C6179206163746976697479209C
:101510006F6620475049422062757320616E6420D7
:101520006C6F672069740A202020425553202D20BB
:10153000696E636C7564652068616E647368616B65
:1015400065207374617465730A0A0A0067706962C2
:101550002068656C700A00414D49474F256400665C
:101560006F726D6174696E6720257320256C64202D
:10157000736563746F72730A0043616E206E6F74DB
:1015800020757365206E6F6E203235362062797457
:101590006520736563746F72730A00535338302D7E
:1015A000256400666F726D6174696E672025732013
:1015B000256C6420736563746F72730A0043616EF7
:1015C000206E6F7420757365206E6F6E2032353615
:1015D000206279746520736563746F72730A0057B3
:1015E00061726E696E673A202573204259544553E3
:1015F0005F5045525F534543544F5220213D2032A6
:1016000035362C2041646A757374696E6720746F77
:10161000203235360A005761726E696E673A2025AE
:10162000732042595445535F5045525F424C4F43DB
:101630004B20213D203235362C2041646A7573746D
:10164000696E6720746F203235360A0068706469ED
:10165000725F706172616D657465727320696E7618
:10166000616C696420545950450A00616C6C6F6369
:101670005F6465766963653A20696E76616C69645A
:1016800020747970653A25643A25730A00616C6CA0
:101690006F635F6465766963653A20446576696364
:1016A00065207461626C652069732066756C6C0AD4
:1016B000007365745F6163746976655F64657669FC
:1016C00063653A2825642920696E76616C69642017
:1016D000747970653A25643A25730A007365745FFE
:1016E0006163746976655F6465766963653A2069EC
:1016F0006E6465783A20256420747970653A2564B3
:101700003A25732C207374617465203D3D204E553D
:101710004C4C0A007365745F6163746976655F643D
:1017200065766963653A20696E6465782025642072
:10173000756E696E6974616C697A6564207479701C
:10174000653A25643A25730A007365745F616374B2
:101750006976655F6465766963653A20696E64657C
:10176000783A256420747970653A25643A25732C9B
:1017700020646576203D3D204E554C4C0A00736533
:10178000745F6163746976655F6465766963653A01
:1017900020696E6465783A256420616464726573BB
:1017A000733A202530325848206F7574206F6620B8
:1017B00072616E67650A007365745F616374697650
:1017C000655F6465766963653A28256429206F75CD
:1017D00074206F662072616E67650A000A000A0055
:1017E000202020202320424C4F434B53203D2025D6
:1017F0006C640A0020202320485038352042415391
:1018000049432041444452455353203A44372564C8
:10181000300A00414D49474F2025730A00202020FF
:10182000202320424C4F434B53203D20256C640A1B
:10183000002020232048503835204241534943207E
:1018400041444452455353203A44372564300A00FA
:10185000535338302025730A0043757272656E74D5
:1018600020436F6E66696775726174696F6E20538D
:10187000657474696E67730A000A000A0050524961
:101880004E5445520A00414D49474F2025730A00E6
:10189000535338302025730A004465766963652008
:1018A0004164647265737365730A00526561645FB5
:1018B000436F6E6669673A202A2A2A2A2A2A2065F7
:1018C00072726F727328256429202A2A2A2A2A2AEA
:1018D0000A00526561645F436F6E6669673A207201
:1018E00065616428256429206C696E65730A004D62
:1018F000697373696E6720454E4420737461746523
:101900006D656E74206174206C696E653A25640A99
:1019100000556E6578706563746564205354415456
:10192000453A2025732C206174206C696E653A2538
:10193000640A00556E657870656374656420414D76
:1019400049474F2047454D4554525920746F6B65A8
:101950006E3A2025732C206174206C696E653A25DF
:10196000640A00556E657870656374656420414D46
:1019700049474F20434F4E46494720746F6B656E71
:101980003A2025732C206174206C696E653A2564B9
:101990000A00556E6578706563746564204845413A
:1019A00044455220434F4E46494720746F6B656E45
:1019B0003A2025732C206174206C696E653A256489
:1019C0000A00556E657870656374656420414D4901
:1019D000474F20535441525420746F6B656E3A2028
:1019E00025732C206174206C696E653A25640A00A9
:1019F000556E657870656374656420535338302084
:101A0000564F4C554D4520746F6B656E3A202573CB
:101A10002C206174206C696E653A25640A00556E4D
:101A20006578706563746564205353383020554E73
:101A3000495420746F6B656E3A2025732C206174B5
:101A4000206C696E653A25640A00556E657870658C
:101A500063746564205353383020434F4E54524FC3
:101A60004C4C455220746F6B656E3A2025732C20C8
:101A70006174206C696E653A25640A00556E65785C
:101A8000706563746564205353383020434F4E466D
:101A9000494720746F6B656E3A2025732C20617462
:101AA000206C696E653A25640A00556E657870652C
:101AB00063746564205353383020434F4E46494782
:101AC00020746F6B656E3A2025732C206174206C36
:101AD000696E653A25640A00556E657870656374B1
:101AE0006564205353383020535441525420746F4E
:101AF0006B656E3A2025732C206174206C696E65CD
:101B00003A25640A00556E657870656374656420D3
:101B10005052494E54455220434F4E464947207437
:101B20006F6B656E3A2025732C206174206C696E92
:101B3000653A25640A00556E65787065637465645E
:101B4000205052494E54455220746F6B656E3A20B6
:101B500025732C206174206C696E653A25640A0037
:101B6000556E657870656374656420746F6B656E1F
:101B70003A2025732C206174206C696E653A2564C7
:101B80000A00556E657870656374656420746F6BC8
:101B9000656E3A2025732C206174206C696E653A5D
:101BA00025640A00526561645F436F6E6669673A37
:101BB000206F70656E28257329206661696C6564E5
:101BC0000A0052656164696E673A2025730A002530
:101BD000730A00252D323573203D2025730A002518
:101BE0002D323573203D2025386C78482028256C0F
:101BF00064290A00466F756E64204D6F64656C3A07
:101C00002025730A0025732025730A004572726F20
:101C1000723A2068706469722E696E69206E6F7402
:101C200020666F756E64210A005B5353383020556F
:101C30006E6B6E6F776E2053433A202530325848D2
:101C40002C206C697374656E3A25303258482C200C
:101C500074616C6B3A25303258485D0A005B53530F
:101C6000383020534320556E6B6E6F776E3A2025C7
:101C7000303258482C206C697374656E3A253032C6
:101C800058482C2074616C6B3A25303258485D0AF4
:101C9000005B53533830205472616E73706172650B
:101CA0006E745D0A005B416D69676F20436C65610E
:101CB000725D0A005B53533830205265706F727446
:101CC0002053746174655D0A005B535330302045C6
:101CD0007865637574652053746174655D0A005B93
:101CE0005353383020436F6D6D616E6420537461BF
:101CF00074655D0A005B47504942204572726F72FD
:101D00002052657475726E202D205772697465209B
:101D10004552524F525D0A005B416D69676F204327
:101D20006C6561725D0A005B4750494220526561F3
:101D300064204572726F725D0A005B535338302025
:101D40005344435D0A005B53533830207173746110
:101D50007420253032585D0A005B535338302071AF
:101D6000737461742073656E64204641494C454428
:101D70005D0A005B53533830205365656B3A25305C
:101D8000386C58485D0A005B535338302053656502
:101D90006B204F564552464C4F57206174202530DA
:101DA000386C58485D0A005B5353383020547261D8
:101DB0006E73706172656E7420436F6D6D616E64D9
:101DC0002C204572726F72206174202825642920AE
:101DD0006F662028256429204F5020436F64657367
:101DE0005D0A005B5353383020496E76616C69643C
:101DF000204F5020436F64652028253032584829F1
:101E00005D0A005B535338302043616E63656C207C
:101E1000282564295D0A005B5353383020436861EC
:101E20006E6E656C20496E646570656E64656E7477
:101E300020436C65617220282564295D0A005B538C
:101E4000533830205772697465204C6F6F7062612F
:101E5000636B202D20544F444F5D0A005B53533871
:101E6000302052656164204C6F6F706261636B203B
:101E70002D20544F444F5D0A005B535338302048A7
:101E8000502D49422050617269747920436865631E
:101E90006B696E67202D20544F444F5D0A005B47ED
:101EA00050494220627566666572204F564552461B
:101EB0004C4F57215D0A005B4750494220526561F3
:101EC00064204552524F525D0A005B535338302014
:101ED0004578656375746520436F6D6D616E642C24
:101EE000204572726F722061742028256429206F4A
:101EF000662028256429204F5020436F6465735D58
:101F00000A005B5353383020496E76616C69642057
:101F10004F5020436F646520282530325848295D92
:101F20000A005B5353383020496E697469617465E7
:101F300020446961676E6F73746963202D20544F6C
:101F4000444F5D0A005B535338302052657175650C
:101F50007374205374617475735D0A005B53533856
:101F60003020446F6F72204C6F636B202D20544FD4
:101F7000444F5D0A005B5353383020446F6F72202A
:101F8000556E4C6F636B202D20544F444F5D0A00FB
:101F90005B535338302053657420537461747573E8
:101FA000204D61736B202D20544F444F5D0A005B20
:101FB0005353383020496E697469616C697A6520C1
:101FC0004D6564696120544F444F5D0A005B535373
:101FD00038302044657363726962655D0A005B5343
:101FE0005338302056616C6964617465204B6579A3
:101FF000202D20544F444F5D0A005B53533830204E
:1020000052656C656173652044656E696564204E38
:102010004F2D4F505D0A005B535338302052656C92
:1020200065617365204E4F2D4F505D0A005B535321
:102030003830204C6F6361746520616E6420566592
:1020400072696679202D20544F444F5D0A005B531E
:10205000533830205365742052657475726E204178
:10206000646472657373696E67202D20544F444F0A
:102070005D0A005B53533830205365742052656C01
:1020800065617365204E4F2D4F505D0A005B5353C1
:1020900038302053657420525053204E4F2D4F50EE
:1020A0005D0A005B53533830204E4F2D4F505D0A70
:1020B000005B5353383020536574204C656E677451
:1020C000683A282530386C5848295D0A005B53531C
:1020D00038302053657420416464726573733A2804
:1020E0002530386C5848295D0A005B53533830203E
:1020F0004C6F6361746520616E642057726974650A
:102100005D0A005B53533830204C6F636174652067
:10211000616E6420526561645D0A005B5353383020
:102120002053657420566F6C756D653A20282564C0
:10213000295D0A005B535338302053657420556E77
:1021400069743A282564295D0A005B47504942209A
:10215000627566666572204F564552464C4F572150
:102160005D0A005B5353383020436F6D6D616E64C0
:102170002053746174652047504942205265616460
:10218000204552524F525D0A005B5353383020565F
:102190006F6C756D653A256420696E76616C696453
:1021A0005D0A005B5353383020554E49543A25643C
:1021B00020696E76616C69645D0A005B5353383048
:1021C00020446573637269626520566F6C756D6536
:1021D000204641494C45445D0A005B53533830204A
:1021E000446573637269626520556E697420464167
:1021F000494C45445D0A005B5353383020446573B5
:10220000637269626520436F6E74726F6C6C657285
:10221000204641494C45445D0A005B535338302009
:1022200044657363726962655D0A005B53533830BD
:102230002053656E64205374617475732046414960
:102240004C45445D0A005B535338302053656E643F
:10225000205374617475735D0A002020202025646A
:102260003A25730A0025733A0A005B53533830202D
:102270004C6F6361746520616E6420577269746588
:102280002057726F746520546F74616C28256C78C8
:1022900048295D0A005B53533830204C6F636174EA
:1022A0006520616E6420577269746520444944203A
:1022B0004E4F542046494E4953485D0A005B5353E4
:1022C0003830204C6F6361746520616E64205772F2
:1022D0006974652077726F746528253032584829F3
:1022E0005D0A005B4469736B205772697465204511
:1022F00072726F725D0A005B4750494220526561FD
:1023000064204572726F725D0A005B53533830204F
:102310004C6F6361746520616E64205772697465E7
:10232000206174202530386C584828256C5848297D
:102330005D0A005B535338302042756666657265EE
:1023400064205265616420546F74616C28256C5858
:1023500048292062797465735D0A005B53533830F5
:10236000204275666665726564205265616420442A
:102370004944204E4F542046494E4953485D0A0077
:102380005B53533830204750494220577269746577
:10239000204572726F725D0A005B535338302044DF
:1023A00069736B2052656164204572726F725D0AB9
:1023B000005B53533830204469736B20526561646D
:1023C0002025303258482062797465735D0A005BBD
:1023D00053533830204C6F6361746520616E642004
:1023E00052656164206174202530386C5848282576
:1023F0006C5848295D0A005B5353383020455845D6
:10240000432073746174653A2564206572726F723B
:102410005D0A005B5353383020253032584820493C
:102420004E49545D0A005B414D49474F2045786550
:10243000637574652052657175657374204C6F67A0
:102440006963616C20416464726573735D0A005B4B
:10245000414D49474F204578696375746520526541
:1024600071756573742053746174757320556E6251
:10247000756666657265645D0A005B414D49474F4C
:102480002045786563757465205265717565737450
:102490002053746174757320427566666572656455
:1024A0005D0A005B414D49474F204578656375746F
:1024B0006520577269746520427566666572656449
:1024C0005D0A005B414D49474F204578656375744F
:1024D0006520496E697469616C697A655D0A005BA3
:1024E000414D49474F2045786563757465205772A3
:1024F00069746520556E62756666657265645D0A0D
:10250000005B414D49474F204578656375746520F0
:10251000526561642042756666657265645D0A0095
:102520005B414D49474F204578656375746520527E
:1025300065616420556E62756666657265645D0AE4
:10254000005B414D49474F204578656375746520B0
:10255000436F6C64204C6F616420526561645D0A56
:10256000005B414D49474F20457865637574652888
:102570002530325848293A206C697374656E3A25C3
:10258000303258482C2074616C6B3A2530325848F0
:102590005D0A005B414D49474F20466F726D617483
:1025A0005D0A005B414D49474F20526561642042FE
:1025B0007566666572656420436F6D6D616E645DFE
:1025C0000A005B414D49474F205265717565737430
:1025D0002053746174757320556E627566666572FA
:1025E000656420436F6D6D616E645D0A005B414DF3
:1025F00049474F2057726974652042756666657257
:10260000656420436F6D6D616E645D0A005B414DD2
:1026100049474F2052657175657374204C6F676927
:1026200063616C204164647265737320436F6D6DE8
:10263000616E645D0A005B414D49474F20496E69F8
:102640007469616C697A6520436F6D6D616E645D5C
:102650000A005B414D49474F205772697465205508
:102660006E627566666572656420436F6D6D616E3E
:10267000645D0A005B414D49474F205665726966AB
:10268000795D0A005B414D49474F205265616420E6
:10269000556E627566666572656420436F6D6D6127
:1026A0006E645D0A005B414D49474F20526571756C
:1026B0006573742053746174757320427566666522
:1026C00072656420436F6D6D616E645D0A005B41ED
:1026D0004D49474F205365656B206C656E3D365DF7
:1026E0000A005B414D49474F205365656B206C657F
:1026F0006E3D355D0A005B414D49474F20436F6C8D
:1027000064204C6F6164205265616420436F6D6D7D
:10271000616E645D0A005B414D49474F20436F6D18
:102720006D616E64282530325848293A2047504957
:102730004220726561642062797465733A25303293
:1027400058485D0A005B414D49474F20436F6D6D0E
:10275000616E643A47504942207265616420657237
:10276000726F725D0A005B414D49474F20436F6DA8
:102770006D616E643A47504942207265616420651C
:1027800072726F725D0A005B414D49474F5F436F44
:102790006D6D616E643A4750494220777269746585
:1027A000206572726F725D0A005B414D49474F2090
:1027B000436F6D6D616E64282530325848293A2088
:1027C0006C697374656E3A25303258482C207461F8
:1027D0006C6B3A25303258485D0A005B452020205A
:1027E000416D69676F204552524F52207365636F88
:1027F0006E646172793A2025303258482C20737407
:102800006174653A25303258482C206C69737465C0
:102810006E696E673A25303258482C2074616C6BB3
:10282000696E673A25303258485D0A005B554E5450
:1028300020416D69676F20544F444F207365636F6B
:102840006E646172793A2025303258482C207374B6
:102850006174653A25303258482C206C6973746570
:102860006E696E673A25303258482C2074616C6B63
:10287000696E673A25303258485D0A005B54202063
:1028800020416D69676F20544F444F207365636F1B
:102890006E646172793A2025303258482C20737466
:1028A0006174653A25303258482C206C6973746520
:1028B0006E696E673A25303258482C2074616C6B13
:1028C000696E673A25303258485D0A005B4C20201B
:1028D00020416D69676F20544F444F207365636FCB
:1028E0006E646172793A2025303258482C20737416
:1028F0006174653A25303258482C206C69737465D0
:102900006E696E673A25303258482C2074616C6BC2
:10291000696E673A25303258485D0A005B552041A0
:102920006D69676F20544F444F207365636F6E6409
:102930006172793A2025303258482C2073746174C2
:10294000653A25303258482C206F70636F64653AC1
:1029500025303258482C206C656E3A2533642C2083
:102960006C697374656E696E673A25303258482C0D
:102970002074616C6B696E673A25303258485D0A85
:10298000005B554E5420416D69676F20544F444F92
:10299000207365636F6E646172793A202530325816
:1029A000482C2073746174653A25303258482C20C5
:1029B0006F70636F64653A25303258482C206C651F
:1029C0006E3A2533642C206C697374656E696E678A
:1029D0003A25303258482C2074616C6B696E673A26
:1029E00025303258485D0A005B54202020416D6933
:1029F000676F20544F444F207365636F6E6461723C
:102A0000793A2025303258482C2073746174653A25
:102A100025303258482C206F70636F64653A25303A
:102A20003258482C206C656E3A2533642C206C6932
:102A30007374656E696E673A25303258482C20747D
:102A4000616C6B696E673A25303258485D0A005BED
:102A50004C202020416D69676F20544F444F2073F4
:102A600065636F6E646172793A2025303258482C64
:102A70002073746174653A25303258482C206F7089
:102A8000636F64653A25303258482C206C656E3A85
:102A90002533642C206C697374656E696E673A2502
:102AA000303258482C2074616C6B696E673A25305F
:102AB0003258485D0A005B414D49474F20436C65E1
:102AC00061725D0A005B44534A2025303258485DEC
:102AD0000A005B41494D474F3A2044534A207365F1
:102AE0006E64206661696C65645D0A005B414D49F6
:102AF000474F2057726974652047504942207265DC
:102B00006164206572726F725D0A005B414D4947D6
:102B10004F20475049422077726974652065727270
:102B20006F725D0A005B414D49474F20466F726DE1
:102B3000617420446F6E655D0A005B414D49474FEB
:102B400020666F726D61745D0A005B414D49474FAD
:102B50002025732C20503A2530386C78482C20558D
:102B60003A256420433A256420483A256420533AA4
:102B700025645D0A005B414D49474F2076657269C7
:102B8000667920503A2530386C58482C207365639C
:102B9000746F72733A25303458485D0A005B414DBA
:102BA00049474F20257320706F73204F564552467A
:102BB0004C4F575D0A005B414D49474F20475049F4
:102BC00042207772697465206572726F725D0A00C7
:102BD0005B414D49474F2073656E64207374617487
:102BE00075735D0A005B414D49474F20475049428C
:102BF000207772697465206572726F725D0A005B7E
:102C0000414D49474F2073656E64206C6F6769635F
:102C1000616C20616464726573735D0A005B414D91
:102C200049474F20726571756573742073746174C0
:102C300075735D0A005B5343205052494E54455210
:102C40002054616C6B3A2025303258485D0A005B95
:102C50005343205052494E544552204C6973746579
:102C60006E3A2025303258485D0A002530386C64B1
:102C70000D007772697465206661696C65643A203D
:102C800077616E7465642025642C20676F743A2523
:102C9000640A000A444F4E453A202530386C640AD5
:102CA000004552524F522064757272696E672077E8
:102CB000726974650A0065786974696E672E2E2ED4
:102CC0000A00436170747572696E6720706C6F746E
:102CD00020746F3A25730A002F706C6F742D2530A5
:102CE00032642573253034642D253032642530322A
:102CF00064253032642E706C740009466F726D6109
:102D00007474696E673A2077726F746520256C64FD
:102D100020736563746F72730A006C69665F637217
:102D2000656174655F696D6167653A207365637499
:102D30006F727320697320300A006C69665F63727A
:102D4000656174655F696D6167653A206469727376
:102D50006563746F727320697320300A006C696652
:102D60005F6372656174655F696D6167653A206C68
:102D700069666C6162656C20697320656D70747939
:102D80000A006C69665F6372656174655F696D6195
:102D900067653A206C6966696D6167656E616D652E
:102DA00020697320656D7074790A0072656E616DBB
:102DB00065643A202531307320746F2025313073DB
:102DC0000A006C69665F72656E616D653A5B2573BA
:102DD0005D206C6966206E616D653A5B25735D20D0
:102DE0006E6F7420666F756E640A006C69665F7240
:102DF000656E616D655F66696C653A206E6577200A
:102E00006C69666E616D6520636F6E7461696E7367
:102E10002062616420636861726163746572730A21
:102E2000006C69665F72656E616D655F66696C6591
:102E30003A206E6577206C69666E616D65206973F6
:102E400020656D7074790A006C69665F72656E61E9
:102E50006D655F66696C653A206F6C64206C6966AD
:102E60006E616D6520697320656D7074790A006C00
:102E700069665F72656E616D655F66696C653A2053
:102E80006C6966696D6167656E616D652069732047
:102E9000656D7074790A0044656C657465643A20E8
:102EA000253130730A004C494620696D6167653AE7
:102EB0005B25735D206C6966206E616D653A5B25EC
:102EC000735D206E6F7420666F756E640A004C49E6
:102ED0004620696D6167653A5B25735D2C204C491E
:102EE00046206E616D653A5B25735D0A006C69660C
:102EF0005F64656C5F66696C653A206C69666E61DB
:102F00006D6520697320656D7074790A006C69665F
:102F10005F64656C5F66696C653A206C6966696DB3
:102F20006167656E616D6520697320656D70747988
:102F30000A000957726F74653A2025386C640A00DC
:102F40000957726F74653A2025386C640D004C493E
:102F50004620696D6167653A5B25735D2C206E6F55
:102F60007420656E6F756768206672656520737082
:102F700061636520666F723A5B25735D0A0046697E
:102F80006C65206E6F7420666F756E643A25730AE7
:102F9000004C494620696D6167653A5B25735D2C7D
:102FA000204C4946206E616D653A5B25735D2C208F
:102FB000757365722066696C653A5B25735D0A00FE
:102FC0006C69665F6164643A207573657266696CEA
:102FD0006520697320656D7074790A006C69665F9D
:102FE0006164643A206C69666E616D652069732066
:102FF000656D7074790A006C69665F6164643A207B
:103000006C6966696D6167656E616D6520697320C5
:10301000656D7074790A000957726F74653A2025DE
:10302000386C640A000957726F74653A2025386C51
:10303000640D0046696C65206E6F7420666F756E56
:10304000643A25730A004C494620696D6167652022
:103050006E6F7420666F756E643A25730A000957A7
:10306000726F74653A2025386C640A006C69665F7B
:10307000657874726163745F653031305F61735F6E
:1030800061736369693A2077726974652065727249
:103090006F720A000957726F74653A2025386C64A4
:1030A0000D006C69665F657874726163745F65308A
:1030B00031305F61735F61736369693A2077726968
:1030C0007465206572726F720A006C69665F65785C
:1030D00074726163745F653031305F61735F617317
:1030E0006369693A20756E657870656374656420FC
:1030F000636F6E74726F6C20627974653A5B253011
:103100003258485D2040206F66667365743A20250A
:10311000386C782C20696E643A25303258480A00A1
:103120006C69665F657874726163745F65303130B5
:103130005F61735F61736369693A20737472696E6A
:103140006720746F6F206269672073697A65203D1C
:103150002025640A0045787472616374696E673A69
:103160002025730A0046696C652025732068617309
:103170002077726F6E6720747970653A5B25303402
:1031800058485D20657870656374656420307845C3
:103190003031302E2E3078453031330A004C4946DC
:1031A0002046696C65206E6F7420666F756E643A98
:1031B00025730A004C494620696D616765206E6F72
:1031C0007420666F756E643A25730A000957726F32
:1031D00074653A2025386C640A0046696C65205392
:1031E0006563746F72733A202020202025346C7838
:1031F000480A00466972737420536563746F723AAB
:10320000202020202025346C78480A00496E64650F
:10321000783A202020202020202020202020253423
:10322000640A004E616D653A202020202020202075
:1032300020202020202025730A004E657720446935
:10324000726563746F727920496E666F726D617416
:10325000696F6E2041465445522077726974650A41
:10326000004C494620696D6167653A5B25735D2CAA
:10327000206E6F7420656E6F756768206672656575
:1032800020737061636520666F723A5B25735D0A17
:10329000004C494620696D6167653A5B25735D2C7A
:1032A000204C4946206E616D653A5B25735D2C208C
:1032B000757365722066696C653A5B25735D0A00FB
:1032C0006C69665F6164645F61736369695F6669A5
:1032D0006C655F61735F653031303A20757365727C
:1032E00066696C65206E6F7420666F756E640A0087
:1032F0006C69665F6164645F61736369695F666975
:103300006C655F61735F653031303A20757365724B
:1033100066696C6520697320656D7074790A006C4C
:1033200069665F6164645F61736369695F66696C44
:10333000655F61735F653031303A206C69666E613C
:103340006D6520697320656D7074790A006C69661B
:103350005F6164645F61736369695F66696C655F1F
:1033600061735F653031303A206C6966696D616701
:10337000656E616D6520697320656D7074790A00F2
:103380000957726F74653A2025386C640D0009572F
:10339000726F74653A2025386C640D000957726F9E
:1033A00074653A2025386C640D0045787065637447
:1033B000656420736563746F7220626F756E6472EA
:1033C000792C206F66667365743A25640A006C690F
:1033D000665F653031305F6461705F736563746F21
:1033E000723A2065787065637465642073656374F0
:1033F0006F7220626F756E6472793A206F666673C1
:1034000065743A25640A006C69665F66696E645F7C
:1034100066696C653A5B25735D206C69666C6162F8
:10342000656C20746F6F206269670A006C69665F63
:1034300066696E645F66696C653A5B25735D2069D9
:103440006E76616C69642063686172616374657231
:10345000730A0025386C64204672656520736563C5
:10346000746F72730A0025386C642055736564208C
:10347000736563746F72730A0025386C6420446945
:10348000722020736563746F72730A0025386C6450
:1034900020446972202073746172740A0025386CAC
:1034A00064205075726765640A0025386C64204694
:1034B000696C65730A000A00252D313073202025C0
:1034C0003034586820202020202025386C5868206F
:1034D000202025396C6425632020202020202534DD
:1034E0006420202025730A004C49462044697265F7
:1034F00063746F72793A5B25735D207761726E69D0
:103500006E672046696C6542797465733A256C6410
:1035100020617320736563746F72733A256C642045
:10352000213D2046696C65536563746F72733A255B
:103530006C640A004E414D45202020202020202090
:103540002054595045202020535441525420534573
:1035500043544F52202020202020202053495A45F8
:103560002020202052454353495A452020204441E1
:1035700054450A00566F6C756D653A5B25735D2086
:10358000446174653A5B25735D0A006C69665F6F20
:1035900070656E5F766F6C756D653A5B25735D2047
:1035A0006572726F72206469726563746F727920DC
:1035B000636865636B206661696C65640A006C69A9
:1035C000665F6F70656E5F766F6C756D653A5B25D3
:1035D000735D206572726F7220766F6C756D6520F9
:1035E00076616C6964617465206661696C65640A02
:1035F000006C69665F6F70656E5F766F6C756D6588
:103600003A5B25735D206572726F7220726561642A
:1036100020766F6C756D65206865616465722066E3
:1036200061696C65640A006C69665F6F70656E5FE6
:10363000766F6C756D653A5B25735D206572726F90
:103640007220766F6C756D652068656164657220A7
:103650006172656120746F6F20736D616C6C3A5B91
:10366000256C645D0A006C69665F6E6577646972DB
:103670003A20696E6465783A5B25645D2061646414
:10368000696E672061743A5B256C645D746F2070AD
:1036900075726765642073706163653A5B256C645D
:1036A0005D20736563746F72732C20667265653A72
:1036B0005B256C645D0A006C69665F6E65776469A2
:1036C000723A206E6F7420656E6F7567682066723F
:1036D00065652073706163653A5B256C645D0A0003
:1036E0006C69665F6E65776469723A206E6F7420EC
:1036F000656E6F75676820667265652073706163BB
:10370000653A5B256C645D20666F722073697A652B
:103710003A5B256C645D0A006C69665F7570646174
:1037200074655F667265653A5B25735D20657272CC
:103730006F722070726576696F7573207265636F42
:1037400072642066696C652061726561206F7665C0
:10375000726C6170732074686973206F6E653A5B78
:1037600025735D0A006C69665F636865636B5F64FF
:1037700069723A206572726F722C20696E64657886
:103780003A25640A006C69665F636865636B646907
:1037900072696E6465783A5B25735D206469726551
:1037A000636F727920696E6465783A5B25645D2089
:1037B0006F7574206F6620626F756E64730A0009FE
:1037C00057726F74653A20256C640A000957726F4E
:1037D00074653A20256C640D000957726F74653A60
:1037E00020256C640D000957726F74653A20256CB2
:1037F000640D004372656174696E673A25732C200D
:103800004C6162656C3A5B25735D2C20446972657E
:1038100063746F727920537461727420256C642C08
:10382000204469726563746F72792053697A653ACE
:1038300020256C642C2046696C6520536563746F89
:1038400072733A256C640A004C49462044697265DB
:1038500063746F72793A5B25735D20696E76616C73
:10386000696420736563746F722073697A653A25A1
:103870006C640A004C4946204469726563746F7237
:10388000793A5B25735D20696E76616C69642046C8
:10389000696C654279746573203D3D20300A004CA7
:1038A0004946204469726563746F72793A5B257387
:1038B0005D207761726E696E672046696C6542793A
:1038C0007465733A256C6420617320736563746F4B
:1038D00072733A256C64203C2046696C65536563BD
:1038E000746F72733A256C640A004C49462044692F
:1038F000726563746F72793A5B25735D20696E76C9
:10390000616C69642046696C6542797465733A2517
:103910006C6420617320736563746F72733A256CF5
:1039200064203E2046696C65536563746F72733A18
:10393000256C640A004C4946204469726563746FC3
:1039400072793A5B25735D20696E76616C696420DB
:10395000566F6C756D65204E756D6265723A2558AF
:10396000680A004C4946204469726563746F727935
:103970003A5B25735D20696E76616C696420656EC3
:103980006420736563746F723A256C5868203E201A
:10399000746F74616C20736563746F72733A256C15
:1039A00058680A004C4946204469726563746F7216
:1039B000793A5B25735D20696E76616C696420736A
:1039C0007461727420736563746F723A256C586801
:1039D000203C2066696520617265612073746172A4
:1039E000743A256C58680A004C494620446972654F
:1039F00063746F72793A5B25735D20696E76616CD2
:103A00006964204E616D650A004C494620566F6C12
:103A1000756D6520696E76616C69642066696C6598
:103A2000207374617274203E20696D616765207334
:103A3000697A650A004C494620566F6C756D6520A1
:103A4000696E76616C6964204469726563746F7233
:103A50007920536563746F7220436F756E74203CD8
:103A600020310A004C494620566F6C756D652069FF
:103A70006E76616C6964207374617274207365631F
:103A8000746F723A256C640A004C494620566F6C7C
:103A9000756D6520696E76616C6964206279746504
:103AA00073206174206F666673657420323226322B
:103AB000332073686F756C64206265207A65726F5D
:103AC0000A004C494620566F6C756D6520696E760C
:103AD000616C6964206279746573206174206F661B
:103AE000667365742031342631352073686F756CC8
:103AF00064206265207A65726F0A004C4946205640
:103B0000657273696F6E3A202530345848203E2024
:103B1000310A004C494620566F6C756D6520696E00
:103B200076616C69642053797374656D333030301D
:103B3000204944202825303458482920657870656C
:103B4000637465642031303030480A004C494620A7
:103B5000566F6C756D6520696E76616C6964205670
:103B60006F6C756D65204E616D65000A00444952A9
:103B70002046696C6520446174653A20202020202D
:103B800020202025730A004449522046696C652094
:103B9000736563746F722073697A653A20253858AB
:103BA000680A004449522046696C65206279746550
:103BB000733A2020202020202025386C58680A00E5
:103BC0004449522046696C6520736563746F727353
:103BD0003A202020202025386C58680A0044495299
:103BE0002046696C652073746172743A202020202D
:103BF00020202025386C58680A0044495220466924
:103C00006C6520566F6C756D65233A20202020204E
:103C1000253858680A004449522046696C6520548A
:103C20007970653A202020202020202025385868EF
:103C30000A004449522046696C65204E616D653A20
:103C4000202020202020202025730A00564F4C20C1
:103C5000446174653A20202020202020202020204C
:103C6000202025730A00564F4C204C494656657259
:103C700073696F6E3A202020202020202538586854
:103C80000A00564F4C20333030304C494669643A74
:103C90002020202020202020253858680A00564F58
:103CA0004C2044697220736563746F72733A2020EC
:103CB0002020202025386C58680A00564F4C20449C
:103CC00069722073746172743A20202020202020B1
:103CD0002025386C58680A00564F4C204C494669DC
:103CE000643A202020202020202020202020253859
:103CF00058680A00564F4C204C6162656C3A20208F
:103D00002020202020202020202025730A004C493C
:103D100046207075726765643A202020202020209C
:103D20002020202025386C58680A004C494620661F
:103D3000696C65733A20202020202020202020203C
:103D40002025386C58680A004C4946206672656523
:103D50003A2020202020202020202020202025382C
:103D60006C58680A004C494620757365643A2020F7
:103D7000202020202020202020202025386C58685A
:103D80000A004C49462066696C6520736563746F50
:103D900072733A202020202025386C58680A004C85
:103DA00049462066696C6573746172743A202020FC
:103DB000202020202025386C58680A004C494620D5
:103DC00062797465733A2020202020202020202052
:103DD000202025386C58680A004C494620736563DA
:103DE000746F72733A20202020202020202020256C
:103DF000386C58680A004C4946206E616D653A205F
:103E000020202020202020202020202025730A0090
:103E10000A25730A006C69665F77726974653A20D7
:103E200057726974653A5B25735D206F66667365CA
:103E3000743A5B256C645D2077726974653A5B2522
:103E4000645D2065787065637465643A5B25645DC4
:103E50000A006C69665F726561643A20726561642C
:103E60003A5B25735D206F66667365743A5B256CFB
:103E7000645D2077726974653A5B256C645D2065CA
:103E8000787065637465643A5B25645D0A006C69EB
:103E9000665F726561645F6D73673A2025732053B6
:103EA00065656B206572726F7220256C640A006C08
:103EB00069665F737461743A2043616E277420737E
:103EC0007461743A25730A006C69665F6F70656E81
:103ED0003A2043616E2774206F70656E3A5B2573DC
:103EE0005D206D6F64653A5B25735D0A006C6966E1
:103EF0005F667265653A204E554C4C20706F696E56
:103F00007465720A006C69665F63616C6C6F633A1A
:103F10005B256C645D206E6F7420656E6F756768DD
:103F20002066726565206D656D6F72790A0044695F
:103F3000736B3A202573206E6F7420666F756E6404
:103F400020696E2068706469722E696E690A006C5F
:103F5000696620616464206C6966696D61676520CB
:103F60006C69666E616D652066726F6D5F6173630B
:103F700069695F66696C650A6C6966206164646280
:103F8000696E206C6966696D616765206C69666E33
:103F9000616D652066726F6D5F6C69665F66696CE6
:103FA000650A6C696620637265617465206C696678
:103FB000696D616765206C6162656C20646972651A
:103FC00063746F72795F736563746F727320736566
:103FD00063746F72730A6C696620637265617465DD
:103FE0006469736B206C6966696D616765206C61DB
:103FF00062656C206D6F64656C0A6C69662064652F
:104000006C206C6966696D616765206E616D650A1B
:104010006C696620646972206C6966696D616765A8
:104020000A6C69662065787472616374206C6966D5
:10403000696D616765206C69666E616D6520746F7E
:104040005F61736369695F66696C650A6C696620A4
:104050006578747261637462696E206C6966696DFB
:10406000616765206C69666E616D6520746F5F6C59
:1040700069665F66696C650A202020206578747225
:104080006163747320612066696C6520696E746F6A
:104090002061207369676C652066696C65204C49F6
:1040A0004620696D6167650A6C69662072656E619C
:1040B0006D65206C6966696D616765206F6C646C05
:1040C00069666E616D65206E65776C69666E616D9F
:1040D000650A557365202D642061667465722066DB
:1040E00069727374206B6579776F726420276C69CD
:1040F00066272061626F766520666F72204C4946A4
:104100002066696C6573797374656D20646562758A
:104110006767696E670A0A006C69662068656C707B
:104120000A005374617274696E67204750494220D7
:104130005441534B0A0064656275676C6576656C23
:104140002020203D2025303478480A00475049423D
:1041500020537461746520696E697420646F6E65A4
:104160000A00475049422046696C6520696E6974AF
:1041700020646F6E650A00475049422054696D659E
:104180007220696E697469616C697A65640A0047B6
:104190005049422054696D65722053657475700AE8
:1041A000005072696E74657220696E697469616C21
:1041B000697A65640A004750494220627573206934
:1041C0006E697469616C697A65640A004D4D4320BB
:1041D000696E697469616C697A65640A004D4D4362
:1041E00020696E697469616C697A696E672073749D
:1041F0006172740A00493243204C434420697320A1
:104200004E4F54206174746163686564210A0049EB
:104210003243204C434420696E697469616C697A49
:104220006174696F6E20446F6E650A0049324320E5
:104230004C434420696E697469616C697A61746980
:104240006F6E2073746172740A0053595354454D54
:104250005F5441534B5F434F554E5445525F524557
:10426000533A256C640A00436C6F636B20636C6582
:10427000617265640A00696E697469616C697A6962
:104280006E67205254430A00696E697469616C69F3
:104290007A696E6720493243206275730A00696E3D
:1042A000697469616C697A696E672053504920624C
:1042B00075730A002020204C61737420757064614E
:1042C0007465642066696C653A2025730A002020B5
:1042D00020474954206C617374207075736865645D
:1042E0003A20202025730A002D3E206874747073D4
:1042F0003A2F2F6769746875622E636F6D2F6D6139
:10430000676F72652F687038356469736B0A0020B7
:10431000474E552076657273696F6E20330A002010
:1043200028432920323031342D3230323020627926
:10433000204D696B6520476F72650A00485038351B
:10434000204469736B20616E6420446576696365FF
:1043500020456D756C61746F720A005265717565E8
:1043600073746564204261756420526174653A20FB
:10437000256C642C2041637475616C3A20256C6453
:104380000A0043505520436C6F636B203D20256C21
:10439000750A0053746172740A004572726F723A42
:1043A0005B25735D0A004F4B0A000A3E0068656C8E
:1043B000700A6D656D0A736574646174650A746969
:1043C0006D650A72657365740A0A000A0020202070
:1043D0004C61737420757064617465642066696CE7
:1043E000653A2025730A00202020474954206C613B
:1043F0007374207075736865643A20202025730AF1
:10440000002D3E2068747470733A2F2F67697468AA
:1044100075622E636F6D2F6D61676F72652F6870A7
:1044200038356469736B0A0020474E5520766572F3
:1044300073696F6E20330A002028632920323031DF
:10444000342D32303230206279204D696B6520473F
:104450006F72650A0048503835204469736B2061DB
:104460006E642044657669636520456D756C617482
:104470006F720A005374616E6420616C6F6E652008
:1044800076657273696F6E206F66204C49462075A1
:1044900074696C697469657320666F72206C696EEB
:1044A00075780A0011241FBECFEFD0E4DEBFCDBF68
:1044B00017E1A0E0B1E0EEE5FAEC01E00BBF02C0CD
:1044C00007900D92AE33B107D9F721E2AEE3B7E121
:1044D00001C01D92A437B207E1F70E945ADD0C9487
:1044E0002DE50C9400002F923F924F925F926F92B5
:1044F0007F928F929F92AF92BF92CF92DF92EF9274
:10450000FF920F931F93CF93DF93CDB7DEB76097E2
:104510000FB6F894DEBF0FBECDBF7C011B016A0150
:10452000FC0117821682838181FF44C39E012F5FA5
:104530003F4F3901F7019381F10193FD859193FF7D
:1045400081911F01882309F431C3853239F493FD29
:10455000859193FF81911F01853239F4B70190E075
:104560000E94297556016501E5CF10E0512C912C70
:10457000FFE1F915D8F08B3279F038F4803279F018
:104580008332A1F4F92DF0612EC08D3261F08033B9
:1045900069F4292D21602DC0392D3260932E892D8B
:1045A0008460982E2AC0E92DE86015C097FC2DC0C4
:1045B00020ED280F2A3088F496FE06C03AE0139FBB
:1045C000200D1124122F19C08AE0589E200D1124AD
:1045D000522EE92DE0629E2E10C08E3231F496FCF0
:1045E000E5C2F92DF0649F2E08C08C3621F4292DE8
:1045F0002068922E02C0883641F4F10193FD859126
:1046000093FF81911F018111B3CF9BEB980F9330E2
:1046100020F4992D9061805E07C09BE9980F93303C
:1046200008F066C1992D9F7E96FF16E09F73992E24
:10463000853619F49064992E08C0863621F4392FF6
:104640003068932E02C01111115097FE07C01C3321
:1046500050F444244394410E27E00BC0183038F046
:1046600027E017E005C027E09CE3492E02C0212F78
:10467000412C560184E0A80EB11CF60160817181C5
:1046800082819381042DA3010E94DAE36C01F981F8
:10469000FC87F0FF02C0F3FF06C091FC06C092FE4B
:1046A00006C000E205C00DE203C00BE201C000E05D
:1046B0008C858C7019F001115AC29BC297FE10C0F4
:1046C0004C0CFC85F4FF04C08A81813309F44A94C0
:1046D000141474F528E0241578F588E0482E2CC0D1
:1046E00096FC2AC0812F90E08C159D059CF03CEF34
:1046F000C3163FEFD30674F0892D8068982E0AC048
:10470000E2E0F0E0EC0FFD1FE10FF11D808180334E
:1047100019F411501111F4CF97FE0EC044244394A4
:10472000410E812F90E0C816D9062CF41C1904C044
:104730004424439401C010E097FE06C01C141D04DD
:1047400034F4C601019605C085E090E002C081E026
:1047500090E001110196112331F0212F30E02F5FFD
:104760003F4F820F931F252D30E08217930714F4DB
:10477000581A01C0512C892D897049F4552039F0FF
:10478000B70180E290E00E9429755A94F7CF002388
:1047900029F0B701802F90E00E94297593FC09C091
:1047A000552039F0B70180E390E00E9429755A94B2
:1047B000F7CF97FE4CC04601D7FE02C0812C912C4A
:1047C000C60188199909F301E80FF91FFE87ED87E3
:1047D000960124193109388B2F87012F10E011958C
:1047E000019511093FEF8316930629F4B7018EE274
:1047F00090E00E942975C814D9044CF08F859889DF
:104800008815990524F4ED85FE85818101C080E33A
:10481000F1E08F1A91082D853E852F5F3F4F3E872F
:104820002D87801691062CF0B70190E00E94297523
:10483000D9CFC814D90441F49A81963320F4953322
:1048400019F43C8534FF81E3B70190E04EC08A81C2
:10485000813319F09C859F7E9C87B70190E00E9470
:104860002975111105C094FC18C085E690E017C0A9
:10487000B7018EE290E00E9429751E5F82E001E0A0
:10488000080FF301E80FF11D8081B70190E00E944D
:104890002975802F0113F3CFE6CF85E490E0B701AF
:1048A0000E942975D7FC06C0C114D10441F4EC85DF
:1048B000E4FF05C0D194C194D1088DE201C08BE220
:1048C000B70190E00E94297580E32AE0C216D10466
:1048D0002CF08F5FFAE0CF1AD108F7CFB70190E044
:1048E0000E942975B701C601C0960E94297554C15E
:1048F000833631F0833779F0833509F056C020C014
:10490000560132E0A30EB11CF6018081898301E0DB
:1049100010E0630112C05601F2E0AF0EB11CF601C7
:10492000C080D18096FE03C0612F70E002C06FEF9F
:104930007FEFC6010E94C4E48C01F92DFF7714C0FB
:10494000560122E0A20EB11CF601C080D18096FE75
:1049500003C0612F70E002C06FEF7FEFC6010E94BD
:10496000B2E48C01F92DF0689F2EF3FD1AC0852D5D
:1049700090E008171907A8F4B70180E290E00E94C0
:1049800029755A94F4CFF60197FC859197FE819191
:104990006F01B70190E00E94297551105A9401509F
:1049A00011090115110579F7F7C0843611F0893620
:1049B00061F5560197FE09C024E0A20EB11CF60174
:1049C00060817181828193810AC0F2E0AF0EB11CD7
:1049D000F60160817181072E000C880B990BF92D6F
:1049E000FF769F2E97FF09C09095809570956195F1
:1049F0007F4F8F4F9F4FF0689F2E2AE030E0A3013A
:104A00000E94CFE4C82EC6183FC0092D853721F477
:104A10000F7E2AE030E01DC0097F8F3691F018F438
:104A2000883559F0C3C0803719F0883711F0BEC0FF
:104A3000006104FF09C0046007C094FE08C006605E
:104A400006C028E030E005C020E130E002C020E1EF
:104A500032E0560107FF09C084E0A80EB11CF60140
:104A6000608171818281938108C0F2E0AF0EB11C38
:104A7000F6016081718180E090E0A3010E94CFE4A3
:104A8000C82EC6180F77902E96FE0BC0092D0E7FEC
:104A9000C11650F494FE0AC092FC08C0092D0E7E87
:104AA00005C0DC2C092D03C0DC2C01C0D12E04FF75
:104AB0000DC0FE01EC0DF11D8081803311F4097EE3
:104AC00009C002FF06C0D394D39404C0802F867817
:104AD00009F0D39403FD11C000FF06C01C2DD514AE
:104AE00080F4150D1D190DC0D51458F4B70180E2DE
:104AF00090E00E942975D394F7CFD51410F45D1877
:104B000001C0512C04FF10C0B70180E390E00E9467
:104B1000297502FF17C001FD03C088E790E002C0BD
:104B200088E590E0B7010CC0802F867859F001FF2E
:104B300002C08BE201C080E207FD8DE2B70190E088
:104B40000E942975C11638F4B70180E390E00E94F5
:104B500029751150F7CFCA94F301EC0DF11D808136
:104B6000B70190E00E942975C110F5CF15C0F4E09F
:104B7000F51560F584E0581A93FE1FC0011127C097
:104B80002C8523FF2AC006ED11E0392D3071932EBC
:104B9000F8018491811124C0552009F4E4CCB701B7
:104BA00080E290E00E9429755A94F6CFF701868141
:104BB000978126C08FEF9FEF23C0B70180E290E07E
:104BC0000E9429755A945110F8CFD8CF512CB701B3
:104BD000802F90E00E942975D3CF0AED11E0D5CF48
:104BE00091108052B70190E00E9429750F5F1F4F0E
:104BF000CFCF23E0251510F483E0BDCF512CC0CFDB
:104C000060960FB6F894DEBF0FBECDBFDF91CF9197
:104C10001F910F91FF90EF90DF90CF90BF90AF90DA
:104C20009F908F907F906F905F904F903F902F90CC
:104C30000895E82FE695E695E69593E0E99FF00163
:104C4000112432A1282F277081E090E001C0880F45
:104C50002A95EAF7982F9095932392A391A1892BF7
:104C600081A30895E82FE695E695E69593E0E99F00
:104C7000F001112432A1282F277081E090E001C0BB
:104C8000880F2A95EAF7932F982B92A391A1892B4D
:104C900081A30895E7CF0895CF93ADB7BEB7179717
:104CA0000FB6F894BEBF0FBEADBFC82F80910A01EA
:104CB0008C1799F08F3F89F02C2F30E0EDB7FEB7BD
:104CC0003783268390E09583848388ED92E0A0E08B
:104CD00081839283A3830E94A5458C2FC3DF8FEF2E
:104CE00080930A01ADB7BEB717960FB6F894BEBF52
:104CF0000FBEADBFCF910895C2C40895EAC4089510
:104D0000A1E0B0E0E6E8F6E20C94EEDF898361E032
:104D100070E0CE010196B3D42196E2E00C940AE053
:104D2000CF92DF92EF92FF926B017C01842F9ADF8A
:104D30008FEF80930A01C701B60174D480E090E040
:104D400031D48FEFDDDFC0920601D0920701E092EF
:104D50000801F0920901FF90EF90DF90CF90089545
:104D6000CF92DF92EF92FF92CF93DF93ADB7BEB7B2
:104D700017970FB6F894BEBF0FBEADBF6B017C0195
:104D8000EA0180910A018F3F79F0EDB7FEB74683C3
:104D9000D78390E09583848386EF92E0A0E08183BF
:104DA0009283A3830E94A5458091060190910701FB
:104DB000A0910801B09109018C159D05AE05BF05B4
:104DC00021F0AE01C701B601ABDF8C2F32DFC093FB
:104DD0000A01ADB7BEB717960FB6F894BEBF0FBEA7
:104DE000ADBFDF91CF91FF90EF90DF90CF9008950E
:104DF000A1E0B0E0EEEFF6E20C94EEDF898361E033
:104E000070E0CE0101964FD489812196E2E00C94A6
:104E10000AE0A2E0B0E0EFE0F7E20C94EEDF2091D0
:104E20007021309171212115310511F424E731E20F
:104E3000CE010196821B930B2296E2E00C940AE0CD
:104E4000A9E0B0E0E6E2F7E20C94EEDFE2DF99875A
:104E50008887EDB7FEB7958384838DE194E0A0E069
:104E600081839283A3830E94A5458FEF90E4EDB7E1
:104E7000FEB7958384838AE094E0A0E081839283E7
:104E8000A3830E94A545CE010896EDB7FEB7958392
:104E9000848387EF93E0A0E081839283A3830E94C1
:104EA000A54584E791E2EDB7FEB7978386838EE34D
:104EB00097E19583848389ED93E0A0E081839283D9
:104EC000A3830E94A5458EE397E1EDB7FEB79783D4
:104ED000868380E091E0958384838BEB93E0A0E070
:104EE00081839283A3830E94A54580E090E0EDB783
:104EF000FEB79783868384E791E2958384838DE967
:104F000093E0A0E081839283A3830E94A5458091D2
:104F1000000190910101EDB7FEB7978386838091E0
:104F2000020190910301958384838FE793E0A0E0D1
:104F300081839283A3830E94A545809170219091E3
:104F40007121EDB7FEB7958384838BE693E0A0E0F3
:104F500081839283A3830E94A5452996E2E00C9465
:104F60000AE0EF92FF920F931F93CF93DF93ADB7B9
:104F7000BEB717970FB6F894BEBF0FBEADBF8C017A
:104F80007B010E949BE2EC01892B71F4EDB7FEB727
:104F9000F782E6821583048380E593E0A0E08183B5
:104FA0009283A3830E94A545CE01CDB7DEB7279695
:104FB000E6E00C9406E00F931F93CF93DF9300D0AD
:104FC00000D01F928C0161E070E00E949BE2EC0136
:104FD000892B61F4EDB7FEB71583048388E393E072
:104FE000A0E081839283A3830E94A545CE01CDB723
:104FF000DEB72596E4E00C9408E0ADB7BEB717978E
:105000000FB6F894BEBF0FBEADBF009711F120914F
:105010007021309171212115310511F424E731E21D
:1050200041E28437940730F02817390718F00E94BE
:105030004DE30FC0EDB7FEB7378326839583848396
:1050400083E193E0A0E081839283A3830E94A5453E
:10505000F7DEADB7BEB717960FB6F894BEBF0FBE5A
:10506000ADBF0895643671058105910558F0645609
:10507000710981099109E3EFF1E03197F1F700C07F
:105080000000F0CF6A3071058105910548F06A5043
:10509000710981099109F2E4FA95F1F700C0F2CFA4
:1050A000611571058105910549F06150710981090A
:1050B000910926E02A95F1F700C0F2CF0895611515
:1050C00071058105910509F441C0E3EFF1E03197E5
:1050D000F1F700C00000E3EFF1E03197F1F700C015
:1050E0000000E3EFF1E03197F1F700C00000E3EFDB
:1050F000F1E03197F1F700C00000E3EFF1E0319704
:10510000F1F700C00000E3EFF1E03197F1F700C0E4
:105110000000E3EFF1E03197F1F700C00000E3EFAA
:10512000F1E03197F1F700C00000E3EFF1E03197D3
:10513000F1F700C00000E3EFF1E03197F1F700C0B4
:1051400000006150710981099109B9CF0895811159
:105150000EC0F8941092BB191092BA191092B71998
:105160001092B8191092B9191092BC197894089538
:105170004F925F926F927F928F929F92AF92BF9267
:10518000CF92DF92EF92FF92CF93DF935A01E90122
:105190000E9439E12B013C0120E030E040E051E485
:1051A0000E94EFE19B01AC0160E876E988E99BE4AD
:1051B0000E94A0E020E030E040E85FE30E9437E09A
:1051C0000E9452E20E940DE16B017C01C11480E15A
:1051D000D806E104F10458F481E090E0F5019183F0
:1051E0008083812C912CA12C21E4B22E31C0F501B9
:1051F0001182108220E030E040E851E4C301B201A6
:105200000E94EFE19B01AC0160E876E988E99BE44C
:105210000E94A0E020E030E040E85FE30E9437E039
:105220000E9452E20E940DE16B017C01812C912CC5
:1052300090E8A92E91E4B92EC114F0E1DF06E10453
:10524000F10430F0CC24CA948FE0D82EE12CF12C5C
:10525000C701B6016F5F7F4F8F4F9F4F0E9439E1AB
:10526000A50194010E94EFE19B01AC0160E876E9A1
:1052700088E99BE40E94A0E00E940DE168837983A5
:105280008A839B83C601DF91CF91FF90EF90DF90DF
:10529000CF90BF90AF909F908F907F906F905F90D6
:1052A0004F900895A6E0B0E0E8E5F9E20C94EEDF57
:1052B0001E821D82811136C0CB01BA019E012F5F73
:1052C0003F4FAE014B5F5F4F53DFF8941092BB1915
:1052D0001092BA191092B7191092B8191092B91900
:1052E0001092BC197894F894589A599A5098519AF7
:1052F00028E92093C1002D813E81232B19F022E063
:105300002093C0009093C5008093C40078946AE411
:105310007AE28FE59AE20E94F27769817A818B8145
:105320009C8103C060E070E0CB012696E2E00C9423
:105330000AE0CF93DF9327E5829FC0011124FC018F
:10534000E954F64E83819481803591057CF4308157
:1053500021E0230F2083EF01C30FD11D6E8301963F
:1053600094838383203528F0108203C08581816077
:105370008583DF91CF9108951F920F920FB60F9200
:1053800011240BB60F922F933F934F935F936F931C
:105390007F938F939F93AF93BF93EF93FF9360910E
:1053A000C60080E0C6DFFF91EF91BF91AF919F9162
:1053B0008F917F916F915F914F913F912F910F90BE
:1053C0000BBE0F900FBE0F901F901895811107C054
:1053D000F8948091BA199091BB19789408958FEF41
:1053E0009FEF0895811121C080E0F0DF18161906A3
:1053F000DCF7F894E091B81991E09E0F9093B819FA
:10540000F0E0E954F64E8681903510F01092B8190C
:105410002091BA193091BB19215031093093BB1931
:105420002093BA19789490E008958FEF9FEF089534
:10543000D9DF99270895611109C02091C00025FF87
:10544000FCCF282F2F772093C6000895613049F4B0
:105450002091C80025FFFCCF282F2F772093CE0066
:1054600008958FEF9FEF0895CF9381110FC0E0DF74
:10547000C82F60E090E0DFDFCD3029F460E08AE003
:1054800090E0D9DFCAE08C2F90E002C08FEF9FEF51
:10549000CF91089580E0E8CF08951F93CF93DF93D5
:1054A000EC01162FC8DFCA30D10521F4612F8DE041
:1054B00090E0C1DFCE01DF91CF911F910895CF938E
:1054C000DF93EC0160E070E0E8DFCE01DF91CF9187
:1054D00008957CCF0895CF92DF92EF92FF926B01F7
:1054E0007C018091401790914117A0914217B09193
:1054F00043178C159D05AE05BF0509F44EC060E04D
:105500007DE281E391E0A70196010E9471DF2038DE
:1055100031054105510528F4203431054105510577
:1055200030F08DB58E7F8DBD8CB582601BC08DB582
:10553000203231054105510528F081608DBD8CB5C3
:1055400082601FC0203131054105510510F08E7F6A
:1055500006C0283031054105510540F081608DBD00
:105560008CB58D7F8CBD8CB581600EC0243031052B
:105570004105510510F08E7F01C081608DBD8CB555
:105580008D7F8CBD8CB58E7F8CBDC0924017D09224
:105590004117E0924217F0924317FF90EF90DF908F
:1055A000CF900895CF93DF9300D000D01F92EC01ED
:1055B0008130910571F02CF4892BC1F48CB5877F73
:1055C00011C08230910561F0039781F48CB5886039
:1055D00002C08CB5877F8CBD8CB584608CBD12C039
:1055E0008CB588608CBD8CB58B7FF8CFEDB7FEB7DE
:1055F000D583C4838AE294E0A0E081839283A3836D
:105600000E94A545D0933F17C0933E17CDB7DEB794
:105610002596E2E00C940AE08EBD0DB407FEFDCFA6
:105620008EB50895CF92DF92EF92FF92CF93DF93E2
:105630001F92CDB7DEB76B017C011CBC2F9A279A55
:105640002D9A259A26982C98249A8CB580618CBD29
:105650008CB580648CBD8DB589838EB5898380E0DF
:1056600090E0A0DFC701B60136DF8FEFD5DF0F90E6
:10567000DF91CF91FF90EF90DF90CF9008950F933F
:105680001F93CF93DF938C01EB011C161D0634F49E
:10569000F80181918F01C0DF2197F7CFDF91CF9182
:1056A0001F910F9108950F931F93CF93DF938C0158
:1056B000EB011C161D0644F4F8018081ADDFF801F2
:1056C00081938F012197F5CFDF91CF911F910F919A
:1056D00008950F931F93CF93DF938C01EB011C165A
:1056E0001D063CF48FEF98DFF80181938F0121971D
:1056F000F6CFDF91CF911F910F910895409A419A73
:10570000ECEBF0E09081946090838093B90060931B
:10571000B800089584E98093BC00089594EA9093BA
:10572000BC0024E6629FB0011124615071099B0105
:1057300040E050E0E4EA2F3F9FEF390741F1411587
:105740005105F1F49091BC0097FF13C09091B900FE
:10575000987F903161F0983339F0983041F084E0CF
:105760008093BC0081E00895E093BC0006C041E056
:1057700050E092E49A95F1F700C021503109DBCF57
:10578000232B29F484E08093BC0082E00895809369
:10579000BB0084E88093BC006F3F8FEF780771F007
:1057A0002091BC00CB01019727FD06C022E42A9579
:1057B000F1F700C0BC01F0CF672B61F08091B90018
:1057C000887F883149F0803439F084E98093BC00C7
:1057D00084E0089583E0089580E008958093BB00FD
:1057E00084E88093BC008091BC0087FFFCCF90913F
:1057F000B900987F21E030E0983211F020E030E0ED
:10580000C9010895FC016115710511F494EC01C002
:1058100094E89093BC008091BC0087FFFCCF8091FE
:10582000BB0080832091B900287F81E090E0672B46
:1058300019F0283519F403C0203509F080E00895E7
:10584000A0E0B0E0E6E2FCE20C94E5DFF82EB62E34
:10585000942EA52EC22F8E7F61DFD82F81112BC0F1
:10586000C92CDA2CCC2339F0F60181916F01B6DF17
:10587000C150892BB9F76B2D8F2D81604FDFD82F49
:10588000811119C0CFEFCE0DCF3F91F07801FFEF1E
:10589000EF1AFF0A61E070E0CC2311F060E070E0E5
:1058A000C801B0DFC150892B11F08701EDCFD5E0E1
:1058B00084E98093BC008D2FCDB7DEB7EBE00C946C
:1058C00001E0A0E0B0E0E7E6FCE20C94E7DFB42EF4
:1058D000F52EC22F8E7F22DFD82F81111AC0CB2C3C
:1058E000DF2CCC2341F0F60181916F0177DFC150AD
:1058F000892BB9F7D5E06801EE2041F0F6018191DE
:105900006F016CDFEA94892BB9F7D5E084E98093C5
:10591000BC008D2FCDB7DEB7E9E00C9403E01F92F9
:105920000F920FB60F9211240BB60F922F933F9345
:105930004F935F936F937F938F939F93AF93BF9397
:10594000EF93FF938091B900887FE0914417F09125
:105950004517309709F46FC0908190FF39C08034AB
:1059600081F038F4803109F445C0883309F494C0DB
:1059700036C0803559F08835F1F0883409F05BC0C5
:1059800054C08181813009F04AC013C0A381B48121
:10599000828191E0980F92839091BB00A80FB11D76
:1059A0009C938281218190E0019630E082179307D9
:1059B000B1F585E87CC083819481228131E0320F8A
:1059C00032833091BB00FC01E20FF11D308335C002
:1059D000803259F138F4803169F08831A1F0883093
:1059E00051F508C08033E9F0883309F455C0883296
:1059F00011F505C081818823F1F012820DC09281DA
:105A000081819817D0F483819481228131E0320F13
:105A10003283FC01E20FF11D80818093BB0085EC95
:105A200046C092818181981740F4E0914617F09129
:105A3000471783E01DC00E94D6E3E0914617F0911E
:105A4000471784818F5F84839381891780F48481D1
:105A500090E0019645E0489F9001499F300D112448
:105A6000E20FF31FF0934517E093441715C081E050
:105A70008283E0914617F091471780819181892BAD
:105A800069F080819181909347178093461705961E
:105A9000909345178093441785EE09C010924717DD
:105AA00010924617109245171092441785ED809377
:105AB000BC00FF91EF91BF91AF919F918F917F912A
:105AC0006F915F914F913F912F910F900BBE0F906F
:105AD0000FBE0F901F9018956AE00E943EDF8295DE
