:100000000C94F4250C9413260C9413260C941326AC
:100010000C9413260C9413260C9413260C9413267C
:100020000C9413260C9413260C9413260C9413266C
:100030000C9413260C94A2330C9413260C941326C0
:100040000C9413260C9413260C9413260C9413264C
:100050000C94C3290C9413260C9413260C94132689
:100060000C9413260C9413260C94C52D0C94132673
:100070000C9413260C9413260C9413260C9413261C
:100080000C9413260C9413260C941326D243224569
:100090000A44F544F544224522452245224522459D
:1000A000224522452245D243CF43224522451845C9
:1000B0002245044422452245D24322452245224579
:1000C000224522452245224522452245D2431D454F
:1000D0000A44F544F544224522452245224522455D
:1000E000224522452245D243CF432245224513458E
:1000F0002245044422452245D243474588463A4595
:10010000A245864588468846884688468846884669
:100110008846884654456845884688462E4688461F
:1001200036458846884668458846884688468846D3
:10013000884688468846884688464745D6453A4593
:10014000A245864588468846884688468846884629
:10015000884688465445684588468846D645884638
:1001600036458846884668456769716979697C695A
:100170007F698269856988698B6964876C879D87D7
:10018000B687D287DF87FB8725880888659F35A0DB
:1001900071A0A4A0B4A0D1A031A11CA21CA21CA239
:1001A00065A191A1D4A1EBA1FE9F11A0A2BD61BD4B
:1001B00061BD61BD61BD25BD2CBD33BD43BD51BD1C
:1001C0004ABD63735F64697361626C6520776173B4
:1001D0003A2025642C2077616E743A2025640A0049
:1001E00063735F656E61626C65207761733A202589
:1001F000642C2077616E743A2025640A007361666E
:1002000065667265653A2046524545204552524F13
:100210005220282575292C20746F703A28257529BD
:100220000A00736166656D616C6C6F6328256429D3
:10023000206661696C6564210A00736166656361AB
:100240006C6C6F632825642C256429206661696CB9
:100250006564210A0020205F5F62726B76616C3AF0
:10026000202020202535750A0020204D616C6C6F00
:1002700063207374617274202535752020656E6467
:100280003A202535750A002020486561703A2073B0
:10029000746172743A202535752C20656E643A209D
:1002A0002535750A00202044617461202073746133
:1002B00072743A202535752C20656E643A202535F8
:1002C000750A0020204253532020207374617274F9
:1002D0003A202535752C20656E643A202535750A3F
:1002E000002020537461636B20467265653A2020BC
:1002F00025750A002020537461636B20546F703A97
:1003000020202025750A00467265652052616D3AED
:1003100025750A00535049305F4D6F64653A204996
:100320006E76616C6964206D6F6465282564290AA6
:10033000000A007461736B3A2025640A0069326315
:100340005F7461736B2E6572726F723A2025640A56
:10035000006932635F7461736B2E646F6E653A205F
:1003600025640A000A00202054575F4D545F444121
:1003700054415F4E41434B0A00202054575F4D5477
:100380005F534C415F4E41434B0A00202054575F5E
:100390004D525F534C415F4E41434B0A0020204F6A
:1003A000505F4552524F520A0020204F505F4C453B
:1003B0004E0A0020204F505F54494D454F55540A76
:1003C00000202025730A006932635F74696D6572CD
:1003D00020696E6974206661696C65640A0069321F
:1003E000635F696E6974207072657363616C652008
:1003F0006F766572666C6F770A00493243206F70C2
:100400005B25645D2D3E6C656E203D3D20300A000D
:10041000493243206F705B25645D2D3E6275662016
:100420003D3D204E554C4C0A00493243206F705BD5
:10043000494E444558202564203E3D2025645D0AF0
:10044000007274635F696E697420207772697465E5
:100450002065706F6368206661696C65640A00726C
:1004600074635F72756E207772697465206572724D
:100470006F720A007274635F72756E2072656164D8
:10048000206572726F720A007274635F72656164D4
:10049000206572726F720A007274635F777269749A
:1004A00065206572726F720A006932635F727463ED
:1004B0005F726561642064617461206572726F723D
:1004C0000A006932635F7274635F72656164206100
:1004D000646472657373206572726F720A006932A8
:1004E000635F7274635F77726974652064617461BD
:1004F000206572726F720A002573206578706563DB
:1005000074656420256420617267756D656E74730F
:10051000206F6E6C7920676F742025640A003D3D62
:100520003D3D3D3D3D3D3D3D3D3D3D3D3D3D3D3DFB
:100530003D3D3D3D3D3D3D3D3D3D3D3D0A00546918
:100540006D65727320656E61626C65640A00436C50
:100550006F636B20496E7374616C6C65640A004351
:100560006C6F636B207461736B20696E69742066B5
:1005700061696C65640A00436C6F636B20496E6946
:10058000740A0054696D65727320636F6E666967E3
:10059000757265640A0054696D65727320696E69CD
:1005A000742063616C6C65640A005B54696D653A24
:1005B00025735D0A005B25732054696D653A2573C8
:1005C0005D0A00256C642E2530396C6400736574F7
:1005D0005F74696D6572733A204E6F206D6F72653E
:1005E0002074696D657273210A00636C6B207469F5
:1005F0006D653A2020202025730A00636C6B207300
:1006000065636F6E64733A20256C750A005254431B
:100610002072656164206661696C65640A007274A9
:10062000632074696D653A2020202025730A0072CA
:100630007463207365636F6E64733A20256C750A6A
:1006400000757365207365746461746520636F6DF4
:100650006D616E6420746F206368616E67652074DD
:10066000696D650A00727463207265616420657249
:10067000726F72616674657220696E69740A0072C5
:10068000746320666F72636520696E6974206661A9
:10069000696C65640A00617474656D7074696E6775
:1006A0002072746320696E69740A00727463207525
:1006B0006E696E6974696C697A65640A0072746344
:1006C00020666F72636520696E6974206661696C6B
:1006D00065640A00696E76616C6964206D696E3AC2
:1006E0002025640A00696E76616C696420686F7504
:1006F000723A2025640A00696E76616C6964206430
:1007000061793A2025640A00696E76616C6964201B
:100710006D6F6E3A2025640A00696E76616C6964BB
:1007200020796561723A2025640A00456E7465720D
:1007300020646174652059595959204D4D20444415
:100740002048483A4D4D3A5353203E00257320250A
:10075000732025326420253032643A253032643AE1
:1007600025303264202534640073656C6563742021
:100770006661696C6564210A00454E44204D4D4315
:1007800020494E49540A004D4D4320426C6F636B23
:100790002053697A653A20256C640A004D4D432048
:1007A000426C6F636B2053697A65202D20726561FE
:1007B00064206661696C65640A002C20436F64657F
:1007C00020706167653A2025750A004C464E204529
:1007D0006E61626C6564004D4D432043617264201C
:1007E000496E7365727465640A002A2A2A204D4D89
:1007F000432043617264204E4F5420496E736572EA
:1008000074656421202A2A2A0A0053544152542034
:100810004D4D4320494E49540A004D4D4320544903
:100820004D454F55540A004D4D4320436C6F636B4B
:10083000207461736B20696E6974206661696C65F0
:10084000640A000A0025732025752F253032752F84
:100850002530327520253032753A25303275202505
:10086000396C752025730066617466735F66696C08
:10087000696E666F5F6C6973743A20656D70747928
:100880000A0025752066696C65732C20256C75201F
:1008900062797465732E0A257520666F6C646572C3
:1008A000732E0A256C75204B4220746F74616C2086
:1008B0006469736B2073706163652E0A256C752003
:1008C0004B4220617661696C61626C652E0A00663C
:1008D000617466735F7374617475732066617466A6
:1008E000735F7363616E5F66696C657320666169CF
:1008F0006C65640A00566F6C756D6520532F4E2031
:10090000202020202020202020202020203D2025C5
:100910003034582D253034580A00566F6C756D658B
:10092000206E616D652020202020202020202020A6
:1009300020203D2025730A0066617466735F73741E
:100940006174757320665F6765746C6162656C20A5
:100950006661696C65640A00446174612073746146
:10096000727420286C626129202020202020202001
:100970003D20256C750A00444952207374617274DD
:1009800020286C62612C636C7573746F7229203D32
:1009900020256C750A0046415420737461727420DE
:1009A000286C6261292020202020202020203D204A
:1009B000256C750A004E756D626572206F66206346
:1009C0006C7573746572732020202020203D2025D3
:1009D0006C750A00536563746F72732F464154201F
:1009E0002020202020202020202020203D20256C99
:1009F000750A00526F6F742044495220656E7472FC
:100A000069657320202020202020203D2025750AA4
:100A1000004E756D626572206F66204641547320EA
:100A20002020202020202020203D2025750A004263
:100A3000797465732F436C75737465722020202060
:100A4000202020202020203D20256C750A004641D2
:100A50005420747970652020202020202020202020
:100A60002020202020203D2025730A006661746626
:100A7000735F73746174757320665F676574667203
:100A80006565206661696C65640A006661746673F9
:100A9000207374617475733A25730A0072633D257F
:100AA000750A002C202531306C754B2062797465F5
:100AB0007320667265650A002534752046696C6589
:100AC0002873292C2531306C752062797465732068
:100AD000746F74616C0A2534752044697228732917
:100AE000004C697374696E673A5B25735D0A004553
:100AF0004E44204D4D4320544553540A004D4D4320
:100B0000204469726563746F7279204C6973740A4A
:100B1000005354415254204D4D4320544553540AE0
:100B2000004E6F74653A2066617466732074657355
:100B30007473204D55535420737461727420776917
:100B400074682022666174667322206B6579776F02
:100B500072640A66617466732068656C700A666107
:100B6000746673206D6D635F746573740A66617477
:100B70006673206D6D635F696E69740A6661746681
:100B800073206C73206469726563746F72790A668E
:100B900061746673207374617475730A0A00257337
:100BA0000A0025733A2025730A005365656B206699
:100BB00061696C6564006670757463207374726536
:100BC000616D2D3E707574204E554C4C0A00666761
:100BD0006574632073747265616D2D3E6765742062
:100BE0004E554C4C0A0046696C65733A2025640AE0
:100BF000006E616D653A5B25735D20746F6F206CCC
:100C00006F6E6720776974682066756C6C20706100
:100C100074680A006F70656E646972206661696C41
:100C200065640A004C697374696E673A5B25735D8D
:100C30000A006C733A2063616E6E6F742073746186
:100C400074205B25735D0A006C733A2043616E2744
:100C500074206765742063757272656E74206469B0
:100C6000726563746F72790A002573206E6F6E650A
:100C7000206E6F6E65202531326C6420257320252F
:100C8000730A0025730A0063616E206E6F7420730F
:100C90007461743A2025730A000D004D6F72652E41
:100CA0002E00256C7520627974657320636F7069FE
:100CB00065642E0A00436F706965643A20253038F8
:100CC0006C640D005772697465206572726F720AE8
:100CD000000A436F7079696E672E2E2E0A004361F9
:100CE0006E2774206F70656E3A2025730A00437278
:100CF000656174696E672025730A0043616E27740D
:100D0000206F70656E3A2025730A004F70656E691A
:100D10006E672025730A00256C6420627974657300
:100D20000A000A0043616E2774206F70656E3A20D6
:100D300025730A00726D64697220257320666169EB
:100D40006C65640A00726D202573206661696C65AC
:100D5000640A0072656E616D6520257320746F20D2
:100D600025730A0025730A00707764204641494CB8
:100D700045440A006D6B64697220257320666169C1
:100D80006C65640A006C733A206E756C6C2061723D
:100D900067756D656E7420232025640A006368649E
:100DA0006972202573206661696C65640A004E6F64
:100DB00074653A20706F736978207072656669781F
:100DC000206973206F7074696F6E616C0A706F7345
:100DD0006978206361742066696C65205B2D705DA5
:100DE0000A706F736978206364206469720A706F97
:100DF00073697820636F70792066696C653120664D
:100E0000696C65320A706F736978206C732064694D
:100E100072205B2D6C5D0A706F736978206D6B6456
:100E20006972206469720A706F73697820706167F3
:100E300065204E4E0A706F736978207077640A706F
:100E40006F73697820726D2066696C650A706F73C4
:100E5000697820726D646972206469720A706F73B8
:100E600069782072656E616D65206F6C64206E65B7
:100E7000770A0A00706F7369782068656C700A00E1
:100E8000436C6F7365206572726F723A2000536510
:100E9000656B206572726F723A20005772697465D3
:100EA000206572726F723A2000526561642065722B
:100EB000726F723A20004F70656E206572726F72A9
:100EC0003A5B25735D20005B5050522044495341EA
:100ED000424C4520414C4C5D0A004750494220435A
:100EE0006C6F636B207461736B20696E697420662C
:100EF00061696C65640A005B677069625F7772693B
:100F000074655F7374722073656E7428256429207C
:100F10006578706563746564282564295D0A003C02
:100F20004255532077616974696E6720666F72203D
:100F30004441563D3D313E0A003C677069625F772F
:100F4000726974655F7374722074696D656F75740E
:100F50002077616974696E6720666F722041544E14
:100F6000203D20313E0A00677069625F77726974C4
:100F7000655F7374723A2073697A65203D20300A88
:100F8000005B677069625F726561645F7374722091
:100F900072656164282564292065787065637465CD
:100FA00064282564295D0A00677069625F72656163
:100FB000645F73747228696E643A2564293A20412B
:100FC000544E20253032584820756E657870656320
:100FD0007465640A00677069625F726561645F735B
:100FE00074723A2073697A65203D20300A00204DE2
:100FF000534120253032586800204D54412025307F
:1010000032586800204D4C4120253032586800206D
:1010100020202020002530325820256320006770D2
:1010200069625F726561645F627974653A204946FE
:10103000432073746174653D25640A003C47504940
:10104000422054582054494D454F55543E0A003CC7
:10105000677069625F77726974655F627974652031
:1010600074696D656F75742077616974696E672046
:10107000666F72204E4441433D3D313E0A003C675D
:101080007069625F77726974655F627974652074F4
:10109000696D656F75742077616974696E67206624
:1010A0006F72204E5246443D3D31202626204E444C
:1010B0004143203D3D20303E0A003C677069625F3D
:1010C00077726974655F627974652074696D656FA4
:1010D00075742077616974696E6720666F72204E3F
:1010E0005246443D3D31202626204E444143203D7A
:1010F0003D20303E0A00677069625F7772697465EF
:101100005F627974653A2041544E203D203020774B
:1011100068696C652077616974696E6720666F72B3
:10112000204E524644204C4F572073746174652002
:101130003D25640A00677069625F77726974655F54
:10114000627974653A204946432073746174653D41
:1011500025640A00677069625F756E726561643A42
:10116000206572726F722C2063616E206F6E6C79D5
:101170002062652063616C6C6564206F6E6365211D
:101180000A005B44505052206269743A25642C2056
:101190006D61736B3A25303258485D0A006770699B
:1011A000625F64697361626C655F5050523A20629D
:1011B0006974202564206F7574206F662072616EDB
:1011C00067650A005B45505052206269743A256495
:1011D0002C206D61736B3A25303258485D0A0067E8
:1011E0007069625F656E61626C655F5050523A2053
:1011F000626974202564206F7574206F66207261A7
:101200006E67650A005B475049422053544154457C
:1012100020494E49545D0A005B47504942204255DF
:10122000535F494E49545D0A005B5052494E544544
:101230005220636C6F73655D0A005B53412025305B
:101240003258482C206C697374656E3A25303258D8
:10125000482C2074616C6B3A25303258485D0A0086
:101260005B534120253032584820414D49474F5D5E
:101270000A005B5341202530325848205353383000
:101280005D0A005B54412025303258485D0A005BFE
:101290005052494E544552204F50454E5D0A005B16
:1012A0005441202530325848205052494E5445521E
:1012B0005D0A005B544120253032584820414D4999
:1012C000474F5D0A005B5441202530325848205377
:1012D0005338305D0A005B554E545D0A005B4C414B
:1012E0002025303258485D0A005B4C4120253032C1
:1012F0005848205052494E5445525D0A005B4C41BB
:1013000020253032584820535338305D0A005B4C5A
:101310004120253032584820414D49474F5D0A0051
:101320000A005B554E4C5D0A005B4750494220283D
:10133000253032584829206E6F7420646566696EC6
:10134000656420544F444F5D0A005B44434C5D0A82
:10135000005B53444320414D49474F5D0A005B53B6
:10136000444320535338305D0A005B5344435D0AC5
:10137000005B5350445D0A005B5350455D0A005BBF
:1013800050505520756E737570706F72746564205F
:10139000544F444F5D0A005B50504320756E737587
:1013A00070706F7274656420544F444F5D0A005B27
:1013B0004944454E5420556E69743A253032584898
:1013C0003D25303458485D0A005B4944454E542061
:1013D000556E69743A25303258483D2530345848A6
:1013E000204641494C45445D0A003C4D4544494135
:1013F000204D495353494E473E0A003C494E5445FF
:1014000052525550543E0A003C4255533E0A003C4D
:1014100054494D454F55543E0A003C4946433E0A07
:1014200000436170747572696E6720436C6F7365F9
:10143000640A00446F6E650A0065786974696E67B6
:101440002E2E2E0A00507265737320414E59206B68
:10145000657920746F20657869740A0046554C4C94
:101460002047504942204255532068616E6473689A
:10147000616B65206C6F6767696E67207265717557
:1014800065737465640A00436170747572696E6790
:1014900020475049422042555320746F3A25730A21
:1014A00000436172642069732077726974652070EB
:1014B000726F7465637465640A002573206F7065CC
:1014C0006E206661696C7572650A0025732068611B
:1014D00064202564206572726F72730A006465620D
:1014E00075673D25303458480A004E6F74653A20C0
:1014F0006770696220707265666978206973206F11
:101500007074696F6E616C0A6770696220616464EF
:101510007265737365730A202020446973706C616F
:101520007920616C6C206465766963652047504959
:101530004220627573206164647265737365732001
:10154000616E64205050522076616C7565730A6735
:1015500070696220636F6E666967205B2D765D0A35
:10156000202020446973706C617920637572726504
:101570006E742064726976657320636F6E66696746
:1015800075726174696F6E0A2020202D7620566571
:1015900072626F7365202D2073686F772066756C9B
:1015A0006C2064657461696C0A67706962206465A7
:1015B000627567204E0A2020206465627567206D81
:1015C000657373616765207265706F7274696E67A9
:1015D000207365652068706469736B2E636667208D
:1015E000666F722064657461696C730A6770696202
:1015F00020656C61707365640A6770696220656C50
:1016000061707365645F72657365740A677069629F
:10161000206966630A6770696220706C6F74206667
:10162000696C656E616D652E7478740A67706962A5
:1016300020706C6F745F6563686F0A677069622001
:101640007461736B0A6770696220747261636520EC
:1016500066696C656E616D652E747874205B4255A9
:10166000535D0A202020446973706C6179206163A6
:10167000746976697479206F662047504942206208
:10168000757320616E64206C6F672069740A202076
:1016900020425553202D20696E636C756465206867
:1016A000616E647368616B65207374617465730A3D
:1016B0000A0A67706962206D6F756E740A202020B7
:1016C0002020646973706C6179732061206C697388
:1016D00074206F66206D6F756E7465642064726926
:1016E000766573206F6E6520706572206C696E651B
:1016F0000A67706962206D6F756E7420414D4947AD
:101700004F7C53533830206D6F64656C2061646486
:10171000726573732066696C650A2020202020455D
:1017200078616D706C653A2067706962206D6F75C5
:101730006E742039313231202036202F616D696777
:101740006F362E6C69660A20202020204578616D56
:10175000706C653A2067706962206D6F756E7420D9
:1017600039313334442032202F616D69676F322E56
:101770006C69660A67706962206D6F756E742050BF
:1017800052494E54455220616464726573730A2055
:10179000202020204578616D706C653A2067706963
:1017A00062206D6F756E74205052494E5445522020
:1017B000350A6770696220756D6F756E742061649B
:1017C000647265737320202020204578616D706CF1
:1017D000653A206770696220756D6F756E7420368A
:1017E0000A0067706962202068656C700A000A0050
:1017F0004D6F756E746564206472697665730A0056
:101800005052494E54455220252D387320253264BC
:101810000A00414D49474F202020252D38732025AF
:1018200032642025730A00535338302020202025AD
:101830002D3873202532642025730A0045787065A1
:101840006374656420414D49474F206F72205353A4
:101850003830206F72204353383020666F72205B1F
:1018600025735D0A00436F756C64206E6F74206190
:101870006C6C6F6361746520414D49474F207374F0
:101880007275637475726520666F722025730A0025
:10189000436F756C64206E6F7420616C6C6F636154
:1018A0007465205353383020737472756374757285
:1018B0006520666F722025730A005741524E494ECB
:1018C000473A206D6F64656C204E4F5420666F75EB
:1018D0006E6420696E2068706469722E696E692179
:1018E0000A00436F756C64206E6F7420616C6C6FBE
:1018F00063617465205052494E544552207374728E
:101900007563747572650A00756D6F756E7420610C
:101910006464726573733A5B25645D204E4F542096
:10192000666F756E640A0020202D20616464726504
:1019300073732069732074686520646576696365D4
:1019400020616464726573730A002020756D6F7581
:101950006E7420616464726573730A005573616705
:10196000653A0A00202020206D6F756E740A0044CD
:101970006973706C6179696E67206D6F756E7465DF
:1019800064206472697665730A000A0020202020B2
:101990006D6F756E74205052494E54455220350A71
:1019A000004D6F756E74696E67207072696E746534
:1019B000720A000A00202020206D6F756E74203995
:1019C00031333444203320737338302D332E6C6917
:1019D000660A00202020206D6F756E742039313228
:1019E00031203220616D69676F2D32322E6C69664D
:1019F0000A004D6F756E74696E6720647269766552
:101A0000730A0055736167653A200A00414D4947E2
:101A10004F256400666F726D6174696E672025736F
:101A200020256C6420736563746F72730A004361D0
:101A30006E206E6F7420757365206E6F6E20323568
:101A400036206279746520736563746F72730A005F
:101A5000535338302D256400666F726D6174696E62
:101A60006720257320256C6420736563746F72731F
:101A70000A0043616E206E6F7420757365206E6F6F
:101A80006E20323536206279746520736563746F19
:101A900072730A00446576696365206572726F72BD
:101AA00073202D2072656D6F76696E673A2000573E
:101AB00061726E696E673A2025732042595445530E
:101AC0005F5045525F534543544F5220213D2032D1
:101AD00035362C2041646A757374696E6720746FA3
:101AE000203235360A005761726E696E673A2025DA
:101AF000732042595445535F5045525F424C4F4307
:101B00004B20213D203235362C2041646A75737498
:101B1000696E6720746F203235360A004164647242
:101B20006573732028256429206F7574206F6620E3
:101B300072616E67650A005741524E494E473A201E
:101B40006D6F64656C204E4F5420666F756E642017
:101B5000696E2068706469722E696E69210A006876
:101B60007064697220696E76616C69642074797042
:101B700065202D204E4F5420414D49474F206F6620
:101B800020535338300A00616C6C6F635F64657674
:101B90006963653A20696E76616C69642074797056
:101BA000653A25643A25730A00616C6C6F635F6463
:101BB00065766963653A204465766963652074617A
:101BC000626C652069732066756C6C0A00736574BD
:101BD0005F6163746976655F6465766963653A28F9
:101BE00025642920696E76616C696420747970655A
:101BF0003A25643A25730A007365745F61637469FA
:101C000076655F6465766963653A20696E646578B8
:101C10003A20256420747970653A25643A25732C3E
:101C2000207374617465203D3D204E554C4C0A0074
:101C30007365745F6163746976655F646576696313
:101C4000653A20696E64657820256420756E696E3A
:101C50006974616C697A656420747970653A256489
:101C60003A25730A007365745F6163746976655F12
:101C70006465766963653A20696E6465783A2564BF
:101C800020747970653A25643A25732C2064657652
:101C9000203D3D204E554C4C0A007365745F6163D6
:101CA000746976655F6465766963653A20696E6418
:101CB00065783A256420616464726573733A2025FF
:101CC00030325848206F7574206F662072616E67DD
:101CD000650A007365745F6163746976655F646546
:101CE000766963653A28256429206F7574206F66CC
:101CF0002072616E67650A000A000A002020202019
:101D00002320424C4F434B53203D20256C640A0056
:101D10002020232048503835204241534943204158
:101D2000444452455353203A44372564300A004115
:101D30004D49474F2025730A0020202020232042B0
:101D40004C4F434B53203D20256C640A0020202338
:101D500020485038352042415349432041444452A1
:101D6000455353203A44372564300A0053533830E2
:101D70002025730A0043757272656E7420436F6E7E
:101D800066696775726174696F6E205365747469F2
:101D90006E67730A000A000A005052494E544552B9
:101DA0000A00414D49474F2025730A0053533830EC
:101DB0002025730A00446576696365204164647276
:101DC00065737365730A00526561645F436F6E6685
:101DD00069673A202A2A2A2A2A2A206572726F7293
:101DE0007328256429202A2A2A2A2A2A0A005265C9
:101DF00061645F436F6E6669673A2072656164284B
:101E0000256429206C696E65730A004D69737369D6
:101E10006E6720454E442073746174656D656E7401
:101E2000206174206C696E653A25640A00556E6500
:101E3000787065637465642053544154453A202595
:101E4000732C206174206C696E653A25640A005514
:101E50006E657870656374656420414D49474F2015
:101E600047454D4554525920746F6B656E3A202595
:101E7000732C206174206C696E653A25640A0055E4
:101E80006E657870656374656420414D49474F20E5
:101E9000434F4E46494720746F6B656E3A20257359
:101EA0002C206174206C696E653A25640A00556EB9
:101EB00065787065637465642048454144455220E7
:101EC000434F4E46494720746F6B656E3A20257329
:101ED0002C206174206C696E653A25640A00556E89
:101EE000657870656374656420414D49474F2053A0
:101EF0005441525420746F6B656E3A2025732C2028
:101F00006174206C696E653A25640A00556E6578C7
:101F1000706563746564205353383020564F4C55B8
:101F20004D4520746F6B656E3A2025732C206174CB
:101F3000206C696E653A25640A00556E6578706597
:101F400063746564205353383020554E49542074CF
:101F50006F6B656E3A2025732C206174206C696E5E
:101F6000653A25640A00556E65787065637465642A
:101F7000205353383020434F4E54524F4C4C45520F
:101F800020746F6B656E3A2025732C206174206C71
:101F9000696E653A25640A00556E657870656374EC
:101FA0006564205353383020434F4E4649472074D0
:101FB0006F6B656E3A2025732C206174206C696EFE
:101FC000653A25640A00556E6578706563746564CA
:101FD000205353383020434F4E46494720746F6B8F
:101FE000656E3A2025732C206174206C696E653A09
:101FF00025640A00556E65787065637465642053C6
:1020000053383020535441525420746F6B656E3AEC
:102010002025732C206174206C696E653A25640A52
:1020200000556E6578706563746564205052494E42
:1020300054455220434F4E46494720746F6B656E9E
:102040003A2025732C206174206C696E653A2564F2
:102050000A00556E65787065637465642050524956
:102060004E54455220746F6B656E3A2025732C20B8
:102070006174206C696E653A25640A00556E657856
:1020800070656374656420746F6B656E3A202573A8
:102090002C206174206C696E653A25640A00556EC7
:1020A000657870656374656420746F6B656E3A2043
:1020B00025732C206174206C696E653A25640A00D2
:1020C000526561645F436F6E6669673A206F706541
:1020D0006E28257329206661696C65640A00526563
:1020E0006164696E673A2025730A0025730A00252A
:1020F0002D323573203D2025730A00252D3235738E
:10210000203D2025386C78482028256C64290A0059
:102110004D6F64656C3A202573204E4F5420666FD6
:10212000756E6420696E2068706469722E696E69CC
:102130000A004D6F64656C3A20257320666F756EDA
:102140006420696E2068706469722E696E690A0085
:1021500025732025730A004572726F723A206870E9
:102160006469722E696E69206E6F7420666F756E79
:1021700064210A005B5353383020556E6B6E6F77C5
:102180006E2053433A2025303258482C206C697316
:1021900074656E3A25303258482C2074616C6B3A65
:1021A00025303258485D0A005B5353383020534382
:1021B00020556E6B6E6F776E3A2025303258482C62
:1021C000206C697374656E3A25303258482C20743F
:1021D000616C6B3A25303258485D0A005B535338C6
:1021E00030205472616E73706172656E745D0A00A6
:1021F0005B416D69676F20436C6561725D0A005BCE
:1022000053533830205265706F7274205374617468
:10221000655D0A005B535330302045786563757403
:10222000652053746174655D0A005B535338302038
:10223000436F6D6D616E642053746174655D0A0057
:102240005B47504942204572726F72205265747527
:10225000726E202D205772697465204552524F527C
:102260005D0A005B416D69676F20436C6561725D5B
:102270000A005B47504942205265616420457272F2
:102280006F725D0A005B53533830205344435D0A3C
:10229000005B5353383020717374617420253032E1
:1022A000585D0A005B535338302071737461742099
:1022B00073656E64204641494C45445D0A005B539A
:1022C000533830205365656B3A2530386C58485D7B
:1022D0000A005B53533830205365656B204F5645D9
:1022E00052464C4F57206174202530386C58485D59
:1022F0000A005B53533830205472616E7370617200
:10230000656E7420436F6D6D616E642C2045727232
:102310006F722061742028256429206F662028258B
:102320006429204F5020436F6465735D0A005B533E
:1023300053383020496E76616C6964204F502043D9
:102340006F646520282530325848295D0A005B53A8
:102350005338302043616E63656C20282564295D05
:102360000A005B53533830204368616E6E656C2001
:10237000496E646570656E64656E7420436C65615A
:102380007220282564295D0A005B5353383020579A
:1023900072697465204C6F6F706261636B202D20D1
:1023A000544F444F5D0A005B5353383020526561EF
:1023B00064204C6F6F706261636B202D20544F441A
:1023C0004F5D0A005B535338302048502D4942205E
:1023D00050617269747920436865636B696E672028
:1023E0002D20544F444F5D0A005B47504942206204
:1023F0007566666572204F564552464C4F57215DB3
:102400000A005B47504942205265616420455252A0
:102410004F525D0A005B5353383020457865637531
:10242000746520436F6D6D616E642C204572726F10
:10243000722061742028256429206F662028256475
:1024400029204F5020436F6465735D0A005B53532E
:10245000383020496E76616C6964204F5020436F9C
:10246000646520282530325848295D0A005B5353A3
:10247000383020496E697469617465204469616708
:102480006E6F73746963202D20544F444F5D0A00B2
:102490005B535338302052657175657374205374E3
:1024A000617475735D0A005B5353383020446F6F5D
:1024B00072204C6F636B202D20544F444F5D0A00F7
:1024C0005B5353383020446F6F7220556E4C6F63EE
:1024D0006B202D20544F444F5D0A005B535338301E
:1024E0002053657420537461747573204D61736B50
:1024F000202D20544F444F5D0A005B535338302049
:10250000496E697469616C697A65204D65646961B9
:1025100020544F444F5D0A005B53533830204465CC
:102520007363726962655D0A005B535338302056ED
:10253000616C6964617465204B6579202D20544F6E
:10254000444F5D0A005B535338302052656C65611F
:1025500073652044656E696564204E4F2D4F505D54
:102560000A005B535338302052656C6561736520F7
:102570004E4F2D4F505D0A005B53533830204C6F47
:102580006361746520616E642056657269667920A6
:102590002D20544F444F5D0A005B53533830205375
:1025A00065742052657475726E204164647265733F
:1025B00073696E67202D20544F444F5D0A005B53B2
:1025C000533830205365742052656C656173652003
:1025D0004E4F2D4F505D0A005B53533830205365EA
:1025E0007420525053204E4F2D4F505D0A005B53C4
:1025F000533830204E4F2D4F505D0A005B535338F7
:102600003020536574204C656E6774683A28253015
:10261000386C5848295D0A005B53533830205365A5
:102620007420416464726573733A282530386C589D
:1026300048295D0A005B53533830204C6F63617446
:102640006520616E642057726974655D0A005B5392
:10265000533830204C6F6361746520616E64205282
:102660006561645D0A005B53533830205365742004
:10267000566F6C756D653A20282564295D0A005BEC
:10268000535338302053657420556E69743A2825A9
:1026900064295D0A005B47504942206275666665A1
:1026A00072204F564552464C4F57215D0A005B53EE
:1026B00053383020436F6D6D616E642053746174C4
:1026C0006520475049422052656164204552524F6F
:1026D000525D0A005B5353383020566F6C756D6540
:1026E0003A256420696E76616C69645D0A005B530B
:1026F00053383020554E49543A256420696E76612E
:102700006C69645D0A005B53533830204465736321
:102710007269626520566F6C756D65204641494C43
:1027200045445D0A005B535338302044657363723F
:1027300069626520556E6974204641494C45445D87
:102740000A005B53533830204465736372696265D5
:1027500020436F6E74726F6C6C6572204641494CF9
:1027600045445D0A005B53533830204465736372FF
:102770006962655D0A005B535338302053656E64AF
:1027800020537461747573204641494C45445D0A79
:10279000005B535338302053656E6420537461746A
:1027A00075735D0A002020202025643A25730A00F5
:1027B00025733A0A005B53533830204C6F636174C1
:1027C0006520616E642057726974652057726F745A
:1027D0006520546F74616C28256C7848295D0A0067
:1027E0005B53533830204C6F6361746520616E64B5
:1027F00020577269746520444944204E4F54204646
:10280000494E4953485D0A005B53533830204C6FA2
:102810006361746520616E64205772697465207706
:10282000726F7465282530325848295D0A005B4470
:1028300069736B205772697465204572726F725D9F
:102840000A005B475049422052656164204572721C
:102850006F725D0A005B53533830204C6F636174B4
:102860006520616E6420577269746520617420254B
:1028700030386C584828256C5848295D0A005B534D
:102880005338302042756666657265642052656112
:102890006420546F74616C28256C58482920627933
:1028A0007465735D0A005B53533830204275666669
:1028B00065726564205265616420444944204E4F2E
:1028C000542046494E4953485D0A005B5353383003
:1028D0002047504942205772697465204572726FD3
:1028E000725D0A005B53533830204469736B205289
:1028F000656164204572726F725D0A005B535338E4
:1029000030204469736B2052656164202530325851
:10291000482062797465735D0A005B535338302038
:102920004C6F6361746520616E6420526561642040
:102930006174202530386C584828256C5848295D2A
:102940000A005B5353383020455845432073746167
:1029500074653A2564206572726F725D0A005B537C
:1029600053383020253032584820494E49545D0AAA
:10297000005B414D49474F2045786563757465207C
:1029800052657175657374204C6F676963616C2063
:10299000416464726573735D0A005B414D49474F42
:1029A0002045786963757465205265717565737427
:1029B0002053746174757320556E62756666657216
:1029C00065645D0A005B414D49474F20457865636A
:1029D00075746520526571756573742053746174E4
:1029E00075732042756666657265645D0A005B41B9
:1029F0004D49474F20457865637574652057726966
:102A000074652042756666657265645D0A005B41A7
:102A10004D49474F204578656375746520496E6957
:102A20007469616C697A655D0A005B414D49474F85
:102A30002045786563757465205772697465205503
:102A40006E62756666657265645D0A005B414D493C
:102A5000474F204578656375746520526561642031
:102A600042756666657265645D0A005B414D494763
:102A70004F20457865637574652052656164205503
:102A80006E62756666657265645D0A005B414D49FC
:102A9000474F204578656375746520436F6C6420EB
:102AA0004C6F616420526561645D0A005B414D4971
:102AB000474F20457865637574652825303258483E
:102AC000293A206C697374656E3A25303258482C67
:102AD0002074616C6B3A25303258485D0A005B41C6
:102AE0004D49474F20466F726D61745D0A005B412E
:102AF0004D49474F20526561642042756666657294
:102B0000656420436F6D6D616E645D0A005B414DCD
:102B100049474F2052657175657374205374617411
:102B2000757320556E627566666572656420436FC5
:102B30006D6D616E645D0A005B414D49474F2057E2
:102B40007269746520427566666572656420436FBC
:102B50006D6D616E645D0A005B414D49474F2052C7
:102B6000657175657374204C6F676963616C204192
:102B700064647265737320436F6D6D616E645D0A8A
:102B8000005B414D49474F20496E697469616C692A
:102B90007A6520436F6D6D616E645D0A005B414D27
:102BA00049474F20577269746520556E6275666695
:102BB0006572656420436F6D6D616E645D0A005BD4
:102BC000414D49474F205665726966795D0A005B41
:102BD000414D49474F205265616420556E627566CC
:102BE000666572656420436F6D6D616E645D0A0099
:102BF0005B414D49474F2052657175657374205391
:102C000074617475732042756666657265642043ED
:102C10006F6D6D616E645D0A005B414D49474F20E9
:102C20005365656B206C656E3D365D0A005B414DFA
:102C300049474F205365656B206C656E3D355D0AD5
:102C4000005B414D49474F20436F6C64204C6F61DE
:102C500064205265616420436F6D6D616E645D0A2E
:102C6000005B414D49474F20436F6D6D616E642895
:102C70002530325848293A20475049422072656130
:102C8000642062797465733A25303258485D0A00D1
:102C90005B414D49474F20436F6D6D616E643A470C
:102CA0005049422072656164206572726F725D0ADC
:102CB000005B414D49474F20436F6D6D616E643A33
:102CC000475049422072656164206572726F725D7F
:102CD0000A005B414D49474F5F436F6D6D616E6404
:102CE0003A47504942207772697465206572726F65
:102CF000725D0A005B414D49474F20436F6D6D6126
:102D00006E64282530325848293A206C69737465FE
:102D10006E3A25303258482C2074616C6B3A25305D
:102D20003258485D0A005B45202020416D69676F7D
:102D3000204552524F52207365636F6E6461727901
:102D40003A2025303258482C2073746174653A2536
:102D5000303258482C206C697374656E696E673A1E
:102D600025303258482C2074616C6B696E673A25A7
:102D7000303258485D0A005B554E5420416D6967FA
:102D80006F20544F444F207365636F6E6461727996
:102D90003A2025303258482C2073746174653A25E6
:102DA000303258482C206C697374656E696E673ACE
:102DB00025303258482C2074616C6B696E673A2557
:102DC000303258485D0A005B54202020416D69670D
:102DD0006F20544F444F207365636F6E6461727946
:102DE0003A2025303258482C2073746174653A2596
:102DF000303258482C206C697374656E696E673A7E
:102E000025303258482C2074616C6B696E673A2506
:102E1000303258485D0A005B4C202020416D6967C4
:102E20006F20544F444F207365636F6E64617279F5
:102E30003A2025303258482C2073746174653A2545
:102E4000303258482C206C697374656E696E673A2D
:102E500025303258482C2074616C6B696E673A25B6
:102E6000303258485D0A005B5520416D69676F201C
:102E7000544F444F207365636F6E646172793A20DA
:102E800025303258482C2073746174653A253032ED
:102E900058482C206F70636F64653A25303258486B
:102EA0002C206C656E3A2533642C206C6973746534
:102EB0006E696E673A25303258482C2074616C6B0D
:102EC000696E673A25303258485D0A005B554E54AA
:102ED00020416D69676F20544F444F207365636FC5
:102EE0006E646172793A2025303258482C20737410
:102EF0006174653A25303258482C206F70636F64D6
:102F0000653A25303258482C206C656E3A2533647A
:102F10002C206C697374656E696E673A253032587F
:102F2000482C2074616C6B696E673A2530325848C2
:102F30005D0A005B54202020416D69676F20544F6B
:102F4000444F207365636F6E646172793A20253057
:102F50003258482C2073746174653A2530325848D1
:102F60002C206F70636F64653A25303258482C20EE
:102F70006C656E3A2533642C206C697374656E69D8
:102F80006E673A25303258482C2074616C6B696E3C
:102F9000673A25303258485D0A005B4C20202041BA
:102FA0006D69676F20544F444F207365636F6E6483
:102FB0006172793A2025303258482C20737461743C
:102FC000653A25303258482C206F70636F64653A3B
:102FD00025303258482C206C656E3A2533642C20FD
:102FE0006C697374656E696E673A25303258482C87
:102FF0002074616C6B696E673A25303258485D0AFF
:10300000005B414D49474F20436C6561725D0A008A
:103010005B44534A2025303258485D0A005B4149E1
:103020004D474F3A2044534A2073656E64206661D1
:10303000696C65645D0A005B414D49474F205772DA
:10304000697465206469736B2077726974652065A3
:1030500072726F725D0A005B414D49474F20577293
:103060006974652047504942207265616420657229
:10307000726F725D0A00414D49474F732D3E737464
:103080006174653A25640A005B414D49474F20470A
:10309000504942207772697465206572726F725D63
:1030A0000A00414D49474F732D3E73746174653A70
:1030B00025640A005B414D49474F20466F726D61A0
:1030C0007420446F6E655D0A005B414D49474F2097
:1030D000666F726D61745D0A005B414D49474F2018
:1030E00025732C20503A2530386C78482C20553ADE
:1030F000256420433A256420483A256420533A2524
:10310000645D0A005B414D49474F207665726966F0
:103110007920503A2530386C58482C2073656374F8
:103120006F72733A25303458485D0A005B414D494F
:10313000474F20257320706F73204F564552464CE1
:103140004F575D0A005B414D49474F204750494268
:10315000207772697465206572726F725D0A005B18
:10316000414D49474F2073656E64207374617475D7
:10317000735D0A005B414D49474F2047504942204B
:103180007772697465206572726F725D0A005B41C7
:103190004D49474F2073656E64206C6F67696361AA
:1031A0006C20616464726573735D0A005B414D4914
:1031B000474F2072657175657374207374617475FF
:1031C000735D0A005B5343205052494E54455220D0
:1031D00054616C6B3A2025303258485D0A005B53CD
:1031E00043205052494E544552204C697374656EC9
:1031F0003A2025303258485D0A002530386C640D7D
:10320000007772697465206661696C65643A20773D
:10321000616E7465642025642C20676F743A2564A0
:103220000A000A444F4E453A202530386C640A00A3
:103230004552524F522064757272696E67207772E0
:103240006974650A0065786974696E672E2E2E0AA6
:1032500000436170747572696E6720706C6F7420C2
:10326000746F3A25730A002F706C6F742D253032FD
:10327000642573253034642D253032642530326462
:10328000253032642E706C740009466F726D617463
:1032900074696E673A2077726F746520256C6420BC
:1032A000736563746F72730A006C69665F6372653D
:1032B0006174655F696D6167653A20736563746FFA
:1032C000727320697320300A006C69665F637265EF
:1032D0006174655F696D6167653A206469727365E1
:1032E00063746F727320697320300A006C69665FC3
:1032F0006372656174655F696D6167653A206C69C9
:10330000666C6162656C20697320656D7074790A02
:10331000006C69665F6372656174655F696D6167A2
:10332000653A206C6966696D6167656E616D6520DF
:10333000697320656D7074790A0072656E616D65E0
:10334000643A202531307320746F20253130730AA0
:10335000006C69665F72656E616D653A5B25735DD1
:10336000206C6966206E616D653A5B25735D206E29
:103370006F7420666F756E640A006C69665F7265B3
:103380006E616D655F66696C653A206E6577206C6D
:1033900069666E616D6520636F6E7461696E73201E
:1033A00062616420636861726163746572730A00AC
:1033B0006C69665F72656E616D655F66696C653AC2
:1033C000206E6577206C69666E616D65206973207B
:1033D000656D7074790A006C69665F72656E616D07
:1033E000655F66696C653A206F6C64206C69666E17
:1033F000616D6520697320656D7074790A006C6970
:10340000665F72656E616D655F66696C653A206CBA
:103410006966696D6167656E616D652069732065B8
:103420006D7074790A0044656C657465643A202592
:103430003130730A004C494620696D6167653A5B1B
:1034400025735D206C6966206E616D653A5B25733E
:103450005D206E6F7420666F756E640A004C49467D
:1034600020696D6167653A5B25735D2C204C494688
:10347000206E616D653A5B25735D0A006C69665F5D
:1034800064656C5F66696C653A206C69666E616D37
:103490006520697320656D7074790A006C69665FD8
:1034A00064656C5F66696C653A206C6966696D611C
:1034B00067656E616D6520697320656D7074790A4A
:1034C000000957726F74653A2025386C640A000948
:1034D00057726F74653A2025386C640D004C49466C
:1034E00020696D6167653A5B25735D2C206E6F7492
:1034F00020656E6F75676820667265652073706100
:10350000636520666F723A5B25735D0A0046696CDD
:1035100065206E6F7420666F756E643A25730A00BD
:103520004C494620696D6167653A5B25735D2C20C7
:103530004C4946206E616D653A5B25735D2C2075A4
:103540007365722066696C653A5B25735D0A006C71
:1035500069665F6164643A207573657266696C655B
:1035600020697320656D7074790A006C69665F610B
:1035700064643A206C69666E616D652069732065CC
:103580006D7074790A006C69665F6164643A206CDE
:103590006966696D6167656E616D65206973206537
:1035A0006D7074790A000957726F74653A20253876
:1035B0006C640A000957726F74653A2025386C6490
:1035C0000D0046696C65206E6F7420666F756E64C1
:1035D0003A25730A004C494620696D616765206E83
:1035E0006F7420666F756E643A25730A000957720E
:1035F0006F74653A2025386C640A006C69665F65F3
:103600007874726163745F653031305F61735F61DC
:10361000736369693A207772697465206572726FA5
:10362000720A000957726F74653A2025386C640D70
:10363000006C69665F657874726163745F653031D0
:10364000305F61735F61736369693A20777269748F
:1036500065206572726F720A006C69665F657874C6
:10366000726163745F653031305F61735F61736392
:1036700069693A20756E6578706563746564206366
:103680006F6E74726F6C20627974653A5B253032AC
:1036900058485D2040206F66667365743A2025386F
:1036A0006C782C20696E643A25303258480A006CD8
:1036B00069665F657874726163745F653031305F2D
:1036C00061735F61736369693A20737472696E67CD
:1036D00020746F6F206269672073697A65203D20CE
:1036E00025640A0045787472616374696E673A20D4
:1036F00025730A0046696C65202573206861732074
:1037000077726F6E6720747970653A5B2530345834
:10371000485D206578706563746564203078453055
:1037200031302E2E3078453031330A004C49462056
:1037300046696C65206E6F7420666F756E643A25FD
:10374000730A004C494620696D616765206E6F748D
:1037500020666F756E643A25730A000957726F749C
:10376000653A2025386C640A0046696C652053650B
:1037700063746F72733A202020202025346C7848BF
:103780000A00466972737420536563746F723A203D
:103790002020202025346C78480A00496E64657822
:1037A0003A202020202020202020202020253464A2
:1037B0000A004E616D653A20202020202020202024
:1037C000202020202025730A004E6577204469724E
:1037D0006563746F727920496E666F726D6174698A
:1037E0006F6E2041465445522077726974650A0015
:1037F0004C494620696D6167653A5B25735D2C20F5
:103800006E6F7420656E6F756768206672656520DF
:10381000737061636520666F723A5B25735D0A00A1
:103820004C494620696D6167653A5B25735D2C20C4
:103830004C4946206E616D653A5B25735D2C2075A1
:103840007365722066696C653A5B25735D0A006C6E
:1038500069665F6164645F61736369695F66696C0F
:10386000655F61735F653031303A207573657266EC
:10387000696C65206E6F7420666F756E640A006CEB
:1038800069665F6164645F61736369695F66696CDF
:10389000655F61735F653031303A207573657266BC
:1038A000696C6520697320656D7074790A006C69B4
:1038B000665F6164645F61736369695F66696C65B3
:1038C0005F61735F653031303A206C69666E616D9F
:1038D0006520697320656D7074790A006C69665F94
:1038E0006164645F61736369695F66696C655F6188
:1038F000735F653031303A206C6966696D61676568
:103900006E616D6520697320656D7074790A0009B8
:1039100057726F74653A2025386C640D0009577230
:103920006F74653A2025386C640D000957726F7406
:10393000653A2025386C640D0045787065637465C0
:103940006420736563746F7220626F756E64727940
:103950002C206F66667365743A25640A006C69668C
:103960005F653031305F6461705F736563746F727F
:103970003A20657870656374656420736563746F5D
:103980007220626F756E6472793A206F6666736535
:10399000743A25640A006C69665F66696E645F66E6
:1039A000696C653A5B25735D206C69666C61626564
:1039B0006C20746F6F206269670A006C69665F66CD
:1039C000696E645F66696C653A5B25735D20696E3C
:1039D00076616C6964206368617261637465727397
:1039E0000A0025386C64204672656520736563742F
:1039F0006F72730A0025386C6420557365642073F8
:103A00006563746F72730A0025386C6420446972B0
:103A10002020736563746F72730A0025386C64200C
:103A2000446972202073746172740A0025386C64D2
:103A3000205075726765640A0025386C64204669F9
:103A40006C65730A000A00252D3130732020253063
:103A500034586820202020202025386C58682020E9
:103A60002025396C64256320202020202025346403
:103A700020202025730A004C494620446972656362
:103A8000746F72793A5B25735D207761726E696E2F
:103A9000672046696C6542797465733A256C6420C9
:103AA000617320736563746F72733A256C642021AF
:103AB0003D2046696C65536563746F72733A256C7B
:103AC000640A004E414D4520202020202020202047
:103AD00054595045202020535441525420534543BB
:103AE000544F52202020202020202053495A452086
:103AF00020202052454353495A4520202044415418
:103B0000450A00566F6C756D653A5B25735D204400
:103B10006174653A5B25735D0A006C69665F6F705E
:103B2000656E5F766F6C756D653A5B25735D2065BC
:103B300072726F72206469726563746F7279206348
:103B40006865636B206661696C65640A006C696610
:103B50005F6F70656E5F766F6C756D653A5B257330
:103B60005D206572726F7220766F6C756D65207660
:103B7000616C6964617465206661696C65640A00E2
:103B80006C69665F6F70656E5F766F6C756D653AB8
:103B90005B25735D206572726F72207265616420AF
:103BA000766F6C756D65206865616465722066610D
:103BB000696C65640A006C69665F6F70656E5F763C
:103BC0006F6C756D653A5B25735D206572726F72FF
:103BD00020766F6C756D6520686561646572206123
:103BE00072656120746F6F20736D616C6C3A5B2538
:103BF0006C645D0A006C69665F6E65776469723A31
:103C000020696E6465783A5B25645D20616464694F
:103C10006E672061743A5B256C645D746F2070750B
:103C2000726765642073706163653A5B256C645DDF
:103C300020736563746F72732C20667265653A5BDE
:103C4000256C645D0A006C69665F6E6577646972F5
:103C50003A206E6F7420656E6F75676820667265B6
:103C6000652073706163653A5B256C645D0A006C66
:103C700069665F6E65776469723A206E6F7420655D
:103C80006E6F756768206672656520737061636525
:103C90003A5B256C645D20666F722073697A653AC1
:103CA0005B256C645D0A006C69665F7570646174A5
:103CB000655F667265653A5B25735D206572726F3C
:103CC000722070726576696F7573207265636F72AA
:103CD000642066696C652061726561206F7665722B
:103CE0006C6170732074686973206F6E653A5B2530
:103CF000735D0A006C69665F636865636B5F646926
:103D0000723A206572726F722C20696E6465783A1F
:103D100025640A006C69665F636865636B64697239
:103D2000696E6465783A5B25735D206469726563CA
:103D30006F727920696E6465783A5B25645D206FE7
:103D40007574206F6620626F756E64730A00095780
:103D5000726F74653A20256C640A000957726F749B
:103D6000653A20256C640D000957726F74653A201E
:103D7000256C640D000957726F74653A20256C64D8
:103D80000D004372656174696E673A25732C204C8F
:103D90006162656C3A5B25735D2C204469726563D2
:103DA000746F727920537461727420256C642C20B6
:103DB0004469726563746F72792053697A653A2039
:103DC000256C642C2046696C6520536563746F72A2
:103DD000733A256C640A004C494620446972656355
:103DE000746F72793A5B25735D20696E76616C69D8
:103DF0006420736563746F722073697A653A256C09
:103E0000640A004C4946204469726563746F727994
:103E10003A5B25735D20696E76616C696420466942
:103E20006C654279746573203D3D20300A004C4931
:103E300046204469726563746F72793A5B25735DDD
:103E4000207761726E696E672046696C654279748D
:103E500065733A256C6420617320736563746F72B7
:103E6000733A256C64203C2046696C655365637425
:103E70006F72733A256C640A004C4946204469729B
:103E80006563746F72793A5B25735D20696E766144
:103E90006C69642046696C6542797465733A256C77
:103EA0006420617320736563746F72733A256C6468
:103EB000203E2046696C65536563746F72733A25C2
:103EC0006C640A004C4946204469726563746F72E1
:103ED000793A5B25735D20696E76616C6964205662
:103EE0006F6C756D65204E756D6265723A25586808
:103EF0000A004C4946204469726563746F72793ACE
:103F00005B25735D20696E76616C696420656E6403
:103F100020736563746F723A256C5868203E207474
:103F20006F74616C20736563746F72733A256C589B
:103F3000680A004C4946204469726563746F72795F
:103F40003A5B25735D20696E76616C6964207374D9
:103F500061727420736563746F723A256C586820BF
:103F60003C206669652061726561207374617274BA
:103F70003A256C58680A004C4946204469726563CA
:103F8000746F72793A5B25735D20696E76616C6936
:103F900064204E616D650A004C494620566F6C7571
:103FA0006D6520696E76616C69642066696C652058
:103FB0007374617274203E20696D61676520736956
:103FC0007A650A004C494620566F6C756D6520690C
:103FD0006E76616C6964204469726563746F72798E
:103FE00020536563746F7220436F756E74203C209C
:103FF000310A004C494620566F6C756D6520696E1C
:1040000076616C6964207374617274207365637483
:104010006F723A256C640A004C494620566F6C75E5
:104020006D6520696E76616C696420627974657370
:10403000206174206F6666736574203232263233D5
:104040002073686F756C64206265207A65726F0AF0
:10405000004C494620566F6C756D6520696E76611F
:104060006C6964206279746573206174206F666680
:104070007365742031342631352073686F756C6434
:10408000206265207A65726F0A004C4946205665A9
:104090007273696F6E3A202530345848203E2031C3
:1040A0000A004C494620566F6C756D6520696E7626
:1040B000616C69642053797374656D3330303020DE
:1040C0004944202825303458482920657870656394
:1040D0007465642031303030480A004C494620561F
:1040E0006F6C756D6520696E76616C696420566FC2
:1040F0006C756D65204E616D65000A004449522063
:1041000046696C6520446174653A20202020202097
:10411000202025730A004449522046696C652073AB
:104120006563746F722073697A653A202538586820
:104130000A004449522046696C65206279746573AF
:104140003A2020202020202025386C58680A00447E
:1041500049522046696C6520736563746F72733AC7
:10416000202020202025386C58680A00444952201D
:1041700046696C652073746172743A202020202097
:10418000202025386C58680A004449522046696C42
:104190006520566F6C756D65233A20202020202500
:1041A0003858680A004449522046696C65205479A1
:1041B00070653A2020202020202020253858680AC9
:1041C000004449522046696C65204E616D653A2075
:1041D0002020202020202025730A00564F4C204408
:1041E0006174653A202020202020202020202020DB
:1041F0002025730A00564F4C204C49465665727371
:10420000696F6E3A20202020202020253858680A27
:1042100000564F4C20333030304C494669643A20C8
:1042200020202020202020253858680A00564F4C96
:104230002044697220736563746F72733A20202082
:1042400020202025386C58680A00564F4C204469BD
:10425000722073746172743A202020202020202064
:1042600025386C58680A00564F4C204C4946696402
:104270003A202020202020202020202020253858CF
:10428000680A00564F4C204C6162656C3A20202031
:1042900020202020202020202025730A004C494681
:1042A000207075726765643A20202020202020202D
:1042B00020202025386C58680A004C494620666941
:1042C0006C65733A202020202020202020202020F0
:1042D00025386C58680A004C494620667265653A74
:1042E0002020202020202020202020202025386C65
:1042F00058680A004C494620757365643A202020AE
:104300002020202020202020202025386C58680ADA
:10431000004C49462066696C6520736563746F7252
:10432000733A202020202025386C58680A004C4918
:10433000462066696C6573746172743A202020208F
:104340002020202025386C58680A004C49462062FD
:10435000797465733A2020202020202020202020FE
:104360002025386C58680A004C49462073656374F0
:104370006F72733A20202020202020202020253812
:104380006C58680A004C4946206E616D653A2020E1
:10439000202020202020202020202025730A000A11
:1043A00025730A006C69665F77726974653A2057F5
:1043B000726974653A5B25735D206F666673657418
:1043C0003A5B256C645D2077726974653A5B25649D
:1043D0005D2065787065637465643A5B25645D0A89
:1043E000006C69665F726561643A20726561643A67
:1043F0005B25735D206F66667365743A5B256C643C
:104400005D2077726974653A5B256C645D20657820
:104410007065637465643A5B25645D0A006C696667
:104420005F726561645F6D73673A20257320536521
:10443000656B206572726F7220256C640A006C696E
:10444000665F737461743A2043616E2774207374DD
:1044500061743A25730A006C69665F6F70656E3A25
:104460002043616E2774206F70656E3A5B25735D23
:10447000206D6F64653A5B25735D0A006C69665F49
:10448000667265653A204E554C4C20706F696E74AB
:1044900065720A006C69665F63616C6C6F633A5B9E
:1044A000256C645D206E6F7420656E6F7567682083
:1044B00066726565206D656D6F72790A007464308F
:1044C000326C696620737570706F7274206E6F74D1
:1044D00020656E61626C65640A004469736B3A2002
:1044E0002573206E6F7420666F756E6420696E2070
:1044F00068706469722E696E690A006C6966206171
:104500006464206C6966696D616765206C69666EBC
:10451000616D652066726F6D5F61736369695F6667
:10452000696C650A6C69662061646462696E206CFE
:104530006966696D616765206C69666E616D65208D
:1045400066726F6D5F6C69665F66696C650A6C693F
:104550006620637265617465206C6966696D616768
:1045600065206C6162656C206469726563746F724A
:10457000795F736563746F727320736563746F72B0
:10458000730A6C6966206372656174656469736B34
:10459000206C6966696D616765206C6162656C207D
:1045A0006D6F64656C0A6C69662064656C206C696B
:1045B00066696D616765206E616D650A6C6966206C
:1045C000646972206C6966696D6167650A6C696609
:1045D0002065787472616374206C6966696D6167C7
:1045E00065206C69666E616D6520746F5F617363D1
:1045F00069695F66696C650A6C69662065787472C2
:1046000061637462696E206C6966696D61676520BB
:104610006C69666E616D6520746F5F6C69665F665C
:10462000696C650A20202020657874726163747358
:1046300020612066696C6520696E746F206120734B
:1046400069676C652066696C65204C494620696D18
:104650006167650A6C69662072656E616D65206CC4
:104660006966696D616765206F6C646C69666E610F
:104670006D65206E65776C69666E616D650A557350
:1046800065202D642020616674657220276C696640
:1046900027206B6579776F726420746F20656E6177
:1046A000626C65204C49462066696C657379737449
:1046B000656D20646562756767696E670A0A006CDC
:1046C000696620202068656C700A005374617274FA
:1046D000696E672047504942205441534B0A0049B4
:1046E0003243204C4344206973204E4F5420617460
:1046F000746163686564210A00252D313673006496
:10470000656275676C6576656C2020203D202530DC
:104710003478480A00475049422053746174652038
:10472000696E697420646F6E650A004750494220C3
:1047300046696C6520696E697420646F6E650A0055
:10474000475049422054696D657220696E697469E9
:10475000616C697A65640A00475049422054696D6A
:1047600065722053657475700A005072696E7465C5
:104770007220696E697469616C697A65640A0047C0
:104780005049422062757320696E697469616C6971
:104790007A65640A004D4D4320696E697469616CE5
:1047A000697A65640A004D4D4320696E69746961D8
:1047B0006C697A696E672073746172740A00537948
:1047C0007374656D205461736B20496E74657272E9
:1047D00075707420526174653A20256C64204E61B6
:1047E0006E6F205365636F6E64730A00436C6F6372
:1047F0006B20636C65617265640A00496E69746957
:10480000616C697A696E67205254430A00496E6987
:104810007469616C697A696E6720493243206275F8
:10482000730A00496E697469616C697A696E672000
:10483000535049206275730A002020204C61737424
:1048400020757064617465642066696C653A202522
:10485000730A00202020474954206C617374207033
:1048600075736865643A20202025730A002D3E2068
:1048700068747470733A2F2F6769746875622E6359
:104880006F6D2F6D61676F72652F68703835646961
:10489000736B0A0020474E552076657273696F6E00
:1048A00020330A002028432920323031342D323081
:1048B0003230206279204D696B6520476F72650A3E
:1048C0000048503835204469736B20616E64204481
:1048D000657669636520456D756C61746F720A0059
:1048E0005265717565737465642042617564205208
:1048F0006174653A20256C642C2041637475616C89
:104900003A20256C640A0043505520436C6F636B5A
:10491000203D20256C750A0053746172740A0025CD
:104920002D31367300535338303D256420414D49B5
:10493000474F3D256400202020202020205B257348
:104940005D0A0020202020417267756D656E74201D
:10495000636F756E74203D2025640A00496E766190
:104960006C696420436F6D6D616E640A00436F6D06
:104970006D616E64204641494C45440A004F4B0A24
:1049800000496E70757420646562756767696E674B
:104990003A2025730A002020205B25735D0A004120
:1049A0007267756D656E7420636F756E74203D203F
:1049B00025640A000A3E006261636B6C6967687473
:1049C0002030785252474742420A68656C700A6448
:1049D0006972206469726563746F72696573206FB0
:1049E000722066696C65206C6973740A696E7075F3
:1049F000742020202D20746F67676C6520696E70AD
:104A0000757420646562756767696E670A6D656DA8
:104A100020202020202D20646973706C617920662D
:104A2000726565206D656D6F72790A726573657464
:104A30002020202D20726573657420656D756C6172
:104A4000746F720A73657464617465202D207365D8
:104A50007420646174650A74696D65202020202DBE
:104A600020646973706C61792063757272656E740D
:104A70002074696D650A0A00252D31367300252DD5
:104A800031367300493243204C4344206973204E31
:104A90004F54206174746163686564210A00252D98
:104AA00031367300252D313673006C63645F746199
:104AB000736B20696E6974206661696C65640A00B5
:104AC000493243204C434420696E697469616C69C2
:104AD0007A6174696F6E2073746172740A0049326E
:104AE00043204C4344206973204E4F54206174741A
:104AF0006163686564210A002573202532642025DE
:104B00003032643A253032643A25303264000A008B
:104B10002020204C6173742075706461746564207A
:104B200066696C653A2025730A00202020474954A5
:104B3000206C617374207075736865643A2020205E
:104B400025730A002D3E2068747470733A2F2F6706
:104B500069746875622E636F6D2F6D61676F726522
:104B60002F687038356469736B0A0020474E5520F2
:104B700076657273696F6E20330A002028632920DE
:104B8000323031342D32303230206279204D696B31
:104B90006520476F72650A004850383520446973B4
:104BA0006B20616E642044657669636520456D7590
:104BB0006C61746F720A005374616E6420616C6F73
:104BC0006E652076657273696F6E206F66204C4942
:104BD00046207574696C697469657320666F72200C
:104BE0006C696E75780A000011241FBECFEFD0E407
:104BF000DEBFCDBF17E1A0E0B1E0EAEDF5ED01E0E9
:104C00000BBF02C007900D92AE34B107D9F720E276
:104C1000AEE4B7E101C01D92A033B207E1F70E94F4
:104C200086E40C94EBEA0C940000E82FE695E695F8
:104C3000E69593E0E99FF001112432A1282F277017
:104C400081E090E001C0880F2A95EAF7982F9095AF
:104C5000932392A391A1892B81A30895E82FE69530
:104C6000E695E69593E0E99FF001112432A1282F03
:104C7000277081E090E001C0880F2A95EAF7932F12
:104C8000982B92A391A1892B81A30895E7CF089532
:104C9000CF93ADB7BEB717970FB6F894BEBF0FBE90
:104CA000ADBFC82F80910A018C1799F08F3F89F012
:104CB0002C2F30E0EDB7FEB73783268390E0958345
:104CC000848382EC91E0A0E081839283A3830E949D
:104CD0000B478C2FC3DF8FEF80930A01ADB7BEB7B0
:104CE00017960FB6F894BEBF0FBEADBFCF91089513
:104CF000CDC40895F5C40895A1E0B0E0E2E8F6E27D
:104D00000C94FCE6898361E070E0CE010196BED48C
:104D10002196E2E00C9418E7CF92DF92EF92FF9297
:104D20006B017C01842F9ADF8FEF80930A01C7010A
:104D3000B6017FD480E090E03CD48FEFDDDFC092FD
:104D40000601D0920701E0920801F0920901FF905C
:104D5000EF90DF90CF900895CF92DF92EF92FF9285
:104D6000CF93DF93ADB7BEB717970FB6F894BEBF1A
:104D70000FBEADBF6B017C01EA0180910A018F3F3C
:104D800079F0EDB7FEB74683D78390E095838483AF
:104D900080EE91E0A0E081839283A3830E940B4781
:104DA0008091060190910701A0910801B09109013D
:104DB0008C159D05AE05BF0521F0AE01C701B601FA
:104DC000ABDF8C2F32DFC0930A01ADB7BEB71796A9
:104DD0000FB6F894BEBF0FBEADBFDF91CF91FF906D
:104DE000EF90DF90CF900895A1E0B0E0EAEFF6E217
:104DF0000C94FCE6898361E070E0CE0101965AD400
:104E000089812196E2E00C9418E780934E172C9A42
:104E1000249A089510924E172C98249A0895A2E08F
:104E2000B0E0E5E1F7E20C94FCE620912C20309113
:104E30002D202115310511F420E330E2CE01019639
:104E4000821B930B2296E2E00C9418E7A9E0B0E0F5
:104E5000ECE2F7E20C94FCE6E2DF99878887EDB795
:104E6000FEB79583848387E093E0A0E081839283FB
:104E7000A3830E940B478FEF90E4EDB7FEB79583B5
:104E8000848384EF92E0A0E081839283A3830E94D5
:104E90000B47CE010896EDB7FEB79583848381EE6C
:104EA00092E0A0E081839283A3830E940B4780E37A
:104EB00090E2EDB7FEB7978386838EE497E1958302
:104EC000848383EC92E0A0E081839283A3830E9499
:104ED0000B478EE497E1EDB7FEB79783868380E0BA
:104EE00091E09583848385EA92E0A0E081839283B8
:104EF000A3830E940B4780E090E0EDB7FEB7978355
:104F0000868380E390E29583848387E892E0A0E043
:104F100081839283A3830E940B478091000190912B
:104F20000101EDB7FEB797838683809102019091CE
:104F300003019583848389E692E0A0E081839283D4
:104F4000A3830E940B4780912C2090912D20EDB7D8
:104F5000FEB79583848385E592E0A0E08183928308
:104F6000A3830E940B472996E2E00C9418E7EF9286
:104F7000FF920F931F93CF93DF93ADB7BEB71797F1
:104F80000FB6F894BEBF0FBEADBF8C017B010E946F
:104F9000A9E9EC01892B71F4EDB7FEB7F782E6823F
:104FA000158304838AE392E0A0E081839283A38344
:104FB0000E940B47CE01CDB7DEB72796E6E00C94F2
:104FC00014E70F931F93CF93DF9300D000D01F926D
:104FD0008C0161E070E00E94A9E9EC01892B61F489
:104FE000EDB7FEB71583048382E292E0A0E08183EF
:104FF0009283A3830E940B47CE01CDB7DEB72596DF
:10500000E4E00C9416E7ADB7BEB717970FB6F89467
:10501000BEBF0FBEADBF009711F120912C20309183
:105020002D202115310511F420E330E240E28033D8
:10503000940730F02817390718F00E945BEA0FC078
:10504000EDB7FEB737832683958384838DEF91E098
:10505000A0E081839283A3830E940B47F7DEADB764
:10506000BEB717960FB6F894BEBF0FBEADBF08957A
:10507000643671058105910558F0645671098109FE
:105080009109E3EFF1E03197F1F700C00000F0CFB4
:105090006A3071058105910548F06A5071098109EE
:1050A0009109F2E4FA95F1F700C0F2CF61157105AC
:1050B0008105910549F0615071098109910926E046
:1050C0002A95F1F700C0F2CF0895611571058105A9
:1050D000910509F441C0E3EFF1E03197F1F700C029
:1050E0000000E3EFF1E03197F1F700C00000E3EFDB
:1050F000F1E03197F1F700C00000E3EFF1E0319704
:10510000F1F700C00000E3EFF1E03197F1F700C0E4
:105110000000E3EFF1E03197F1F700C00000E3EFAA
:10512000F1E03197F1F700C00000E3EFF1E03197D3
:10513000F1F700C00000E3EFF1E03197F1F700C0B4
:105140000000E3EFF1E03197F1F700C0000061509B
:10515000710981099109B9CF089581110EC0F894A0
:105160001092F3191092F2191092EF191092F0198F
:105170001092F1191092F419789408954F925F9259
:105180006F927F928F929F92AF92BF92CF92DF9257
:10519000EF92FF92CF93DF935A01E9010E9447E813
:1051A0002B013C0120E030E040E051E40E94FDE8AA
:1051B0009B01AC0160E876E988E99BE40E94AEE7D8
:1051C00020E030E040E85FE30E9445E70E9460E9AC
:1051D0000E941BE86B017C01C11480E1D806E10448
:1051E000F10458F481E090E0F50191838083812CF3
:1051F000912CA12C21E4B22E31C0F5011182108234
:1052000020E030E040E851E4C301B2010E94FDE833
:105210009B01AC0160E876E988E99BE40E94AEE777
:1052200020E030E040E85FE30E9445E70E9460E94B
:105230000E941BE86B017C01812C912C90E8A92E27
:1052400091E4B92EC114F0E1DF06E104F10430F07D
:10525000CC24CA948FE0D82EE12CF12CC701B601E2
:105260006F5F7F4F8F4F9F4F0E9447E8A5019401CA
:105270000E94FDE89B01AC0160E876E988E99BE4C7
:105280000E94AEE70E941BE8688379838A839B8330
:10529000C601DF91CF91FF90EF90DF90CF90BF904C
:1052A000AF909F908F907F906F905F904F900895F8
:1052B000A6E0B0E0EEE5F9E20C94FCE61E821D8269
:1052C000811136C0CB01BA019E012F5F3F4FAE0165
:1052D0004B5F5F4F53DFF8941092F3191092F2195D
:1052E0001092EF191092F0191092F1191092F4190E
:1052F0007894F894589A599A5098519A28E920939A
:10530000C1002D813E81232B19F022E02093C000A3
:105310009093C5008093C400789461E57AE286E6B4
:105320009AE20E94C07869817A818B819C8103C056
:1053300060E070E0CB012696E2E00C9418E7CF9392
:10534000DF9327E5829FC0011124FC01E151F64E55
:10535000838194818035910584F4308121E0230F8D
:105360002083EF01C30FD11D6F776E830196948365
:105370008383203528F0108203C085818160858376
:10538000DF91CF9108951F920F920FB60F921124C3
:105390000BB60F922F933F934F935F936F937F932F
:1053A0008F939F93AF93BF93EF93FF936091C6004A
:1053B00080E0C5DFFF91EF91BF91AF919F918F91F9
:1053C0007F916F915F914F913F912F910F900BBE05
:1053D0000F900FBE0F901F901895811107C0F89481
:1053E0008091F2199091F319789408958FEF9FEFBF
:1053F0000895811121C080E0F0DF18161906DCF74E
:10540000F894E091F01991E09E0F9093F019F0E07C
:10541000E151F64E8681903510F01092F0192091EE
:10542000F2193091F319215031093093F319209377
:10543000F219789490E008958FEF9FEF0895D9DFE7
:1054400099270895611109C02091C00025FFFCCF64
:10545000282F2F772093C6000895613049F42091BA
:10546000C80025FFFCCF282F2F772093CE0008956A
:105470008FEF9FEF0895CF9381110FC0E0DFC82F0A
:1054800060E090E0DFDFCD3029F460E08AE090E07A
:10549000D9DFCAE08C2F90E002C08FEF9FEFCF9151
:1054A000089580E0E8CF08951F93CF93DF93EC0138
:1054B000162FC8DFCA30D10521F4612F8DE090E0AE
:1054C000C1DFCE01DF91CF911F910895CF93DF937C
:1054D000EC0160E070E0E8DFCE01DF91CF9108954C
:1054E0007CCF0895CF92DF92EF92FF926B017C0107
:1054F0008091511790915217A0915317B091541762
:105500008C159D05AE05BF0509F44EC060E07DE237
:1055100081E391E0A70196010E947FE620383105E2
:105520004105510528F4203431054105510530F07D
:105530008DB58E7F8DBD8CB582601BC08DB5203240
:1055400031054105510528F081608DBD8CB5826023
:105550001FC0203131054105510510F08E7F06C076
:10556000283031054105510540F081608DBD8CB575
:105570008D7F8CBD8CB581600EC024303105410516
:10558000510510F08E7F01C081608DBD8CB58D7F7F
:105590008CBD8CB58E7F8CBDC0925117D0925217A6
:1055A000E0925317F0925417FF90EF90DF90CF9056
:1055B0000895CF93DF9300D000D01F92EC0181308B
:1055C000910571F02CF4892BC1F48CB5877F11C043
:1055D0008230910561F0039781F48CB5886002C038
:1055E0008CB5877F8CBD8CB584608CBD12C08CB5AA
:1055F00088608CBD8CB58B7FF8CFEDB7FEB7D583B7
:10560000C48384E193E0A0E081839283A3830E941A
:105610000B47D0935017C0934F17CDB7DEB72596E1
:10562000E2E00C9418E78EBD0DB407FEFDCF8EB5F9
:105630000895CF92DF92EF92FF92CF93DF931F9264
:10564000CDB7DEB76B017C011CBC2F9A279A2D9A2F
:10565000259A26982C98249A8CB580618CBD8CB59F
:1056600080648CBD8DB589838EB5898380E090E0A0
:10567000A0DFC701B60136DF8FEFD5DF0F90DF91D6
:10568000CF91FF90EF90DF90CF9008950F931F93ED
:10569000CF93DF938C01EB011C161D0634F4F80147
:1056A00081918F01C0DF2197F7CFDF91CF911F91BB
:1056B0000F9108950F931F93CF93DF938C01EB010C
:1056C0001C161D0644F4F8018081ADDFF8018193BA
:1056D0008F012197F5CFDF91CF911F910F91089501
:1056E0000F931F93CF93DF938C01EB011C161D06C4
:1056F0003CF48FEF98DFF80181938F012197F6CF6B
:10570000DF91CF911F910F9108952FB78091471A84
:10571000811104C08091481A81110BC080914A1AEE
:1057200090914B1A009729F0019790934B1A809310
:105730004A1A2FBF0895ADB7BEB717970FB6F894A2
:10574000BEBF0FBEADBF282F082E000C330B80311B
:1057500088F080E190E0EDB7FEB7978386833583CC
:10576000248389E294E0A0E081839283A3830E9452
:105770000B4724C0F901EE0FFF1FEA5AF84E0190C3
:10578000F081E02D3097D1F080859185892B39F417
:10579000EDB7FEB73583248380E194E009C08681AC
:1057A00081110EC0EDB7FEB7358324838AEF93E0F5
:1057B000A0E081839283A3830E940B4780E001C015
:1057C00081E0ADB7BEB717960FB6F894BEBF0FBE57
:1057D000ADBF08958FB7F894E6E5F7E11192119205
:1057E00097E1E637F907D1F71092761791E0909399
:1057F000781710927717109279178FBF0895EF924C
:10580000FF920F931F93CF93DF93D82FC62F7A0168
:10581000022F1FB76AE070E081E090E0A8DBFC0196
:10582000892B89F0F89411821282DD0FC170CD2B83
:10583000C0838AE090E09583848313820683178275
:10584000F186E0861FBFCF01CDB7DEB7E6E00C944E
:1058500014E7CF9300D01F929B01AC01CFB760E05B
:105860007DE281E391E00E947FE6DA01C901409781
:10587000A109B109AC01BD0176956795579547958A
:10588000CA018827892B59F08EED93E0A0E0EDB78F
:10589000FEB781839283A3830E940B473AC0F8949A
:1058A0004093B8001092471A81E08093481A1092F2
:1058B000761780937817409A419A84E88093BC00C9
:1058C0001092BA008091B9008C7F8093B9008091CA
:1058D000551781111DC0E6E5F7E11192119227E1FC
:1058E000E637F207D1F761E070E085E89BE20E94BD
:1058F000B934019651F487EC93E0A0E0EDB7FEB720
:1059000081839283A3830E940B4781E08093551784
:10591000CFBF0F900F900F90CF91089561E070E08E
:1059200080E090E0A5DB8091471A882339F081E080
:105930009091481A911103C080E0089581E0089584
:1059400061E070E080E090E093DB8091761788233F
:1059500039F081E090917817911103C080E00895AB
:1059600081E00895E6E4FAE1128281E081838AE031
:1059700090E09583848385EA8093BC000895EF923C
:10598000FF920F931F93CF93DF93FFB6F89410927B
:1059900078171092791710927717C0E0D0E0EE24B4
:1059A000E3940AE010E08C2FC6DE8823D1F0EC2FC0
:1059B000EE0FFF0BEA5AF84E0190F081E02DE182E4
:1059C00012821382178215830483D11107C08AE0E3
:1059D000A6E4BAE101900D928A95E1F7CF5FD1E09C
:1059E000E2CFDD2391F08CE59DE290937B178093CD
:1059F0007A1781E080937617109278178091B9001A
:105A00008C7F8093B900AEDF15C010927B17109287
:105A10007A171092761781E0809378178093481A4E
:105A20001092471A84E88093BC008091B9008C7F63
:105A30008093B9001092BA00FFBECDB7DEB7E6E0A2
:105A40000C9414E79FB7F89410927B1710927A1772
:105A500031E03093471A1092481A880F6170682B12
:105A60006093461A1092491A20934C1A10924D1ABC
:105A700050934F1A40934E1A8091B9008C7F8093B7
:105A8000B9001092BA009FBF6DDF48DF8823E9F3A9
:105A900081E09091491A911180E00895E6E4FAE1DD
:105AA00081E08283118284E98093BC006AE070E027
:105AB00080E090E0DDCA0895CF93DF938091761760
:105AC000882309F446C08091771735DE8823B1F02A
:105AD000E0917717EE0FFF0BEA5AF84EC081D181A3
