:100000000C94D0240C94EF240C94EF240C94EF2443
:100010000C94EF240C94EF240C94EF240C94EF2414
:100020000C94EF240C94EF240C94EF240C94EF2404
:100030000C94EF240C9489340C94EF240C94EF244A
:100040000C94EF240C94EF240C94EF240C94EF24E4
:100050000C94F02B0C94EF240C94EF240C94EF24CC
:100060000C94EF240C94EF240C94EF240C94EF24C4
:100070000C94EF240C94EF240C94EF240C94EF24B4
:100080000C94EF240C94EF240C94EF2430448B4513
:100090006044644564458B458B458B458B458B455A
:1000A0008B458B458B4530442A448B458B458B458E
:1000B0008B455A448B458B4530448B458B458B454E
:1000C0008B458B458B458B458B458B453044864511
:1000D0006044644564458B458B458B458B458B451A
:1000E0008B458B458B4530442A448B458B45814558
:1000F0008B455A448B458B453044AD459446A345CA
:100100000146E8459446944694469446944694465F
:1001100094469446B745CB459446944694469446B7
:100120009F4594469446CB459446944694469446BF
:1001300094469446944694469446AD452F46A3452E
:100140000146E8459446944694469446944694461F
:1001500094469446B745CB45944694462F469446DC
:100160009F4594469446CB454E69586960696269DB
:100170006469666968696A696D6907862D8654864F
:100180006E8677869786B086BF860A87DC86F88873
:1001900000890589298933897D8948894889408969
:1001A000399C6D9DC19D419E729EEA9EB8A06EA332
:1001B0006EA36EA389A1CBA179A2B9A20A9D269DA7
:1001C00007C1C6C0C6C0C6C0C6C08AC091C098C05C
:1001D000A8C0B6C0AFC06E616E00696E6600004018
:1001E0007A10F35A00A0724E18090010A5D4E80046
:1001F00000E87648170000E40B54020000CA9A3B5E
:10020000000000E1F50500008096980000004042E3
:100210000F000000A0860100000010270000000071
:10022000E803000000006400000000000A00000075
:1002300000000100000000002C76D888DC674F0821
:1002400023DFC1DFAE59E1B1B796E5E3E453C63A27
:10025000E651997696E8E6C28426EB898C9B62ED9E
:10026000407C6FFCEFBC9C9F40F2BAA56FA5F49058
:10027000055A2AF75C936B6CF9676DC11BFCE0E4CF
:100280000D47FEF520E6B500D0ED902E0300943525
:1002900077050080841E080000204E0A000000C878
:1002A0000C333333330F986E12831141EF8D2114C9
:1002B000893BE65516CFFEE6DB18D1844B381BF799
:1002C0007C1D901DA4BBE424203284725E22810038
:1002D000C9F124ECA1E53D2763735F646973616232
:1002E0006C65207761733A2025642C2077616E74E9
:1002F0003A2025640A0063735F656E61626C652055
:100300007761733A2025642C2077616E743A20253A
:10031000640A0073616665667265653A20465245F7
:1003200045204552524F5220282575292C20746FA4
:10033000703A282575290A00736166656D616C6CD9
:100340006F6328256429206661696C6564210A0051
:100350007361666563616C6C6F632825642C25642A
:1003600029206661696C6564210A0020205F5F6254
:10037000726B76616C3A202020202535750A0020AA
:10038000204D616C6C6F632073746172742025352D
:10039000752020656E643A202535750A00202048B6
:1003A0006561703A2073746172743A202535752C3A
:1003B00020656E643A202535750A0020204461745A
:1003C00061202073746172743A202535752C206584
:1003D0006E643A202535750A0020204253532020B0
:1003E0002073746172743A202535752C20656E6413
:1003F0003A202535750A002020537461636B20462E
:100400007265653A202025750A00202053746163C7
:100410006B20546F703A20202025750A00467265C3
:10042000652052616D3A25750A00535049305F4D81
:100430006F64653A20496E76616C6964206D6F6403
:1004400065282564290A007274635F7265616420FF
:100450006572726F720A007274635F777269746595
:10046000206572726F720A007274635F696E6974DC
:100470002072616D202D207772697465206572721B
:100480006F720A00727463205F7772697465206509
:10049000706F6368206661696C65640A00727463DA
:1004A0005F72756E202D2077726974652065727297
:1004B0006F720A007274635F72756E207265616498
:1004C000206572726F720A007274635F7374617474
:1004D000652072656164206572726F720A0025730F
:1004E0002065787065637465642025642061726797
:1004F000756D656E7473206F6E6C7920676F7420F4
:1005000025640A003D3D3D3D3D3D3D3D3D3D3D3D7C
:100510003D3D3D3D3D3D3D3D3D3D3D3D3D3D3D3D0B
:100520003D3D0A0054696D65727320656E61626CB1
:1005300065640A00436C6F636B20496E7374616C71
:100540006C65640A00436C6F636B207461736B208D
:10055000696E6974206661696C65640A00436C6F3A
:10056000636B20496E69740A0054696D657273206B
:10057000636F6E666967757265640A0054696D65BC
:10058000727320696E69742063616C6C65640A0023
:100590005B54696D653A25735D0A005B25732054D1
:1005A000696D653A25735D0A005B5365636F6E6420
:1005B000733A2025735D0A00256C642E2530396C52
:1005C00064007365745F74696D6572733A204E6F71
:1005D000206D6F72652074696D657273210A006306
:1005E0006C6B2074696D653A2020202025730A0009
:1005F000636C6B207365636F6E64733A20256C7552
:100600000A005254432072656164206661696C651A
:10061000640A007274632074696D653A202020209A
:1006200025730A00727463207365636F6E64733A96
:1006300020256C750A007573652073657464617498
:100640006520636F6D6D616E6420746F20636861F7
:100650006E67652074696D650A0072746320726547
:100660006164206572726F72616674657220696E72
:1006700069740A0072746320666F72636520696E24
:100680006974206661696C65640A00617474656DE3
:100690007074696E672072746320696E69740A00F1
:1006A00072746320756E696E6974696C697A6564C9
:1006B0000A0044535420454E44202020202020206E
:1006C0002020474D543A2025730A004453542053A8
:1006D0005441525420202020202020474D543A20BD
:1006E00025730A0044535420454E442020206C6F4B
:1006F00063616C74696D653A2025730A0044535434
:10070000205354415254206C6F63616C74696D6561
:100710003A2025730A0072746320666F7263652045
:10072000696E6974206661696C65640A00696E7639
:10073000616C6964206D696E3A2025640A00696EF7
:1007400076616C696420686F75723A2025640A00CE
:10075000696E76616C6964206461793A2025640A67
:1007600000696E76616C6964206D6F6E3A20256455
:100770000A00696E76616C696420796561723A205D
:1007800025640A00456E74657220646174652059A1
:10079000595959204D4D2044442048483A4D4D3A2E
:1007A0005353203E002573202573202532642025D5
:1007B0003032643A253032643A25303264202534B0
:1007C000640073656C656374206661696C6564219F
:1007D0000A00454E44204D4D4320494E49540A00DD
:1007E0004D4D4320426C6F636B2053697A653A200C
:1007F000256C640A004D4D4320426C6F636B20539F
:10080000697A65202D2072656164206661696C6576
:10081000640A002C20436F646520706167653A208C
:1008200025750A004C464E20456E61626C65640079
:100830005354415254204D4D4320494E49540A00CF
:100840004D4D432054494D454F55540A004D4D439D
:1008500020436C6F636B207461736B20696E6974E5
:10086000206661696C65640A000A0025732025759D
:100870002F253032752F2530327520253032753ACC
:10088000253032752025396C75202573006661741A
:1008900066735F66696C696E666F5F6C6973743AE4
:1008A00020656D7074790A0025752066696C657322
:1008B0002C20256C752062797465732E0A257520AD
:1008C000666F6C646572732E0A256C75204B42202E
:1008D000746F74616C206469736B207370616365FD
:1008E0002E0A256C75204B4220617661696C61622D
:1008F0006C652E0A00566F6C756D6520532F4E2067
:10090000202020202020202020202020203D2025C5
:100910003034582D253034580A00566F6C756D658B
:10092000206E616D652020202020202020202020A6
:1009300020203D2025730A00446174612073746196
:10094000727420286C626129202020202020202021
:100950003D20256C750A00444952207374617274FD
:1009600020286C62612C636C7573746F7229203D52
:1009700020256C750A0046415420737461727420FE
:10098000286C6261292020202020202020203D206A
:10099000256C750A004E756D626572206F66206366
:1009A0006C7573746572732020202020203D2025F3
:1009B0006C750A00536563746F72732F464154203F
:1009C0002020202020202020202020203D20256CB9
:1009D000750A00526F6F742044495220656E74721C
:1009E00069657320202020202020203D2025750AC5
:1009F000004E756D626572206F662046415473200B
:100A00002020202020202020203D2025750A004283
:100A1000797465732F436C75737465722020202080
:100A2000202020202020203D20256C750A004641F2
:100A30005420747970652020202020202020202040
:100A40002020202020203D2025730A006661746646
:100A500073207374617475733A25730A0072633D71
:100A600025750A002C202531306C754B2062797475
:100A7000657320667265650A002534752046696CC9
:100A8000652873292C2531306C7520627974657363
:100A900020746F74616C0A25347520446972287360
:100AA00029004C697374696E673A5B25735D0A00AF
:100AB0003D3D3D3D3D3D3D3D3D3D3D3D3D3D3D3D66
:100AC0003D3D3D3D3D3D3D3D3D3D3D3D3D3D0A00C6
:100AD000454E44204D4D4320544553540A004D4D3E
:100AE00043204469726563746F7279204C69737432
:100AF0000A005354415254204D4D43205445535401
:100B00000A003D3D3D3D3D3D3D3D3D3D3D3D3D3D85
:100B10003D3D3D3D3D3D3D3D3D3D3D3D3D3D3D3D05
:100B20000A00696E643A25642C617267633A256431
:100B30000A004E6F74653A206661746673207465AE
:100B4000737473204D5553542073746172742077FD
:100B50006974682022666174667322206B657977F8
:100B60006F72640A66617466732068656C700A66E9
:100B700061746673206D6D635F746573740A66617A
:100B8000746673206D6D635F696E69740A66617463
:100B90006673206C73206469720A666174667320E0
:100BA0007374617475732066696C650A0A00666106
:100BB0007466732068656C700A00457870656374AC
:100BC0006564202F6465762F736461202E2E202F9C
:100BD0006465762F73646A0A0025730A0025733AE8
:100BE0002025730A00096374696D653A2025730A2C
:100BF00000096D74696D653A2025730A00096174F6
:100C0000696D653A2025730A00094749443A202056
:100C100020256C750A00095549443A202020256C8E
:100C2000750A00094D6F64653A2020256C6F0A0033
:100C3000556E6B6E6F776E0A0046696C650A0044EC
:100C400049520A0009547970653A20200009536915
:100C50007A653A2020256C750A005365656B20661D
:100C600061696C6564006670757463207374726585
:100C7000616D2D3E707574204E554C4C0A006667B0
:100C80006574632073747265616D2D3E67657420B1
:100C90004E554C4C0A0046696C65733A2025640A2F
:100CA000006E616D653A5B25735D20746F6F206C1B
:100CB0006F6E6720776974682066756C6C20706150
:100CC00074680A006F70656E646972206661696C91
:100CD00065640A006C733A2063616E6E6F742073F2
:100CE000746174205B25735D0A004C697374696ECE
:100CF000673A5B25735D0A006C733A2043616E2787
:100D000074206765742063757272656E74206469FF
:100D1000726563746F72790A002573206E6F6E6559
:100D2000206E6F6E65202531326C6420257320257E
:100D3000730A0025730A0063616E206E6F7420735E
:100D40007461743A2025730A000D004D6F72652E90
:100D50002E00256C7520627974657320636F70694D
:100D600065642E0A00436F706965643A2025303847
:100D70006C640D005772697465206572726F720A37
:100D8000000A436F7079696E672E2E2E0A00436148
:100D90006E2774206F70656E3A2025730A004372C7
:100DA000656174696E672025730A0043616E27745C
:100DB000206F70656E3A2025730A004F70656E696A
:100DC0006E672025730A00256C6420627974657350
:100DD0000A000A0043616E2774206F70656E3A2026
:100DE00025730A0025730A00706F7369782070728A
:100DF00065666978206973206F7074696F6E616CC5
:100E00000A706F736978206361742066696C65206D
:100E10005B2D705D0A706F7369782063642064696C
:100E2000720A706F73697820636F70792066696CDD
:100E300065312066696C65320A706F736978206C61
:100E40007320646972205B2D6C5D0A706F73697822
:100E5000206D6B646972206469720A706F736978BF
:100E60002070616765204E4E0A706F73697820703C
:100E700077640A706F73697820726D2066696C659B
:100E80000A706F73697820726D6469722064697288
:100E90000A706F7369782072656E616D65206F6C82
:100EA00064206E65770A0A00706F73697820686540
:100EB0006C700A00436C6F7365206572726F723AD2
:100EC00020005365656B206572726F723A2000577F
:100ED00072697465206572726F723A2000526561A2
:100EE00064206572726F723A20004F70656E2065E3
:100EF00072726F723A5B25735D20005B5050522016
:100F000044495341424C4520414C4C5D0A004750F6
:100F1000494220436C6F636B207461736B20696E70
:100F20006974206661696C65640A005B6770696258
:100F30005F77726974655F7374722073656E74286D
:100F400025642920657870656374656428256429A3
:100F50005D0A00677069625F77726974655F7374B8
:100F6000723A2073697A65203D20300A005B677011
:100F700069625F726561645F737472207265616437
:100F80002825642920657870656374656428256464
:100F9000295D0A00677069625F726561645F7374DE
:100FA0007228696E643A2564293A2041544E2025FE
:100FB0003032584820756E65787065637465640AD0
:100FC00000677069625F726561645F7374723A2072
:100FD00073697A65203D20300A00204D5341202559
:100FE0003032586800204D54412025303258680076
:100FF000204D4C41202530325868002020202020F0
:10100000002530325820256320003C4E5246443D96
:1010100025642C4E4441563D25643E0A003C425511
:10102000532077616974696E6720666F722044414E
:10103000563D3D313E0A003C42555320776169746C
:10104000696E6720666F72204E4441433D3D313EDC
:101050000A003C4255532077616974696E672066C7
:101060006F72204E5246443D3D303E0A003C425590
:10107000532077616974696E6720666F72204E52E3
:1010800046443D3D31202626204E444143203D3DEF
:1010900020303E0A003C4255532077616974696EE6
:1010A0006720666F72204441563D3D313E0A00671D
:1010B0007069625F756E726561643A206572726F05
:1010C000722C2063616E206F6E6C792062652063E4
:1010D000616C6C6564206F6E6365210A005B52452C
:1010E0004E2048495D0A005B52454E204C4F575DEB
:1010F0000A005B4946432053454E545D0A005B504D
:1011000050523A25303258482C2050494E3A25301A
:101110003258482C204444523A25303258485D0A0F
:10112000005B44505052206269743A25642C206D53
:1011300061736B3A25303258485D0A006770696206
:101140005F64697361626C655F5050523A206269F6
:1011500074202564206F7574206F662072616E673D
:10116000650A005B45505052206269743A25642C30
:10117000206D61736B3A25303258485D0A00677004
:1011800069625F656E61626C655F5050523A2062C1
:101190006974202564206F7574206F662072616EFB
:1011A00067650A005B47504942205354415445202B
:1011B000494E49545D0A005B47504942204255530D
:1011C0005F494E49545D0A000A002E002563002045
:1011D0007C20002025303258000A005B44756D7079
:1011E0003A2025645D0A005B5052494E5445522016
:1011F000636C6F73655D0A005B5341202530325884
:10120000482C206C697374656E3A25303258482C2E
:101210002074616C6B3A25303258485D0A005B538C
:101220004120253032584820414D49474F5D0A0042
:101230005B534120253032584820535338305D0AE3
:10124000005B54412025303258485D0A005B505203
:10125000494E544552204F50454E5D0A005B544163
:10126000202530325848205052494E5445525D0A8C
:10127000005B544120253032584820414D49474FAA
:101280005D0A005B544120253032584820535338C2
:10129000305D0A005B554E545D0A005B4C412025D1
:1012A000303258485D0A005B4C41202530325848A6
:1012B000205052494E5445525D0A005B4C41202556
:1012C0003032584820535338305D0A005B4C41207F
:1012D000253032584820414D49474F5D0A000A00E9
:1012E0005B554E4C5D0A005B485049422028253032
:1012F00032584829206E6F7420646566696E656493
:101300005D0A005B44434C5D0A005B53444320414B
:101310004D49474F5D0A005B5344432053533830D7
:101320005D0A005B5344435D0A005B5350445D0A11
:10133000005B5350455D0A005B50505520756E733D
:101340007570706F727465645D0A005B5050432065
:10135000756E737570706F727465645D0A005B49B9
:1013600044454E5420556E69743A25303258483DF4
:1013700025303458485D0A005B4944454E54205599
:101380006E69743A25303258483D2530345848202B
:101390004641494C45445D0A003C4D454449412085
:1013A0004D495353494E473E0A003C494E5445521D
:1013B000525550543E0A003C4255533E0A003C549C
:1013C000494D454F55543E0A003C4946433E0A00AC
:1013D000436170747572696E6720436C6F736564E6
:1013E0000A00446F6E650A0065786974696E672E3D
:1013F0002E2E0A00507265737320414E59206B6582
:101400007920746F20657869740A0046554C4C2029
:1014100047504942204255532068616E64736861A9
:101420006B65206C6F6767696E67207265717565A3
:10143000737465640A00436170747572696E672025
:10144000475049422042555320746F3A25730A0091
:1014500043617264206973207772697465207072C9
:101460006F7465637465640A002573206F70656E20
:10147000206661696C7572650A0025732068616475
:10148000202564206572726F72730A00506F727447
:101490002064647220442052443A5B25303258481C
:1014A0005D0A00506F7274206464722043205244BD
:1014B0003A5B25303258485D0A00506F72742064E0
:1014C000647220422052443A5B25303258485D0A0B
:1014D00000506F72742064647220412052443A5B61
:1014E00025303258485D0A00506F7274206C617468
:1014F000636820442052443A5B25303258485D0AE4
:1015000000506F7274206C617463682043205244F1
:101510003A5B25303258485D0A00506F7274206C77
:101520006174636820422052443A5B253032584847
:101530005D0A00506F7274206C61746368204120F2
:1015400052443A5B25303258485D0A00506F72743D
:101550002070696E7320442052443A5B2530325823
:10156000485D0A00506F72742070696E73204320CA
:1015700052443A5B25303258485D0A00506F72740D
:101580002070696E7320422052443A5B25303258F5
:10159000485D0A00506F72742070696E732041209C
:1015A00052443A5B25303258485D0A0064656275E2
:1015B000673D25303458480A0067706962207072B0
:1015C00065666978206973206F7074696F6E616CED
:1015D0000A67706962206164647265737365730A77
:1015E0006770696220636F6E6669670A6770696217
:1015F000206465627567204E0A6770696220656CB9
:1016000061707365640A6770696220656C617073EC
:1016100065645F72657365740A67706962207461DE
:10162000736B0A6770696220747261636520666912
:101630006C656E616D652E747874205B4255535DE8
:101640000A67706962206966630A67706962207060
:101650006C6F742066696C656E616D652E7478744C
:101660000A67706962207070725F6269745F6F6E82
:10167000204E0A67706962207070725F6269745FE1
:101680006F6666204E0A67706962207070725F73C1
:1016900065742058580A67706962207070725F69BB
:1016A0006E69740A6770696220706F727420726567
:1016B00061642070696E732020205B412D445D0AB7
:1016C0006770696220706F72742072656164206C4B
:1016D0006174636820205B412D445D0A6770696214
:1016E00020706F72742072656164206464722020BF
:1016F00020205B412D445D0A6770696220706F7223
:1017000074207772697465206C61746368205B4132
:101710002D445D2076616C0A6770696220706F727B
:10172000742077726974652070696E7320205B4144
:101730002D445D2076616C0A0A006770696220683A
:10174000656C700A000A00414D49474F256400430B
:10175000616E206E6F7420757365206E6F6E20321F
:101760003536206279746520736563746F72730A0D
:1017700000535338302D25640043616E206E6F7422
:1017800020757365206E6F6E203235362062797455
:101790006520736563746F72730A000A00454E44D6
:1017A0000A000A00454E440A002020454E440A0023
:1017B00041444452455353002020434F4E4649472D
:1017C0000A005052494E5445520A002020454E44CA
:1017D0000A002320424C4F434B530043594C494E7F
:1017E0004445525300484541445300534543544FE8
:1017F00052535F5045525F545241434B004259543B
:1018000045535F5045525F534543544F520020208B
:1018100047454F4D455452590A002020454E440A31
:10182000004944002020434F4E4649470A002020EB
:10183000454E440A0046494C450050505200414430
:1018400044524553530020204845414445520A0024
:10185000202023204850383520424153494320411D
:10186000444452455353203A44372564300A0041DA
:101870004D49474F2025730A002020454E440A0059
:101880002320424C4F434B5300494E5445524C4544
:10189000415645004D41585F424C4F434B5F4E55BA
:1018A0004D424552004D41585F534543544F5200FD
:1018B0004D41585F48454144004D41585F43594CA4
:1018C000494E444552002020564F4C554D450A0084
:1018D0002020454E440A0052454D4F5641424C454A
:1018E0005F564F4C554D45530046495845445F5649
:1018F0004F4C554D4553004D4158494D554D5F494D
:101900004E5445524C45415645004143434553537F
:101910005F54494D45004F5054494D414C5F52452D
:101920005452595F54494D4500434F4E54494E4F10
:1019300055535F5452414E534645525F52415445B0
:1019400000424C4F434B5F54494D45004255525362
:10195000545F53495A450042554646455245445FF7
:10196000424C4F434B530042595445535F504552EC
:101970005F424C4F434B004445564943455F4E55EB
:101980004D42455200554E49545F54595045002030
:1019900020554E49540A002020454E440A0054590F
:1019A0005045005452414E534645525F52415445B2
:1019B00000554E4954535F494E5354414C4C454495
:1019C000002020434F4E54524F4C4C45520A0020A9
:1019D00020454E440A0049440020204845414445E2
:1019E000520A002020454E440A0046494C4500500A
:1019F00050520041444452455353002020434F4E1F
:101A00004649470A002020232048503835204241CB
:101A10005349432041444452455353203A443725C7
:101A200064300A00535338302025730A004375721E
:101A300072656E7420436F6E666967757261746952
:101A40006F6E2053657474696E67730A000A002014
:101A5000205052494E5445525F4D5341203D202560
:101A6000303258480A0020205052494E5445525FA7
:101A70004D5441203D2025303258480A0020205046
:101A800052494E5445525F4D4C41203D2025303245
:101A900058480A002020414D49474F5F4D5341208F
:101AA00020203D2025303258480A002020414D4951
:101AB000474F5F4D54412020203D2025303258486B
:101AC0000A002020414D49474F5F4D4C41202020C6
:101AD0003D2025303258480A002020535338305FCB
:101AE0004D5341202020203D2025303258480A0007
:101AF0002020535338305F4D5441202020203D207A
:101B000025303258480A002020535338305F4D4C5E
:101B100041202020203D2025303258480A004C69C1
:101B20007374656E20616E642054616C6B20416437
:101B300064726573732053657474696E67730A0009
:101B400020202020252D323573203D202225732290
:101B50000A0020202020252D323573203D202538F5
:101B60006C78482028256C64290A00526561645FFE
:101B7000436F6E6669673A202A2A2A2A2A2A206534
:101B800072726F727328256429202A2A2A2A2A2A27
:101B90000A00526561645F436F6E6669673A20723E
:101BA00065616428256429206C696E65730A004D9F
:101BB000697373696E6720454E4420737461746560
:101BC0006D656E74206174206C696E653A25640AD7
:101BD00000556E6578706563746564205354415494
:101BE000453A2025732C206174206C696E653A2576
:101BF000640A00556E657870656374656420414DB4
:101C000049474F2047454D4554525920746F6B65E5
:101C10006E3A2025732C206174206C696E653A251C
:101C2000640A00556E657870656374656420414D83
:101C300049474F20434F4E46494720746F6B656EAE
:101C40003A2025732C206174206C696E653A2564F6
:101C50000A00556E65787065637465642048454177
:101C600044455220434F4E46494720746F6B656E82
:101C70003A2025732C206174206C696E653A2564C6
:101C80000A00536B697070696E672025732C2061A0
:101C900074206C696E653A25640A00556E6578702B
:101CA000656374656420414D49474F205354415248
:101CB0005420746F6B656E3A2025732C206174205C
:101CC0006C696E653A25640A00556E6578706563C7
:101CD000746564205353383020564F4C554D452081
:101CE000746F6B656E3A2025732C206174206C69CB
:101CF0006E653A25640A00556E6578706563746593
:101D000064205353383020554E495420746F6B650E
:101D10006E3A2025732C206174206C696E653A251B
:101D2000640A00556E65787065637465642053536A
:101D3000383020434F4E54524F4C4C455220746F14
:101D40006B656E3A2025732C206174206C696E657A
:101D50003A25640A00556E65787065637465642081
:101D60005353383020434F4E46494720746F6B65BC
:101D70006E3A2025732C206174206C696E653A25BB
:101D8000640A00556E65787065637465642053530A
:101D9000383020434F4E46494720746F6B656E3A8A
:101DA0002025732C206174206C696E653A25640AC5
:101DB00000556E65787065637465642053533830E0
:101DC00020535441525420746F6B656E3A20257332
:101DD0002C206174206C696E653A25640A00556E8A
:101DE0006578706563746564205052494E5445525D
:101DF00020434F4E46494720746F6B656E3A20254D
:101E0000732C206174206C696E653A25640A005554
:101E10006E6578706563746564205052494E544510
:101E20005220746F6B656E3A2025732C20617420EC
:101E30006C696E653A25640A00556E657870656355
:101E400074656420535441525420746F6B656E3A2C
:101E50002025732C206174206C696E653A25640A14
:101E600000536B697070696E672025732C20617454
:101E7000206C696E653A25640A00526561645F43AF
:101E80006F6E6669673A206F70656E28257329202A
:101E90006661696C65640A0052656164696E673ADF
:101EA0002025730A004572726F72202F6870646972
:101EB000722E696E692070617273696E670A0046DE
:101EC0006F756E64204D6F64656C3A2025730A004F
:101ED0004572726F723A202F68706469722E696E53
:101EE00069206E6F7420666F756E64210A006870D9
:101EF0006469725F706172616D6574657273206987
:101F00006E76616C696420545950450A006C696EA4
:101F1000653A25642C2025732069732061626F76F1
:101F2000652072616E67652025640A006C696E65C4
:101F30003A25642C2025732069732062656C6F77C5
:101F40002072616E67652025640A006C696E653ACF
:101F500025642C206D697373696E672076616C75DA
:101F6000650A00616C6C6F635F6465766963653AEE
:101F700020696E76616C696420747970653A2564B5
:101F80003A25730A00616C6C6F635F646576696300
:101F9000653A20446576696365207461626C6520EA
:101FA00069732066756C6C0A007365745F61637495
:101FB0006976655F6465766963653A2825642920DA
:101FC000696E76616C696420747970653A25643A4B
:101FD00025730A007365745F6163746976655F6475
:101FE00065766963653A20696E6465783A20256490
:101FF00020747970653A25643A25732C20737461D6
:102000007465203D3D204E554C4C0A007365745F4D
:102010006163746976655F6465766963653A2069B2
:102020006E64657820256420756E696E6974616CD4
:10203000697A656420747970653A25643A25730A73
:10204000007365745F6163746976655F6465766962
:1020500063653A20696E6465783A25642074797006
:10206000653A25643A25732C20646576203D3D2031
:102070004E554C4C0A007365745F616374697665F4
:102080005F6465766963653A20696E6465783A25B0
:102090006420616464726573733A20253032584855
:1020A000206F7574206F662072616E67650A007319
:1020B00065745F6163746976655F6465766963659D
:1020C0003A28256429206F7574206F662072616E2E
:1020D00067650A005B5353383020556E6B6E6F771F
:1020E0006E2053433A2025303258482C206C6973B7
:1020F00074656E3A25303258482C2074616C6B3A06
:1021000025303258485D0A005B5353383020534322
:1021100020556E6B6E6F776E3A2025303258482C02
:10212000206C697374656E3A25303258482C2074DF
:10213000616C6B3A25303258485D0A005B53533866
:1021400030205472616E73706172656E745D0A0046
:102150005B416D69676F20436C6561725D0A005B6E
:1021600053533830205265706F7274205374617409
:10217000655D0A005B5353303020457865637574A4
:10218000652053746174655D0A005B5353383020D9
:10219000436F6D6D616E642053746174655D0A00F8
:1021A0005B47504942204572726F722052657475C8
:1021B000726E202D205772697465204552524F521D
:1021C0005D0A005B5353383020496E6372656D655C
:1021D0006E7420746F2028256C5848295D0A005BB6
:1021E000416D69676F20436C6561725D0A005B47F2
:1021F0005049422052656164204572726F725D0AD7
:10220000005B53533830205344435D0A005B535303
:10221000383020717374617420253032585D0A00A3
:102220005B535338302071737461742073656E642E
:10223000204641494C45445D0A005B5353383020E9
:102240005365656B3A2530386C58485D0A005B531E
:10225000533830205365656B204F564552464C4FDE
:1022600057206174202530386C58485D0A005B5354
:10227000533830205472616E73706172656E7420D1
:10228000436F6D6D616E642C204572726F722061B8
:10229000742028256429206F662028256429204F72
:1022A0005020436F6465735D0A005B5353383020E0
:1022B000496E76616C6964204F5020436F646520DD
:1022C000282530325848295D0A005B5353383020A6
:1022D00043616E63656C20282564295D0A005B53A9
:1022E000533830204368616E6E656C20496E6465BA
:1022F00070656E64656E7420436C6561722028257C
:1023000064295D0A005B5353383020577269746545
:10231000204C6F6F706261636B202D20544F444FCF
:102320005D0A005B535338302052656164204C6F66
:102330006F706261636B202D20544F444F5D0A0023
:102340005B535338302048502D4942205061726908
:10235000747920436865636B696E67202D20544F44
:10236000444F5D0A005B47504942206275666665CE
:1023700072204F564552464C4F57215D0A005B472D
:102380005049422052656164204552524F525D0AC5
:10239000005B53533830204578656375746520437E
:1023A0006F6D6D616E642C204572726F7220617466
:1023B0002028256429206F662028256429204F5075
:1023C00020436F6465735D0A005B535338302049C6
:1023D0006E76616C6964204F5020436F64652028DD
:1023E0002530325848295D0A005B53533830204964
:1023F0006E6961746520446961676E6F73746963A7
:10240000202D20544F444F5D0A005B535338302039
:1024100052657175657374205374617475735D0AC8
:10242000005B5353383020446F6F72204C6F636BE6
:10243000202D20544F444F5D0A005B535338302009
:10244000446F6F7220556E4C6F636B202D20544F7C
:10245000444F5D0A005B535338302053657420535A
:102460007461747573204D61736B202D20544F443B
:102470004F5D0A005B5353383020496E69746961BF
:102480006C697A65204D6564696120544F444F5DE5
:102490000A005B5353383020446573637269626588
:1024A0005D0A005B535338302056616C6964617477
:1024B00065204B6579202D20544F444F5D0A005B09
:1024C000535338302052656C656173652044656EE6
:1024D000696564204E4F2D4F505D0A005B535338A1
:1024E000302052656C65617365204E4F2D4F505DF5
:1024F0000A005B53533830204C6F63617465206170
:102500006E6420566572696679202D20544F444FC1
:102510005D0A005B53533830205365742052657454
:1025200075726E2041646472657373696E67202DE5
:1025300020544F444F5D0A005B535338302053659D
:10254000742052656C65617365204E4F2D4F505D50
:102550000A005B5353383020536574205250532087
:102560004E4F2D4F505D0A005B53533830204E4F75
:102570002D4F505D0A005B53533830205365742053
:102580004C656E6774683A282530386C5848295D68
:102590000A005B53533830205365742041646472E1
:1025A0006573733A282530386C5848295D0A005BFA
:1025B00053533830204C6F6361746520616E642022
:1025C00057726974655D0A005B53533830204C6F55
:1025D0006361746520616E6420526561645D0A0008
:1025E0005B535338302053657420566F6C756D659E
:1025F0003A20282564295D0A005B53533830205364
:10260000657420556E69743A282564295D0A005B5B
:102610004750494220627566666572204F564552A2
:10262000464C4F57215D0A005B5353383020436FAF
:102630006D6D616E6420537461746520475049422A
:102640002052656164204552524F525D0A005B532F
:1026500053383020566F6C756D653A256420696E6D
:1026600076616C69645D0A005B5353383020554EC7
:1026700049543A256420696E76616C69645D0A008C
:102680005B5353383020446573637269626520562A
:102690006F6C756D65204641494C45445D0A005B91
:1026A0005353383020446573637269626520556EF8
:1026B0006974204641494C45445D0A005B535338D8
:1026C0003020446573637269626520436F6E747273
:1026D0006F6C6C6572204641494C45445D0A005B55
:1026E000535338302044657363726962655D0A0034
:1026F0005B535338302053656E6420537461747596
:1027000073204641494C45445D0A005B53533830C1
:102710002053656E64205374617475735D0A0020E4
:1027200020202025643A25730A0025733A0A005BAD
:1027300053533830204C6F6361746520616E6420A0
:1027400057726974652057726F746520546F746195
:102750006C28256C7848295D0A005B53533830207B
:102760004C6F6361746520616E6420577269746593
:1027700020444944204E4F542046494E4953485D19
:102780000A005B53533830204C6F636174652061DD
:102790006E642057726974652077726F746528259E
:1027A00030325848295D0A005B4469736B205772C8
:1027B000697465204572726F725D0A005B4750490B
:1027C000422052656164204572726F725D0A005B3F
:1027D00053533830204C6F6361746520616E642000
:1027E0005772697465206174202530386C58482808
:1027F000256C5848295D0A005B53533830204275D8
:10280000666665726564205265616420546F746108
:102810006C28256C5848292062797465735D0A001C
:102820005B5353383020427566666572656420528A
:1028300065616420444944204E4F542046494E4926
:1028400053485D0A005B53533830204750494220BB
:102850005772697465205772726F725D0A005B531C
:10286000533830204469736B20526561642045728F
:10287000726F725D0A005B53533830204469736B8A
:102880002052656164202530325848206279746591
:10289000735D0A005B53533830204C6F636174657D
:1028A00020616E6420526561642061742025303897
:1028B0006C584828256C5848295D0A005B535338EA
:1028C0003020455845432073746174653A2564206F
:1028D0006572726F725D0A005B5353383020253089
:1028E00032584820494E49545D0A005B53533830F2
:1028F000205465737420446F6E655D0A005B53530A
:10290000383020546573745D0A005B414D49474F70
:1029100020457865637574652052657175657374BB
:10292000204C6F676963616C2041646472657373E6
:102930005D0A005B414D49474F20457869637574D6
:102940006520526571756573742053746174757375
:1029500020556E62756666657265645D0A005B414E
:102960004D49474F20457865637574652052657100
:10297000756573742053746174757320427566664F
:10298000657265645D0A005B414D49474F2045789B
:102990006563757465205772697465204275666653
:1029A000657265645D0A005B414D49474F2045787B
:1029B000656375746520496E697469616C697A65CF
:1029C0005D0A005B414D49474F204578656375744A
:1029D0006520577269746520556E6275666665720A
:1029E00065645D0A005B414D49474F20457865634A
:1029F000757465205265616420427566666572650E
:102A0000645D0A005B414D49474F20457865637519
:102A10007465205265616420556E627566666572E4
:102A200065645D0A005B414D49474F204578656309
:102A300075746520436F6C64204C6F61642052652F
:102A400061645D0A005B414D49474F2045786563ED
:102A5000757465282530325848293A206C6973749A
:102A6000656E3A25303258482C2074616C6B3A25DB
:102A7000303258485D0A005B414D49474F20466F50
:102A8000726D61745D0A005B414D49474F2052658C
:102A9000616420427566666572656420436F6D6D82
:102AA000616E645D0A005B414D49474F205265717C
:102AB000756573742053746174757320556E6275F7
:102AC00066666572656420436F6D6D616E645D0A54
:102AD000005B414D49474F2057726974652042752C
:102AE00066666572656420436F6D6D616E645D0A34
:102AF000005B414D49474F205265717565737420E5
:102B00004C6F676963616C20416464726573732004
:102B1000436F6D6D616E645D0A005B414D49474FC7
:102B200020496E697469616C697A6520436F6D6DC7
:102B3000616E645D0A005B414D49474F20577269E1
:102B4000746520556E627566666572656420436FB4
:102B50006D6D616E645D0A005B414D49474F2056C3
:102B600065726966795D0A005B414D49474F2052A5
:102B700065616420556E62756666657265642043A2
:102B80006F6D6D616E645D0A005B414D49474F207A
:102B90005265717565737420537461747573204246
:102BA0007566666572656420436F6D6D616E645D08
:102BB0000A005B414D49474F205365656B206C65AA
:102BC0006E3D365D0A005B414D49474F20536565B8
:102BD0006B206C656E3D355D0A005B414D49474F8A
:102BE00020436F6C64204C6F6164205265616420E7
:102BF000436F6D6D616E645D0A005B414D49474FE7
:102C000020436F6D6D616E64282530325848293A33
:102C1000204750494220726561642062797465736F
:102C20003A25303258485D0A005B414D49474F20F4
:102C3000436F6D6D616E643A475049422072656121
:102C400064206572726F725D0A005B414D49474FA7
:102C500020436F6D6D616E643A4750494220726542
:102C60006164206572726F725D0A005B414D494775
:102C70004F5F436F6D6D616E643A475049422077F4
:102C800072697465206572726F725D0A005B414DF6
:102C900049474F20436F6D6D616E6428253032586F
:102CA00048293A206C697374656E3A253032584869
:102CB0002C2074616C6B3A25303258485D0A005BF9
:102CC00045202020416D69676F204552524F5220A8
:102CD0007365636F6E646172793A202530325848AB
:102CE0002C2073746174653A25303258482C206C5E
:102CF000697374656E696E673A25303258482C20C6
:102D000074616C6B696E673A25303258485D0A0011
:102D10005B554E5420416D69676F20544F444F20DE
:102D20007365636F6E646172793A2025303258485A
:102D30002C2073746174653A25303258482C206C0D
:102D4000697374656E696E673A25303258482C2075
:102D500074616C6B696E673A25303258485D0A00C1
:102D60005B54202020416D69676F20544F444F20F1
:102D70007365636F6E646172793A2025303258480A
:102D80002C2073746174653A25303258482C206CBD
:102D9000697374656E696E673A25303258482C2025
:102DA00074616C6B696E673A25303258485D0A0071
:102DB0005B4C202020416D69676F20544F444F20A9
:102DC0007365636F6E646172793A202530325848BA
:102DD0002C2073746174653A25303258482C206C6D
:102DE000697374656E696E673A25303258482C20D5
:102DF00074616C6B696E673A25303258485D0A0021
:102E00005B5520416D69676F20544F444F207365B7
:102E1000636F6E646172793A2025303258482C20F5
:102E200073746174653A25303258482C206F706392
:102E30006F64653A25303258482C206C656E3A250F
:102E400033642C206C697374656E696E673A253043
:102E50003258482C2074616C6B696E673A253032A9
:102E600058485D0A005B554E5420416D69676F20DC
:102E7000544F444F207365636F6E646172793A20DA
:102E800025303258482C2073746174653A253032ED
:102E900058482C206F70636F64653A25303258486B
:102EA0002C206C656E3A2533642C206C6973746534
:102EB0006E696E673A25303258482C2074616C6B0D
:102EC000696E673A25303258485D0A005B5420200D
:102ED00020416D69676F20544F444F207365636FC5
:102EE0006E646172793A2025303258482C20737410
:102EF0006174653A25303258482C206F70636F64D6
:102F0000653A25303258482C206C656E3A2533647A
:102F10002C206C697374656E696E673A253032587F
:102F2000482C2074616C6B696E673A2530325848C2
:102F30005D0A005B4C202020416D69676F20544F73
:102F4000444F207365636F6E646172793A20253057
:102F50003258482C2073746174653A2530325848D1
:102F60002C206F70636F64653A25303258482C20EE
:102F70006C656E3A2533642C206C697374656E69D8
:102F80006E673A25303258482C2074616C6B696E3C
:102F9000673A25303258485D0A005B414D49474F3A
:102FA00020436C6561725D0A005B414D49474F20CB
:102FB00047504942207772697465206572726F725A
:102FC0005D0A005B414D49474F2057616B65757045
:102FD0005D0A005B44534A2025303258485D0A00A0
:102FE0005B41494D474F3A2044534A2073656E6414
:102FF000206661696C65645D0A005B414D49474F1D
:103000002057726974652047504942207265616497
:10301000206572726F725D0A005B414D49474F2017
:1030200047504942207772697465206572726F72E9
:103030005D0A005B414D49474F20466F726D6174D8
:1030400020446F6E655D0A005B414D49474F206625
:103050006F726D61745D0A005B414D49474F2025D9
:10306000732C20503A2530386C78482C20553A255E
:103070006420433A256420483A256420533A256465
:103080005D0A005B414D49474F207665726966795C
:1030900020503A2530386C58482C20736563746F83
:1030A00072733A25303458485D0A005B414D4947F8
:1030B0004F20257320706F73204F564552464C4F5A
:1030C000575D0A005B414D49474F20475049422018
:1030D0007772697465206572726F725D0A005B4178
:1030E0004D49474F2073656E642073746174757326
:1030F0005D0A005B414D49474F20475049422077C8
:1031000072697465206572726F725D0A005B414D71
:1031100049474F2073656E64206C6F676963616C0B
:1031200020616464726573735D0A005B414D4947B9
:103130004F20726571756573742073746174757353
:103140005D0A0072656365697665643A5B25645D56
:103150002062797465730A007265636569766564D7
:103160003A5B25645D2025730A00726563656976A4
:1031700065643A5B25645D2025730A007072696E90
:10318000746572206E6F7420646566696E65640A8A
:10319000005B5343205052494E5445522054616CB9
:1031A0006B3A2025303258485D0A005B534320506B
:1031B00052494E544552204C697374656E3A20252D
:1031C000303258485D0A002530386C640D00777243
:1031D000697465206661696C65643A2077616E7414
:1031E00065642025642C20676F743A25640A000A00
:1031F000444F4E453A202530386C640A00455252FF
:103200004F522064757272696E67207772697465B7
:103210000A0065786974696E672E2E2E0A00436174
:1032200070747572696E6720706C6F7420746F3A79
:1032300025730A002F706C6F742D2530326425734E
:10324000253034642D253032642530326425303207
:10325000642E706C7400466F726D6174696E673AAB
:103260002077726F74653A5B256C645D20736563CB
:10327000746F72730A006C69665F6372656174656E
:103280005F696D6167653A20736563746F7273205F
:10329000697320300A006C69665F637265617465EA
:1032A0005F696D6167653A20646972736563746F05
:1032B000727320697320300A006C69665F637265FF
:1032C0006174655F696D6167653A206C69666C6100
:1032D00062656C20697320656D7074790A006C6991
:1032E000665F6372656174655F696D6167653A20E9
:1032F0006C6966696D6167656E616D6520697320D3
:10330000656D7074790A0072656E616D65643A204E
:103310002531307320746F20253130730A006C69B9
:10332000665F72656E616D653A5B25735D206C69E1
:1033300066206E616D653A5B25735D206E6F74204B
:10334000666F756E640A006C69665F72656E616DAA
:10335000655F66696C653A206E6577206C69666E9C
:10336000616D6520636F6E7461696E732062616464
:1033700020636861726163746572730A006C6966C8
:103380005F72656E616D655F66696C653A206E653A
:1033900077206C69666E616D6520697320656D705C
:1033A00074790A006C69665F72656E616D655F664F
:1033B000696C653A206F6C64206C69666E616D653E
:1033C00020697320656D7074790A006C69665F729C
:1033D000656E616D655F66696C653A206C696669EA
:1033E0006D6167656E616D6520697320656D7074D0
:1033F000790A0044656C657465643A202531307340
:103400000A004C494620696D6167653A5B25735D2A
:10341000206C6966206E616D653A5B25735D206E78
:103420006F7420666F756E640A004C494620696DA2
:103430006167653A5B25735D2C204C4946206E61BF
:103440006D653A5B25735D0A006C69665F64656C47
:103450005F66696C653A206C69666E616D652069AE
:103460007320656D7074790A006C69665F64656CC1
:103470005F66696C653A206C6966696D6167656E47
:10348000616D6520697320656D7074790A005772EB
:103490006F74653A2025386C640A0057726F746542
:1034A0003A2025386C640D004C494620696D6167EF
:1034B000653A5B25735D2C206E6F7420656E6F75A9
:1034C0006768206672656520737061636520666F4A
:1034D000723A5B25735D0A0046696C65206E6F74F5
:1034E00020666F756E643A25730A004C4946206960
:1034F0006D6167653A5B25735D2C204C4946206EF3
:10350000616D653A5B25735D2C207573657220666D
:10351000696C653A5B25735D0A006C69665F61647E
:10352000643A207573657266696C652069732065FD
:103530006D7074790A006C69665F6164643A206C2E
:1035400069666E616D6520697320656D7074790AB6
:10355000006C69665F6164643A206C6966696D61DC
:1035600067656E616D6520697320656D7074790A99
:103570000057726F74653A2025386C640A005772E0
:103580006F74653A2025386C640D0046696C6520BF
:103590006E6F7420666F756E643A25730A004C492D
:1035A0004620696D616765206E6F7420666F756E69
:1035B000643A25730A0057726F74653A2025386C97
:1035C000640A006C69665F657874726163745F6534
:1035D0003031305F61735F61736369693A2077727C
:1035E000697465206572726F720A0057726F746534
:1035F0003A2025386C640D006C69665F65787472DA
:103600006163745F653031305F61735F61736369FB
:10361000693A207772697465206572726F720A0068
:103620006C69665F657874726163745F65303130B0
:103630005F61735F61736369693A20756E65787065
:10364000656374656420636F6E74726F6C20627959
:1036500074653A5B25303258485D2040206F6666BD
:103660007365743A2025386C782C20696E643A258D
:10367000303258480A006C69665F6578747261631D
:10368000745F653031305F61735F61736369693A9C
:1036900020737472696E6720746F6F20626967208F
:1036A00073697A65203D2025640A0045787472614B
:1036B0006374696E673A2025730A0046696C652059
:1036C0002573206861732077726F6E67207479703C
:1036D000653A5B25303458485D20657870656374C1
:1036E0006564203078453031302E2E3078453031C9
:1036F000330A004C49462046696C65206E6F742081
:10370000666F756E643A25730A004C494620696DF0
:10371000616765206E6F7420666F756E643A2573FD
:103720000A0057726F74653A2025386C640A0046A7
:10373000696C6520536563746F72733A2020202092
:103740002025346C78480A004669727374205365EA
:1037500063746F723A202020202025346C78480A48
:1037600000496E6465783A20202020202020202007
:103770002020202534640A004E616D653A20202007
:10378000202020202020202020202025730A004EE9
:103790006577204469726563746F727920496E663B
:1037A0006F726D6174696F6E204146544552207787
:1037B000726974650A004C494620696D6167653A13
:1037C0005B25735D2C206E6F7420656E6F75676866
:1037D000206672656520737061636520666F723A5A
:1037E0005B25735D0A004C494620696D6167653A47
:1037F0005B25735D2C204C4946206E616D653A5BFC
:1038000025735D2C20757365722066696C653A5B63
:1038100025735D0A006C69665F6164645F61736350
:1038200069695F66696C655F61735F653031303A05
:10383000207573657266696C65206E6F7420666FA3
:10384000756E640A006C69665F6164645F617363CE
:1038500069695F66696C655F61735F653031303AD5
:10386000207573657266696C6520697320656D707B
:1038700074790A006C69665F6164645F617363698F
:10388000695F66696C655F61735F653031303A20EE
:103890006C69666E616D6520697320656D70747901
:1038A0000A006C69665F6164645F61736369695F84
:1038B00066696C655F61735F653031303A206C69B1
:1038C00066696D6167656E616D6520697320656D00
:1038D0007074790A0057726F74653A2025386C64E9
:1038E0000D0057726F74653A2025386C640D0057CF
:1038F000726F74653A2025386C640D0045787065E8
:103900006374656420736563746F7220626F756E93
:103910006472792C206F66667365743A25640A00B8
:103920006C69665F653031305F6461705F736563D9
:10393000746F723A2065787065637465642073658E
:1039400063746F7220626F756E6472793A206F666D
:10395000667365743A25640A006C69665F66696E11
:10396000645F66696C653A5B25735D206C69666CA3
:103970006162656C20746F6F206269670A006C6910
:10398000665F66696E645F66696C653A5B25735D48
:1039900020696E76616C696420636861726163742A
:1039A0006572730A0025386C642046726565207361
:1039B0006563746F72730A0025386C6420557365F3
:1039C0006420736563746F72730A0025386C642019
:1039D0005075726765640A0025386C642046696C0E
:1039E00065730A000A00252D3130732020253034FC
:1039F000586820202020202025386C58682020205E
:103A000025396C6425632020202020202534642063
:103A1000202025730A004C4946204469726563746E
:103A20006F72793A5B25735D207761726E696E679C
:103A30002046696C6542797465733A256C6420612F
:103A40007320736563746F72733A256C6420213D33
:103A50002046696C65536563746F72733A256C64B4
:103A60000A004E414D4520202020202020202054B7
:103A7000595045202020535441525420534543541B
:103A80004F52202020202020202053495A4520201A
:103A9000202052454353495A452020204441544553
:103AA0000A00566F6C756D653A5B25735D20446145
:103AB00074653A5B25735D0A006C69665F6F7065BB
:103AC0006E5F766F6C756D653A5B25735D20657210
:103AD000726F72206469726563746F7279206368B3
:103AE00065636B206661696C65640A006C69665F7A
:103AF0006F70656E5F766F6C756D653A5B25735D93
:103B0000206572726F7220766F6C756D65207661BC
:103B10006C6964617465206661696C65640A006C37
:103B200069665F6F70656E5F766F6C756D653A5B29
:103B300025735D206572726F7220726561642076F4
:103B40006F6C756D6520686561646572206661697A
:103B50006C65640A006C69665F6F70656E5F766F96
:103B60006C756D653A5B25735D206572726F7220AE
:103B7000766F6C756D652068656164657220617231
:103B8000656120746F6F20736D616C6C3A5B256C9E
:103B9000645D0A006C69665F6E65776469723A20DD
:103BA000696E6465783A5B25645D20616464696E62
:103BB000672061743A5B256C645D746F2070757268
:103BC0006765642073706163653A5B256C645D2092
:103BD000736563746F72732C20667265653A5B253A
:103BE0006C645D0A006C69665F6E65776469723A41
:103BF000206E6F7420656E6F7567682066726565EC
:103C00002073706163653A5B256C645D0A006C69C2
:103C1000665F6E65776469723A206E6F7420656EB8
:103C20006F75676820667265652073706163653AB9
:103C30005B256C645D20666F722073697A653A5B00
:103C4000256C645D0A006C69665F757064617465FB
:103C50005F667265653A5B25735D206572726F728F
:103C60002070726576696F7573207265636F726418
:103C70002066696C652061726561206F7665726C83
:103C80006170732074686973206F6E653A5B257389
:103C90005D0A006C69665F636865636B5F64697287
:103CA0003A206572726F722C20696E6465783A25CD
:103CB000640A006C69665F636865636B6469726956
:103CC0006E6465783A5B25735D2064697265636F25
:103CD000727920696E6465783A5B25645D206F7542
:103CE00074206F6620626F756E64730A0057726F7E
:103CF00074653A20256C640A0057726F74653A2027
:103D0000256C640D0057726F74653A20256C640D44
:103D10000057726F74653A20256C640D004372651C
:103D20006174696E673A25732C204C6162656C3A48
:103D3000253130732C204469726563746F72792069
:103D4000537461727420256C642C2044697265631D
:103D5000746F72792053697A653A20256C642C203F
:103D600046696C6520536563746F72733A256C64A1
:103D70000A004C4946204469726563746F72793A4F
:103D80005B25735D20696E76616C69642073656381
:103D9000746F722073697A653A256C640A004C4925
:103DA00046204469726563746F72793A5B25735D6E
:103DB00020696E76616C69642046696C654279742D
:103DC0006573203D3D20300A004C4946204469720D
:103DD0006563746F72793A5B25735D207761726EEB
:103DE000696E672046696C6542797465733A256C23
:103DF0006420617320736563746F72733A256C6419
:103E0000203C2046696C65536563746F72733A2574
:103E10006C640A004C4946204469726563746F7291
:103E2000793A5B25735D20696E76616C6964204622
:103E3000696C6542797465733A256C6420617320FE
:103E4000736563746F72733A256C64203E20466913
:103E50006C65536563746F72733A256C640A004C29
:103E60004946204469726563746F72793A5B2573C1
:103E70005D20696E76616C696420566F6C756D6546
:103E8000204E756D6265723A2558680A004C4946A5
:103E9000204469726563746F72793A5B25735D20A3
:103EA000696E76616C696420656E64207365637405
:103EB0006F723A256C5868203E20746F74616C20D4
:103EC000736563746F72733A256C58680A004C49C5
:103ED00046204469726563746F72793A5B25735D3D
:103EE00020696E76616C69642073746172742073EA
:103EF0006563746F723A256C5868203C206669656A
:103F000020617265612073746172743A256C58681F
:103F10000A004C4946204469726563746F72793AAD
:103F20005B25735D20696E76616C6964204E616DFE
:103F3000650A004C494620566F6C756D6520696EA8
:103F400076616C69642066696C6520737461727453
:103F5000203E20696D6167652073697A650A004CAF
:103F6000494620566F6C756D6520696E76616C6987
:103F700064204469726563746F7279205365637459
:103F80006F7220436F756E74203C20310A004C49DB
:103F90004620566F6C756D6520696E76616C69643C
:103FA00020737461727420736563746F723A256C48
:103FB000640A004C494620566F6C756D6520696E29
:103FC00076616C6964206279746573206174206F16
:103FD00066667365742032322632332073686F75DB
:103FE0006C64206265207A65726F0A004C49462035
:103FF000566F6C756D6520696E76616C69642062C0
:1040000079746573206174206F66667365742031FE
:10401000342631352073686F756C64206265207AB0
:1040200065726F0A004C49462056657273696F6E5F
:104030003A202530345848203E20310A004C494669
:1040400020566F6C756D6520696E76616C696420B1
:1040500053797374656D33303030204944202825FE
:104060003034584829206578706563746564203160
:10407000303030480A004C494620566F6C756D65EB
:1040800020696E76616C696420566F6C756D652071
:104090004E616D65000A004449522046696C6520F6
:1040A000446174653A202020202020202025730AB6
:1040B000004449522046696C6520736563746F72D1
:1040C0002073697A653A20253858680A00444952B5
:1040D0002046696C652062797465733A202020203F
:1040E00020202025386C58680A004449522046692F
:1040F0006C6520736563746F72733A2020202020F2
:1041000025386C58680A004449522046696C65207D
:1041100073746172743A2020202020202025386C8E
:1041200058680A004449522046696C6520566F6CF5
:10413000756D65233A2020202020253858680A0014
:104140004449522046696C6520547970653A2020B4
:10415000202020202020253858680A004449522079
:1041600046696C65204E616D653A20202020202034
:10417000202025730A00564F4C20446174653A2074
:1041800020202020202020202020202025730A000D
:10419000564F4C204C494656657273696F6E3A20F3
:1041A000202020202020253858680A00564F4C2017
:1041B000333030304C494669643A2020202020209A
:1041C0002020253858680A00564F4C204469722038
:1041D000736563746F72733A202020202020253885
:1041E0006C58680A00564F4C204469722073746101
:1041F00072743A202020202020202025386C586816
:104200000A00564F4C204C494669643A2020202031
:104210002020202020202020253858680A00564FD2
:104220004C204C6162656C3A202020202020202008
:104230002020202025730A004C49462070757267A3
:1042400065643A20202020202020202020202538AE
:104250006C58680A004C49462066696C65733A20C0
:10426000202020202020202020202025386C586865
:104270000A004C494620667265653A2020202020BD
:10428000202020202020202025386C58680A004C4F
:10429000494620757365643A202020202020202084
:1042A000202020202025386C58680A004C494620E0
:1042B00066696C6520736563746F72733A202020A1
:1042C000202025386C58680A004C49462066696CE5
:1042D0006573746172743A202020202020202025EC
:1042E000386C58680A004C49462062797465733A04
:1042F00020202020202020202020202025386C581D
:10430000680A004C494620736563746F72733A20E3
:1043100020202020202020202025386C58680A00EA
:104320004C4946206E616D653A20202020202020D7
:1043300020202020202025730A000A25730A006C03
:1043400069665F77726974653A2057726974653A75
:104350005B25735D206F66667365743A5B256C64DC
:104360005D2077726974653A5B25645D20657870BD
:1043700065637465643A5B25645D0A006C69665F19
:10438000726561643A20726561643A5B25735D20F1
:104390006F66667365743A5B256C645D207772693D
:1043A00074653A5B256C645D20657870656374653F
:1043B000643A5B25645D0A006C69665F72656164DE
:1043C0005F6D73673A202573205365656B206572B6
:1043D000726F7220256C640A006C69665F73746189
:1043E000743A2043616E277420737461743A2573A4
:1043F0000A006C69665F6F70656E3A2043616E27D4
:1044000074206F70656E3A5B25735D206D6F646517
:104410003A5B25735D0A006C69665F667265653A92
:10442000204E554C4C20706F696E7465720A006C9A
:1044300069665F63616C6C6F633A5B256C645D20D9
:104440006E6F7420656E6F75676820667265652093
:104450006D656D6F72790A006C6966206164642015
:104460006C6966696D616765206C69666E616D6512
:104470002066726F6D5F61736369695F66696C6501
:104480000A6C69662061646462696E206C696669A1
:104490006D616765206C69666E616D652066726F1F
:1044A0006D5F6C69665F66696C650A6C696620633E
:1044B0007265617465206C6966696D616765206C01
:1044C0006162656C206469726563746F72795F7391
:1044D0006563746F727320736563746F72730A6CB3
:1044E00069662064656C206C6966696D616765202A
:1044F0006E616D650A6C696620646972206C69661C
:10450000696D6167650A6C696620657874726163BC
:1045100074206C6966696D616765206C69666E619F
:104520006D6520746F5F61736369695F66696C654F
:104530000A6C6966206578747261637462696E20C2
:104540006C6966696D616765206C69666E616D6531
:1045500020746F5F6C69665F66696C650A20202055
:1045600020657874726163747320612066696C657C
:1045700020696E746F2061207369676C65206669BD
:104580006C65204C494620696D6167650A6C6966F7
:104590002072656E616D65206C6966696D61676525
:1045A000206F6C646C69666E616D65206E65776CFA
:1045B00069666E616D650A557365202D64206166BC
:1045C000746572206669727374206B6579776F7297
:1045D0006420276C6966272061626F766520666FAC
:1045E00072204C49462066696C6573797374656DF9
:1045F00020646562756767696E670A0A006C6966A0
:104600002068656C700A005374617274696E67206B
:1046100047504942205441534B0A00646562756714
:104620006C6576656C2020203D2025303478480A62
:10463000004750494220537461746520696E697463
:1046400020646F6E650A00475049422046696C65D8
:1046500020696E697420646F6E650A004750494294
:104660002054696D657220696E697469616C697A3C
:1046700065640A00475049422054696D65722053B1
:10468000657475700A005072696E74657220696E87
:10469000697469616C697A65640A0047504942200F
:1046A00062757320696E697469616C697A65640A00
:1046B000004D4D4320696E697469616C697A656467
:1046C0000A004D4D4320696E697469616C697A69AD
:1046D0006E672073746172740A00493243204C4340
:1046E00044206973204E4F5420617474616368657F
:1046F00064210A00493243204C434420696E6974A6
:1047000069616C697A6174696F6E20446F6E650AC5
:1047100000493243204C434420696E697469616CDE
:10472000697A6174696F6E2073746172740A0053E0
:10473000595354454D5F5441534B5F434F554E546D
:1047400045525F5245533A256C640A00436C6F63CF
:104750006B20636C65617265640A00696E697469D7
:10476000616C697A696E67205254430A00696E6908
:104770007469616C697A696E672049324320627599
:10478000730A00696E697469616C697A696E672081
:10479000535049206275730A002020204C617374C5
:1047A00020757064617465642066696C653A2025C3
:1047B000730A00202020474954206C6173742070D4
:1047C00075736865643A20202025730A002D3E2009
:1047D00068747470733A2F2F6769746875622E63FA
:1047E0006F6D2F6D61676F72652F68703835646902
:1047F000736B0A0020474E552076657273696F6EA1
:1048000020330A002028432920323031342D323021
:104810003230206279204D696B6520476F72650ADE
:104820000048503835204469736B20616E64204421
:10483000657669636520456D756C61746F720A00F9
:1048400052657175657374656420426175642052A8
:104850006174653A20256C642C2041637475616C29
:104860003A20256C640A0043505520436C6F636BFB
:10487000203D20256C750A0053746172740A00454E
:1048800072726F723A5B25735D0A000A3E006465BE
:104890006C61795F74657374730A74696D650A730A
:1048A0006574646174650A6D656D0A0A004D79204E
:1048B00064656C6179730A0053797374656D206463
:1048C000656C6179730A000A002020204C617374C2
:1048D00020757064617465642066696C653A202592
:1048E000730A00202020474954206C6173742070A3
:1048F00075736865643A20202025730A002D3E20D8
:1049000068747470733A2F2F6769746875622E63C8
:104910006F6D2F6D61676F72652F687038356469D0
:10492000736B0A0020474E552076657273696F6E6F
:1049300020330A002028632920323031342D3230D0
:104940003230206279204D696B6520476F72650AAD
:104950000048503835204469736B20616E642044F0
:10496000657669636520456D756C61746F720A00C8
:104970005374616E6420616C6F6E6520766572732E
:10498000696F6E206F66204C4946207574696C69AA
:104990007469657320666F72206C696E75780A00A1
:1049A00011241FBECFEFD0E4DEBFCDBF17E1A0E0E2
:1049B000B1E0E2EAFAED01E00BBF02C007900D9210
:1049C000AC36B107D9F721E2ACE6B7E101C01D92E0
:1049D000AF3BB207E1F70E94B2E50C944FED0C94A7
:1049E00000002F923F924F925F926F927F928F9230
:1049F0009F92AF92BF92CF92DF92EF92FF920F936E
:104A00001F93CF93DF93CDB7DEB760970FB6F894BF
:104A1000DEBF0FBECDBF7C011B016A01FC01178206
:104A20001682838181FF44C39E012F5F3F4F39016E
:104A3000F7019381F10193FD859193FF81911F010E
:104A4000882309F431C3853239F493FD859193FFAE
:104A500081911F01853239F4B70190E00E946175A0
:104A600056016501E5CF10E0512C912CFFE1F915BD
:104A7000D8F08B3279F038F4803279F08332A1F4B7
:104A8000F92DF0612EC08D3261F0803369F4292D4B
:104A900021602DC0392D3260932E892D8460982E8F
:104AA0002AC0E92DE86015C097FC2DC020ED280F25
:104AB0002A3088F496FE06C03AE0139F200D112498
:104AC000122F19C08AE0589E200D1124522EE92D74
:104AD000E0629E2E10C08E3231F496FCE5C2F92DB4
:104AE000F0649F2E08C08C3621F4292D2068922E68
:104AF00002C0883641F4F10193FD859193FF8191C5
:104B00001F018111B3CF9BEB980F933020F4992DA7
:104B10009061805E07C09BE9980F933008F066C1F2
:104B2000992D9F7E96FF16E09F73992E853619F476
:104B30009064992E08C0863621F4392F3068932E60
:104B400002C01111115097FE07C01C3350F44424C9
:104B50004394410E27E00BC0183038F027E017E0EF
:104B600005C027E09CE3492E02C0212F412C5601AD
:104B700084E0A80EB11CF60160817181828193816D
:104B8000042DA3010E94FCEB6C01F981FC87F0FF6E
:104B900002C0F3FF06C091FC06C092FE06C000E210
:104BA00005C00DE203C00BE201C000E08C858C70F3
:104BB00019F001115AC29BC297FE10C04C0CFC8523
:104BC000F4FF04C08A81813309F44A94141474F503
:104BD00028E0241578F588E0482E2CC096FC2AC0E1
:104BE000812F90E08C159D059CF03CEFC3163FEFA4
:104BF000D30674F0892D8068982E0AC0E2E0F0E0B8
:104C0000EC0FFD1FE10FF11D8081803319F411506D
:104C10001111F4CF97FE0EC044244394410E812F0E
:104C200090E0C816D9062CF41C1904C044244394FF
:104C300001C010E097FE06C01C141D0434F4C60128
:104C4000019605C085E090E002C081E090E001118E
:104C50000196112331F0212F30E02F5F3F4F820F5B
:104C6000931F252D30E08217930714F4581A01C0C2
:104C7000512C892D897049F4552039F0B70180E213
:104C800090E00E9461755A94F7CF002329F0B70194
:104C9000802F90E00E94617593FC09C0552039F087
:104CA000B70180E390E00E9461755A94F7CF97FEB8
:104CB0004CC04601D7FE02C0812C912CC601881938
:104CC0009909F301E80FF91FFE87ED879601241972
:104CD0003109388B2F87012F10E0119501951109AB
:104CE0003FEF8316930629F4B7018EE290E00E940D
:104CF0006175C814D9044CF08F8598898815990579
:104D000024F4ED85FE85818101C080E3F1E08F1AF6
:104D100091082D853E852F5F3F4F3E872D8780165A
:104D200091062CF0B70190E00E946175D9CFC814AC
:104D3000D90441F49A81963320F4953319F43C85D3
:104D400034FF81E3B70190E04EC08A81813319F0CE
:104D50009C859F7E9C87B70190E00E946175111130
:104D600005C094FC18C085E690E017C0B7018EE23C
:104D700090E00E9461751E5F82E001E0080FF30180
:104D8000E80FF11D8081B70190E00E946175802FCE
:104D90000113F3CFE6CF85E490E0B7010E9461757F
:104DA000D7FC06C0C114D10441F4EC85E4FF05C072
:104DB000D194C194D1088DE201C08BE2B70190E09B
:104DC0000E94617580E32AE0C216D1042CF08F5F47
:104DD000FAE0CF1AD108F7CFB70190E00E946175D1
:104DE000B701C601C0960E94617554C1833631F087
:104DF000833779F0833509F056C020C0560132E080
:104E0000A30EB11CF6018081898301E010E06301EB
:104E100012C05601F2E0AF0EB11CF601C080D18085
:104E200096FE03C0612F70E002C06FEF7FEFC601F6
:104E30000E94E6EC8C01F92DFF7714C0560122E0A8
:104E4000A20EB11CF601C080D18096FE03C0612F76
:104E500070E002C06FEF7FEFC6010E94D4EC8C01BE
:104E6000F92DF0689F2EF3FD1AC0852D90E00817EC
:104E70001907A8F4B70180E290E00E9461755A9486
:104E8000F4CFF60197FC859197FE81916F01B701F0
:104E900090E00E94617551105A940150110901155A
:104EA000110579F7F7C0843611F0893661F556019E
:104EB00097FE09C024E0A20EB11CF6016081718149
:104EC000828193810AC0F2E0AF0EB11CF6016081CD
:104ED0007181072E000C880B990BF92DFF769F2E00
:104EE00097FF09C090958095709561957F4F8F4F82
:104EF0009F4FF0689F2E2AE030E0A3010E94F1EC62
:104F0000C82EC6183FC0092D853721F40F7E2AE030
:104F100030E01DC0097F8F3691F018F4883559F0C4
:104F2000C3C0803719F0883711F0BEC0006104FF9C
:104F300009C0046007C094FE08C0066006C028E0EF
:104F400030E005C020E130E002C020E132E056014F
:104F500007FF09C084E0A80EB11CF60160817181D1
:104F60008281938108C0F2E0AF0EB11CF60160812E
:104F7000718180E090E0A3010E94F1ECC82EC61878
:104F80000F77902E96FE0BC0092D0E7FC11650F4A0
:104F900094FE0AC092FC08C0092D0E7E05C0DC2CD0
:104FA000092D03C0DC2C01C0D12E04FF0DC0FE0171
:104FB000EC0DF11D8081803311F4097E09C002FFE0
:104FC00006C0D394D39404C0802F867809F0D3947C
:104FD00003FD11C000FF06C01C2DD51480F4150D73
:104FE0001D190DC0D51458F4B70180E290E00E945D
:104FF0006175D394F7CFD51410F45D1801C0512C0E
:1050000004FF10C0B70180E390E00E94617502FFC9
:1050100017C001FD03C088E790E002C088E590E07A
:10502000B7010CC0802F867859F001FF02C08BE2D7
:1050300001C080E207FD8DE2B70190E00E9461753A
:10504000C11638F4B70180E390E00E9461751150F9
:10505000F7CFCA94F301EC0DF11D8081B70190E008
:105060000E946175C110F5CF15C0F4E0F51560F52B
:1050700084E0581A93FE1FC0011127C02C8523FF1E
:105080002AC006ED11E0392D3071932EF80184917C
:10509000811124C0552009F4E4CCB70180E290E0EE
:1050A0000E9461755A94F6CFF7018681978126C0D8
:1050B0008FEF9FEF23C0B70180E290E00E946175FF
:1050C0005A945110F8CFD8CF512CB701802F90E0CF
:1050D0000E946175D3CF0AED11E0D5CF91108052B7
:1050E000B70190E00E9461750F5F1F4FCFCF23E0A3
:1050F000251510F483E0BDCF512CC0CF60960FB6BC
:10510000F894DEBF0FBECDBFDF91CF911F910F91FD
:10511000FF90EF90DF90CF90BF90AF909F908F90D7
:105120007F906F905F904F903F902F900895E82F61
:10513000E695E695E69593E0E99FF001112432A10A
:10514000282F277081E090E001C0880F2A95EAF7A8
:10515000982F9095932392A391A1892B81A30895D1
:10516000E82FE695E695E69593E0E99FF001112496
:1051700032A1282F277081E090E001C0880F2A9586
:10518000EAF7932F982B92A391A1892B81A30895DD
:10519000E7CF0895CF93C82F809104018C17A9F011
:1051A0008F3F99F01F92CF931F928F9388ED92E0DB
:1051B0001F929F938F930E941F478DB79EB70796AC
:1051C0000FB6F8949EBF0FBE8DBF8C2FC9DF8FEF37
:1051D00080930401CF9108957AC40895A2C40895DC
:1051E000A1E0B0E0E6EFF8E20C9423E8898361E007
:1051F00070E0CE0101966BD42196E2E00C943FE87A
:10520000CF92DF92EF92FF926B017C01842FA8DF97
:105210008FEF80930401C701B60134D480E090E0A1
:10522000F5D38FEFDDDFC0920001D0920101E09253
:105230000201F0920301FF90EF90DF90CF9008956C
:10524000CF92DF92EF92FF92CF93DF936B017C01BD
:10525000EA01809104018F3F99F0DF934F931F92F1
:105260008F9386EF92E01F929F938F930E941F4728
:105270008DB79EB707960FB6F8949EBF0FBE8DBF31
:105280008091000190910101A0910201B091030170
:105290008C159D05AE05BF0521F0AE01C701B60115
:1052A000AFDF8C2F44DFC0930401DF91CF91FF90DB
:1052B000EF90DF90CF900895A1E0B0E0E2E6F9E250
:1052C0000C9423E8898361E070E0CE01019613D449
:1052D00089812196E2E00C943FE8A2E0B0E0E3E7A8
:1052E000F9E20C9423E82091BB213091BC212115D7
:1052F000310511F42FEB31E2CE010196821B930BA5
:105300002296E2E00C943FE8A2E0B0E0EAE8F9E29D
:105310000C9423E8E2DF89839A839F938F938DE136
:1053200094E01F929F938F930E941F478FEF90E40A
:105330009F938F938AE094E01F929F938F930E9494
:105340001F47CE0101969F938F9387EF93E01F92A3
:105350009F938F930E941F478FEB91E29F938F93B0
:105360008CE697E19F938F9389ED93E01F929F9333
:105370008F930E941F478CE697E19F938F9380E065
:1053800091E09F938F938BEB93E01F929F938F936A
:105390000E941F4780E090E09F938F938FEB91E2F4
:1053A0009F938F938DE993E01F929F938F930E9419
:1053B0001F470FB6F894DEBF0FBECDBF80915602D7
:1053C0008F93809155028F93809158028F93809193
:1053D00057028F938FE793E01F929F938F930E94C2
:1053E0001F478091BC218F938091BB218F938BE6C7
:1053F00093E01F929F938F930E941F470FB6F894DC
:10540000DEBF0FBECDBF2296E2E00C943FE8EF92E4
:10541000FF920F931F93CF93DF93182F092FF62E30
:10542000E72E0E94C1EAEC01892B99F4EF92FF92DA
:105430000F931F9380E593E01F929F938F930E9499
:105440001F478DB79EB707960FB6F8949EBF0FBE45
:105450008DBFCE01CDB7DEB7E6E00C943BE80F93ED
:105460001F93CF93DF93182F092F61E070E00E9404
:10547000C1EAEC01892B71F40F931F9388E393E049
:105480001F929F938F930E941F470F900F900F9032
:105490000F900F90CE01DF91CF911F910F91089542
:1054A000009739F12091BB213091BC2121153105A4
:1054B00011F42FEB31E241E28F3B940730F02817D3
:1054C000390718F00C9473EB08953F932F939F9333
:1054D0008F9383E193E01F929F938F930E941F47C6
:1054E00013DF8DB79EB707960FB6F8949EBF0FBE19
:1054F0008DBF0895643671058105910558F0645695
:10550000710981099109E3EFF1E03197F1F700C0EA
:105510000000F0CF6A3071058105910548F06A50AE
:10552000710981099109F2E4FA95F1F700C0F2CF0F
:10553000611571058105910549F061507109810975
:10554000910926E02A95F1F700C0F2CF0895611580
:1055500071058105910509F441C0E3EFF1E0319750
:10556000F1F700C00000E3EFF1E03197F1F700C080
:105570000000E3EFF1E03197F1F700C00000E3EF46
:10558000F1E03197F1F700C00000E3EFF1E031976F
:10559000F1F700C00000E3EFF1E03197F1F700C050
:1055A0000000E3EFF1E03197F1F700C00000E3EF16
:1055B000F1E03197F1F700C00000E3EFF1E031973F
:1055C000F1F700C00000E3EFF1E03197F1F700C020
:1055D00000006150710981099109B9CF08954F9276
:1055E0005F926F927F928F929F92AF92BF92CF9273
:1055F000DF92EF92FF92CF93DF935A01E9010E946D
:105600005FE92B013C0120E030E040E051E40E94E2
:1056100015EA9B01AC0160E876E988E99BE40E9409
:10562000C6E820E030E040E85FE30E945DE80E94C9
:1056300078EA0E9433E96B017C01C11480E1D8064D
:10564000E104F10458F481E090E0F5019183808356
:10565000812C912CA12C21E4B22E31C0F5011182B4
:10566000108220E030E040E851E4C301B2010E9422
:1056700015EA9B01AC0160E876E988E99BE40E94A9
:10568000C6E820E030E040E85FE30E945DE80E9469
:1056900078EA0E9433E96B017C01812C912C90E81F
:1056A000A92E91E4B92EC114F0E1DF06E104F10462
:1056B00030F0CC24CA948FE0D82EE12CF12CC70115
:1056C000B6016F5F7F4F8F4F9F4F0E945FE9A5012B
:1056D00094010E9415EA9B01AC0160E876E988E933
:1056E0009BE40E94C6E80E9433E9688379838A8339
:1056F0009B83C601DF91CF91FF90EF90DF90CF9019
:10570000BF90AF909F908F907F906F905F904F90E1
:105710000895A6E0B0E0EFE8FBE20C9423E81E82D7
:105720001D82811136C0CB01BA019E012F5F3F4F10
:10573000AE014B5F5F4F53DFF8941092061A109240
:10574000051A1092021A1092031A1092041A10925B
:10575000071A7894F894589A599A5098519A28E9C7
:105760002093C1002D813E81232B19F022E020934C
:10577000C0009093C5008093C40078946EE77CE2EB
:1057800083E99CE20E941B7869817A818B819C81EC
:1057900003C060E070E0CB012696E2E00C943FE8A5
:1057A00027E5829FC0011124FC01EE5FF54E838145
:1057B00094818035910584F4308121E0230F20838A
:1057C000DF01A30FB11D16966C930196948383831A
:1057D000203528F0108208958581816085830895A1
:1057E0001F920F920FB60F9211240BB60F922F93A8
:1057F0003F934F935F936F937F938F939F93AF9359
:10580000BF93EF93FF936091C60080E0C9DFFF91E3
:10581000EF91BF91AF919F918F917F916F915F9128
:105820004F913F912F910F900BBE0F900FBE0F9095
:105830001F901895811107C0F8948091051A9091D6
:10584000061A789408958FEF9FEF0895811121C073
:1058500080E0F0DF18161906DCF7F894E091031ADF
:1058600091E09E0F9093031AF0E0EE5FF54E868173
:10587000903510F01092031A2091051A3091061AF3
:10588000215031093093061A2093051A789490E03C
:1058900008958FEF9FEF0895D9DF9927089561113B
:1058A00009C02091C00025FFFCCF282F2F7720931F
:1058B000C6000895613049F42091C80025FFFCCF4F
:1058C000282F2F772093CE0008958FEF9FEF089514
:1058D000CF9381110FC0E0DFC82F60E090E0DFDFE1
:1058E000CD3029F460E08AE090E0D9DFCAE08C2F67
:1058F00090E002C08FEF9FEFCF91089580E0E8CF56
:1059000008951F93CF93DF93EC01162FC8DFCA30A1
:10591000D10521F4612F8DE090E0C1DFCE01DF9150
:10592000CF911F910895CF93DF93EC0160E070E079
:10593000E8DFCE01DF91CF9108957CCF0895CF921B
:10594000DF92EF92FF926B017C0180916E17909134
:105950006F17A0917017B09171178C159D05AE054A
:10596000BF0509F44EC060E07DE281E391E0A7014C
:1059700096010E9491E7203831054105510528F430
:10598000203431054105510530F08DB58E7F8DBD38
:105990008CB582601BC08DB52032310541055105A3
:1059A00028F081608DBD8CB582601FC0203131052B
:1059B0004105510510F08E7F06C0283031054105A4
:1059C000510540F081608DBD8CB58D7F8CBD8CB54F
:1059D00081600EC0243031054105510510F08E7FE5
:1059E00001C081608DBD8CB58D7F8CBD8CB58E7FE7
:1059F0008CBDC0926E17D0926F17E0927017F09224
:105A00007117FF90EF90DF90CF900895CF93DF93C1
:105A1000EC018130910571F02CF4892BC1F48CB527
:105A2000877F11C08230910561F0039781F48CB5B6
:105A3000886002C08CB5877F8CBD8CB584608CBDBE
:105A400014C08CB588608CBD8CB58B7FF8CFDF938C
:105A5000CF938AE294E01F929F938F930E941F47F7
:105A60000F900F900F900F900F90D0936D17C093E1
:105A70006C17DF91CF9108958EBD0DB407FEFDCF59
:105A80008EB50895CF92DF92EF92FF926B017C0169
:105A90002C9A249A6AE070E080E090E02BDD2F9A47
:105AA000279A2D9A259A26988CB580648CBD8CB542
:105AB00080618CBD80E090E0A9DFC701B6013FDFC7
:105AC0008FEFDADFFF90EF90DF90CF9008950F9384
:105AD0001F93CF93DF938C01EB011C161D0634F44A
