:100000000C946C220C948B220C948B220C948B22DB
:100010000C948B220C948B220C948B220C948B22AC
:100020000C948B220C948B220C948B220C948B229C
:100030000C948B220C9417330C948B220C948B22EF
:100040000C948B220C948B220C948B220C948B227C
:100050000C94E0290C948B220C948B220C948B2210
:100060000C948B220C948B220C94B32C0C948B222A
:100070000C948B220C948B220C948B220C948B224C
:100080000C948B220C948B220C948B22E2423544EC
:1000900012430E440E44354435443544354435440A
:1000A000354435443544E242DC4235443544354438
:1000B00035440C4335443544E242354435443544F7
:1000C000354435443544354435443544E2423044C2
:1000D00012430E440E4435443544354435443544CA
:1000E000354435443544E242DC42354435442B4402
:1000F00035440C4335443544E24257443E454D4473
:10010000AB4492443E453E453E453E453E453E4518
:100110003E453E45614475443E453E453E453E456F
:1001200049443E453E4575443E453E453E453E4577
:100130003E453E453E453E453E455744D9444D44E7
:10014000AB4492443E453E453E453E453E453E45D8
:100150003E453E45614475443E453E45D9443E4595
:1001600049443E453E45754455695F6967696A691A
:100170006D697069736976697969F1861A87418753
:100180005B8764878687A187B087F887CC87E189FA
:10019000E989EE89128A1C8A668A318A318A298A1B
:1001A000879B599C959CC49CD49CF19C519D609EBE
:1001B000609E609E859DB19DFF9D1B9E249C379CEB
:1001C00017BAD6B9D6B9D6B9D6B99AB9A1B9A8B914
:1001D000B8B9C6B9BFB96E616E00696E66000040FD
:1001E0007A10F35A00A0724E18090010A5D4E80046
:1001F00000E87648170000E40B54020000CA9A3B5E
:10020000000000E1F50500008096980000004042E3
:100210000F000000A0860100000010270000000071
:10022000E803000000006400000000000A00000075
:1002300000000100000000002C76D888DC674F0821
:1002400023DFC1DFAE59E1B1B796E5E3E453C63A27
:10025000E651997696E8E6C28426EB898C9B62ED9E
:10026000407C6FFCEFBC9C9F40F2BAA56FA5F49058
:10027000055A2AF75C936B6CF9676DC11BFCE0E4CF
:100280000D47FEF520E6B500D0ED902E0300943525
:1002900077050080841E080000204E0A000000C878
:1002A0000C333333330F986E12831141EF8D2114C9
:1002B000893BE65516CFFEE6DB18D1844B381BF799
:1002C0007C1D901DA4BBE424203284725E22810038
:1002D000C9F124ECA1E53D2763735F646973616232
:1002E0006C65207761733A2025642C2077616E74E9
:1002F0003A2025640A0063735F656E61626C652055
:100300007761733A2025642C2077616E743A20253A
:10031000640A0073616665667265653A20465245F7
:1003200045204552524F5220282575292C20746FA4
:10033000703A282575290A00736166656D616C6CD9
:100340006F6328256429206661696C6564210A0051
:100350007361666563616C6C6F632825642C25642A
:1003600029206661696C6564210A0020205F5F6254
:10037000726B76616C3A202020202535750A0020AA
:10038000204D616C6C6F632073746172742025352D
:10039000752020656E643A202535750A00202048B6
:1003A0006561703A2073746172743A202535752C3A
:1003B00020656E643A202535750A0020204461745A
:1003C00061202073746172743A202535752C206584
:1003D0006E643A202535750A0020204253532020B0
:1003E0002073746172743A202535752C20656E6413
:1003F0003A202535750A002020537461636B20462E
:100400007265653A202025750A00202053746163C7
:100410006B20546F703A20202025750A00467265C3
:10042000652052616D3A25750A00535049305F4D81
:100430006F64653A20496E76616C6964206D6F6403
:1004400065282564290A007274635F7265616420FF
:100450006572726F720A007274635F777269746595
:10046000206572726F720A007274635F696E6974DC
:10047000202077726974652065706F6368206661FB
:10048000696C65640A007274635F72756E202D205A
:100490007772697465207374617475732065727204
:1004A0006F720A007274635F72756E2072656164A8
:1004B00020737461747573206572726F720A0025FF
:1004C00073206578706563746564202564206172AB
:1004D00067756D656E7473206F6E6C7920676F74CD
:1004E0002025640A003D3D3D3D3D3D3D3D3D3D3DBA
:1004F0003D3D3D3D3D3D3D3D3D3D3D3D3D3D3D3D2C
:100500003D3D3D0A0054696D65727320656E616200
:100510006C65640A00436C6F636B20496E73746191
:100520006C6C65640A00436C6F636B207461736B61
:1005300020696E6974206661696C65640A00436CA9
:100540006F636B20496E69740A0054696D6572733C
:1005500020636F6E666967757265640A0054696D21
:1005600065727320696E69742063616C6C65640ADE
:10057000005B54696D653A25735D0A005B25732045
:1005800054696D653A25735D0A00256C642E25302B
:10059000396C64007365745F74696D6572733A20B9
:1005A0004E6F206D6F72652074696D657273210ADC
:1005B00000636C6B2074696D653A202020202573E0
:1005C0000A00636C6B207365636F6E64733A202559
:1005D0006C750A005254432072656164206661693B
:1005E0006C65640A007274632074696D653A20203A
:1005F000202025730A00727463207365636F6E6434
:10060000733A20256C750A007573652073657464F0
:1006100061746520636F6D6D616E6420746F20631B
:1006200068616E67652074696D650A007274632085
:1006300072656164206572726F72616674657220A2
:10064000696E69740A0072746320666F7263652054
:10065000696E6974206661696C65640A006174740E
:10066000656D7074696E672072746320696E697459
:100670000A0072746320756E696E6974696C697AB8
:1006800065640A0072746320666F72636520696E28
:100690006974206661696C65640A00696E76616CD4
:1006A0006964206D696E3A2025640A00696E76617E
:1006B0006C696420686F75723A2025640A00696E5F
:1006C00076616C6964206461793A2025640A006966
:1006D0006E76616C6964206D6F6E3A2025640A0045
:1006E000696E76616C696420796561723A2025646F
:1006F0000A00456E74657220646174652059595909
:1007000059204D4D2044442048483A4D4D3A5353CA
:10071000203E0025732025732025326420253032A9
:10072000643A253032643A2530326420253464003E
:1007300073656C656374206661696C6564210A0089
:10074000454E44204D4D4320494E49540A004D4DDD
:100750004320426C6F636B2053697A653A20256CA5
:10076000640A004D4D4320426C6F636B2053697ADD
:1007700065202D2072656164206661696C65640A7C
:10078000002C20436F646520706167653A202575F1
:100790000A004C464E20456E61626C6564004D4D0A
:1007A00043204361726420496E7365727465640A04
:1007B000002A2A2A204D4D432043617264204E4F67
:1007C0005420496E73657274656421202A2A2A0AAE
:1007D000005354415254204D4D4320494E49540A30
:1007E000004D4D432054494D454F55540A004D4D41
:1007F0004320436C6F636B207461736B20696E6977
:1008000074206661696C65640A000A0025732025FE
:10081000752F253032752F253032752025303275F1
:100820003A253032752025396C75202573006661B4
:100830007466735F66696C696E666F5F6C6973740A
:100840003A20656D7074790A0025752066696C65BB
:10085000732C20256C752062797465732E0A2575BA
:1008600020666F6C646572732E0A256C75204B428E
:1008700020746F74616C206469736B2073706163A2
:10088000652E0A256C75204B4220617661696C618A
:10089000626C652E0A00566F6C756D6520532F4E85
:1008A00020202020202020202020202020203D202B
:1008B000253034582D253034580A00566F6C756D2C
:1008C00065206E616D6520202020202020202020C2
:1008D0002020203D2025730A004461746120737438
:1008E00061727420286C6261292020202020202041
:1008F000203D20256C750A004449522073746172B2
:100900007420286C62612C636C7573746F7229207B
:100910003D20256C750A0046415420737461727441
:1009200020286C6261292020202020202020203DCA
:1009300020256C750A004E756D626572206F662009
:10094000636C7573746572732020202020203D2015
:10095000256C750A00536563746F72732F4641549A
:10096000202020202020202020202020203D202565
:100970006C750A00526F6F742044495220656E7482
:100980007269657320202020202020203D202575BD
:100990000A004E756D626572206F66204641547381
:1009A000202020202020202020203D2025750A0006
:1009B00042797465732F436C7573746572202020BF
:1009C00020202020202020203D20256C750A004674
:1009D0004154207479706520202020202020202080
:1009E000202020202020203D2025730A00666174ED
:1009F0006673207374617475733A25730A007263A9
:100A00003D25750A002C202531306C754B2062790C
:100A100074657320667265650A0025347520466921
:100A20006C652873292C2531306C752062797465CA
:100A30007320746F74616C0A2534752044697228C0
:100A40007329004C697374696E673A5B25735D0A9C
:100A5000003D3D3D3D3D3D3D3D3D3D3D3D3D3D3D03
:100A60003D3D3D3D3D3D3D3D3D3D3D3D3D3D3D0AE9
:100A700000454E44204D4D4320544553540A004DEB
:100A80004D43204469726563746F7279204C6973B9
:100A9000740A005354415254204D4D432054455341
:100AA000540A003D3D3D3D3D3D3D3D3D3D3D3D3DCF
:100AB0003D3D3D3D3D3D3D3D3D3D3D3D3D3D3D3D66
:100AC0003D0A00696E643A25642C617267633A25B9
:100AD000640A004E6F74653A206661746673207410
:100AE00065737473204D5553542073746172742070
:100AF000776974682022666174667322206B657959
:100B0000776F72640A66617466732068656C700A38
:100B10006661746673206D6D635F746573740A66D5
:100B200061746673206D6D635F696E69740A6661D6
:100B3000746673206C73206469720A6661746673EC
:100B4000207374617475732066696C650A0A0066A7
:100B5000617466732068656C700A0025730A00254D
:100B6000733A2025730A005365656B206661696CD2
:100B700065640066707574632073747265616D2DB1
:100B80003E707574204E554C4C0A00666765746360
:100B90002073747265616D2D3E676574204E554CEF
:100BA0004C0A0046696C65733A2025640A006E6140
:100BB0006D653A5B25735D20746F6F206C6F6E6797
:100BC00020776974682066756C6C20706174680A9F
:100BD000006F70656E646972206661696C65640A95
:100BE000006C733A2063616E6E6F7420737461746D
:100BF000205B25735D0A004C697374696E673A5B0C
:100C000025735D0A006C733A2043616E2774206778
:100C100065742063757272656E74206469726563B1
:100C2000746F72790A002573206E6F6E65206E6F87
:100C30006E65202531326C642025732025730A00EF
:100C400025730A0063616E206E6F74207374617483
:100C50003A2025730A000D004D6F72652E2E002577
:100C60006C7520627974657320636F706965642E9A
:100C70000A00436F706965643A202530386C640D52
:100C8000005772697465206572726F720A000A43B8
:100C90006F7079696E672E2E2E0A0043616E27747D
:100CA000206F70656E3A2025730A00437265617487
:100CB000696E672025730A0043616E2774206F7088
:100CC000656E3A2025730A004F70656E696E672065
:100CD00025730A00256C642062797465730A000A22
:100CE0000043616E2774206F70656E3A2025730A89
:100CF00000726D646972202573206661696C656499
:100D00000A00726D202573206661696C65640A00B3
:100D100072656E616D6520257320746F2025730ADE
:100D20000025730A006D6B6469722025732066616B
:100D3000696C65640A0063686469722025732066C3
:100D400061696C65640A004E6F74653A20706F7358
:100D5000697820707265666978206973206F707495
:100D6000696F6E616C0A706F7369782063617420BB
:100D700066696C65205B2D705D0A706F7369782001
:100D80006364206469720A706F73697820636F709E
:100D9000792066696C65312066696C65320A706F0E
:100DA000736978206C7320646972205B2D6C5D0A16
:100DB000706F736978206D6B646972206469720A60
:100DC000706F7369782070616765204E4E0A706F8E
:100DD000736978207077640A706F73697820726D18
:100DE0002066696C650A706F73697820726D64693A
:100DF00072206469720A706F7369782072656E611F
:100E00006D65206F6C64206E65770A0A00706F73E1
:100E100069782068656C700A00436C6F73652065A3
:100E200072726F723A20005365656B206572726F43
:100E3000723A20005772697465206572726F723A57
:100E4000200052656164206572726F723A20004F13
:100E500070656E206572726F723A5B25735D20005B
:100E60005B5050522044495341424C4520414C4C28
:100E70005D0A004750494220436C6F636B207461E8
:100E8000736B20696E6974206661696C65640A0021
:100E90005B677069625F77726974655F73747220F3
:100EA00073656E74282564292065787065637465A0
:100EB00064282564295D0A00677069625F7772693A
:100EC00074655F7374723A2073697A65203D2030CF
:100ED0000A005B677069625F726561645F73747258
:100EE00020726561642825642920657870656374C3
:100EF0006564282564295D0A00677069625F726510
:100F000061645F73747228696E643A2564293A20BB
:100F100041544E20253032584820756E65787065F2
:100F2000637465640A00677069625F726561645F1B
:100F30007374723A2073697A65203D20300A00206C
:100F40004D534120253032586800204D5441202512
:100F50003032586800204D4C41202530325868000E
:100F60002020202020002530325820256320003CFE
:100F70004E5246443D25642C4E4441563D25643E28
:100F80000A003C4255532077616974696E67206698
:100F90006F72204441563D3D313E0A003C4255535C
:100FA0002077616974696E6720666F72204E4441D4
:100FB000433D3D313E0A003C425553207761697400
:100FC000696E6720666F72204E5246443D3D303E4A
:100FD0000A003C4255532077616974696E67206648
:100FE0006F72204E5246443D3D31202626204E440D
:100FF0004143203D3D20303E0A003C42555320777E
:10100000616974696E6720666F72204441563D3D88
:10101000313E0A00677069625F756E726561643A9D
:10102000206572726F722C2063616E206F6E6C7916
:101030002062652063616C6C6564206F6E6365215E
:101040000A005B4946432053454E545D0A005B4409
:10105000505052206269743A25642C206D61736B84
:101060003A25303258485D0A00677069625F6469EA
:101070007361626C655F5050523A2062697420253A
:1010800064206F7574206F662072616E67650A0058
:101090005B45505052206269743A25642C206D6182
:1010A000736B3A25303258485D0A00677069625F99
:1010B000656E61626C655F5050523A2062697420BF
:1010C0002564206F7574206F662072616E67650AF3
:1010D000005B4750494220535441544520494E49F2
:1010E000545D0A005B47504942204255535F494EC8
:1010F00049545D0A005B5052494E54455220636C7E
:101100006F73655D0A005B53412025303258482CCF
:10111000206C697374656E3A25303258482C2074FF
:10112000616C6B3A25303258485D0A005B534120B0
:10113000253032584820414D49474F5D0A005B53E6
:101140004120253032584820535338305D0A005B27
:1011500054412025303258485D0A005B5052494EB8
:10116000544552204F50454E5D0A005B54412025A6
:1011700030325848205052494E5445525D0A005B67
:10118000544120253032584820414D49474F5D0A8F
:10119000005B544120253032584820535338305D8D
:1011A0000A005B554E545D0A005B4C4120253032ED
:1011B00058485D0A005B4C41202530325848205089
:1011C00052494E5445525D0A005B4C412025303255
:1011D000584820535338305D0A005B4C412025307D
:1011E00032584820414D49474F5D0A000A005B557F
:1011F0004E4C5D0A005B475049422028253032584A
:101200004829206E6F7420646566696E6564205499
:101210004F444F5D0A005B44434C5D0A005B5344FE
:101220004320414D49474F5D0A005B5344432053DF
:101230005338305D0A005B5344435D0A005B5350F2
:10124000445D0A005B5350455D0A005B50505520D9
:10125000756E737570706F7274656420544F444F6F
:101260005D0A005B50504320756E737570706F722D
:1012700074656420544F444F5D0A005B4944454EF9
:101280005420556E69743A25303258483D25303423
:1012900058485D0A005B4944454E5420556E6974B8
:1012A0003A25303258483D25303458482046414987
:1012B0004C45445D0A003C4D45444941204D49534D
:1012C00053494E473E0A003C494E544552525550F0
:1012D000543E0A003C4255533E0A003C54494D4599
:1012E0004F55543E0A003C4946433E0A0043617054
:1012F000747572696E6720436C6F7365640A00448D
:101300006F6E650A0065786974696E672E2E2E0A05
:1013100000507265737320414E59206B65792074BB
:101320006F20657869740A0046554C4C2047504937
:1013300042204255532068616E647368616B65207A
:101340006C6F6767696E6720726571756573746528
:10135000640A00436170747572696E672047504972
:10136000422042555320746F3A25730A004361723C
:10137000642069732077726974652070726F746578
:10138000637465640A002573206F70656E20666162
:10139000696C7572650A0025732068616420256494
:1013A000206572726F72730A0064656275673D250D
:1013B000303458480A004E6F74653A20677069628D
:1013C00020707265666978206973206F7074696F28
:1013D0006E616C0A67706962206164647265737320
:1013E00065730A202020446973706C617920616CF8
:1013F0006C206465766963652047504942206275B8
:10140000732061646472657373657320616E642018
:101410005050522076616C7565730A67706962205E
:10142000636F6E666967205B2D765D0A202020441D
:101430006973706C61792063757272656E74206473
:10144000726976657320636F6E6669677572617421
:10145000696F6E0A2020202D7620566572626F73A8
:1014600065202D2073686F772066756C6C2064652D
:101470007461696C0A6770696220646562756720CF
:101480004E0A2020206465627567206D6573736164
:101490006765207265706F7274696E672073656529
:1014A0002068706469736B2E63666720666F7220B4
:1014B00064657461696C730A6770696220656C6148
:1014C000707365640A6770696220656C617073652A
:1014D000645F72657365740A677069622069666328
:1014E0000A6770696220706C6F742066696C656E43
:1014F000616D652E7478740A6770696220706C6F14
:10150000745F6563686F0A67706962207461736BEA
:101510000A677069622074726163652066696C6530
:101520006E616D652E747874205B4255535D0A20A0
:101530002020446973706C617920616374697669F5
:101540007479206F6620475049422062757320618C
:101550006E64206C6F672069740A20202042555306
:10156000202D20696E636C7564652068616E6473FC
:1015700068616B65207374617465730A0A0A006799
:101580007069622068656C700A00414D49474F25BB
:101590006400666F726D6174696E67202573202523
:1015A0006C6420736563746F72730A0043616E200C
:1015B0006E6F7420757365206E6F6E203235362025
:1015C0006279746520736563746F72730A00535394
:1015D00038302D256400666F726D6174696E672006
:1015E000257320256C6420736563746F72730A0021
:1015F00043616E206E6F7420757365206E6F6E2070
:10160000323536206279746520736563746F727346
:101610000A005761726E696E673A2025732042593D
:101620005445535F5045525F534543544F52202118
:101630003D203235362C2041646A757374696E67BB
:1016400020746F203235360A005761726E696E67FA
:101650003A2025732042595445535F5045525F420A
:101660004C4F434B20213D203235362C2041646ABB
:10167000757374696E6720746F203235360A00689E
:10168000706469725F706172616D657465727320F8
:10169000696E76616C696420545950450A00616C2A
:1016A0006C6F635F6465766963653A20696E766125
:1016B0006C696420747970653A25643A25730A0070
:1016C000616C6C6F635F6465766963653A2044653D
:1016D00076696365207461626C6520697320667544
:1016E0006C6C0A007365745F6163746976655F642E
:1016F00065766963653A2825642920696E76616C90
:10170000696420747970653A25643A25730A007318
:1017100065745F6163746976655F64657669636546
:101720003A20696E6465783A202564207479706582
:101730003A25643A25732C207374617465203D3D0D
:10174000204E554C4C0A007365745F616374697672
:10175000655F6465766963653A20696E64657820C3
:10176000256420756E696E6974616C697A656420A0
:10177000747970653A25643A25730A007365745F5D
:101780006163746976655F6465766963653A20694B
:101790006E6465783A256420747970653A25643AF8
:1017A00025732C20646576203D3D204E554C4C0A17
:1017B000007365745F6163746976655F64657669FB
:1017C00063653A20696E6465783A256420616464D3
:1017D000726573733A202530325848206F75742033
:1017E0006F662072616E67650A007365745F61637E
:1017F000746976655F6465766963653A282564294E
:10180000206F7574206F662072616E67650A000A2A
:10181000000A00202020202320424C4F434B53201D
:101820003D20256C640A00202023204850383520B4
:1018300042415349432041444452455353203A4482
:10184000372564300A00414D49474F2025730A006F
:10185000202020202320424C4F434B53203D202565
:101860006C640A0020202320485038352042415320
:1018700049432041444452455353203A4437256458
:10188000300A00535338302025730A0043757272B2
:10189000656E7420436F6E66696775726174696FF7
:1018A0006E2053657474696E67730A000A000A003B
:1018B0005052494E5445520A00414D49474F202548
:1018C000730A00535338302025730A004465766943
:1018D0006365204164647265737365730A005265C1
:1018E00061645F436F6E6669673A202A2A2A2A2A52
:1018F0002A206572726F727328256429202A2A2A89
:101900002A2A2A0A00526561645F436F6E6669671E
:101910003A207265616428256429206C696E6573BC
:101920000A004D697373696E6720454E44207374D5
:101930006174656D656E74206174206C696E653AC2
:1019400025640A00556E657870656374656420537C
:10195000544154453A2025732C206174206C696EE3
:10196000653A25640A00556E657870656374656430
:1019700020414D49474F2047454D45545259207409
:101980006F6B656E3A2025732C206174206C696E34
:10199000653A25640A00556E657870656374656400
:1019A00020414D49474F20434F4E46494720746FD1
:1019B0006B656E3A2025732C206174206C696E650E
:1019C0003A25640A00556E65787065637465642015
:1019D00048454144455220434F4E46494720746F85
:1019E0006B656E3A2025732C206174206C696E65DE
:1019F0003A25640A00556E657870656374656420E5
:101A0000414D49474F20535441525420746F6B65E8
:101A10006E3A2025732C206174206C696E653A251E
:101A2000640A00556E65787065637465642053536D
:101A3000383020564F4C554D4520746F6B656E3ACB
:101A40002025732C206174206C696E653A25640A28
:101A500000556E6578706563746564205353383043
:101A600020554E495420746F6B656E3A2025732CB7
:101A7000206174206C696E653A25640A00556E65B4
:101A800078706563746564205353383020434F4E3B
:101A900054524F4C4C455220746F6B656E3A202562
:101AA000732C206174206C696E653A25640A0055B8
:101AB0006E657870656374656420535338302043D5
:101AC0004F4E46494720746F6B656E3A2025732C44
:101AD000206174206C696E653A25640A00556E6554
:101AE00078706563746564205353383020434F4EDB
:101AF00046494720746F6B656E3A2025732C206130
:101B000074206C696E653A25640A00556E657870BC
:101B100065637465642053533830205354415254E4
:101B200020746F6B656E3A2025732C206174206CD5
:101B3000696E653A25640A00556E65787065637450
:101B40006564205052494E54455220434F4E4649F9
:101B50004720746F6B656E3A2025732C20617420CA
:101B60006C696E653A25640A00556E657870656328
:101B7000746564205052494E54455220746F6B6511
:101B80006E3A2025732C206174206C696E653A25AD
:101B9000640A00556E657870656374656420746FBF
:101BA0006B656E3A2025732C206174206C696E651C
:101BB0003A25640A00556E65787065637465642023
:101BC000746F6B656E3A2025732C206174206C69EC
:101BD0006E653A25640A00526561645F436F6E6604
:101BE00069673A206F70656E2825732920666169E0
:101BF0006C65640A0052656164696E673A202573FA
:101C00000A0025730A00252D323573203D202573E7
:101C10000A00252D323573203D2025386C78482068
:101C200028256C64290A00466F756E64204D6F6428
:101C3000656C3A2025730A0025732025730A004538
:101C400072726F723A2068706469722E696E6920D0
:101C50006E6F7420666F756E64210A005B53533893
:101C60003020556E6B6E6F776E2053433A202530CF
:101C70003258482C206C697374656E3A253032589E
:101C8000482C2074616C6B3A25303258485D0A004C
:101C90005B5353383020534320556E6B6E6F776E15
:101CA0003A2025303258482C206C697374656E3A9E
:101CB00025303258482C2074616C6B3A25303258EC
:101CC000485D0A005B53533830205472616E737064
:101CD0006172656E745D0A005B416D69676F2043D8
:101CE0006C6561725D0A005B535338302052657039
:101CF0006F72742053746174655D0A005B535330D6
:101D00003020457865637574652053746174655D32
:101D10000A005B5353383020436F6D6D616E642051
:101D200053746174655D0A005B47504942204572F7
:101D3000726F722052657475726E202D2057726911
:101D40007465204552524F525D0A005B416D6967D0
:101D50006F20436C6561725D0A005B475049422009
:101D600052656164204572726F725D0A005B535365
:101D70003830205344435D0A005B535338302071A0
:101D80007374617420253032585D0A005B535338F8
:101D9000302071737461742073656E64204641490C
:101DA0004C45445D0A005B53533830205365656BE6
:101DB0003A2530386C58485D0A005B535338302060
:101DC0005365656B204F564552464C4F5720617402
:101DD000202530386C58485D0A005B53533830205A
:101DE0005472616E73706172656E7420436F6D6DB5
:101DF000616E642C204572726F72206174202825F8
:101E00006429206F662028256429204F5020436FC5
:101E10006465735D0A005B5353383020496E766108
:101E20006C6964204F5020436F6465202825303250
:101E30005848295D0A005B535338302043616E6374
:101E4000656C20282564295D0A005B5353383020D7
:101E50004368616E6E656C20496E646570656E6482
:101E6000656E7420436C65617220282564295D0AC3
:101E7000005B53533830205772697465204C6F6F84
:101E8000706261636B202D20544F444F5D0A005BEC
:101E9000535338302052656164204C6F6F7062611B
:101EA000636B202D20544F444F5D0A005B53533821
:101EB000302048502D494220506172697479204386
:101EC0006865636B696E67202D20544F444F5D0A2F
:101ED000005B4750494220627566666572204F5626
:101EE0004552464C4F57215D0A005B4750494220FE
:101EF00052656164204552524F525D0A005B535354
:101F00003830204578656375746520436F6D6D6169
:101F10006E642C204572726F7220617420282564D3
:101F200029206F662028256429204F5020436F64A4
:101F300065735D0A005B5353383020496E76616CDF
:101F40006964204F5020436F646520282530325843
:101F500048295D0A005B5353383020496E69746923
:101F600061746520446961676E6F73746963202DC5
:101F700020544F444F5D0A005B5353383020526564
:101F80007175657374205374617475735D0A005BB9
:101F90005353383020446F6F72204C6F636B202D89
:101FA00020544F444F5D0A005B5353383020446F38
:101FB0006F7220556E4C6F636B202D20544F444F31
:101FC0005D0A005B535338302053657420537461AD
:101FD000747573204D61736B202D20544F444F5DF9
:101FE0000A005B5353383020496E697469616C692B
:101FF0007A65204D6564696120544F444F5D0A0045
:102000005B535338302044657363726962655D0ABF
:10201000005B535338302056616C696461746520ED
:102020004B6579202D20544F444F5D0A005B53537C
:1020300038302052656C656173652044656E696552
:1020400064204E4F2D4F505D0A005B5353383020B3
:1020500052656C65617365204E4F2D4F505D0A00CF
:102060005B53533830204C6F6361746520616E643C
:1020700020566572696679202D20544F444F5D0AC1
:10208000005B535338302053657420526574757269
:102090006E2041646472657373696E67202D2054ED
:1020A0004F444F5D0A005B53533830205365742012
:1020B00052656C65617365204E4F2D4F505D0A006F
:1020C0005B535338302053657420525053204E4F89
:1020D0002D4F505D0A005B53533830204E4F2D4F2B
:1020E000505D0A005B5353383020536574204C65B3
:1020F0006E6774683A282530386C5848295D0A00A4
:102100005B535338302053657420416464726573A7
:10211000733A282530386C5848295D0A005B5353C0
:102120003830204C6F6361746520616E6420577293
:102130006974655D0A005B53533830204C6F6361EE
:10214000746520616E6420526561645D0A005B53B2
:102150005338302053657420566F6C756D653A2086
:10216000282564295D0A005B535338302053657479
:1021700020556E69743A282564295D0A005B475032
:10218000494220627566666572204F564552464C3C
:102190004F57215D0A005B5353383020436F6D6DFC
:1021A000616E642053746174652047504942205227
:1021B000656164204552524F525D0A005B535338AB
:1021C0003020566F6C756D653A256420696E7661B6
:1021D0006C69645D0A005B5353383020554E495496
:1021E0003A256420696E76616C69645D0A005B5310
:1021F00053383020446573637269626520566F6C92
:10220000756D65204641494C45445D0A005B53535A
:10221000383020446573637269626520556E697455
:10222000204641494C45445D0A005B5353383020F9
:10223000446573637269626520436F6E74726F6C7C
:102240006C6572204641494C45445D0A005B53531E
:1022500038302044657363726962655D0A005B53C0
:102260005338302053656E64205374617475732045
:102270004641494C45445D0A005B53533830205376
:10228000656E64205374617475735D0A00202020AC
:102290002025643A25730A0025733A0A005B5353DC
:1022A0003830204C6F6361746520616E6420577212
:1022B0006974652057726F746520546F74616C285F
:1022C000256C7848295D0A005B53533830204C6FE9
:1022D0006361746520616E6420577269746520447F
:1022E0004944204E4F542046494E4953485D0A0008
:1022F0005B53533830204C6F6361746520616E64AA
:102300002057726974652077726F746528253032A2
:102310005848295D0A005B4469736B2057726974E1
:1023200065204572726F725D0A005B47504942201A
:1023300052656164204572726F725D0A005B53538F
:102340003830204C6F6361746520616E6420577271
:10235000697465206174202530386C584828256CD4
:102360005848295D0A005B53533830204275666631
:1023700065726564205265616420546F74616C28D5
:10238000256C5848292062797465735D0A005B5397
:102390005338302042756666657265642052656107
:1023A0006420444944204E4F542046494E495348E6
:1023B0005D0A005B53533830204750494220577222
:1023C000697465204572726F725D0A005B53533801
:1023D00030204469736B2052656164204572726FCE
:1023E000725D0A005B53533830204469736B20528E
:1023F0006561642025303258482062797465735DC8
:102400000A005B53533830204C6F63617465206160
:102410006E642052656164206174202530386C58E8
:102420004828256C5848295D0A005B5353383020F2
:10243000455845432073746174653A25642065727C
:10244000726F725D0A005B5353383020253032586A
:102450004820494E49545D0A005B414D49474F2091
:102460004578656375746520526571756573742070
:102470004C6F676963616C20416464726573735D5E
:102480000A005B414D49474F204578696375746583
:10249000205265717565737420537461747573206F
:1024A000556E62756666657265645D0A005B414DD6
:1024B00049474F204578656375746520526571758D
:1024C0006573742053746174757320427566666514
:1024D0007265645D0A005B414D49474F2045786550
:1024E0006375746520577269746520427566666508
:1024F0007265645D0A005B414D49474F2045786530
:102500006375746520496E697469616C697A655D8B
:102510000A005B414D49474F2045786563757465F6
:1025200020577269746520556E62756666657265BE
:10253000645D0A005B414D49474F204578656375EE
:1025400074652052656164204275666665726564D3
:102550005D0A005B414D49474F20457865637574BE
:1025600065205265616420556E62756666657265A8
:10257000645D0A005B414D49474F204578656375AE
:10258000746520436F6C64204C6F616420526561F8
:10259000645D0A005B414D49474F2045786563758E
:1025A0007465282530325848293A206C697374655F
:1025B0006E3A25303258482C2074616C6B3A2530C5
:1025C0003258485D0A005B414D49474F20466F72C3
:1025D0006D61745D0A005B414D49474F2052656152
:1025E0006420427566666572656420436F6D6D6137
:1025F0006E645D0A005B414D49474F20526571751D
:102600006573742053746174757320556E627566BA
:10261000666572656420436F6D6D616E645D0A006E
:102620005B414D49474F205772697465204275667A
:10263000666572656420436F6D6D616E645D0A004E
:102640005B414D49474F2052657175657374204C4D
:102650006F676963616C20416464726573732043C2
:102660006F6D6D616E645D0A005B414D49474F209F
:10267000496E697469616C697A6520436F6D6D613B
:102680006E645D0A005B414D49474F205772697483
:102690006520556E627566666572656420436F6D70
:1026A0006D616E645D0A005B414D49474F20566580
:1026B000726966795D0A005B414D49474F2052655A
:1026C000616420556E627566666572656420436F4D
:1026D0006D6D616E645D0A005B414D49474F20524C
:1026E00065717565737420537461747573204275D8
:1026F00066666572656420436F6D6D616E645D0A28
:10270000005B414D49474F205365656B206C656EFA
:102710003D365D0A005B414D49474F205365656B6F
:10272000206C656E3D355D0A005B414D49474F2089
:10273000436F6C64204C6F61642052656164204378
:102740006F6D6D616E645D0A005B414D49474F20BE
:10275000436F6D6D616E64282530325848293A20E8
:102760004750494220726561642062797465733A0A
:1027700025303258485D0A005B414D49474F2043A0
:102780006F6D6D616E643A475049422072656164B5
:10279000206572726F725D0A005B414D49474F20A0
:1027A000436F6D6D616E643A4750494220726561B6
:1027B00064206572726F725D0A005B414D49474F3C
:1027C0005F436F6D6D616E643A4750494220777286
:1027D000697465206572726F725D0A005B414D49D4
:1027E000474F20436F6D6D616E6428253032584825
:1027F000293A206C697374656E3A25303258482C3A
:102800002074616C6B3A25303258485D0A005B4594
:10281000202020416D69676F204552524F5220732E
:1028200065636F6E646172793A2025303258482CA6
:102830002073746174653A25303258482C206C69D5
:102840007374656E696E673A25303258482C20746F
:10285000616C6B696E673A25303258485D0A005BDF
:10286000554E5420416D69676F20544F444F20737B
:1028700065636F6E646172793A2025303258482C56
:102880002073746174653A25303258482C206C6985
:102890007374656E696E673A25303258482C20741F
:1028A000616C6B696E673A25303258485D0A005B8F
:1028B00054202020416D69676F20544F444F20738E
:1028C00065636F6E646172793A2025303258482C06
:1028D0002073746174653A25303258482C206C6935
:1028E0007374656E696E673A25303258482C2074CF
:1028F000616C6B696E673A25303258485D0A005B3F
:102900004C202020416D69676F20544F444F207345
:1029100065636F6E646172793A2025303258482CB5
:102920002073746174653A25303258482C206C69E4
:102930007374656E696E673A25303258482C20747E
:10294000616C6B696E673A25303258485D0A005BEE
:102950005520416D69676F20544F444F2073656364
:102960006F6E646172793A2025303258482C20739A
:10297000746174653A25303258482C206F70636F4B
:1029800064653A25303258482C206C656E3A253300
:10299000642C206C697374656E696E673A253032F9
:1029A00058482C2074616C6B696E673A2530325838
:1029B000485D0A005B554E5420416D69676F205495
:1029C0004F444F207365636F6E646172793A2025BE
:1029D000303258482C2073746174653A253032586F
:1029E000482C206F70636F64653A25303258482C4C
:1029F000206C656E3A2533642C206C697374656EA7
:102A0000696E673A25303258482C2074616C6B69C6
:102A10006E673A25303258485D0A005B542020200A
:102A2000416D69676F20544F444F207365636F6E2B
:102A3000646172793A2025303258482C20737461D1
:102A400074653A25303258482C206F70636F646586
:102A50003A25303258482C206C656E3A2533642C68
:102A6000206C697374656E696E673A253032584818
:102A70002C2074616C6B696E673A25303258485D62
:102A80000A005B4C202020416D69676F20544F4441
:102A90004F207365636F6E646172793A202530321E
:102AA00058482C2073746174653A25303258482C8C
:102AB000206F70636F64653A25303258482C206C63
:102AC000656E3A2533642C206C697374656E696E8B
:102AD000673A25303258482C2074616C6B696E67F8
:102AE0003A25303258485D0A005B414D49474F2036
:102AF000436C6561725D0A005B44534A20253032A5
:102B000058485D0A005B41494D474F3A2044534ABB
:102B10002073656E64206661696C65645D0A005BA4
:102B2000414D49474F2057726974652047504942CB
:102B30002072656164206572726F725D0A005B418C
:102B40004D49474F204750494220777269746520AC
:102B50006572726F725D0A005B414D49474F2046B6
:102B60006F726D617420446F6E655D0A005B414D4C
:102B700049474F20666F726D61745D0A005B414D7D
:102B800049474F2025732C20503A2530386C78481F
:102B90002C20553A256420433A256420483A256480
:102BA00020533A25645D0A005B414D49474F20762A
:102BB000657269667920503A2530386C58482C2067
:102BC000736563746F72733A25303458485D0A0038
:102BD0005B414D49474F20257320706F73204F563E
:102BE0004552464C4F575D0A005B414D49474F20C7
:102BF00047504942207772697465206572726F721E
:102C00005D0A005B414D49474F2073656E64207338
:102C100074617475735D0A005B414D49474F2047ED
:102C2000504942207772697465206572726F725DD7
:102C30000A005B414D49474F2073656E64206C6FFD
:102C4000676963616C20616464726573735D0A0017
:102C50005B414D49474F20726571756573742073F0
:102C600074617475735D0A005B5343205052494E82
:102C70005445522054616C6B3A2025303258485DDF
:102C80000A005B5343205052494E544552204C6930
:102C90007374656E3A2025303258485D0A0025303D
:102CA000386C640D007772697465206661696C65C3
:102CB000643A2077616E7465642025642C20676F08
:102CC000743A25640A000A444F4E453A20253038AC
:102CD0006C640A004552524F522064757272696EDC
:102CE000672077726974650A0065786974696E6730
:102CF0002E2E2E0A00436170747572696E67207003
:102D00006C6F7420746F3A25730A002F706C6F74A7
:102D10002D253032642573253034642D25303264FE
:102D200025303264253032642E706C740009466F91
:102D3000726D617474696E673A2077726F74652082
:102D4000256C6420736563746F72730A006C696626
:102D50005F6372656174655F696D6167653A207371
:102D60006563746F727320697320300A006C696642
:102D70005F6372656174655F696D6167653A206460
:102D80006972736563746F727320697320300A000F
:102D90006C69665F6372656174655F696D616765C3
:102DA0003A206C69666C6162656C20697320656DA0
:102DB0007074790A006C69665F6372656174655F3F
:102DC000696D6167653A206C6966696D6167656EFA
:102DD000616D6520697320656D7074790A00726594
:102DE0006E616D65643A202531307320746F202543
:102DF0003130730A006C69665F72656E616D653AA9
:102E00005B25735D206C6966206E616D653A5B259C
:102E1000735D206E6F7420666F756E640A006C6956
:102E2000665F72656E616D655F66696C653A206E9E
:102E30006577206C69666E616D6520636F6E746185
:102E4000696E732062616420636861726163746596
:102E500072730A006C69665F72656E616D655F66AC
:102E6000696C653A206E6577206C69666E616D6588
:102E700020697320656D7074790A006C69665F72F1
:102E8000656E616D655F66696C653A206F6C642084
:102E90006C69666E616D6520697320656D7074790B
:102EA0000A006C69665F72656E616D655F66696C6C
:102EB000653A206C6966696D6167656E616D652054
:102EC000697320656D7074790A0044656C6574657A
:102ED000643A20253130730A004C494620696D61FF
:102EE00067653A5B25735D206C6966206E616D6570
:102EF0003A5B25735D206E6F7420666F756E640A91
:102F0000004C494620696D6167653A5B25735D2C0D
:102F1000204C4946206E616D653A5B25735D0A0061
:102F20006C69665F64656C5F66696C653A206C69A4
:102F3000666E616D6520697320656D7074790A0035
:102F40006C69665F64656C5F66696C653A206C6984
:102F500066696D6167656E616D6520697320656D79
:102F60007074790A000957726F74653A2025386CBD
:102F7000640A000957726F74653A2025386C640D35
:102F8000004C494620696D6167653A5B25735D2C8D
:102F9000206E6F7420656E6F756768206672656558
:102FA00020737061636520666F723A5B25735D0AFA
:102FB0000046696C65206E6F7420666F756E643AAA
:102FC00025730A004C494620696D6167653A5B25A7
:102FD000735D2C204C4946206E616D653A5B25730C
:102FE0005D2C20757365722066696C653A5B25738C
:102FF0005D0A006C69665F6164643A20757365728E
:1030000066696C6520697320656D7074790A006C5F
:1030100069665F6164643A206C69666E616D652003
:10302000697320656D7074790A006C69665F61640C
:10303000643A206C6966696D6167656E616D6520D3
:10304000697320656D7074790A000957726F746531
:103050003A2025386C640A000957726F74653A206B
:1030600025386C640D0046696C65206E6F742066AF
:103070006F756E643A25730A004C494620696D618C
:103080006765206E6F7420666F756E643A25730AEB
:10309000000957726F74653A2025386C640A006C19
:1030A00069665F657874726163745F653031305F43
:1030B00061735F61736369693A207772697465202F
:1030C0006572726F720A000957726F74653A202533
:1030D000386C640D006C69665F6578747261637446
:1030E0005F653031305F61735F61736369693A2096
:1030F0007772697465206572726F720A006C696616
:103100005F657874726163745F653031305F6173DD
:103110005F61736369693A20756E65787065637481
:10312000656420636F6E74726F6C20627974653AA7
:103130005B25303258485D2040206F6666736574A9
:103140003A2025386C782C20696E643A2530325844
:10315000480A006C69665F657874726163745F65C4
:103160003031305F61735F61736369693A207374F2
:1031700072696E6720746F6F206269672073697A65
:1031800065203D2025640A00457874726163746986
:103190006E673A2025730A0046696C652025732006
:1031A0006861732077726F6E6720747970653A5B1F
:1031B00025303458485D20657870656374656420F7
:1031C0003078453031302E2E3078453031330A009A
:1031D0004C49462046696C65206E6F7420666F7599
:1031E0006E643A25730A004C494620696D61676533
:1031F000206E6F7420666F756E643A25730A00093D
:1032000057726F74653A2025386C640A0046696C01
:103210006520536563746F72733A20202020202547
:10322000346C78480A00466972737420536563747D
:103230006F723A202020202025346C78480A0049FB
:103240006E6465783A202020202020202020202035
:10325000202534640A004E616D653A20202020202C
:1032600020202020202020202025730A004E657772
:10327000204469726563746F727920496E666F725B
:103280006D6174696F6E20414654455220777269B2
:1032900074650A004C494620696D6167653A5B2593
:1032A000735D2C206E6F7420656E6F756768206685
:1032B00072656520737061636520666F723A5B2585
:1032C000735D0A004C494620696D6167653A5B256C
:1032D000735D2C204C4946206E616D653A5B257309
:1032E0005D2C20757365722066696C653A5B257389
:1032F0005D0A006C69665F6164645F61736369693C
:103300005F66696C655F61735F653031303A207567
:1033100073657266696C65206E6F7420666F756E7A
:10332000640A006C69665F6164645F617363696904
:103330005F66696C655F61735F653031303A207537
:1033400073657266696C6520697320656D70747948
:103350000A006C69665F6164645F61736369695FD9
:1033600066696C655F61735F653031303A206C6906
:10337000666E616D6520697320656D7074790A00F1
:103380006C69665F6164645F61736369695F6669E4
:103390006C655F61735F653031303A206C696669D6
:1033A0006D6167656E616D6520697320656D707410
:1033B000790A000957726F74653A2025386C640DDC
:1033C000000957726F74653A2025386C640D000946
:1033D00057726F74653A2025386C640D004578701B
:1033E000656374656420736563746F7220626F75C2
:1033F0006E6472792C206F66667365743A25640A70
:10340000006C69665F653031305F6461705F736561
:1034100063746F723A2065787065637465642073B5
:103420006563746F7220626F756E6472793A206F93
:1034300066667365743A25640A006C69665F66693E
:103440006E645F66696C653A5B25735D206C6966C6
:103450006C6162656C20746F6F206269670A006C32
:1034600069665F66696E645F66696C653A5B257361
:103470005D20696E76616C69642063686172616366
:10348000746572730A0025386C6420467265652085
:10349000736563746F72730A0025386C642055730A
:1034A000656420736563746F72730A0025386C64F9
:1034B000204469722020736563746F72730A00255B
:1034C000386C6420446972202073746172740A003D
:1034D00025386C64205075726765640A0025386C65
:1034E000642046696C65730A000A00252D3130732B
:1034F0002020253034586820202020202025386CBA
:10350000586820202025396C642563202020202045
:103510002025346420202025730A004C494620448D
:1035200069726563746F72793A5B25735D207761A8
:10353000726E696E672046696C6542797465733A8C
:10354000256C6420617320736563746F72733A2510
:103550006C6420213D2046696C65536563746F720D
:10356000733A256C640A004E414D452020202020EE
:10357000202020205459504520202053544152549B
:1035800020534543544F52202020202020202053F8
:10359000495A452020202052454353495A4520206E
:1035A00020444154450A00566F6C756D653A5B25A1
:1035B000735D20446174653A5B25735D0A006C6934
:1035C000665F6F70656E5F766F6C756D653A5B25D3
:1035D000735D206572726F72206469726563746FC7
:1035E000727920636865636B206661696C65640A43
:1035F000006C69665F6F70656E5F766F6C756D6588
:103600003A5B25735D206572726F7220766F6C7500
:103610006D652076616C6964617465206661696CB2
:1036200065640A006C69665F6F70656E5F766F6CCB
:10363000756D653A5B25735D206572726F722072DD
:1036400065616420766F6C756D6520686561646581
:1036500072206661696C65640A006C69665F6F70F0
:10366000656E5F766F6C756D653A5B25735D206581
:1036700072726F7220766F6C756D6520686561641B
:103680006572206172656120746F6F20736D616C6B
:103690006C3A5B256C645D0A006C69665F6E6577E9
:1036A0006469723A20696E6465783A5B25645D20CE
:1036B000616464696E672061743A5B256C645D7453
:1036C0006F207075726765642073706163653A5B23
:1036D000256C645D20736563746F72732C20667251
:1036E00065653A5B256C645D0A006C69665F6E65B2
:1036F000776469723A206E6F7420656E6F756768C3
:1037000020667265652073706163653A5B256C6441
:103710005D0A006C69665F6E65776469723A206E57
:103720006F7420656E6F75676820667265652073BB
:10373000706163653A5B256C645D20666F7220730F
:10374000697A653A5B256C645D0A006C69665F7531
:1037500070646174655F667265653A5B25735D20B0
:103760006572726F722070726576696F7573207200
:1037700065636F72642066696C65206172656120A3
:103780006F7665726C6170732074686973206F6EF8
:10379000653A5B25735D0A006C69665F6368656303
:1037A0006B5F6469723A206572726F722C20696E69
:1037B0006465783A25640A006C69665F63686563CE
:1037C0006B646972696E6465783A5B25735D206429
:1037D000697265636F727920696E6465783A5B25FA
:1037E000645D206F7574206F6620626F756E647300
:1037F0000A000957726F74653A20256C640A000943
:1038000057726F74653A20256C640D000957726F0A
:1038100074653A20256C640D000957726F74653A1F
:1038200020256C640D004372656174696E673A25EA
:10383000732C204C6162656C3A5B25735D2C2044CF
:1038400069726563746F7279205374617274202594
:103850006C642C204469726563746F7279205369BB
:103860007A653A20256C642C2046696C6520536586
:1038700063746F72733A256C640A004C49462044A5
:1038800069726563746F72793A5B25735D20696E46
:1038900076616C696420736563746F722073697AF2
:1038A000653A256C640A004C494620446972656398
:1038B000746F72793A5B25735D20696E76616C690D
:1038C000642046696C654279746573203D3D203003
:1038D0000A004C4946204469726563746F72793AF4
:1038E0005B25735D207761726E696E672046696C37
:1038F0006542797465733A256C6420617320736541
:1039000063746F72733A256C64203C2046696C6561
:10391000536563746F72733A256C640A004C4946B0
:10392000204469726563746F72793A5B25735D2018
:10393000696E76616C69642046696C65427974656C
:10394000733A256C6420617320736563746F7273BE
:103950003A256C64203E2046696C65536563746F3C
:1039600072733A256C640A004C49462044697265BA
:1039700063746F72793A5B25735D20696E76616C52
:10398000696420566F6C756D65204E756D62657249
:103990003A2558680A004C494620446972656374A8
:1039A0006F72793A5B25735D20696E76616C69642C
:1039B00020656E6420736563746F723A256C586875
:1039C000203E20746F74616C20736563746F727332
:1039D0003A256C58680A004C494620446972656370
:1039E000746F72793A5B25735D20696E76616C69DC
:1039F0006420737461727420736563746F723A2506
:103A00006C5868203C20666965206172656120738E
:103A1000746172743A256C58680A004C4946204417
:103A200069726563746F72793A5B25735D20696EA4
:103A300076616C6964204E616D650A004C494620D0
:103A4000566F6C756D6520696E76616C6964206671
:103A5000696C65207374617274203E20696D6167C2
:103A6000652073697A650A004C494620566F6C756B
:103A70006D6520696E76616C696420446972656366
:103A8000746F727920536563746F7220436F756E23
:103A900074203C20310A004C494620566F6C756DED
:103AA0006520696E76616C6964207374617274203C
:103AB000736563746F723A256C640A004C49462042
:103AC000566F6C756D6520696E76616C69642062F5
:103AD00079746573206174206F6666736574203233
:103AE000322632332073686F756C64206265207AE9
:103AF00065726F0A004C494620566F6C756D6520E3
:103B0000696E76616C696420627974657320617492
:103B1000206F6666736574203134263135207368F2
:103B20006F756C64206265207A65726F0A004C497B
:103B3000462056657273696F6E3A202530345848B6
:103B4000203E20310A004C494620566F6C756D6549
:103B500020696E76616C69642053797374656D3386
:103B600030303020494420282530345848292065F9
:103B7000787065637465642031303030480A004CD9
:103B8000494620566F6C756D6520696E76616C696B
:103B90006420566F6C756D65204E616D65000A007E
:103BA0004449522046696C6520446174653A20207E
:103BB00020202020202025730A00444952204669F5
:103BC0006C6520736563746F722073697A653A203F
:103BD000253858680A004449522046696C652062BD
:103BE000797465733A2020202020202025386C58D5
:103BF000680A004449522046696C65207365637405
:103C00006F72733A202020202025386C58680A00F3
:103C10004449522046696C652073746172743A207D
:103C200020202020202025386C58680A0044495262
:103C30002046696C6520566F6C756D65233A2020AF
:103C4000202020253858680A004449522046696CD3
:103C50006520547970653A202020202020202025DE
:103C60003858680A004449522046696C65204E6104
:103C70006D653A202020202020202025730A005640
:103C80004F4C20446174653A2020202020202020C1
:103C9000202020202025730A00564F4C204C4946F6
:103CA00056657273696F6E3A2020202020202025EF
:103CB0003858680A00564F4C20333030304C494653
:103CC00069643A2020202020202020253858680AC6
:103CD00000564F4C2044697220736563746F727391
:103CE0003A20202020202025386C58680A00564FA2
:103CF0004C204469722073746172743A2020202031
:103D00002020202025386C58680A00564F4C204C43
:103D1000494669643A2020202020202020202020AD
:103D200020253858680A00564F4C204C6162656C5B
:103D30003A20202020202020202020202025730A27
:103D4000004C4946207075726765643A2020202037
:103D50002020202020202025386C58680A004C495B
:103D6000462066696C65733A2020202020202020A0
:103D70002020202025386C58680A004C49462066CF
:103D80007265653A2020202020202020202020203D
:103D90002025386C58680A004C49462075736564C4
:103DA0003A202020202020202020202020202538DC
:103DB0006C58680A004C49462066696C652073653A
:103DC00063746F72733A202020202025386C586865
:103DD0000A004C49462066696C6573746172743AD6
:103DE000202020202020202025386C58680A004CF4
:103DF00049462062797465733A20202020202020D3
:103E0000202020202025386C58680A004C49462084
:103E1000736563746F72733A202020202020202065
:103E2000202025386C58680A004C4946206E616D88
:103E3000653A20202020202020202020202020251E
:103E4000730A000A25730A006C69665F77726974E9
:103E5000653A2057726974653A5B25735D206F6619
:103E6000667365743A5B256C645D2077726974656E
:103E70003A5B25645D2065787065637465643A5BC0
:103E800025645D0A006C69665F726561643A207240
:103E90006561643A5B25735D206F66667365743A8D
:103EA0005B256C645D2077726974653A5B256C6490
:103EB0005D2065787065637465643A5B25645D0AAE
:103EC000006C69665F726561645F6D73673A202597
:103ED00073205365656B206572726F7220256C6468
:103EE0000A006C69665F737461743A2043616E27DF
:103EF0007420737461743A25730A006C69665F6F8D
:103F000070656E3A2043616E2774206F70656E3A5B
:103F10005B25735D206D6F64653A5B25735D0A00F8
:103F20006C69665F667265653A204E554C4C207030
:103F30006F696E7465720A006C69665F63616C6CB0
:103F40006F633A5B256C645D206E6F7420656E6FE5
:103F50007567682066726565206D656D6F72790A98
:103F6000004469736B3A202573206E6F7420666F6E
:103F7000756E6420696E2068706469722E696E695E
:103F80000A006C696620616464206C6966696D6111
:103F90006765206C69666E616D652066726F6D5F26
:103FA00061736369695F66696C650A6C6966206143
:103FB000646462696E206C6966696D616765206C16
:103FC00069666E616D652066726F6D5F6C69665FB4
:103FD00066696C650A6C6966206372656174652048
:103FE0006C6966696D616765206C6162656C2064EF
:103FF00069726563746F72795F736563746F7273EE
:1040000020736563746F72730A6C696620637265EE
:104010006174656469736B206C6966696D6167655D
:10402000206C6162656C206D6F64656C0A6C6966FA
:104030002064656C206C6966696D616765206E61DE
:104040006D650A6C696620646972206C6966696DC9
:104050006167650A6C6966206578747261637420B3
:104060006C6966696D616765206C69666E616D6516
:1040700020746F5F61736369695F66696C650A6C60
:104080006966206578747261637462696E206C6918
:1040900066696D616765206C69666E616D65207427
:1040A0006F5F6C69665F66696C650A202020206519
:1040B0007874726163747320612066696C6520692D
:1040C0006E746F2061207369676C652066696C652A
:1040D000204C494620696D6167650A6C69662072EB
:1040E000656E616D65206C6966696D616765206FDD
:1040F0006C646C69666E616D65206E65776C69666F
:104100006E616D650A557365202D64206166746566
:1041100072206669727374206B6579776F726420A0
:10412000276C6966272061626F766520666F722052
:104130004C49462066696C6573797374656D2064BB
:104140006562756767696E670A0A006C6966206850
:10415000656C700A005374617274696E6720475011
:104160004942205441534B0A0064656275676C658F
:1041700076656C2020203D2025303478480A0047A1
:1041800050494220537461746520696E69742064DB
:104190006F6E650A00475049422046696C65206988
:1041A0006E697420646F6E650A004750494220545E
:1041B000696D657220696E697469616C697A65649C
:1041C0000A00475049422054696D65722053657456
:1041D00075700A005072696E74657220696E697438
:1041E00069616C697A65640A0047504942206275CA
:1041F0007320696E697469616C697A65640A004D3F
:104200004D4320696E697469616C697A65640A005E
:104210004D4D4320696E697469616C697A696E6796
:104220002073746172740A00493243204C43442065
:104230006973204E4F542061747461636865642112
:104240000A00493243204C434420696E6974696115
:104250006C697A6174696F6E20446F6E650A0049FB
:104260003243204C434420696E697469616C697AF9
:104270006174696F6E2073746172740A00535953CC
:1042800054454D5F5441534B5F434F554E54455237
:104290005F5245533A256C640A00436C6F636B2090
:1042A000636C65617265640A00496E697469616C6A
:1042B000697A696E67205254430A00496E697469CD
:1042C000616C697A696E6720493243206275730AAE
:1042D00000496E697469616C697A696E6720535030
:1042E00049206275730A002020204C617374207588
:1042F0007064617465642066696C653A2025730A90
:1043000000202020474954206C617374207075731D
:104310006865643A20202025730A002D3E206874C9
:104320007470733A2F2F6769746875622E636F6DAE
:104330002F6D61676F72652F687038356469736BB4
:104340000A0020474E552076657273696F6E2033E0
:104350000A002028432920323031342D32303230C7
:10436000206279204D696B6520476F72650A0048AD
:10437000503835204469736B20616E642044657643
:1043800069636520456D756C61746F720A005265D2
:10439000717565737465642042617564205261743F
:1043A000653A20256C642C2041637475616C3A2059
:1043B000256C640A0043505520436C6F636B203DAD
:1043C00020256C750A0053746172740A004572727C
:1043D0006F723A5B25735D0A004F4B0A000A3E007C
:1043E00068656C700A6D656D0A73657464617465E7
:1043F0000A74696D650A72657365740A0A000A00B9
:104400002020204C61737420757064617465642091
:1044100066696C653A2025730A00202020474954BC
:10442000206C617374207075736865643A20202075
:1044300025730A002D3E2068747470733A2F2F671D
:1044400069746875622E636F6D2F6D61676F726539
:104450002F687038356469736B0A0020474E552009
:1044600076657273696F6E20330A002028632920F5
:10447000323031342D32303230206279204D696B48
:104480006520476F72650A004850383520446973CB
:104490006B20616E642044657669636520456D75A7
:1044A0006C61746F720A005374616E6420616C6F8A
:1044B0006E652076657273696F6E206F66204C4959
:1044C00046207574696C697469657320666F722023
:1044D0006C696E75780A000011241FBECFEFD0E41E
:1044E000DEBFCDBF17E1A0E0B1E0E0E4FBEC01E00E
:1044F0000BBF02C007900D92AE33B107D9F721E28E
:10450000AEE3B7E101C01D92A537B207E1F70E9403
:10451000C5DD0C949EE50C9400002F923F924F92C3
:104520005F926F927F928F929F92AF92BF92CF9243
:10453000DF92EF92FF920F931F93CF93DF93CDB74C
:10454000DEB760970FB6F894DEBF0FBECDBF7C011B
:104550001B016A01FC0117821682838181FF44C31B
:104560009E012F5F3F4F3901F7019381F10193FDC8
:10457000859193FF81911F01882309F431C385320E
:1045800039F493FD859193FF81911F01853239F4B0
:10459000B70190E00E94947556016501E5CF10E0E7
:1045A000512C912CFFE1F915D8F08B3279F038F4C9
:1045B000803279F08332A1F4F92DF0612EC08D3272
:1045C00061F0803369F4292D21602DC0392D3260CE
:1045D000932E892D8460982E2AC0E92DE86015C09D
:1045E00097FC2DC020ED280F2A3088F496FE06C0D7
:1045F0003AE0139F200D1124122F19C08AE0589E13
:10460000200D1124522EE92DE0629E2E10C08E3214
:1046100031F496FCE5C2F92DF0649F2E08C08C366B
:1046200021F4292D2068922E02C0883641F4F10130
:1046300093FD859193FF81911F018111B3CF9BEB76
:10464000980F933020F4992D9061805E07C09BE90C
:10465000980F933008F066C1992D9F7E96FF16E063
:104660009F73992E853619F49064992E08C086366A
:1046700021F4392F3068932E02C01111115097FE8A
:1046800007C01C3350F444244394410E27E00BC070
:10469000183038F027E017E005C027E09CE3492EEA
:1046A00002C0212F412C560184E0A80EB11CF60156
:1046B0006081718182819381042DA3010E944BE46A
:1046C0006C01F981FC87F0FF02C0F3FF06C091FC8A
:1046D00006C092FE06C000E205C00DE203C00BE278
:1046E00001C000E08C858C7019F001115AC29BC288
:1046F00097FE10C04C0CFC85F4FF04C08A81813306
:1047000009F44A94141474F528E0241578F588E027
:10471000482E2CC096FC2AC0812F90E08C159D0558
:104720009CF03CEFC3163FEFD30674F0892D8068F0
:10473000982E0AC0E2E0F0E0EC0FFD1FE10FF11D42
:104740008081803319F411501111F4CF97FE0EC0FF
:1047500044244394410E812F90E0C816D9062CF4CE
:104760001C1904C04424439401C010E097FE06C005
:104770001C141D0434F4C601019605C085E090E0C8
:1047800002C081E090E001110196112331F0212F48
:1047900030E02F5F3F4F820F931F252D30E08217AF
:1047A000930714F4581A01C0512C892D897049F4CB
:1047B000552039F0B70180E290E00E9494755A9438
:1047C000F7CF002329F0B701802F90E00E94947565
:1047D00093FC09C0552039F0B70180E390E00E94B6
:1047E00094755A94F7CF97FE4CC04601D7FE02C08D
:1047F000812C912CC60188199909F301E80FF91F42
:10480000FE87ED87960124193109388B2F87012FF8
:1048100010E01195019511093FEF8316930629F4D5
:10482000B7018EE290E00E949475C814D9044CF050
:104830008F8598898815990524F4ED85FE858181F9
:1048400001C080E3F1E08F1A91082D853E852F5F2E
:104850003F4F3E872D87801691062CF0B70190E0E0
:104860000E949475D9CFC814D90441F49A81963323
:1048700020F4953319F43C8534FF81E3B70190E0CF
:104880004EC08A81813319F09C859F7E9C87B70139
:1048900090E00E949475111105C094FC18C085E643
:1048A00090E017C0B7018EE290E00E9494751E5F01
:1048B00082E001E0080FF301E80FF11D8081B701EC
:1048C00090E00E949475802F0113F3CFE6CF85E42A
:1048D00090E0B7010E949475D7FC06C0C114D104C2
:1048E00041F4EC85E4FF05C0D194C194D1088DE278
:1048F00001C08BE2B70190E00E94947580E32AE04A
:10490000C216D1042CF08F5FFAE0CF1AD108F7CF8E
:10491000B70190E00E949475B701C601C0960E944D
:10492000947554C1833631F0833779F0833509F0BB
:1049300056C020C0560132E0A30EB11CF6018081A2
:10494000898301E010E0630112C05601F2E0AF0E6E
:10495000B11CF601C080D18096FE03C0612F70E0CB
:1049600002C06FEF7FEFC6010E9435E58C01F92D83
:10497000FF7714C0560122E0A20EB11CF601C080E0
:10498000D18096FE03C0612F70E002C06FEF7FEF11
:10499000C6010E9423E58C01F92DF0689F2EF3FDDE
:1049A0001AC0852D90E008171907A8F4B70180E216
:1049B00090E00E9494755A94F4CFF60197FC85918B
:1049C00097FE81916F01B70190E00E94947551109C
:1049D0005A94015011090115110579F7F7C0843671
:1049E00011F0893661F5560197FE09C024E0A20E48
:1049F000B11CF60160817181828193810AC0F2E06D
:104A0000AF0EB11CF60160817181072E000C880B7E
:104A1000990BF92DFF769F2E97FF09C090958095F1
:104A2000709561957F4F8F4F9F4FF0689F2E2AE0C2
:104A300030E0A3010E9440E5C82EC6183FC0092DF2
:104A4000853721F40F7E2AE030E01DC0097F8F36C4
:104A500091F018F4883559F0C3C0803719F08837C1
:104A600011F0BEC0006104FF09C0046007C094FEDD
:104A700008C0066006C028E030E005C020E130E054
:104A800002C020E132E0560107FF09C084E0A80E11
:104A9000B11CF601608171818281938108C0F2E0CE
:104AA000AF0EB11CF6016081718180E090E0A3013E
:104AB0000E9440E5C82EC6180F77902E96FE0BC0B8
:104AC000092D0E7FC11650F494FE0AC092FC08C056
:104AD000092D0E7E05C0DC2C092D03C0DC2C01C085
:104AE000D12E04FF0DC0FE01EC0DF11D808180333D
:104AF00011F4097E09C002FF06C0D394D39404C008
:104B0000802F867809F0D39403FD11C000FF06C002
:104B10001C2DD51480F4150D1D190DC0D51458F495
:104B2000B70180E290E00E949475D394F7CFD5143A
:104B300010F45D1801C0512C04FF10C0B70180E3D0
:104B400090E00E94947502FF17C001FD03C088E742
:104B500090E002C088E590E0B7010CC0802F867815
:104B600059F001FF02C08BE201C080E207FD8DE237
:104B7000B70190E00E949475C11638F4B70180E344
:104B800090E00E9494751150F7CFCA94F301EC0D98
:104B9000F11D8081B70190E00E949475C110F5CF9E
:104BA00015C0F4E0F51560F584E0581A93FE1FC0B7
:104BB000011127C02C8523FF2AC006ED11E0392DF5
:104BC0003071932EF8018491811124C0552009F48D
:104BD000E4CCB70180E290E00E9494755A94F6CF3D
:104BE000F7018681978126C08FEF9FEF23C0B70121
:104BF00080E290E00E9494755A945110F8CFD8CF7B
:104C0000512CB701802F90E00E949475D3CF0AED0C
:104C100011E0D5CF91108052B70190E00E949475B9
:104C20000F5F1F4FCFCF23E0251510F483E0BDCFDA
:104C3000512CC0CF60960FB6F894DEBF0FBECDBF2B
:104C4000DF91CF911F910F91FF90EF90DF90CF9068
:104C5000BF90AF909F908F907F906F905F904F909C
:104C60003F902F900895E82FE695E695E69593E01E
:104C7000E99FF001112432A1282F277081E090E0F4
:104C800001C0880F2A95EAF7982F9095932392A355
:104C900091A1892B81A30895E82FE695E695E695E5
:104CA00093E0E99FF001112432A1282F277081E0C1
:104CB00090E001C0880F2A95EAF7932F982B92A3D2
:104CC00091A1892B81A30895E7CF0895CF93ADB724
:104CD000BEB717970FB6F894BEBF0FBEADBFC82FB3
:104CE00080910A018C1799F08F3F89F02C2F30E0CA
:104CF000EDB7FEB73783268390E09583848388EDF4
:104D000092E0A0E081839283A3830E94C9458C2F07
:104D1000C3DF8FEF80930A01ADB7BEB717960FB60A
:104D2000F894BEBF0FBEADBFCF910895CCC4089517
:104D3000F4C40895A1E0B0E0E0EAF6E20C945FE08C
:104D4000898361E070E0CE010196BDD42196E2E056
:104D50000C947BE0CF92DF92EF92FF926B017C018B
:104D6000842F9ADF8FEF80930A01C701B6017ED4AA
:104D700080E090E03BD48FEFDDDFC0920601D0925F
:104D80000701E0920801F0920901FF90EF90DF9097
:104D9000CF900895CF92DF92EF92FF92CF93DF935F
:104DA000ADB7BEB717970FB6F894BEBF0FBEADBF75
:104DB0006B017C01EA0180910A018F3F79F0EDB728
:104DC000FEB74683D78390E09583848386EF92E095
:104DD000A0E081839283A3830E94C945809106014C
:104DE00090910701A0910801B09109018C159D05D2
:104DF000AE05BF0521F0AE01C701B601ABDF8C2FB8
:104E000032DFC0930A01ADB7BEB717960FB6F8945C
:104E1000BEBF0FBEADBFDF91CF91FF90EF90DF908F
:104E2000CF900895A1E0B0E0E8E1F7E20C945FE0F4
:104E3000898361E070E0CE01019659D48981219681
:104E4000E2E00C947BE080933E172C9A249A08951C
:104E500010923E172C98249A0895A2E0B0E0E3E364
:104E6000F7E20C945FE020917121309172212115BD
:104E7000310511F425E731E2CE010196821B930B37
:104E80002296E2E00C947BE0A9E0B0E0EAE4F7E2ED
:104E90000C945FE0E2DF99878887EDB7FEB79583D2
:104EA00084838DE194E0A0E081839283A3830E94B8
:104EB000C9458FEF90E4EDB7FEB7958384838AE010
:104EC00094E0A0E081839283A3830E94C945CE0130
:104ED0000896EDB7FEB79583848387EF93E0A0E053
:104EE00081839283A3830E94C94585E791E2EDB750
:104EF000FEB7978386838EE397E19583848389ED5C
:104F000093E0A0E081839283A3830E94C9458EE34E
:104F100097E1EDB7FEB79783868380E091E09583B4
:104F200084838BEB93E0A0E081839283A3830E9430
:104F3000C94580E090E0EDB7FEB79783868385E7AB
:104F400091E2958384838DE993E0A0E0818392834D
:104F5000A3830E94C9458091000190910101EDB7A2
:104F6000FEB7978386838091020190910301958318
:104F700084838FE793E0A0E081839283A3830E94E0
:104F8000C9458091712190917221EDB7FEB795834B
:104F900084838BE693E0A0E081839283A3830E94C5
:104FA000C9452996E2E00C947BE0EF92FF920F93C3
:104FB0001F93CF93DF93ADB7BEB717970FB6F89493
:104FC000BEBF0FBEADBF8C017B010E940CE3EC01A4
:104FD000892B71F4EDB7FEB7F782E682158304835F
:104FE00080E593E0A0E081839283A3830E94C9457A
:104FF000CE01CDB7DEB72796E6E00C9477E00F93AD
:105000001F93CF93DF9300D000D01F928C0161E0FB
:1050100070E00E940CE3EC01892B61F4EDB7FEB760
:105020001583048388E393E0A0E081839283A383C4
:105030000E94C945CE01CDB7DEB72596E4E00C94B9
:1050400079E0ADB7BEB717970FB6F894BEBF0FBEE5
:10505000ADBF009711F1209171213091722121157E
:10506000310511F425E731E241E28537940730F04C
:105070002817390718F00E94BEE30FC0EDB7FEB73E
:10508000378326839583848383E193E0A0E0818343
:105090009283A3830E94C945F7DEADB7BEB71796CA
:1050A0000FB6F894BEBF0FBEADBF0895643671054C
:1050B0008105910558F06456710981099109E3EF62
:1050C000F1E03197F1F700C00000F0CF6A307105D0
:1050D0008105910548F06A50710981099109F2E44E
:1050E000FA95F1F700C0F2CF6115710581059105C0
:1050F00049F0615071098109910926E02A95F1F77B
:1051000000C0F2CF0895611571058105910509F47C
:1051100041C0E3EFF1E03197F1F700C00000E3EFA9
:10512000F1E03197F1F700C00000E3EFF1E03197D3
:10513000F1F700C00000E3EFF1E03197F1F700C0B4
:105140000000E3EFF1E03197F1F700C00000E3EF7A
:10515000F1E03197F1F700C00000E3EFF1E03197A3
:10516000F1F700C00000E3EFF1E03197F1F700C084
:105170000000E3EFF1E03197F1F700C00000E3EF4A
:10518000F1E03197F1F700C0000061507109810929
:105190009109B9CF089581110EC0F8941092BC19ED
:1051A0001092BB191092B8191092B9191092BA192D
:1051B0001092BD19789408954F925F926F927F92EA
:1051C0008F929F92AF92BF92CF92DF92EF92FF9217
:1051D000CF93DF935A01E9010E94AAE12B013C0120
:1051E00020E030E040E051E40E9460E29B01AC012D
:1051F00060E876E988E99BE40E9411E120E030E074
:1052000040E85FE30E94A8E00E94C3E20E947EE1C2
:105210006B017C01C11480E1D806E104F10458F46B
:1052200081E090E0F50191838083812C912CA12C69
:1052300021E4B22E31C0F5011182108220E030E06D
:1052400040E851E4C301B2010E9460E29B01AC015D
:1052500060E876E988E99BE40E9411E120E030E013
:1052600040E85FE30E94A8E00E94C3E20E947EE162
:105270006B017C01812C912C90E8A92E91E4B92E30
:10528000C114F0E1DF06E104F10430F0CC24CA944B
:105290008FE0D82EE12CF12CC701B6016F5F7F4F54
:1052A0008F4F9F4F0E94AAE1A50194010E9460E2E6
:1052B0009B01AC0160E876E988E99BE40E9411E17A
:1052C0000E947EE1688379838A839B83C601DF9194
:1052D000CF91FF90EF90DF90CF90BF90AF909F90D5
:1052E0008F907F906F905F904F900895A6E0B0E010
:1052F000ECE7F9E20C945FE01E821D82811136C05A
:10530000CB01BA019E012F5F3F4FAE014B5F5F4F54
:1053100053DFF8941092BC191092BB191092B8196F
:105320001092B9191092BA191092BD197894F89484
:10533000589A599A5098519A28E92093C1002D8182
:105340003E81232B19F022E02093C0009093C500EA
:105350008093C40078946EE67AE283E89AE20E9431
:105360005D7869817A818B819C8103C060E070E007
:10537000CB012696E2E00C947BE0CF93DF9327E508
:10538000829FC0011124FC01E854F64E8381948170
:10539000803591057CF4308121E0230F2083EF01DB
:1053A000C30FD11D6E83019694838383203528F02B
:1053B000108203C0858181608583DF91CF9108953C
:1053C0001F920F920FB60F9211240BB60F922F93CC
:1053D0003F934F935F936F937F938F939F93AF937D
:1053E000BF93EF93FF936091C60080E0C6DFFF910B
:1053F000EF91BF91AF919F918F917F916F915F914D
:105400004F913F912F910F900BBE0F900FBE0F90B9
:105410001F901895811107C0F8948091BB19909145
:10542000BC19789408958FEF9FEF0895811121C0E2
:1054300080E0F0DF18161906DCF7F894E091B9194E
:1054400091E09E0F9093B919F0E0E854F64E8681F2
:10545000903510F01092B9192091BB193091BC19F8
:10546000215031093093BC192093BB19789490E0F6
:1054700008958FEF9FEF0895D9DF9927089561115F
:1054800009C02091C00025FFFCCF282F2F77209343
:10549000C6000895613049F42091C80025FFFCCF73
:1054A000282F2F772093CE0008958FEF9FEF089538
:1054B000CF9381110FC0E0DFC82F60E090E0DFDF05
:1054C000CD3029F460E08AE090E0D9DFCAE08C2F8B
:1054D00090E002C08FEF9FEFCF91089580E0E8CF7A
:1054E00008951F93CF93DF93EC01162FC8DFCA30C6
:1054F000D10521F4612F8DE090E0C1DFCE01DF9175
:10550000CF911F910895CF93DF93EC0160E070E09D
:10551000E8DFCE01DF91CF9108957CCF0895CF923F
:10552000DF92EF92FF926B017C0180914117909185
:105530004217A0914317B09144178C159D05AE05F5
:10554000BF0509F44EC060E07DE281E391E0A70170
:1055500096010E94E2DF203831054105510528F40B
:10556000203431054105510530F08DB58E7F8DBD5C
:105570008CB582601BC08DB52032310541055105C7
:1055800028F081608DBD8CB582601FC0203131054F
:105590004105510510F08E7F06C0283031054105C8
:1055A000510540F081608DBD8CB58D7F8CBD8CB573
:1055B00081600EC0243031054105510510F08E7F09
:1055C00001C081608DBD8CB58D7F8CBD8CB58E7F0B
:1055D0008CBDC0924117D0924217E0924317F092CF
:1055E0004417FF90EF90DF90CF900895CF93DF9313
:1055F00000D000D01F92EC018130910571F02CF4A5
:10560000892BC1F48CB5877F11C08230910561F080
:10561000039781F48CB5886002C08CB5877F8CBD00
:105620008CB584608CBD12C08CB588608CBD8CB587
:105630008B7FF8CFEDB7FEB7D583C4838AE294E0C1
:10564000A0E081839283A3830E94C945D093401731
:10565000C0933F17CDB7DEB72596E2E00C947BE010
:105660008EBD0DB407FEFDCF8EB50895CF92DF92AB
:10567000EF92FF92CF93DF931F92CDB7DEB76B010E
:105680007C011CBC2F9A279A2D9A259A26982C9833
:10569000249A8CB580618CBD8CB580648CBD8DB531
:1056A00089838EB5898380E090E0A0DFC701B601D1
:1056B00036DF8FEFD5DF0F90DF91CF91FF90EF9026
:1056C000DF90CF9008950F931F93CF93DF938C01BA
:1056D000EB011C161D0634F4F80181918F01C0DF27
:1056E0002197F7CFDF91CF911F910F9108950F93DD
:1056F0001F93CF93DF938C01EB011C161D0644F41E
:10570000F8018081ADDFF80181938F012197F5CFFA
:10571000DF91CF911F910F9108950F931F93CF9316
:10572000DF938C01EB011C161D063CF48FEF98DF14
:10573000F80181938F012197F6CFDF91CF911F91CF
:105740000F910895409A419AECEBF0E090819460BB
:1057500090838093B9006093B800089584E98093A2
:10576000BC00089594EA9093BC0024E6629FB001C7
:105770001124615071099B0140E050E0E4EA2F3FA1
:105780009FEF390741F141155105F1F49091BC00AB
:1057900097FF13C09091B900987F903161F09833D2
:1057A00039F0983041F084E08093BC0081E00895A6
:1057B000E093BC0006C041E050E092E49A95F1F716
:1057C00000C021503109DBCF232B29F484E08093E2
:1057D000BC0082E008958093BB0084E88093BC0005
:1057E0006F3F8FEF780771F02091BC00CB010197DC
:1057F00027FD06C022E42A95F1F700C0BC01F0CFD6
:10580000672B61F08091B900887F883149F080343E
:1058100039F084E98093BC0084E0089583E0089522
:1058200080E008958093BB0084E88093BC00809161
:10583000BC0087FFFCCF9091B900987F21E030E059
:10584000983211F020E030E0C9010895FC016115A3
:10585000710511F494EC01C094E89093BC00809120
:10586000BC0087FFFCCF8091BB0080832091B900F2
:10587000287F81E090E0672B19F0283519F403C0E8
:10588000203509F080E00895A0E0B0E0EAE4FCE211
:105890000C9456E0F82EB62E942EA52EC22F8E7F95
:1058A00061DFD82F81112BC0C92CDA2CCC2339F021
:1058B000F60181916F01B6DFC150892BB9F76B2DCD
:1058C0008F2D81604FDFD82F811119C0CFEFCE0D02
:1058D000CF3F91F07801FFEFEF1AFF0A61E070E02F
:1058E000CC2311F060E070E0C801B0DFC150892B1B
:1058F00011F08701EDCFD5E084E98093BC008D2FB6
:10590000CDB7DEB7EBE00C9472E0A0E0B0E0EBE8DE
:10591000FCE20C9458E0B42EF52EC22F8E7F22DFCD
:10592000D82F81111AC0CB2CDF2CCC2341F0F601EB
:1059300081916F0177DFC150892BB9F7D5E06801FC
:10594000EE2041F0F60181916F016CDFEA94892B22
:10595000B9F7D5E084E98093BC008D2FCDB7DEB7D1
:10596000E9E00C9474E01F920F920FB60F9211248D
:105970000BB60F922F933F934F935F936F937F9349
:105980008F939F93AF93BF93EF93FF938091B90051
:10599000887FE0914517F0914617309709F46FC062
:1059A000908190FF39C0803481F038F4803109F45F
:1059B00045C0883309F494C036C0803559F0883525
:1059C000F1F0883409F05BC054C08181813009F066
:1059D0004AC013C0A381B481828191E0980F928361
:1059E0009091BB00A80FB11D9C938281218190E012
:1059F000019630E082179307B1F585E87CC083817A
:105A00009481228131E0320F32833091BB00FC015E
:105A1000E20FF11D308335C0803259F138F4803106
:105A200069F08831A1F0883051F508C08033E9F081
:105A3000883309F455C0883211F505C08181882367
:105A4000F1F012820DC0928181819817D0F4838188
:105A50009481228131E0320F3283FC01E20FF11D8B
:105A600080818093BB0085EC46C09281818198172C
:105A700040F4E0914717F091481783E01DC00E9461
:105A800047E4E0914717F091481784818F5F848342
:105A90009381891780F4848190E0019645E0489FC6
:105AA0009001499F300D1124E20FF31FF093461728
:105AB000E093451715C081E08283E0914717F0918C
:105AC000481780819181892B69F080819181909321
:105AD000481780934717059690934617809345176C
