:100000000C9419260C9438260C9438260C94382617
:100010000C9438260C9438260C9438260C943826E8
:100020000C9438260C9438260C9438260C943826D8
:100030000C9438260C94C7330C9438260C9438262C
:100040000C9438260C9438260C9438260C943826B8
:100050000C94E8290C9438260C9438260C943826F5
:100060000C9438260C9438260C94EA2D0C943826DF
:100070000C9438260C9438260C9438260C94382688
:100080000C9438260C9438260C943826F7434745B0
:100090002F441A451A454745474547454745474573
:1000A000474547454745F743F443474547453D45A1
:1000B0004745294447454745F74347454745474551
:1000C000474547454745474547454745F743424527
:1000D0002F441A451A454745474547454745474533
:1000E000474547454745F743F44347454745384566
:1000F0004745294447454745F7436C45AD465F456D
:10010000C745AB45AD46AD46AD46AD46AD46AD4641
:10011000AD46AD4679458D45AD46AD465346AD46F7
:100120005B45AD46AD468D45AD46AD46AD46AD46AB
:10013000AD46AD46AD46AD46AD466C45FB455F456B
:10014000C745AB45AD46AD46AD46AD46AD46AD4601
:10015000AD46AD4679458D45AD46AD46FB45AD4610
:100160005B45AD46AD468D458C6996699E69A16932
:10017000A469A769AA69AD69B0698C879487C587A6
:10018000DE87FA87078823884D883088E99EB99FE3
:10019000F59F28A038A055A0B5A0A0A1A0A1A0A11E
:1001A000E9A015A158A16FA1829F959FA7BD66BD2B
:1001B00066BD66BD66BD2ABD31BD38BD48BD56BDF4
:1001C0004FBD63735F64697361626C6520776173AF
:1001D0003A2025642C2077616E743A2025640A0049
:1001E00063735F656E61626C65207761733A202589
:1001F000642C2077616E743A2025640A007361666E
:1002000065667265653A2046524545204552524F13
:100210005220282575292C20746F703A28257529BD
:100220000A00736166656D616C6C6F6328256429D3
:10023000206661696C6564210A00736166656361AB
:100240006C6C6F632825642C256429206661696CB9
:100250006564210A0020205F5F62726B76616C3AF0
:10026000202020202535750A0020204D616C6C6F00
:1002700063207374617274202535752020656E6467
:100280003A202535750A002020486561703A2073B0
:10029000746172743A202535752C20656E643A209D
:1002A0002535750A00202044617461202073746133
:1002B00072743A202535752C20656E643A202535F8
:1002C000750A0020204253532020207374617274F9
:1002D0003A202535752C20656E643A202535750A3F
:1002E000002020537461636B20467265653A2020BC
:1002F00025750A002020537461636B20546F703A97
:1003000020202025750A00467265652052616D3AED
:1003100025750A00535049305F4D6F64653A204996
:100320006E76616C6964206D6F6465282564290AA6
:10033000000A007461736B3A2025640A0069326315
:100340005F7461736B2E6572726F723A2025640A56
:10035000006932635F7461736B2E646F6E653A205F
:1003600025640A000A00202054575F4D545F444121
:1003700054415F4E41434B0A00202054575F4D5477
:100380005F534C415F4E41434B0A00202054575F5E
:100390004D525F534C415F4E41434B0A0020204F6A
:1003A000505F4552524F520A0020204F505F4C453B
:1003B0004E0A0020204F505F54494D454F55540A76
:1003C00000202025730A006932635F74696D6572CD
:1003D00020696E6974206661696C65640A0069321F
:1003E000635F696E6974207072657363616C652008
:1003F0006F766572666C6F770A00493243206F70C2
:100400005B25645D2D3E6C656E203D3D20300A000D
:10041000493243206F705B25645D2D3E6275662016
:100420003D3D204E554C4C0A00493243206F705BD5
:10043000494E444558202564203E3D2025645D0AF0
:10044000007274635F696E697420207772697465E5
:100450002065706F6368206661696C65640A00726C
:1004600074635F72756E207772697465206572724D
:100470006F720A007274635F72756E2072656164D8
:10048000206572726F720A007274635F72656164D4
:10049000206572726F720A007274635F777269749A
:1004A00065206572726F720A006932635F727463ED
:1004B0005F726561642064617461206572726F723D
:1004C0000A006932635F7274635F72656164206100
:1004D000646472657373206572726F720A006932A8
:1004E000635F7274635F77726974652064617461BD
:1004F000206572726F720A002573206578706563DB
:1005000074656420256420617267756D656E74730F
:10051000206F6E6C7920676F742025640A003D3D62
:100520003D3D3D3D3D3D3D3D3D3D3D3D3D3D3D3DFB
:100530003D3D3D3D3D3D3D3D3D3D3D3D0A00546918
:100540006D65727320656E61626C65640A00436C50
:100550006F636B20496E7374616C6C65640A004351
:100560006C6F636B207461736B20696E69742066B5
:1005700061696C65640A00436C6F636B20496E6946
:10058000740A0054696D65727320636F6E666967E3
:10059000757265640A0054696D65727320696E69CD
:1005A000742063616C6C65640A005B54696D653A24
:1005B00025735D0A005B25732054696D653A2573C8
:1005C0005D0A00256C642E2530396C6400736574F7
:1005D0005F74696D6572733A204E6F206D6F72653E
:1005E0002074696D657273210A00636C6B207469F5
:1005F0006D653A2020202025730A00636C6B207300
:1006000065636F6E64733A20256C750A005254431B
:100610002072656164206661696C65640A007274A9
:10062000632074696D653A2020202025730A0072CA
:100630007463207365636F6E64733A20256C750A6A
:1006400000757365207365746461746520636F6DF4
:100650006D616E6420746F206368616E67652074DD
:10066000696D650A00727463207265616420657249
:10067000726F72616674657220696E69740A0072C5
:10068000746320666F72636520696E6974206661A9
:10069000696C65640A00617474656D7074696E6775
:1006A0002072746320696E69740A00727463207525
:1006B0006E696E6974696C697A65640A0072746344
:1006C00020666F72636520696E6974206661696C6B
:1006D00065640A00696E76616C6964206D696E3AC2
:1006E0002025640A00696E76616C696420686F7504
:1006F000723A2025640A00696E76616C6964206430
:1007000061793A2025640A00696E76616C6964201B
:100710006D6F6E3A2025640A00696E76616C6964BB
:1007200020796561723A2025640A00456E7465720D
:1007300020646174652059595959204D4D20444415
:100740002048483A4D4D3A5353203E00257320250A
:10075000732025326420253032643A253032643AE1
:1007600025303264202534640073656C6563742021
:100770006661696C6564210A00454E44204D4D4315
:1007800020494E49540A004D4D4320426C6F636B23
:100790002053697A653A20256C640A004D4D432048
:1007A000426C6F636B2053697A65202D20726561FE
:1007B00064206661696C65640A002C20436F64657F
:1007C00020706167653A2025750A004C464E204529
:1007D0006E61626C6564004D4D432043617264201C
:1007E000496E7365727465640A002A2A2A204D4D89
:1007F000432043617264204E4F5420496E736572EA
:1008000074656421202A2A2A0A0053544152542034
:100810004D4D4320494E49540A004D4D4320544903
:100820004D454F55540A004D4D4320436C6F636B4B
:10083000207461736B20696E6974206661696C65F0
:10084000640A000A0025732025752F253032752F84
:100850002530327520253032753A25303275202505
:10086000396C752025730066617466735F66696C08
:10087000696E666F5F6C6973743A20656D70747928
:100880000A0025752066696C65732C20256C75201F
:1008900062797465732E0A257520666F6C646572C3
:1008A000732E0A256C75204B4220746F74616C2086
:1008B0006469736B2073706163652E0A256C752003
:1008C0004B4220617661696C61626C652E0A00663C
:1008D000617466735F7374617475732066617466A6
:1008E000735F7363616E5F66696C657320666169CF
:1008F0006C65640A00566F6C756D6520532F4E2031
:10090000202020202020202020202020203D2025C5
:100910003034582D253034580A00566F6C756D658B
:10092000206E616D652020202020202020202020A6
:1009300020203D2025730A0066617466735F73741E
:100940006174757320665F6765746C6162656C20A5
:100950006661696C65640A00446174612073746146
:10096000727420286C626129202020202020202001
:100970003D20256C750A00444952207374617274DD
:1009800020286C62612C636C7573746F7229203D32
:1009900020256C750A0046415420737461727420DE
:1009A000286C6261292020202020202020203D204A
:1009B000256C750A004E756D626572206F66206346
:1009C0006C7573746572732020202020203D2025D3
:1009D0006C750A00536563746F72732F464154201F
:1009E0002020202020202020202020203D20256C99
:1009F000750A00526F6F742044495220656E7472FC
:100A000069657320202020202020203D2025750AA4
:100A1000004E756D626572206F66204641547320EA
:100A20002020202020202020203D2025750A004263
:100A3000797465732F436C75737465722020202060
:100A4000202020202020203D20256C750A004641D2
:100A50005420747970652020202020202020202020
:100A60002020202020203D2025730A006661746626
:100A7000735F73746174757320665F676574667203
:100A80006565206661696C65640A006661746673F9
:100A9000207374617475733A25730A0072633D257F
:100AA000750A002C202531306C754B2062797465F5
:100AB0007320667265650A002534752046696C6589
:100AC0002873292C2531306C752062797465732068
:100AD000746F74616C0A2534752044697228732917
:100AE000004C697374696E673A5B25735D0A004553
:100AF0004E44204D4D4320544553540A004D4D4320
:100B0000204469726563746F7279204C6973740A4A
:100B1000005354415254204D4D4320544553540AE0
:100B2000006661746673202020202068656C700A5E
:100B3000004E6F74653A2066617466732074657345
:100B40007473204D55535420737461727420776907
:100B500074682022666174667322206B6579776FF2
:100B600072640A66617466732068656C700A6661F7
:100B7000746673206D6D635F746573740A66617467
:100B80006673206D6D635F696E69740A6661746671
:100B900073206C73206469726563746F72790A667E
:100BA00061746673207374617475730A0A00257327
:100BB0000A0025733A2025730A005365656B206689
:100BC00061696C6564006670757463207374726526
:100BD000616D2D3E707574204E554C4C0A00666751
:100BE0006574632073747265616D2D3E6765742052
:100BF0004E554C4C0A0046696C65733A2025640AD0
:100C0000006E616D653A5B25735D20746F6F206CBB
:100C10006F6E6720776974682066756C6C207061F0
:100C200074680A006F70656E646972206661696C31
:100C300065640A004C697374696E673A5B25735D7D
:100C40000A006C733A2063616E6E6F742073746176
:100C500074205B25735D0A006C733A2043616E2734
:100C600074206765742063757272656E74206469A0
:100C7000726563746F72790A002573206E6F6E65FA
:100C8000206E6F6E65202531326C6420257320251F
:100C9000730A0025730A0063616E206E6F742073FF
:100CA0007461743A2025730A000D004D6F72652E31
:100CB0002E00256C7520627974657320636F7069EE
:100CC00065642E0A00436F706965643A20253038E8
:100CD0006C640D005772697465206572726F720AD8
:100CE000000A436F7079696E672E2E2E0A004361E9
:100CF0006E2774206F70656E3A2025730A00437268
:100D0000656174696E672025730A0043616E2774FC
:100D1000206F70656E3A2025730A004F70656E690A
:100D20006E672025730A00256C64206279746573F0
:100D30000A000A0043616E2774206F70656E3A20C6
:100D400025730A00726D64697220257320666169DB
:100D50006C65640A00726D202573206661696C659C
:100D6000640A0072656E616D6520257320746F20C2
:100D700025730A0025730A00707764204641494CA8
:100D800045440A006D6B64697220257320666169B1
:100D90006C65640A006C733A206E756C6C2061722D
:100DA00067756D656E7420232025640A006368648E
:100DB0006972202573206661696C65640A004E6F54
:100DC00074653A20706F736978207072656669780F
:100DD000206973206F7074696F6E616C0A706F7335
:100DE0006978206361742066696C65205B2D705D95
:100DF0000A706F736978206364206469720A706F87
:100E000073697820636F70792066696C653120663C
:100E1000696C65320A706F736978206C732064693D
:100E200072205B2D6C5D0A706F736978206D6B6446
:100E30006972206469720A706F73697820706167E3
:100E400065204E4E0A706F736978207077640A705F
:100E50006F73697820726D2066696C650A706F73B4
:100E6000697820726D646972206469720A706F73A8
:100E700069782072656E616D65206F6C64206E65A7
:100E8000770A0A00706F7369782020202020686537
:100E90006C700A00436C6F7365206572726F723AF2
:100EA00020005365656B206572726F723A2000579F
:100EB00072697465206572726F723A2000526561C2
:100EC00064206572726F723A20004F70656E206503
:100ED00072726F723A5B25735D20005B5050522036
:100EE00044495341424C4520414C4C5D0A00475017
:100EF000494220436C6F636B207461736B20696E91
:100F00006974206661696C65640A005B6770696278
:100F10005F77726974655F7374722073656E74288D
:100F200025642920657870656374656428256429C3
:100F30005D0A003C4255532077616974696E6720F1
:100F4000666F72204441563D3D313E0A003C677059
:100F500069625F77726974655F7374722074696D1A
:100F6000656F75742077616974696E6720666F724A
:100F70002041544E203D20313E0A00677069625F77
:100F800077726974655F7374723A2073697A652049
:100F90003D20300A005B677069625F726561645F63
:100FA00073747220726561642825642920657870E5
:100FB0006563746564282564295D0A006770696249
:100FC0005F726561645F73747228696E643A256448
:100FD000293A2041544E20253032584820756E65FC
:100FE000787065637465640A00677069625F726532
:100FF00061645F7374723A2073697A65203D2030B2
:101000000A00204D534120253032586800204D54AD
:101010004120253032586800204D4C412025303287
:1010200058680020202020200025303258202563D9
:101030002000677069625F726561645F62797465E0
:101040003A204946432073746174653D25640A0063
:101050003C475049422054582054494D454F55541F
:101060003E0A003C677069625F77726974655F620F
:101070007974652074696D656F7574207761697422
:10108000696E6720666F72204E4441433D3D313E9C
:101090000A003C677069625F77726974655F6279A4
:1010A00074652074696D656F757420776169746902
:1010B0006E6720666F72204E5246443D3D312026B9
:1010C00026204E444143203D3D20303E0A003C67EF
:1010D0007069625F77726974655F627974652074A4
:1010E000696D656F75742077616974696E672066D4
:1010F0006F72204E5246443D3D31202626204E44FC
:101100004143203D3D20303E0A00677069625F77B1
:10111000726974655F627974653A2041544E203D6E
:101120002030207768696C652077616974696E6723
:1011300020666F72204E524644204C4F57207374E5
:10114000617465203D25640A00677069625F77728B
:101150006974655F627974653A2049464320737407
:101160006174653D25640A00677069625F756E721F
:101170006561643A206572726F722C2063616E2023
:101180006F6E6C792062652063616C6C6564206FA2
:101190006E6365210A005B44505052206269743AC4
:1011A00025642C206D61736B3A25303258485D0AF6
:1011B00000677069625F64697361626C655F50505B
:1011C000523A20626974202564206F7574206F661E
:1011D0002072616E67650A005B455050522062695B
:1011E000743A25642C206D61736B3A25303258486F
:1011F0005D0A00677069625F656E61626C655F5071
:1012000050523A20626974202564206F7574206FF3
:10121000662072616E67650A005B47504942205341
:101220005441544520494E49545D0A005B4750499A
:1012300042204255535F494E49545D0A005B50526B
:10124000494E54455220636C6F73655D0A005B53D1
:10125000412025303258482C206C697374656E3AF1
:1012600025303258482C2074616C6B3A2530325846
:10127000485D0A005B534120253032584820414DDB
:1012800049474F5D0A005B534120253032584820C2
:10129000535338305D0A005B5441202530325848A2
:1012A0005D0A005B5052494E544552204F50454E06
:1012B0005D0A005B54412025303258482050524985
:1012C0004E5445525D0A005B544120253032584847
:1012D00020414D49474F5D0A005B54412025303283
:1012E000584820535338305D0A005B554E545D0A10
:1012F000005B4C412025303258485D0A005B4C4170
:10130000202530325848205052494E5445525D0AEB
:10131000005B4C4120253032584820535338305D13
:101320000A005B4C4120253032584820414D494746
:101330004F5D0A000A005B554E4C5D0A005B47504A
:1013400049422028253032584829206E6F74206485
:101350006566696E656420544F444F5D0A005B44C6
:10136000434C5D0A005B53444320414D49474F5D68
:101370000A005B53444320535338305D0A005B53EB
:1013800044435D0A005B5350445D0A005B53504583
:101390005D0A005B50505520756E737570706F72EA
:1013A00074656420544F444F5D0A005B50504320E5
:1013B000756E737570706F7274656420544F444F0E
:1013C0005D0A005B4944454E5420556E69743A25C8
:1013D000303258483D25303458485D0A005B494456
:1013E000454E5420556E69743A25303258483D2593
:1013F00030345848204641494C45445D0A003C4D34
:1014000045444941204D495353494E473E0A003C0B
:10141000494E544552525550543E0A003C42555391
:101420003E0A003C54494D454F55543E0A003C4944
:1014300046433E0A00436170747572696E672043CB
:101440006C6F7365640A00446F6E650A00657869A5
:1014500074696E672E2E2E0A0050726573732041D8
:101460004E59206B657920746F20657869740A0085
:1014700046554C4C20475049422042555320686104
:101480006E647368616B65206C6F6767696E672057
:101490007265717565737465640A00436170747573
:1014A00072696E6720475049422042555320746F3D
:1014B0003A25730A00436172642069732077726968
:1014C00074652070726F7465637465640A002573B7
:1014D000206F70656E206661696C7572650A002503
:1014E0007320686164202564206572726F72730ACC
:1014F0000064656275673D25303458480A004E6FB8
:1015000074653A2067706962207072656669782038
:101510006973206F7074696F6E616C0A67706962BD
:10152000206164647265737365730A2020204469C6
:1015300073706C617920616C6C2064657669636599
:10154000204750494220627573206164647265735C
:1015500073657320616E64205050522076616C7503
:1015600065730A6770696220636F6E666967205BE6
:101570002D765D0A202020446973706C61792063A8
:10158000757272656E742064726976657320636F1C
:101590006E66696775726174696F6E0A2020202D0E
:1015A0007620566572626F7365202D2073686F77A1
:1015B0002066756C6C2064657461696C0A6770697B
:1015C00062206465627567204E0A2020206465628F
:1015D0007567206D657373616765207265706F72E2
:1015E00074696E67207365652068706469736B2E1B
:1015F00063666720666F722064657461696C730A44
:101600006770696220656C61707365640A677069F0
:101610006220656C61707365645F72657365740ADE
:1016200067706962206966630A6770696220706C1E
:101630006F742066696C656E616D652E7478740ACE
:101640006770696220706C6F745F6563686F0A67AA
:10165000706962207461736B0A67706962207472CA
:101660006163652066696C656E616D652E74787462
:10167000205B4255535D0A202020446973706C61E1
:1016800079206163746976697479206F66204750A8
:1016900049422062757320616E64206C6F67206917
:1016A000740A202020425553202D20696E636C75EA
:1016B00064652068616E647368616B652073746132
:1016C0007465730A0A006770696220202020206810
:1016D000656C700A000A004D6F756E746564206455
:1016E00072697665730A005052494E54455220255E
:1016F0002D3873202532640A00414D49474F202080
:1017000020252D3873202532642025730A00535379
:10171000383020202020252D3873202532642025C4
:10172000730A00457870656374656420414D4947CC
:101730004F206F722053533830206F72204353383C
:101740003020666F72205B25735D0A00436F756CF5
:1017500064206E6F7420616C6C6F636174652041EE
:101760004D49474F207374727563747572652066B6
:101770006F722025730A00436F756C64206E6F745E
:1017800020616C6C6F636174652053533830207333
:10179000747275637475726520666F722025730AA2
:1017A000005741524E494E473A206D6F64656C2098
:1017B0004E4F5420666F756E6420696E20687064A9
:1017C00069722E696E69210A00436F756C64206E20
:1017D0006F7420616C6C6F63617465205052494E68
:1017E000544552207374727563747572650A00757E
:1017F0006D6F756E7420616464726573733A5B25F6
:10180000645D204E4F5420666F756E640A00202080
:101810002D20616464726573732069732074686538
:101820002064657669636520616464726573730A18
:10183000002020756D6F756E74206164647265732D
:10184000730A0055736167653A0A005573616765ED
:101850003A200A006D6F756E740A202020202064E3
:101860006973706C6179732061206C697374206F87
:1018700066206D6F756E7465642064726976657339
:10188000206F6E6520706572206C696E650A6D6FE1
:10189000756E7420414D49474F7C53533830206D4D
:1018A0006F64656C20616464726573732066696C33
:1018B000650A20202020204578616D706C653A20F3
:1018C0006D6F756E742039313231202036202F61D2
:1018D0006D69676F362E6C69660A202020202045CE
:1018E00078616D706C653A206D6F756E742039315A
:1018F0003334442032202F616D69676F322E6C695A
:10190000660A20202020204E6F74653A2064726998
:101910007665206D6F64656C206D757374206578D5
:1019200069737420696E2068706469722E696E69CB
:10193000205B6472697665696E666F5D20736563AE
:1019400074696F6E0A6D6F756E74205052494E54F3
:10195000455220616464726573730A202020202040
:101960004578616D706C653A206D6F756E742050AE
:1019700052494E54455220350A756D6F756E74206C
:10198000616464726573730A2020202020457861A9
:101990006D706C653A20756D6F756E7420360A0A2D
:1019A0006164647265737365730A202020446973EF
:1019B000706C617920616C6C206465766963652068
:1019C0004750494220627573206164647265737385
:1019D000657320616E64205050522076616C75658D
:1019E000730A636F6E666967205B2D765D0A20203F
:1019F00020446973706C61792063757272656E74CE
:101A00002064726976657320636F6E6669677572AC
:101A10006174696F6E0A2020202D762056657262EF
:101A20006F7365202D2073686F772066756C6C204E
:101A300064657461696C0A0A006472697665732072
:101A400020202068656C700A00414D49474F25648D
:101A500000666F726D6174696E6720257320256C56
:101A60006420736563746F72730A0043616E206E45
:101A70006F7420757365206E6F6E2032353620626C
:101A800079746520736563746F72730A00535338F9
:101A9000302D256400666F726D6174696E67202554
:101AA0007320256C6420736563746F72730A00433E
:101AB000616E206E6F7420757365206E6F6E2032BC
:101AC0003536206279746520736563746F72730AAA
:101AD00000446576696365206572726F7273202DAC
:101AE0002072656D6F76696E673A20005761726E7D
:101AF000696E673A2025732042595445535F50451B
:101B0000525F534543544F5220213D203235362CED
:101B10002041646A757374696E6720746F20323572
:101B2000360A005761726E696E673A20257320424B
:101B3000595445535F5045525F424C4F434B20210F
:101B40003D203235362C2041646A757374696E67A6
:101B500020746F203235360A0041646472657373F5
:101B60002028256429206F7574206F662072616EAD
:101B700067650A005741524E494E473A206D6F64DF
:101B8000656C204E4F5420666F756E6420696E2020
:101B900068706469722E696E69210A0068706469F0
:101BA0007220696E76616C69642074797065202D8D
:101BB000204E4F5420414D49474F206F66205353CC
:101BC00038300A00616C6C6F635F646576696365C9
:101BD0003A20696E76616C696420747970653A2583
:101BE000643A25730A00616C6C6F635F64657669A3
:101BF00063653A20446576696365207461626C654B
:101C00002069732066756C6C0A007365745F61638C
:101C1000746976655F6465766963653A2825642929
:101C200020696E76616C696420747970653A256408
:101C30003A25730A007365745F6163746976655F42
:101C40006465766963653A20696E6465783A202533
:101C50006420747970653A25643A25732C20737476
:101C6000617465203D3D204E554C4C0A00736574EF
:101C70005F6163746976655F6465766963653A2060
:101C8000696E64657820256420756E696E6974617B
:101C90006C697A656420747970653A25643A2573B5
:101CA0000A007365745F6163746976655F64657665
:101CB0006963653A20696E6465783A2564207479B1
:101CC00070653A25643A25732C20646576203D3D85
:101CD000204E554C4C0A007365745F6163746976DD
:101CE000655F6465766963653A20696E6465783A14
:101CF000256420616464726573733A20253032581C
:101D000048206F7574206F662072616E67650A00E7
:101D10007365745F6163746976655F646576696332
:101D2000653A28256429206F7574206F66207261DA
:101D30006E67650A000A000A002020202023204246
:101D40004C4F434B53203D20256C640A0020202338
:101D500020485038352042415349432041444452A1
:101D6000455353203A44372564300A00414D4947D2
:101D70004F2025730A00202020202320424C4F436F
:101D80004B53203D20256C640A002020232048501E
:101D9000383520424153494320414444524553532E
:101DA000203A44372564300A0053533830202573D5
:101DB0000A0043757272656E7420436F6E666967C0
:101DC00075726174696F6E2053657474696E6773A0
:101DD0000A000A000A005052494E5445520A004176
:101DE0004D49474F2025730A00535338302025733F
:101DF0000A004465766963652041646472657373A3
:101E000065730A00526561645F436F6E6669673A85
:101E1000202A2A2A2A2A2A206572726F727328259C
:101E20006429202A2A2A2A2A2A0A00526561645F24
:101E3000436F6E6669673A2072656164282564297C
:101E4000206C696E65730A004D697373696E672053
:101E5000454E442073746174656D656E74206174C1
:101E6000206C696E653A25640A00556E6578706568
:101E7000637465642053544154453A2025732C20E3
:101E80006174206C696E653A25640A00556E657848
:101E900070656374656420414D49474F2047454D47
:101EA0004554525920746F6B656E3A2025732C206F
:101EB0006174206C696E653A25640A00556E657818
:101EC00070656374656420414D49474F20434F4E10
:101ED00046494720746F6B656E3A2025732C20614C
:101EE00074206C696E653A25640A00556E657870D9
:101EF00065637465642048454144455220434F4E14
:101F000046494720746F6B656E3A2025732C20611B
:101F100074206C696E653A25640A00556E657870A8
:101F2000656374656420414D49474F2053544152C5
:101F30005420746F6B656E3A2025732C20617420D9
:101F40006C696E653A25640A00556E657870656344
:101F5000746564205353383020564F4C554D4520FE
:101F6000746F6B656E3A2025732C206174206C6948
:101F70006E653A25640A00556E6578706563746510
:101F800064205353383020554E495420746F6B658C
:101F90006E3A2025732C206174206C696E653A2599
:101FA000640A00556E6578706563746564205353E8
:101FB000383020434F4E54524F4C4C455220746F92
:101FC0006B656E3A2025732C206174206C696E65F8
:101FD0003A25640A00556E657870656374656420FF
:101FE0005353383020434F4E46494720746F6B653A
:101FF0006E3A2025732C206174206C696E653A2539
:10200000640A00556E657870656374656420535387
:10201000383020434F4E46494720746F6B656E3A07
:102020002025732C206174206C696E653A25640A42
:1020300000556E657870656374656420535338305D
:1020400020535441525420746F6B656E3A202573AF
:102050002C206174206C696E653A25640A00556E07
:102060006578706563746564205052494E544552DA
:1020700020434F4E46494720746F6B656E3A2025CA
:10208000732C206174206C696E653A25640A0055D2
:102090006E6578706563746564205052494E54458E
:1020A0005220746F6B656E3A2025732C206174206A
:1020B0006C696E653A25640A00556E6578706563D3
:1020C00074656420746F6B656E3A2025732C2061F3
:1020D00074206C696E653A25640A00556E657870E7
:1020E000656374656420746F6B656E3A2025732C8C
:1020F000206174206C696E653A25640A005265613E
:10210000645F436F6E6669673A206F70656E28255D
:102110007329206661696C65640A005265616469AF
:102120006E673A2025730A0025730A00252D323583
:1021300073203D2025730A00252D323573203D2064
:1021400025386C78482028256C64290A004D6F6476
:10215000656C3A202573204E4F5420666F756E646F
:1021600020696E2068706469722E696E690A004D7C
:102170006F64656C3A20257320666F756E64206904
:102180006E2068706469722E696E690A002573207A
:1021900025730A004572726F723A20687064697222
:1021A0002E696E69206E6F7420666F756E64210AE9
:1021B000005B5353383020556E6B6E6F776E205333
:1021C000433A2025303258482C206C697374656E70
:1021D0003A25303258482C2074616C6B3A253032E5
:1021E00058485D0A005B5353383020534320556EE6
:1021F0006B6E6F776E3A2025303258482C206C6910
:102200007374656E3A25303258482C2074616C6BBB
:102210003A25303258485D0A005B53533830205419
:1022200072616E73706172656E745D0A005B416D00
:1022300069676F20436C6561725D0A005B535338B8
:1022400030205265706F72742053746174655D0A3A
:10225000005B5353303020457865637574652053B7
:10226000746174655D0A005B5353383020436F6DB1
:102270006D616E642053746174655D0A005B475044
:102280004942204572726F722052657475726E20D9
:102290002D205772697465204552524F525D0A00D5
:1022A0005B416D69676F20436C6561725D0A005B1D
:1022B000475049422052656164204572726F725DD9
:1022C0000A005B53533830205344435D0A005B538C
:1022D00053383020717374617420253032585D0A90
:1022E000005B535338302071737461742073656ED2
:1022F00064204641494C45445D0A005B53533830E5
:10230000205365656B3A2530386C58485D0A005B90
:1023100053533830205365656B204F564552464C19
:102320004F57206174202530386C58485D0A005B97
:1023300053533830205472616E73706172656E74DD
:1023400020436F6D6D616E642C204572726F722038
:1023500061742028256429206F662028256429209F
:102360004F5020436F6465735D0A005B53533830F0
:1023700020496E76616C6964204F5020436F64651C
:1023800020282530325848295D0A005B53533830E5
:102390002043616E63656C20282564295D0A005B1B
:1023A00053533830204368616E6E656C20496E640B
:1023B0006570656E64656E7420436C65617220287B
:1023C0002564295D0A005B535338302057726974C5
:1023D00065204C6F6F706261636B202D20544F44F9
:1023E0004F5D0A005B535338302052656164204CC6
:1023F0006F6F706261636B202D20544F444F5D0AF4
:10240000005B535338302048502D494220506172B0
:1024100069747920436865636B696E67202D205469
:102420004F444F5D0A005B47504942206275666623
:102430006572204F564552464C4F57215D0A005B4E
:10244000475049422052656164204552524F525DC7
:102450000A005B53533830204578656375746520F6
:10246000436F6D6D616E642C204572726F722061D6
:10247000742028256429206F662028256429204F90
:102480005020436F6465735D0A005B5353383020FE
:10249000496E76616C6964204F5020436F646520FB
:1024A000282530325848295D0A005B5353383020C4
:1024B000496E69746961746520446961676E6F7300
:1024C000746963202D20544F444F5D0A005B5353C1
:1024D000383020526571756573742053746174755A
:1024E000735D0A005B5353383020446F6F72204C89
:1024F0006F636B202D20544F444F5D0A005B535394
:10250000383020446F6F7220556E4C6F636B202DF6
:1025100020544F444F5D0A005B53533830205365BD
:102520007420537461747573204D61736B202D207A
:10253000544F444F5D0A005B5353383020496E6955
:102540007469616C697A65204D6564696120544FD6
:10255000444F5D0A005B5353383020446573637207
:102560006962655D0A005B535338302056616C69BF
:1025700064617465204B6579202D20544F444F5D74
:102580000A005B535338302052656C6561736520D7
:1025900044656E696564204E4F2D4F505D0A005BA7
:1025A000535338302052656C65617365204E4F2D52
:1025B0004F505D0A005B53533830204C6F63617499
:1025C0006520616E6420566572696679202D2054FD
:1025D0004F444F5D0A005B535338302053657420DD
:1025E00052657475726E2041646472657373696EAE
:1025F00067202D20544F444F5D0A005B5353383001
:10260000205365742052656C65617365204E4F2DB3
:102610004F505D0A005B535338302053657420528D
:102620005053204E4F2D4F505D0A005B53533830AE
:10263000204E4F2D4F505D0A005B535338302053CE
:102640006574204C656E6774683A282530386C587C
:1026500048295D0A005B535338302053657420418C
:102660006464726573733A282530386C5848295D64
:102670000A005B53533830204C6F636174652061EE
:102680006E642057726974655D0A005B535338307D
:10269000204C6F6361746520616E642052656164D3
:1026A0005D0A005B535338302053657420566F6CBD
:1026B000756D653A20282564295D0A005B535338FF
:1026C000302053657420556E69743A282564295D5D
:1026D0000A005B4750494220627566666572204F6A
:1026E000564552464C4F57215D0A005B53533830D4
:1026F00020436F6D6D616E64205374617465204773
:102700005049422052656164204552524F525D0A41
:10271000005B5353383020566F6C756D653A2564F5
:1027200020696E76616C69645D0A005B53533830D2
:1027300020554E49543A256420696E76616C69646F
:102740005D0A005B535338302044657363726962DD
:102750006520566F6C756D65204641494C45445D5A
:102760000A005B53533830204465736372696265B5
:1027700020556E6974204641494C45445D0A005B12
:102780005353383020446573637269626520436F28
:102790006E74726F6C6C6572204641494C45445DA5
:1027A0000A005B5353383020446573637269626575
:1027B0005D0A005B535338302053656E64205374B8
:1027C00061747573204641494C45445D0A005B5372
:1027D0005338302053656E64205374617475735D93
:1027E0000A002020202025643A25730A0025733A28
:1027F0000A005B53533830204C6F6361746520616D
:102800006E642057726974652057726F7465205426
:102810006F74616C28256C7848295D0A005B5353FE
:102820003830204C6F6361746520616E642057728C
:1028300069746520444944204E4F542046494E490E
:1028400053485D0A005B53533830204C6F6361740A
:102850006520616E642057726974652077726F74A9
:1028600065282530325848295D0A005B4469736B3E
:10287000205772697465204572726F725D0A005B41
:10288000475049422052656164204572726F725D03
:102890000A005B53533830204C6F636174652061CC
:1028A0006E64205772697465206174202530386C1D
:1028B000584828256C5848295D0A005B5353383026
:1028C00020427566666572656420526561642054B5
:1028D0006F74616C28256C5848292062797465737F
:1028E0005D0A005B53533830204275666665726539
:1028F00064205265616420444944204E4F54204670
:10290000494E4953485D0A005B53533830204750C5
:102910004942205772697465204572726F725D0A70
:10292000005B53533830204469736B2052656164F7
:10293000204572726F725D0A005B53533830204439
:1029400069736B20526561642025303258482062DB
:10295000797465735D0A005B53533830204C6F63A4
:1029600061746520616E6420526561642061742029
:102970002530386C584828256C5848295D0A005B7A
:102980005353383020455845432073746174653A79
:102990002564206572726F725D0A005B5353383094
:1029A00020253032584820494E49545D0A005B4189
:1029B0004D49474F204578656375746520526571B0
:1029C00075657374204C6F676963616C2041646442
:1029D000726573735D0A005B414D49474F2045782E
:1029E00069637574652052657175657374205374DD
:1029F0006174757320556E62756666657265645D97
:102A00000A005B414D49474F204578656375746501
:102A100020526571756573742053746174757320E9
:102A200042756666657265645D0A005B414D4947A3
:102A30004F20457865637574652057726974652009
:102A400042756666657265645D0A005B414D494783
:102A50004F204578656375746520496E69746961B6
:102A60006C697A655D0A005B414D49474F204578A6
:102A7000656375746520577269746520556E62755B
:102A80006666657265645D0A005B414D49474F208B
:102A9000457865637574652052656164204275668A
:102AA00066657265645D0A005B414D49474F20458C
:102AB000786563757465205265616420556E627532
:102AC0006666657265645D0A005B414D49474F204B
:102AD0004578656375746520436F6C64204C6F6145
:102AE0006420526561645D0A005B414D49474F2097
:102AF00045786563757465282530325848293A2031
:102B00006C697374656E3A25303258482C207461B4
:102B10006C6B3A25303258485D0A005B414D49479D
:102B20004F20466F726D61745D0A005B414D4947ED
:102B30004F20526561642042756666657265642047
:102B4000436F6D6D616E645D0A005B414D49474F97
:102B500020526571756573742053746174757320A8
:102B6000556E627566666572656420436F6D6D6152
:102B70006E645D0A005B414D49474F20577269748E
:102B80006520427566666572656420436F6D6D6190
:102B90006E645D0A005B414D49474F205265717577
:102BA000657374204C6F676963616C204164647263
:102BB00065737320436F6D6D616E645D0A005B41E8
:102BC0004D49474F20496E697469616C697A652087
:102BD000436F6D6D616E645D0A005B414D49474F07
:102BE00020577269746520556E62756666657265F8
:102BF0006420436F6D6D616E645D0A005B414D49F9
:102C0000474F205665726966795D0A005B414D4900
:102C1000474F205265616420556E62756666657225
:102C2000656420436F6D6D616E645D0A005B414DAC
:102C300049474F20526571756573742053746174F0
:102C4000757320427566666572656420436F6D6DAD
:102C5000616E645D0A005B414D49474F20536565D5
:102C60006B206C656E3D365D0A005B414D49474FF8
:102C7000205365656B206C656E3D355D0A005B41D8
:102C80004D49474F20436F6C64204C6F6164205264
:102C900065616420436F6D6D616E645D0A005B4128
:102CA0004D49474F20436F6D6D616E64282530326A
:102CB0005848293A20475049422072656164206291
:102CC000797465733A25303258485D0A005B414D8E
:102CD00049474F20436F6D6D616E643A47504942DA
:102CE0002072656164206572726F725D0A005B41DB
:102CF0004D49474F20436F6D6D616E643A475049AF
:102D0000422072656164206572726F725D0A005BB9
:102D1000414D49474F5F436F6D6D616E643A475057
:102D20004942207772697465206572726F725D0A1C
:102D3000005B414D49474F20436F6D6D616E6428C4
:102D40002530325848293A206C697374656E3A25EB
:102D5000303258482C2074616C6B3A253032584818
:102D60005D0A005B45202020416D69676F20455258
:102D7000524F52207365636F6E646172793A2025F9
:102D8000303258482C2073746174653A25303258BB
:102D9000482C206C697374656E696E673A25303211
:102DA00058482C2074616C6B696E673A2530325834
:102DB000485D0A005B554E5420416D69676F205491
:102DC0004F444F207365636F6E646172793A2025BA
:102DD000303258482C2073746174653A253032586B
:102DE000482C206C697374656E696E673A253032C1
:102DF00058482C2074616C6B696E673A25303258E4
:102E0000485D0A005B54202020416D69676F2054A3
:102E10004F444F207365636F6E646172793A202569
:102E2000303258482C2073746174653A253032581A
:102E3000482C206C697374656E696E673A25303270
:102E400058482C2074616C6B696E673A2530325893
:102E5000485D0A005B4C202020416D69676F20545B
:102E60004F444F207365636F6E646172793A202519
:102E7000303258482C2073746174653A25303258CA
:102E8000482C206C697374656E696E673A25303220
:102E900058482C2074616C6B696E673A2530325843
:102EA000485D0A005B5520416D69676F20544F44AF
:102EB0004F207365636F6E646172793A20253032FA
:102EC00058482C2073746174653A25303258482C68
:102ED000206F70636F64653A25303258482C206C3F
:102EE000656E3A2533642C206C697374656E696E67
:102EF000673A25303258482C2074616C6B696E67D4
:102F00003A25303258485D0A005B554E5420416DD9
:102F100069676F20544F444F207365636F6E64611F
:102F200072793A2025303258482C207374617465C8
:102F30003A25303258482C206F70636F64653A250B
:102F4000303258482C206C656E3A2533642C206C46
:102F5000697374656E696E673A25303258482C2063
:102F600074616C6B696E673A25303258485D0A00AF
:102F70005B54202020416D69676F20544F444F20DF
:102F80007365636F6E646172793A202530325848F8
:102F90002C2073746174653A25303258482C206FA8
:102FA00070636F64653A25303258482C206C656E2A
:102FB0003A2533642C206C697374656E696E673AC8
:102FC00025303258482C2074616C6B696E673A2545
:102FD000303258485D0A005B4C202020416D696703
:102FE0006F20544F444F207365636F6E6461727934
:102FF0003A2025303258482C2073746174653A2584
:10300000303258482C206F70636F64653A25303237
:1030100058482C206C656E3A2533642C206C6973FB
:1030200074656E696E673A25303258482C20746199
:103030006C6B696E673A25303258485D0A005B4117
:103040004D49474F20436C6561725D0A005B4453F4
:103050004A2025303258485D0A005B41494D474FB0
:103060003A2044534A2073656E64206661696C653A
:10307000645D0A005B414D49474F20577269746592
:10308000206469736B207772697465206572726F52
:10309000725D0A005B414D49474F20577269746564
:1030A00020475049422072656164206572726F72D8
:1030B0005D0A00414D49474F732D3E73746174653D
:1030C0003A25640A005B414D49474F204750494229
:1030D000207772697465206572726F725D0A0041B3
:1030E0004D49474F732D3E73746174653A25640AE8
:1030F000005B414D49474F20466F726D617420441B
:103100006F6E655D0A005B414D49474F20666F72E7
:103110006D61745D0A005B414D49474F2025732C5A
:1031200020503A2530386C78482C20553A256420B8
:10313000433A256420483A256420533A25645D0AC1
:10314000005B414D49474F20766572696679205092
:103150003A2530386C58482C20736563746F72734D
:103160003A25303458485D0A005B414D49474F20AD
:10317000257320706F73204F564552464C4F575D54
:103180000A005B414D49474F204750494220777222
:10319000697465206572726F725D0A005B414D490A
:1031A000474F2073656E64207374617475735D0A94
:1031B000005B414D49474F20475049422077726993
:1031C0007465206572726F725D0A005B414D4947FC
:1031D0004F2073656E64206C6F676963616C20615A
:1031E0006464726573735D0A005B414D49474F200B
:1031F00072657175657374207374617475735D0A9B
:10320000005B5343205052494E5445522054616C48
:103210006B3A2025303258485D0A005B53432050FA
:1032200052494E544552204C697374656E3A2025BC
:10323000303258485D0A002530386C640D007772D2
:10324000697465206661696C65643A2077616E74A3
:1032500065642025642C20676F743A25640A000A8F
:10326000444F4E453A202530386C640A004552528E
:103270004F522064757272696E6720777269746547
:103280000A0065786974696E672E2E2E0A00436104
:1032900070747572696E6720706C6F7420746F3A09
:1032A00025730A002F706C6F742D253032642573DE
:1032B000253034642D253032642530326425303297
:1032C000642E706C740009466F726D617474696E5F
:1032D000673A2077726F746520256C64207365638C
:1032E000746F72730A006C69665F637265617465FE
:1032F0005F696D6167653A20736563746F727320EF
:10330000697320300A006C69665F63726561746579
:103310005F696D6167653A20646972736563746F94
:10332000727320697320300A006C69665F6372658E
:103330006174655F696D6167653A206C69666C618F
:1033400062656C20697320656D7074790A006C6920
:10335000665F6372656174655F696D6167653A2078
:103360006C6966696D6167656E616D652069732062
:10337000656D7074790A0072656E616D65643A20DE
:103380002531307320746F20253130730A006C6949
:10339000665F72656E616D653A5B25735D206C6971
:1033A00066206E616D653A5B25735D206E6F7420DB
:1033B000666F756E640A006C69665F72656E616D3A
:1033C000655F66696C653A206E6577206C69666E2C
:1033D000616D6520636F6E7461696E7320626164F4
:1033E00020636861726163746572730A006C696658
:1033F0005F72656E616D655F66696C653A206E65CA
:1034000077206C69666E616D6520697320656D70EB
:1034100074790A006C69665F72656E616D655F66DE
:10342000696C653A206F6C64206C69666E616D65CD
:1034300020697320656D7074790A006C69665F722B
:10344000656E616D655F66696C653A206C69666979
:103450006D6167656E616D6520697320656D70745F
:10346000790A0044656C657465643A2025313073CF
:103470000A004C494620696D6167653A5B25735DBA
:10348000206C6966206E616D653A5B25735D206E08
:103490006F7420666F756E640A004C494620696D32
:1034A0006167653A5B25735D2C204C4946206E614F
:1034B0006D653A5B25735D0A006C69665F64656CD7
:1034C0005F66696C653A206C69666E616D6520693E
:1034D0007320656D7074790A006C69665F64656C51
:1034E0005F66696C653A206C6966696D6167656ED7
:1034F000616D6520697320656D7074790A000957E4
:10350000726F74653A2025386C640A000957726F2F
:1035100074653A2025386C640D004C494620696D6D
:103520006167653A5B25735D2C206E6F7420656E54
:103530006F756768206672656520737061636520CA
:10354000666F723A5B25735D0A0046696C65206E92
:103550006F7420666F756E643A25730A004C494695
:1035600020696D6167653A5B25735D2C204C494687
:10357000206E616D653A5B25735D2C2075736572F5
:103580002066696C653A5B25735D0A006C69665F4D
:103590006164643A207573657266696C652069734D
:1035A00020656D7074790A006C69665F6164643AC5
:1035B000206C69666E616D6520697320656D70743D
:1035C000790A006C69665F6164643A206C696669B7
:1035D0006D6167656E616D6520697320656D7074DE
:1035E000790A000957726F74653A2025386C640AAD
:1035F000000957726F74653A2025386C640D0046D7
:10360000696C65206E6F7420666F756E643A257301
:103610000A004C494620696D616765206E6F742011
:10362000666F756E643A25730A000957726F746588
:103630003A2025386C640A006C69665F657874729C
:103640006163745F653031305F61735F61736369BB
:10365000693A207772697465206572726F720A0028
:103660000957726F74653A2025386C640D006C69D7
:10367000665F657874726163745F653031305F6175
:10368000735F61736369693A207772697465206555
:1036900072726F720A006C69665F6578747261633A
:1036A000745F653031305F61735F61736369693A7C
:1036B00020756E657870656374656420636F6E74E1
:1036C000726F6C20627974653A5B25303258485DC0
:1036D0002040206F66667365743A2025386C782C1C
:1036E00020696E643A25303258480A006C69665F7A
:1036F000657874726163745F653031305F61735FE8
:1037000061736369693A20737472696E6720746FBC
:103710006F206269672073697A65203D2025640AFD
:103720000045787472616374696E673A2025730A84
:103730000046696C65202573206861732077726F7D
:103740006E6720747970653A5B25303458485D2087
:103750006578706563746564203078453031302E4B
:103760002E3078453031330A004C49462046696C8A
:1037700065206E6F7420666F756E643A25730A005B
:103780004C494620696D616765206E6F7420666FD5
:10379000756E643A25730A000957726F74653A2092
:1037A00025386C640A0046696C6520536563746F44
:1037B00072733A202020202025346C78480A004675
:1037C0006972737420536563746F723A20202020ED
:1037D0002025346C78480A00496E6465783A2020C8
:1037E000202020202020202020202534640A004E84
:1037F000616D653A202020202020202020202020DC
:10380000202025730A004E65772044697265637431
:103810006F727920496E666F726D6174696F6E2088
:1038200041465445522077726974650A004C4946F6
:1038300020696D6167653A5B25735D2C206E6F743E
:1038400020656E6F756768206672656520737061AC
:10385000636520666F723A5B25735D0A004C4946CA
:1038600020696D6167653A5B25735D2C204C494684
:10387000206E616D653A5B25735D2C2075736572F2
:103880002066696C653A5B25735D0A006C69665F4A
:103890006164645F61736369695F66696C655F61D8
:1038A000735F653031303A207573657266696C6597
:1038B000206E6F7420666F756E640A006C69665FB7
:1038C0006164645F61736369695F66696C655F61A8
:1038D000735F653031303A207573657266696C6567
:1038E00020697320656D7074790A006C69665F6188
:1038F00064645F61736369695F66696C655F617366
:103900005F653031303A206C69666E616D652069A3
:103910007320656D7074790A006C69665F61646418
:103920005F61736369695F66696C655F61735F6539
:103930003031303A206C6966696D6167656E616D22
:103940006520697320656D7074790A000957726F7C
:1039500074653A2025386C640D000957726F7465E0
:103960003A2025386C640D000957726F74653A204F
:1039700025386C640D004578706563746564207348
:103980006563746F7220626F756E6472792C206F3C
:1039900066667365743A25640A006C69665F653013
:1039A00031305F6461705F736563746F723A206574
:1039B0007870656374656420736563746F722062E8
:1039C0006F756E6472793A206F66667365743A2516
:1039D000640A006C69665F66696E645F66696C653F
:1039E0003A5B25735D206C69666C6162656C20745E
:1039F0006F6F206269670A006C69665F66696E6452
:103A00005F66696C653A5B25735D20696E76616CF3
:103A1000696420636861726163746572730A00256A
:103A2000386C64204672656520736563746F7273C9
:103A30000A0025386C6420557365642073656374CF
:103A40006F72730A0025386C6420446972202073F9
:103A50006563746F72730A0025386C642044697260
:103A6000202073746172740A0025386C64205075CC
:103A7000726765640A0025386C642046696C65735A
:103A80000A000A00252D3130732020253034586873
:103A900020202020202025386C586820202025391F
:103AA0006C642563202020202020253464202020E1
:103AB00025730A004C4946204469726563746F722D
:103AC000793A5B25735D207761726E696E67204677
:103AD000696C6542797465733A256C642061732062
:103AE000736563746F72733A256C6420213D2046C0
:103AF000696C65536563746F72733A256C640A0070
:103B00004E414D4520202020202020202054595077
:103B100045202020535441525420534543544F5282
:103B2000202020202020202053495A4520202020DA
:103B300052454353495A45202020444154450A00E8
:103B4000566F6C756D653A5B25735D2044617465D5
:103B50003A5B25735D0A006C69665F6F70656E5F26
:103B6000766F6C756D653A5B25735D206572726F5B
:103B700072206469726563746F727920636865632B
:103B80006B206661696C65640A006C69665F6F70C2
:103B9000656E5F766F6C756D653A5B25735D20654C
:103BA00072726F7220766F6C756D652076616C69CC
:103BB00064617465206661696C65640A006C69669D
:103BC0005F6F70656E5F766F6C756D653A5B2573C0
:103BD0005D206572726F72207265616420766F6C11
:103BE000756D6520686561646572206661696C65E4
:103BF000640A006C69665F6F70656E5F766F6C75E6
:103C00006D653A5B25735D206572726F7220766F09
:103C10006C756D65206865616465722061726561AF
:103C200020746F6F20736D616C6C3A5B256C645D02
:103C30000A006C69665F6E65776469723A20696E26
:103C40006465783A5B25645D20616464696E672011
:103C500061743A5B256C645D746F20707572676582
:103C6000642073706163653A5B256C645D207365E5
:103C700063746F72732C20667265653A5B256C64A1
:103C80005D0A006C69665F6E65776469723A206EE2
:103C90006F7420656E6F7567682066726565207346
:103CA000706163653A5B256C645D0A006C69665FF0
:103CB0006E65776469723A206E6F7420656E6F75F9
:103CC000676820667265652073706163653A5B257D
:103CD0006C645D20666F722073697A653A5B256C4F
:103CE000645D0A006C69665F7570646174655F6627
:103CF0007265653A5B25735D206572726F72207024
:103D0000726576696F7573207265636F7264206681
:103D1000696C652061726561206F7665726C617097
:103D2000732074686973206F6E653A5B25735D0A52
:103D3000006C69665F636865636B5F6469723A20F3
:103D40006572726F722C20696E6465783A25640A18
:103D5000006C69665F636865636B646972696E6451
:103D600065783A5B25735D2064697265636F72796B
:103D700020696E6465783A5B25645D206F757420F8
:103D80006F6620626F756E64730A000957726F74F4
:103D9000653A20256C640A000957726F74653A20F1
:103DA000256C640D000957726F74653A20256C64A8
:103DB0000D000957726F74653A20256C640D00433D
:103DC00072656174696E673A25732C204C61626577
:103DD0006C3A5B25735D2C204469726563746F7265
:103DE0007920537461727420256C642C20446972AC
:103DF0006563746F72792053697A653A20256C6423
:103E00002C2046696C6520536563746F72733A2584
:103E10006C640A004C4946204469726563746F7291
:103E2000793A5B25735D20696E76616C69642073F5
:103E30006563746F722073697A653A256C640A0051
:103E40004C4946204469726563746F72793A5B2508
:103E5000735D20696E76616C69642046696C6542A9
:103E600079746573203D3D20300A004C494620445A
:103E700069726563746F72793A5B25735D2077614F
:103E8000726E696E672046696C6542797465733A33
:103E9000256C6420617320736563746F72733A25B7
:103EA0006C64203C2046696C65536563746F727363
:103EB0003A256C640A004C49462044697265637473
:103EC0006F72793A5B25735D20696E76616C696407
:103ED0002046696C6542797465733A256C6420618B
:103EE0007320736563746F72733A256C64203E208F
:103EF00046696C65536563746F72733A256C640A26
:103F0000004C4946204469726563746F72793A5B6C
:103F100025735D20696E76616C696420566F6C75DF
:103F20006D65204E756D6265723A2558680A004CC1
:103F30004946204469726563746F72793A5B2573F0
:103F40005D20696E76616C696420656E64207365BE
:103F500063746F723A256C5868203E20746F7461E8
:103F60006C20736563746F72733A256C58680A002D
:103F70004C4946204469726563746F72793A5B25D7
:103F8000735D20696E76616C69642073746172740C
:103F900020736563746F723A256C5868203C206604
:103FA000696520617265612073746172743A256C71
:103FB00058680A004C4946204469726563746F7200
:103FC000793A5B25735D20696E76616C6964204E79
:103FD000616D650A004C494620566F6C756D652011
:103FE000696E76616C69642066696C6520737461C2
:103FF0007274203E20696D6167652073697A650A75
:10400000004C494620566F6C756D6520696E76616F
:104010006C6964204469726563746F7279205365BA
:1040200063746F7220436F756E74203C20310A00F8
:104030004C494620566F6C756D6520696E76616CD3
:10404000696420737461727420736563746F723A6B
:10405000256C640A004C494620566F6C756D6520CE
:10406000696E76616C69642062797465732061742D
:10407000206F66667365742032322632332073688F
:104080006F756C64206265207A65726F0A004C4916
:104090004620566F6C756D6520696E76616C69643B
:1040A000206279746573206174206F66667365742D
:1040B0002031342631352073686F756C6420626559
:1040C000207A65726F0A004C494620566572736902
:1040D0006F6E3A202530345848203E20310A004C7B
:1040E000494620566F6C756D6520696E76616C6906
:1040F000642053797374656D333030302049442027
:1041000028253034584829206578706563746564C3
:104110002031303030480A004C494620566F6C75CB
:104120006D6520696E76616C696420566F6C756D83
:1041300065204E616D65000A004449522046696C55
:104140006520446174653A2020202020202020250D
:10415000730A004449522046696C65207365637494
:104160006F722073697A653A20253858680A0044CE
:1041700049522046696C652062797465733A202043
:10418000202020202025386C58680A0044495220FD
:1041900046696C6520736563746F72733A202020E2
:1041A000202025386C58680A004449522046696C22
:1041B000652073746172743A20202020202020250D
:1041C000386C58680A004449522046696C6520568C
:1041D0006F6C756D65233A202020202025385868A3
:1041E0000A004449522046696C6520547970653A4A
:1041F0002020202020202020253858680A0044490B
:10420000522046696C65204E616D653A2020202061
:104210002020202025730A00564F4C2044617465ED
:104220003A2020202020202020202020202025731C
:104230000A00564F4C204C494656657273696F6EA2
:104240003A20202020202020253858680A00564F88
:104250004C20333030304C494669643A20202020CD
:1042600020202020253858680A00564F4C204469E9
:104270007220736563746F72733A202020202020AF
:1042800025386C58680A00564F4C204469722073D8
:10429000746172743A202020202020202025386C60
:1042A00058680A00564F4C204C494669643A202011
:1042B00020202020202020202020253858680A0097
:1042C000564F4C204C6162656C3A20202020202003
:1042D00020202020202025730A004C49462070759C
:1042E000726765643A202020202020202020202092
:1042F00025386C58680A004C49462066696C65731D
:104300003A20202020202020202020202025386C2A
:1043100058680A004C494620667265653A2020209C
:104320002020202020202020202025386C58680ABA
:10433000004C494620757365643A202020202020D7
:104340002020202020202025386C58680A004C4965
:10435000462066696C6520736563746F72733A20DA
:104360002020202025386C58680A004C49462066D9
:10437000696C6573746172743A20202020202020BB
:104380002025386C58680A004C49462062797465CB
:10439000733A202020202020202020202020253893
:1043A0006C58680A004C494620736563746F7273D9
:1043B0003A2020202020202020202025386C5868FA
:1043C0000A004C4946206E616D653A20202020206D
:1043D000202020202020202025730A000A25730A8F
:1043E000006C69665F77726974653A205772697408
:1043F000653A5B25735D206F66667365743A5B256D
:104400006C645D2077726974653A5B25645D206534
:10441000787065637465643A5B25645D0A006C6955
:10442000665F726561643A20726561643A5B257308
:104430005D206F66667365743A5B256C645D2077FA
:10444000726974653A5B256C645D2065787065639C
:104450007465643A5B25645D0A006C69665F726529
:1044600061645F6D73673A202573205365656B2027
:104470006572726F7220256C640A006C69665F73E6
:104480007461743A2043616E277420737461743AC6
:1044900025730A006C69665F6F70656E3A20436130
:1044A0006E2774206F70656E3A5B25735D206D6FAB
:1044B00064653A5B25735D0A006C69665F667265C8
:1044C000653A204E554C4C20706F696E7465720AC7
:1044D000006C69665F63616C6C6F633A5B256C644A
:1044E0005D206E6F7420656E6F75676820667265FB
:1044F00065206D656D6F72790A00746430326C6985
:104500006620737570706F7274206E6F7420656EA4
:1045100061626C65640A004469736B3A20257320FC
:104520006E6F7420666F756E6420696E20687064AB
:1045300069722E696E690A006C6966206164642084
:104540006C6966696D616765206C69666E616D6531
:104550002066726F6D5F61736369695F66696C6520
:104560000A6C69662061646462696E206C696669C0
:104570006D616765206C69666E616D652066726F3E
:104580006D5F6C69665F66696C650A6C696620635D
:104590007265617465206C6966696D616765206C20
:1045A0006162656C206469726563746F72795F73B0
:1045B0006563746F727320736563746F72730A6CD2
:1045C0006966206372656174656469736B206C69E8
:1045D00066696D616765206C6162656C206D6F64F2
:1045E000656C0A6C69662064656C206C6966696D2F
:1045F000616765206E616D650A6C69662064697229
:10460000206C6966696D6167650A6C69662065780A
:104610007472616374206C6966696D616765206C92
:1046200069666E616D6520746F5F61736369695F50
:1046300066696C650A6C696620657874726163747A
:1046400062696E206C6966696D616765206C696678
:104650006E616D6520746F5F6C69665F66696C651D
:104660000A202020206578747261637473206120B1
:1046700066696C6520696E746F2061207369676C70
:10468000652066696C65204C494620696D616765E7
:104690000A6C69662072656E616D65206C69666979
:1046A0006D616765206F6C646C69666E616D652015
:1046B0006E65776C69666E616D650A557365202D50
:1046C000642020616674657220276C696627206B00
:1046D0006579776F726420746F20656E61626C65B6
:1046E000204C49462066696C6573797374656D204A
:1046F000646562756767696E670A0A006C6966209F
:1047000020202020202068656C700A00537461729C
:1047100074696E672047504942205441534B0A0048
:10472000493243204C4344206973204E4F5420614A
:1047300074746163686564210A00252D3136730045
:1047400064656275676C6576656C2020203D202568
:10475000303478480A0047504942205374617465E8
:1047600020696E697420646F6E650A004750494283
:104770002046696C6520696E697420646F6E650AF5
:1047800000475049422054696D657220696E697412
:1047900069616C697A65640A00475049422054692E
:1047A0006D65722053657475700A005072696E747D
:1047B000657220696E697469616C697A65640A0062
:1047C000475049422062757320696E697469616C53
:1047D000697A65640A004D4D4320696E69746961A8
:1047E0006C697A65640A004D4D4320696E6974698D
:1047F000616C697A696E672073746172740A005320
:10480000797374656D205461736B20496E746572A1
:104810007275707420526174653A20256C64204E64
:10482000616E6F205365636F6E64730A00436C6F33
:10483000636B20636C65617265640A00496E69741C
:1048400069616C697A696E67205254430A00496E47
:10485000697469616C697A696E67204932432062C4
:1048600075730A00496E697469616C697A696E676B
:1048700020535049206275730A002020204C617338
:104880007420757064617465642066696C653A2093
:1048900025730A00202020474954206C617374203E
:1048A0007075736865643A20202025730A002D3ED8
:1048B0002068747470733A2F2F6769746875622E5C
:1048C000636F6D2F6D61676F72652F687038356427
:1048D00069736B0A0020474E552076657273696FC5
:1048E0006E20330A002028432920323031342D3203
:1048F000303230206279204D696B6520476F7265D8
:104900000A0048503835204469736B20616E64207A
:1049100044657669636520456D756C61746F720AD4
:104920000052657175657374656420426175642019
:10493000526174653A20256C642C20416374756162
:104940006C3A20256C640A0043505520436C6F6319
:104950006B203D20256C750A0053746172740A0047
:10496000252D31367300535338303D256420414D99
:1049700049474F3D256400202020202020205B2532
:10498000735D0A0020202020417267756D656E748A
:1049900020636F756E74203D2025640A00496E7691
:1049A000616C696420436F6D6D616E640A00436FD2
:1049B0006D6D616E64204641494C45440A004F4B81
:1049C0000A00496E70757420646562756767696E68
:1049D000673A2025730A002020205B25735D0A00BA
:1049E000417267756D656E7420636F756E74203DDE
:1049F0002025640A000A3E006261636B6C69676887
:104A0000742030785252474742420A64697220202B
:104A100020202020206469726563746F7269657359
:104A2000206C6973740A696E7075742020202D20C3
:104A3000746F67676C6520696E7075742064656259
:104A4000756767696E670A6D656D20202020202DCF
:104A500020646973706C61792066726565206D658C
:104A60006D6F72790A72657365742020202D207233
:104A70006573657420656D756C61746F720A73651A
:104A80007464617465202D2073657420646174659D
:104A90000A74696D65202020202D20646973706C74
:104AA00061792063757272656E742074696D650A30
:104AB0000A0068656C7020202020202D2064697316
:104AC000706C61797320746869732068656C7020FC
:104AD0006D656E750A00252D31367300252D313632
:104AE0007300493243204C4344206973204E4F5495
:104AF000206174746163686564210A00252D313674
:104B00007300252D313673006C63645F7461736BC1
:104B100020696E6974206661696C65640A004932B7
:104B200043204C434420696E697469616C697A6101
:104B300074696F6E2073746172740A004932432085
:104B40004C4344206973204E4F5420617474616358
:104B5000686564210A0025732025326420253032DF
:104B6000643A253032643A25303264000A0020204D
:104B7000204C61737420757064617465642066698B
:104B80006C653A2025730A00202020474954206C88
:104B9000617374207075736865643A2020202573F2
:104BA0000A002D3E2068747470733A2F2F67697461
:104BB0006875622E636F6D2F6D61676F72652F6808
:104BC0007038356469736B0A0020474E552076654E
:104BD0007273696F6E20330A0020286329203230F7
:104BE00031342D32303230206279204D696B6520AE
:104BF000476F72650A0048503835204469736B204E
:104C0000616E642044657669636520456D756C61ED
:104C1000746F722077697468206275696C7420699A
:104C20006E204C4946207574696C69746965730A15
:104C3000000011241FBECFEFD0E4DEBFCDBF17E1CF
:104C4000A0E0B1E0E0E0F6ED01E00BBF02C00790AC
:104C50000D92A635B107D9F720E2A6E5B7E101C06C
:104C60001D92A833B207E1F70E9499E40C94FEEA82
:104C70000C940000E82FE695E695E69593E0E99F11
:104C8000F001112432A1282F277081E090E001C0AB
:104C9000880F2A95EAF7982F9095932392A391A1D4
:104CA000892B81A30895E82FE695E695E69593E094
:104CB000E99FF001112432A1282F277081E090E0B4
:104CC00001C0880F2A95EAF7932F982B92A391A100
:104CD000892B81A30895E7CF0895CF93ADB7BEB7D1
:104CE00017970FB6F894BEBF0FBEADBFC82F809107
:104CF0000A018C1799F08F3F89F02C2F30E0EDB727
:104D0000FEB73783268390E09583848382EC91E01D
:104D1000A0E081839283A3830E9430478C2FC3DF5E
:104D20008FEF80930A01ADB7BEB717960FB6F89410
:104D3000BEBF0FBEADBFCF910895CDC40895F5C4D9
:104D40000895A1E0B0E0E7EAF6E20C940FE789836A
:104D500061E070E0CE010196BED42196E2E00C94B1
:104D60002BE7CF92DF92EF92FF926B017C01842FB1
:104D70009ADF8FEF80930A01C701B6017FD480E0EC
:104D800090E03CD48FEFDDDFC0920601D0920701A6
:104D9000E0920801F0920901FF90EF90DF90CF9030
:104DA0000895CF92DF92EF92FF92CF93DF93ADB74A
:104DB000BEB717970FB6F894BEBF0FBEADBF6B015D
:104DC0007C01EA0180910A018F3F79F0EDB7FEB7CF
:104DD0004683D78390E09583848380EE91E0A0E0C2
:104DE00081839283A3830E94304780910601909132
:104DF0000701A0910801B09109018C159D05AE0530
:104E0000BF0521F0AE01C701B601ABDF8C2F32DF49
:104E1000C0930A01ADB7BEB717960FB6F894BEBFE0
:104E20000FBEADBFDF91CF91FF90EF90DF90CF909D
:104E30000895A1E0B0E0EFE1F7E20C940FE7898379
:104E400061E070E0CE0101965AD489812196E2E0BA
:104E50000C942BE7809356172C9A249A089510925D
:104E600056172C98249A0895A2E0B0E0EAE3F7E2FE
:104E70000C940FE720913420309135202115310515
:104E800011F428E330E2CE010196821B930B2296A7
:104E9000E2E00C942BE7A9E0B0E0E1E5F7E20C9446
:104EA0000FE7E2DF99878887EDB7FEB795838483A4
:104EB00087E093E0A0E081839283A3830E94304740
:104EC0008FEF90E4EDB7FEB79583848384EF92E093
:104ED000A0E081839283A3830E943047CE0108968D
:104EE000EDB7FEB79583848381EE92E0A0E08183E5
:104EF0009283A3830E94304788E390E2EDB7FEB728
:104F00009783868386E597E19583848383EC92E09B
:104F1000A0E081839283A3830E94304786E597E1D6
:104F2000EDB7FEB79783868380E091E09583848315
:104F300085EA92E0A0E081839283A3830E943047B8
:104F400080E090E0EDB7FEB79783868388E390E238
:104F50009583848387E892E0A0E081839283A38392
:104F60000E9430478091000190910101EDB7FEB79A
:104F700097838683809102019091030195838483B6
:104F800089E692E0A0E081839283A3830E94304768
:104F90008091342090913520EDB7FEB795838483BE
:104FA00085E592E0A0E081839283A3830E9430474D
:104FB0002996E2E00C942BE7EF92FF920F931F9358
:104FC000CF93DF93ADB7BEB717970FB6F894BEBFB8
:104FD0000FBEADBF8C017B010E94BCE9EC01892BA7
:104FE00071F4EDB7FEB7F782E682158304838AE396
:104FF00092E0A0E081839283A3830E943047CE0198
:10500000CDB7DEB72796E6E00C9427E70F931F9302
:10501000CF93DF9300D000D01F928C0161E070E04D
:105020000E94BCE9EC01892B61F4EDB7FEB7158352
:10503000048382E292E0A0E081839283A3830E94B2
:105040003047CE01CDB7DEB72596E4E00C9429E7D2
:10505000ADB7BEB717970FB6F894BEBF0FBEADBFC2
:10506000009711F120913420309135202115310520
:1050700011F428E330E240E28833940730F0281737
:10508000390718F00E946EEA0FC0EDB7FEB73783FC
:105090002683958384838DEF91E0A0E081839283C2
:1050A000A3830E943047F7DEADB7BEB717960FB6A1
:1050B000F894BEBF0FBEADBF08956436710581057B
:1050C000910558F06456710981099109E3EFF1E007
:1050D0003197F1F700C00000F0CF6A30710581050B
:1050E000910548F06A50710981099109F2E4FA9535
:1050F000F1F700C0F2CF611571058105910549F006
:10510000615071098109910926E02A95F1F700C0E3
:10511000F2CF0895611571058105910509F441C02B
:10512000E3EFF1E03197F1F700C00000E3EFF1E0C9
:105130003197F1F700C00000E3EFF1E03197F1F7AC
:1051400000C00000E3EFF1E03197F1F700C000008C
:10515000E3EFF1E03197F1F700C00000E3EFF1E099
:105160003197F1F700C00000E3EFF1E03197F1F77C
:1051700000C00000E3EFF1E03197F1F700C000005C
:10518000E3EFF1E03197F1F700C00000E3EFF1E069
:105190003197F1F700C00000615071098109910950
:1051A000B9CF089581110EC0F8941092FB19109296
:1051B000FA191092F7191092F8191092F919109221
:1051C000FC19789408954F925F926F927F928F921C
:1051D0009F92AF92BF92CF92DF92EF92FF92CF93C6
:1051E000DF935A01E9010E945AE82B013C0120E0BB
:1051F00030E040E051E40E9410E99B01AC0160E81E
:1052000076E988E99BE40E94C1E720E030E040E8CD
:105210005FE30E9458E70E9473E90E942EE86B0149
:105220007C01C11480E1D806E104F10458F481E066
:1052300090E0F50191838083812C912CA12C21E4B5
:10524000B22E31C0F5011182108220E030E040E83A
:1052500051E4C301B2010E9410E99B01AC0160E876
:1052600076E988E99BE40E94C1E720E030E040E86D
:105270005FE30E9458E70E9473E90E942EE86B01E9
:105280007C01812C912C90E8A92E91E4B92EC114B7
:10529000F0E1DF06E104F10430F0CC24CA948FE0A1
:1052A000D82EE12CF12CC701B6016F5F7F4F8F4FD5
:1052B0009F4F0E945AE8A50194010E9410E99B01AA
:1052C000AC0160E876E988E99BE40E94C1E70E94AE
:1052D0002EE8688379838A839B83C601DF91CF910F
:1052E000FF90EF90DF90CF90BF90AF909F908F9006
:1052F0007F906F905F904F900895A6E0B0E0E3E854
:10530000F9E20C940FE71E821D82811136C0CB0199
:10531000BA019E012F5F3F4FAE014B5F5F4F53DFDE
:10532000F8941092FB191092FA191092F719109232
:10533000F8191092F9191092FC197894F894589A67
:10534000599A5098519A28E92093C1002D813E81A5
:10535000232B19F022E02093C0009093C500809386
:10536000C400789466E77AE28BE89AE20E94E878D3
:1053700069817A818B819C8103C060E070E0CB0100
:105380002696E2E00C942BE7CF93DF9327E5829FEC
:10539000C0011124FC01E950F64E838194818035CF
:1053A000910584F4308121E0230F2083EF01C30FA6
:1053B000D11D6F776E83019694838383203528F007
:1053C000108203C0858181608583DF91CF9108952C
:1053D0001F920F920FB60F9211240BB60F922F93BC
:1053E0003F934F935F936F937F938F939F93AF936D
:1053F000BF93EF93FF936091C60080E0C5DFFF91FC
:10540000EF91BF91AF919F918F917F916F915F913C
:105410004F913F912F910F900BBE0F900FBE0F90A9
:105420001F901895811107C0F8948091FA199091F6
:10543000FB19789408958FEF9FEF0895811121C093
:1054400080E0F0DF18161906DCF7F894E091F819FF
:1054500091E09E0F9093F819F0E0E950F64E8681A6
:10546000903510F01092F8192091FA193091FB192B
:10547000215031093093FB192093FA19789490E068
:1054800008958FEF9FEF0895D9DF9927089561114F
:1054900009C02091C00025FFFCCF282F2F77209333
:1054A000C6000895613049F42091C80025FFFCCF63
:1054B000282F2F772093CE0008958FEF9FEF089528
:1054C000CF9381110FC0E0DFC82F60E090E0DFDFF5
:1054D000CD3029F460E08AE090E0D9DFCAE08C2F7B
:1054E00090E002C08FEF9FEFCF91089580E0E8CF6A
:1054F00008951F93CF93DF93EC01162FC8DFCA30B6
:10550000D10521F4612F8DE090E0C1DFCE01DF9164
:10551000CF911F910895CF93DF93EC0160E070E08D
:10552000E8DFCE01DF91CF9108957CCF0895CF922F
:10553000DF92EF92FF926B017C018091591790915D
:105540005A17A0915B17B0915C178C159D05AE059D
:10555000BF0509F44EC060E07DE281E391E0A70160
:1055600096010E9492E6203831054105510528F444
:10557000203431054105510530F08DB58E7F8DBD4C
:105580008CB582601BC08DB52032310541055105B7
:1055900028F081608DBD8CB582601FC0203131053F
:1055A0004105510510F08E7F06C0283031054105B8
:1055B000510540F081608DBD8CB58D7F8CBD8CB563
:1055C00081600EC0243031054105510510F08E7FF9
:1055D00001C081608DBD8CB58D7F8CBD8CB58E7FFB
:1055E0008CBDC0925917D0925A17E0925B17F09277
:1055F0005C17FF90EF90DF90CF900895CF93DF93EB
:1056000000D000D01F92EC018130910571F02CF494
:10561000892BC1F48CB5877F11C08230910561F070
:10562000039781F48CB5886002C08CB5877F8CBDF0
:105630008CB584608CBD12C08CB588608CBD8CB577
:105640008B7FF8CFEDB7FEB7D583C48384E193E0B9
:10565000A0E081839283A3830E943047D0935817A0
:10566000C0935717CDB7DEB72596E2E00C942BE731
:105670008EBD0DB407FEFDCF8EB50895CF92DF929B
:10568000EF92FF92CF93DF931F92CDB7DEB76B01FE
:105690007C011CBC2F9A279A2D9A259A26982C9823
:1056A000249A8CB580618CBD8CB580648CBD8DB521
:1056B00089838EB5898380E090E0A0DFC701B601C1
:1056C00036DF8FEFD5DF0F90DF91CF91FF90EF9016
:1056D000DF90CF9008950F931F93CF93DF938C01AA
:1056E000EB011C161D0634F4F80181918F01C0DF17
:1056F0002197F7CFDF91CF911F910F9108950F93CD
:105700001F93CF93DF938C01EB011C161D0644F40D
:10571000F8018081ADDFF80181938F012197F5CFEA
:10572000DF91CF911F910F9108950F931F93CF9306
:10573000DF938C01EB011C161D063CF48FEF98DF04
:10574000F80181938F012197F6CFDF91CF911F91BF
:105750000F9108952FB780914F1A811104C0809145
:10576000501A81110BC08091521A9091531A0097D0
:1057700029F001979093531A8093521A2FBF0895DE
:10578000ADB7BEB717970FB6F894BEBF0FBEADBF8B
:10579000282F082E000C330B803188F080E190E038
:1057A000EDB7FEB7978386833583248389E294E03F
:1057B000A0E081839283A3830E94304724C0F90133
:1057C000EE0FFF1FE25AF84E0190F081E02D309766
:1057D000D1F080859185892B39F4EDB7FEB73583FB
:1057E000248380E194E009C0868181110EC0EDB769
:1057F000FEB7358324838AEF93E0A0E08183928310
:10580000A3830E94304780E001C081E0ADB7BEB7FE
:1058100017960FB6F894BEBF0FBEADBF08958FB7F1
:10582000F894EEE5F7E11192119297E1EE37F9075E
:10583000D1F710927E1791E09093801710927F1706
:10584000109281178FBF0895EF92FF920F931F93CD
:10585000CF93DF93D82FC62F7A01022F1FB76AE0AC
:1058600070E081E090E0A8DBFC01892B89F0F894DE
:1058700011821282DD0FC170CD2BC0838AE090E0CF
:1058800095838483138206831782F186E0861FBF87
:10589000CF01CDB7DEB7E6E00C9427E7CF9300D079
:1058A0001F929B01AC01CFB760E07DE281E391E004
:1058B0000E9492E6DA01C9014097A109B109AC0141
:1058C000BD017695679557954795CA018827892B1D
:1058D00059F08EED93E0A0E0EDB7FEB7818392839F
:1058E000A3830E9430473AC0F8944093B8001092C6
:1058F0004F1A81E08093501A10927E178093801780
:10590000409A419A84E88093BC001092BA0080913A
:10591000B9008C7F8093B90080915D1781111DC003
:10592000EEE5F7E11192119227E1EE37F207D1F798
:1059300061E070E08AEA9BE20E94DE34019651F455
:1059400087EC93E0A0E0EDB7FEB781839283A38359
:105950000E94304781E080935D17CFBF0F900F907A
:105960000F90CF91089561E070E080E090E0A5DBBA
:1059700080914F1A882339F081E09091501A91114B
:1059800003C080E0089581E0089561E070E080E068
:1059900090E093DB80917E17882339F081E090912D
:1059A0008017911103C080E0089581E00895EEE42E
:1059B000FAE1128281E081838AE090E0958384831A
:1059C00085EA8093BC000895EF92FF920F931F9396
:1059D000CF93DF93FFB6F89410928017109281173F
:1059E00010927F17C0E0D0E0EE24E3940AE010E0CC
:1059F0008C2FC6DE8823D1F0EC2FEE0FFF0BE25A7E
:105A0000F84E0190F081E02DE1821282138217821C
:105A100015830483D11107C08AE0AEE4BAE1019096
:105A20000D928A95E1F7CF5FD1E0E2CFDD2391F0CF
:105A300081E89DE2909383178093821781E08093A1
:105A40007E17109280178091B9008C7F8093B900E7
:105A5000AEDF15C0109283171092821710927E1736
:105A600081E0809380178093501A10924F1A84E837
:105A70008093BC008091B9008C7F8093B900109214
:105A8000BA00FFBECDB7DEB7E6E00C9427E79FB7BC
:105A9000F894109283171092821731E030934F1AC6
:105AA0001092501A880F6170682B60934E1A1092F2
:105AB000511A2093541A1092551A5093571A409322
:105AC000561A8091B9008C7F8093B9001092BA0069
:105AD0009FBF6DDF48DF8823E9F381E09091511A81
