:100000000C94EA230C9409240C9409240C940924DC
:100010000C9409240C9409240C9409240C940924AC
:100020000C9409240C9409240C9409240C9409249C
:100030000C9409240C948B340C9409240C940924FA
:100040000C9409240C9409240C9409240C9409247C
:100050000C94542B0C9409240C9409240C9409241A
:100060000C9409240C9409240C94272E0C94092434
:100070000C9409240C9409240C9409240C9409244C
:100080000C9409240C9409240C9409245144A4458B
:1000900081447D457D45A445A445A445A445A4458A
:1000A000A445A445A44551444B44A445A445A445B6
:1000B000A4457B44A445A4455144A445A445A44576
:1000C000A445A445A445A445A445A44551449F4541
:1000D00081447D457D45A445A445A445A445A4454A
:1000E000A445A445A44551444B44A445A4459A4580
:1000F000A4457B44A445A4455144C645AD46BC45F2
:100100001A460146AD46AD46AD46AD46AD46AD4696
:10011000AD46AD46D045E445AD46AD46AD46AD46EF
:10012000B845AD46AD46E445AD46AD46AD46AD46F7
:10013000AD46AD46AD46AD46AD46C6454846BC4566
:100140001A460146AD46AD46AD46AD46AD46AD4656
:10015000AD46AD46D045E445AD46AD464846AD4614
:10016000B845AD46AD46E445C46ACE6AD66AD96A9A
:10017000DC6ADF6AE26AE56AE86A9E87C787EE871B
:100180000888118833884E885D88A58879888E8A8A
:10019000968A9B8ABF8AC98A138BDE8ADE8AD68AB0
:1001A00039985B99BB99299A3F9A6A9A4F9B0C9D03
:1001B0000C9D0C9D979BCB9B739C959CFB981699D3
:1001C00061BD20BD20BD20BD20BDE4BCEBBCF2BCA8
:1001D00002BD10BD09BD6E616E00696E6600004013
:1001E0007A10F35A00A0724E18090010A5D4E80046
:1001F00000E87648170000E40B54020000CA9A3B5E
:10020000000000E1F50500008096980000004042E3
:100210000F000000A0860100000010270000000071
:10022000E803000000006400000000000A00000075
:1002300000000100000000002C76D888DC674F0821
:1002400023DFC1DFAE59E1B1B796E5E3E453C63A27
:10025000E651997696E8E6C28426EB898C9B62ED9E
:10026000407C6FFCEFBC9C9F40F2BAA56FA5F49058
:10027000055A2AF75C936B6CF9676DC11BFCE0E4CF
:100280000D47FEF520E6B500D0ED902E0300943525
:1002900077050080841E080000204E0A000000C878
:1002A0000C333333330F986E12831141EF8D2114C9
:1002B000893BE65516CFFEE6DB18D1844B381BF799
:1002C0007C1D901DA4BBE424203284725E22810038
:1002D000C9F124ECA1E53D2763735F646973616232
:1002E0006C65207761733A2025642C2077616E74E9
:1002F0003A2025640A0063735F656E61626C652055
:100300007761733A2025642C2077616E743A20253A
:10031000640A0073616665667265653A20465245F7
:1003200045204552524F5220282575292C20746FA4
:10033000703A282575290A00736166656D616C6CD9
:100340006F6328256429206661696C6564210A0051
:100350007361666563616C6C6F632825642C25642A
:1003600029206661696C6564210A0020205F5F6254
:10037000726B76616C3A202020202535750A0020AA
:10038000204D616C6C6F632073746172742025352D
:10039000752020656E643A202535750A00202048B6
:1003A0006561703A2073746172743A202535752C3A
:1003B00020656E643A202535750A0020204461745A
:1003C00061202073746172743A202535752C206584
:1003D0006E643A202535750A0020204253532020B0
:1003E0002073746172743A202535752C20656E6413
:1003F0003A202535750A002020537461636B20462E
:100400007265653A202025750A00202053746163C7
:100410006B20546F703A20202025750A00467265C3
:10042000652052616D3A25750A00535049305F4D81
:100430006F64653A20496E76616C6964206D6F6403
:1004400065282564290A007274635F7265616420FF
:100450006572726F720A007274635F777269746595
:10046000206572726F720A007274635F696E6974DC
:10047000202077726974652065706F6368206661FB
:10048000696C65640A007274635F72756E202D205A
:100490007772697465207374617475732065727204
:1004A0006F720A007274635F72756E2072656164A8
:1004B00020737461747573206572726F720A0025FF
:1004C00073206578706563746564202564206172AB
:1004D00067756D656E7473206F6E6C7920676F74CD
:1004E0002025640A003D3D3D3D3D3D3D3D3D3D3DBA
:1004F0003D3D3D3D3D3D3D3D3D3D3D3D3D3D3D3D2C
:100500003D3D3D0A0054696D65727320656E616200
:100510006C65640A00436C6F636B20496E73746191
:100520006C6C65640A00436C6F636B207461736B61
:1005300020696E6974206661696C65640A00436CA9
:100540006F636B20496E69740A0054696D6572733C
:1005500020636F6E666967757265640A0054696D21
:1005600065727320696E69742063616C6C65640ADE
:10057000005B54696D653A25735D0A005B25732045
:1005800054696D653A25735D0A00256C642E25302B
:10059000396C64007365745F74696D6572733A20B9
:1005A0004E6F206D6F72652074696D657273210ADC
:1005B00000636C6B2074696D653A202020202573E0
:1005C0000A00636C6B207365636F6E64733A202559
:1005D0006C750A005254432072656164206661693B
:1005E0006C65640A007274632074696D653A20203A
:1005F000202025730A00727463207365636F6E6434
:10060000733A20256C750A007573652073657464F0
:1006100061746520636F6D6D616E6420746F20631B
:1006200068616E67652074696D650A007274632085
:1006300072656164206572726F72616674657220A2
:10064000696E69740A0072746320666F7263652054
:10065000696E6974206661696C65640A006174740E
:10066000656D7074696E672072746320696E697459
:100670000A0072746320756E696E6974696C697AB8
:1006800065640A0072746320666F72636520696E28
:100690006974206661696C65640A00696E76616CD4
:1006A0006964206D696E3A2025640A00696E76617E
:1006B0006C696420686F75723A2025640A00696E5F
:1006C00076616C6964206461793A2025640A006966
:1006D0006E76616C6964206D6F6E3A2025640A0045
:1006E000696E76616C696420796561723A2025646F
:1006F0000A00456E74657220646174652059595909
:1007000059204D4D2044442048483A4D4D3A5353CA
:10071000203E0025732025732025326420253032A9
:10072000643A253032643A2530326420253464003E
:1007300073656C656374206661696C6564210A0089
:10074000454E44204D4D4320494E49540A004D4DDD
:100750004320426C6F636B2053697A653A20256CA5
:10076000640A004D4D4320426C6F636B2053697ADD
:1007700065202D2072656164206661696C65640A7C
:10078000002C20436F646520706167653A202575F1
:100790000A004C464E20456E61626C6564005354FD
:1007A000415254204D4D4320494E49540A004D4D6D
:1007B000432054494D454F55540A004D4D43204365
:1007C0006C6F636B207461736B20696E6974206653
:1007D00061696C65640A000A0025732025752F2560
:1007E0003032752F2530327520253032753A25305C
:1007F00032752025396C7520257300666174667327
:100800005F66696C696E666F5F6C6973743A2065C8
:100810006D7074790A0025752066696C65732C20EB
:10082000256C752062797465732E0A257520666FB4
:100830006C646572732E0A256C75204B4220746FB0
:1008400074616C206469736B2073706163652E0A38
:10085000256C75204B4220617661696C61626C6524
:100860002E0A00566F6C756D6520532F4E20202088
:1008700020202020202020202020203D2025303432
:10088000582D253034580A00566F6C756D65206EF2
:10089000616D652020202020202020202020202085
:1008A0003D2025730A004461746120737461727481
:1008B00020286C62612920202020202020203D203B
:1008C000256C750A004449522073746172742028A3
:1008D0006C62612C636C7573746F7229203D2025E6
:1008E0006C750A0046415420737461727420286C40
:1008F0006261292020202020202020203D20256CFE
:10090000750A004E756D626572206F6620636C75A6
:1009100073746572732020202020203D20256C7583
:100920000A00536563746F72732F46415420202070
:10093000202020202020202020203D20256C750A0A
:1009400000526F6F742044495220656E747269655D
:100950007320202020202020203D2025750A004ED5
:10096000756D626572206F662046415473202020A9
:10097000202020202020203D2025750A0042797467
:1009800065732F436C7573746572202020202020BE
:1009900020202020203D20256C750A00464154204F
:1009A0007479706520202020202020202020202005
:1009B000202020203D2025730A0066617466732084
:1009C0007374617475733A25730A0072633D2575FB
:1009D0000A002C202531306C754B206279746573C8
:1009E00020667265650A002534752046696C6528A5
:1009F00073292C2531306C752062797465732074ED
:100A00006F74616C0A25347520446972287329005B
:100A10004C697374696E673A5B25735D0A003D3DEE
:100A20003D3D3D3D3D3D3D3D3D3D3D3D3D3D3D3DF6
:100A30003D3D3D3D3D3D3D3D3D3D3D3D0A00454E3D
:100A400044204D4D4320544553540A004D4D4320FE
:100A50004469726563746F7279204C6973740A001B
:100A60005354415254204D4D4320544553540A0091
:100A70003D3D3D3D3D3D3D3D3D3D3D3D3D3D3D3DA6
:100A80003D3D3D3D3D3D3D3D3D3D3D3D3D3D0A0006
:100A9000696E643A25642C617267633A25640A00C2
:100AA0004E6F74653A206661746673207465737462
:100AB00073204D5553542073746172742077697498
:100AC000682022666174667322206B6579776F7285
:100AD000640A66617466732068656C700A66617486
:100AE0006673206D6D635F746573740A6661746606
:100AF00073206D6D635F696E69740A6661746673F5
:100B0000206C73206469720A666174667320737462
:100B1000617475732066696C650A0A0066617466A3
:100B2000732068656C700A0025730A0025733A20EB
:100B300025730A005365656B206661696C65640006
:100B400066707574632073747265616D2D3E707587
:100B500074204E554C4C0A006667657463207374AC
:100B60007265616D2D3E676574204E554C4C0A00D0
:100B700046696C65733A2025640A006E616D653ABA
:100B80005B25735D20746F6F206C6F6E67207769D3
:100B900074682066756C6C20706174680A006F70F0
:100BA000656E646972206661696C65640A006C73C5
:100BB0003A2063616E6E6F742073746174205B25DC
:100BC000735D0A004C697374696E673A5B25735DE7
:100BD0000A006C733A2043616E27742067657420A5
:100BE00063757272656E74206469726563746F7286
:100BF000790A002573206E6F6E65206E6F6E65201A
:100C00002531326C642025732025730A0025730A70
:100C10000063616E206E6F7420737461743A2025D6
:100C2000730A000D004D6F72652E2E00256C752025
:100C3000627974657320636F706965642E0A00437E
:100C40006F706965643A202530386C640D00577206
:100C5000697465206572726F720A000A436F707959
:100C6000696E672E2E2E0A0043616E2774206F7006
:100C7000656E3A2025730A004372656174696E6778
:100C80002025730A0043616E2774206F70656E3AE9
:100C90002025730A004F70656E696E672025730A00
:100CA00000256C642062797465730A000A00436150
:100CB0006E2774206F70656E3A2025730A002573C5
:100CC0000A00706F736978207072656669782069B0
:100CD00073206F7074696F6E616C0A706F736978DE
:100CE000206361742066696C65205B2D705D0A70FD
:100CF0006F736978206364206469720A706F736926
:100D00007820636F70792066696C65312066696C44
:100D100065320A706F736978206C73206469722081
:100D20005B2D6C5D0A706F736978206D6B646972FE
:100D3000206469720A706F7369782070616765203A
:100D40004E4E0A706F736978207077640A706F7303
:100D5000697820726D2066696C650A706F736978B6
:100D600020726D646972206469720A706F736978A9
:100D70002072656E616D65206F6C64206E65770A08
:100D80000A00706F7369782068656C700A00436CA4
:100D90006F7365206572726F723A20005365656BE0
:100DA000206572726F723A2000577269746520650F
:100DB00072726F723A200052656164206572726FC0
:100DC000723A20004F70656E206572726F723A5BE6
:100DD00025735D20005B5050522044495341424CE2
:100DE0004520414C4C5D0A004750494220436C6FFE
:100DF000636B207461736B20696E6974206661692E
:100E00006C65640A005B677069625F77726974651C
:100E10005F7374722073656E742825642920657869
:100E2000706563746564282564295D0A00677069CC
:100E3000625F77726974655F7374723A2073697A5E
:100E400065203D20300A005B677069625F726561F2
:100E5000645F73747220726561642825642920655B
:100E600078706563746564282564295D0A0067707D
:100E700069625F726561645F73747228696E643A57
:100E80002564293A2041544E202530325848207597
:100E90006E65787065637465640A00677069625F87
:100EA000726561645F7374723A2073697A65203D7C
:100EB00020300A00204D5341202530325868002050
:100EC0004D544120253032586800204D4C4120259A
:100ED0003032586800202020202000253032582051
:100EE000256320003C4E5246443D25642C4E44412F
:100EF000563D25643E0A003C425553207761697493
:100F0000696E6720666F72204441563D3D313E0A4E
:100F1000003C4255532077616974696E6720666FA3
:100F200072204E4441433D3D313E0A003C42555300
:100F30002077616974696E6720666F72204E524631
:100F4000443D3D303E0A003C425553207761697470
:100F5000696E6720666F72204E5246443D3D3120D7
:100F60002626204E444143203D3D20303E0A003C91
:100F70004255532077616974696E6720666F7220ED
:100F80004441563D3D313E0A00677069625F756EAF
:100F9000726561643A206572726F722C2063616EB3
:100FA000206F6E6C792062652063616C6C656420D3
:100FB0006F6E6365210A005B4946432053454E54DA
:100FC0005D0A005B44505052206269743A25642CDB
:100FD000206D61736B3A25303258485D0A006770A6
:100FE00069625F64697361626C655F5050523A2058
:100FF000626974202564206F7574206F66207261A9
:101000006E67650A005B45505052206269743A254C
:10101000642C206D61736B3A25303258485D0A00AC
:10102000677069625F656E61626C655F5050523ACD
:1010300020626974202564206F7574206F662072A9
:10104000616E67650A005B47504942205354415422
:101050004520494E49545D0A005B475049422042B1
:1010600055535F494E49545D0A005B5052494E54F6
:10107000455220636C6F73655D0A005B5341202508
:10108000303258482C206C697374656E3A253032C2
:1010900058482C2074616C6B3A25303258485D0AF0
:1010A000005B534120253032584820414D49474F7D
:1010B0005D0A005B53412025303258482053533895
:1010C000305D0A005B54412025303258485D0A00EB
:1010D0005B5052494E544552204F50454E5D0A00D8
:1010E0005B5441202530325848205052494E5445D7
:1010F000525D0A005B544120253032584820414D52
:1011000049474F5D0A005B54412025303258482042
:10111000535338305D0A005B554E545D0A005B4CFA
:10112000412025303258485D0A005B4C4120253073
:10113000325848205052494E5445525D0A005B4C8B
:101140004120253032584820535338305D0A005B27
:101150004C4120253032584820414D49474F5D0AC7
:10116000000A005B554E4C5D0A005B485049422026
:1011700028253032584829206E6F742064656669CE
:101180006E65645D0A005B44434C5D0A005B53443A
:101190004320414D49474F5D0A005B534443205370
:1011A0005338305D0A005B5344435D0A005B535083
:1011B000445D0A005B5350455D0A005B505055206A
:1011C000756E737570706F727465645D0A005B5044
:1011D000504320756E737570706F727465645D0A2C
:1011E000005B4944454E5420556E69743A253032AF
:1011F00058483D25303458485D0A005B4944454E07
:101200005420556E69743A25303258483D253034A3
:101210005848204641494C45445D0A003C4D4544F0
:101220004941204D495353494E473E0A003C494EDF
:10123000544552525550543E0A003C4255533E0AC2
:10124000003C54494D454F55543E0A003C494643E5
:101250003E0A00436170747572696E6720436C6F5B
:101260007365640A00446F6E650A00657869746985
:101270006E672E2E2E0A00507265737320414E59F0
:10128000206B657920746F20657869740A00465573
:101290004C4C2047504942204255532068616E64AF
:1012A0007368616B65206C6F6767696E6720726534
:1012B000717565737465640A004361707475726951
:1012C0006E6720475049422042555320746F3A259B
:1012D000730A0043617264206973207772697465D0
:1012E0002070726F7465637465640A002573206FE3
:1012F00070656E206661696C7572650A00257320E1
:10130000686164202564206572726F72730A0064DC
:10131000656275673D25303458480A006770696218
:1013200020707265666978206973206F7074696FC8
:101330006E616C0A677069622061646472657373C0
:1013400065730A6770696220636F6E6669670A6712
:10135000706962206465627567204E0A6770696211
:1013600020656C61707365640A6770696220656CE2
:1013700061707365645F72657365740A6770696232
:10138000206966630A6770696220706C6F742066FA
:10139000696C656E616D652E7478740A6770696238
:1013A00020706C6F745F6563686F0A677069622094
:1013B0007461736B0A67706962207472616365207F
:1013C00066696C656E616D652E747874205B42553C
:1013D000535D0A0A0A00677069622068656C700ACA
:1013E000000A00414D49474F25640043616E206E5D
:1013F0006F7420757365206E6F6E203235362062F3
:1014000079746520736563746F72730A005353387F
:10141000302D25640043616E206E6F7420757365F6
:10142000206E6F6E203235362062797465207365C8
:1014300063746F72730A000A00454E440A000A0082
:10144000454E440A002020454E440A00414444527F
:10145000455353002020434F4E4649470A005052FF
:10146000494E5445520A002020454E440A0023208C
:10147000424C4F434B530043594C494E4445525301
:1014800000484541445300534543544F52535F5025
:1014900045525F545241434B0042595445535F50AB
:1014A00045525F534543544F5200202047454F4D0E
:1014B000455452590A002020454E440A0049440030
:1014C0002020434F4E4649470A002020454E440AFB
:1014D0000046494C45005050520041444452455347
:1014E000530020204845414445520A002020232033
:1014F00048503835204241534943204144445245E5
:101500005353203A44372564300A00414D49474F30
:101510002025730A002020454E440A002320424C17
:101520004F434B5300494E5445524C45415645009C
:101530004D41585F424C4F434B5F4E554D424552D3
:10154000004D41585F534543544F52004D41585F41
:1015500048454144004D41585F43594C494E44452C
:1015600052002020564F4C554D450A002020454E34
:10157000440A0052454D4F5641424C455F564F4C30
:10158000554D45530046495845445F564F4C554DBF
:101590004553004D4158494D554D5F494E544552B4
:1015A0004C45415645004143434553535F54494DD3
:1015B00045004F5054494D414C5F52455452595F7C
:1015C00054494D4500434F4E54494E554F55535F76
:1015D0005452414E534645525F5241544500424C8D
:1015E0004F434B5F54494D450042555253545F534E
:1015F000495A450042554646455245445F424C4F84
:10160000434B530042595445535F5045525F424C3F
:101610004F434B004445564943455F4E554D424567
:101620005200554E49545F54595045002020554EA4
:1016300049540A002020454E440A005459504500A0
:101640005452414E534645525F5241544500554E07
:101650004954535F494E5354414C4C45440020205B
:10166000434F4E54524F4C4C45520A002020454E99
:10167000440A0049440020204845414445520A009C
:101680002020454E440A0046494C45005050520027
:1016900041444452455353002020434F4E4649474E
:1016A0000A00202023204850383520424153494326
:1016B0002041444452455353203A44372564300A6C
:1016C00000535338302025730A0043757272656EDB
:1016D0007420436F6E66696775726174696F6E20FE
:1016E00053657474696E67730A000A0020205052B3
:1016F000494E5445525F4D5341203D2025303258CC
:10170000480A0020205052494E5445525F4D5441E2
:10171000203D2025303258480A0020205052494EA2
:101720005445525F4D4C41203D2025303258480AE7
:10173000002020414D49474F5F4D53412020203D1F
:101740002025303258480A002020414D49474F5F3C
:101750004D54412020203D2025303258480A002099
:1017600020414D49474F5F4D4C412020203D2025D1
:10177000303258480A002020535338305F4D5341CF
:10178000202020203D2025303258480A00202053B8
:101790005338305F4D5441202020203D20253032E9
:1017A00058480A002020535338305F4D4C412020C8
:1017B00020203D2025303258480A004C697374655A
:1017C0006E20616E642054616C6B204164647265AC
:1017D00073732053657474696E67730A0020202048
:1017E00020252D323573203D20222573220A00202A
:1017F000202020252D323573203D2025386C784857
:101800002028256C64290A00526561645F436F6E6D
:101810006669673A202A2A2A2A2A2A206572726F64
:10182000727328256429202A2A2A2A2A2A0A005281
:101830006561645F436F6E6669673A2072656164D3
:1018400028256429206C696E65730A004D697373DD
:10185000696E6720454E442073746174656D656ED2
:1018600074206174206C696E653A25640A004661D3
:1018700074616C20556E657870656374656420537F
:1018800054415445202564206174206C696E653A8A
:1018900025640A00556E657870656374656420413F
:1018A0004D49474F2047454D4554525920746F6B61
:1018B000656E3A2025732C206174206C696E653A40
:1018C00025640A00466174616C3A20414D49474FD6
:1018D0002042595445535F5045525F534543544F3E
:1018E00052203E203078313030302C207365742007
:1018F000746F20323536206174206C696E653A252C
:10190000640A00556E657870656374656420414DA6
:1019100049474F20434F4E46494720746F6B656ED1
:101920003A2025732C206174206C696E653A256419
:101930000A00556E6578706563746564204845419A
:1019400044455220434F4E46494720746F6B656EA5
:101950003A2025732C206174206C696E653A2564E9
:101960000A005761726E696E6720414D49474F20EA
:10197000414444524553533A202564203E20372C9D
:101980002064697361626C6564206174206C696EA7
:10199000653A25640A00466174616C20414D4947EF
:1019A0004F20414444524553533A202564203E2061
:1019B00033312064697361626C6564206174206CEA
:1019C000696E653A25640A00536B697070696E67C9
:1019D0002025732C206174206C696E653A25640A99
:1019E00000556E657870656374656420414D4947A4
:1019F0004F20535441525420746F6B656E3A20252A
:101A0000732C206174206C696E653A25640A005558
:101A10006E65787065637465642053533830205662
:101A20004F4C554D4520746F6B656E3A2025732CD5
:101A3000206174206C696E653A25640A00556E65F4
:101A400078706563746564205353383020554E496F
:101A50005420746F6B656E3A2025732C20617420BE
:101A60006C696E653A25640A00466174616C3A20BF
:101A7000535338302042555253545F53495A4520EE
:101A80003E20302C2073657420746F2031206174E7
:101A9000206C696E653A25640A00466174616C3A8F
:101AA00020535338302042554646455245445F4204
:101AB0004C4F434B53203E20312C207365742074CF
:101AC0006F2031206174206C696E653A25640A00CC
:101AD000466174616C3A2053533830204259544562
:101AE000535F5045525F424C4F434B203E2030786D
:101AF000313030302C2073657420746F20323536CD
:101B0000206174206C696E653A25640A00556E6523
:101B100078706563746564205353383020434F4EAA
:101B200054524F4C4C455220746F6B656E3A2025D1
:101B3000732C206174206C696E653A25640A005527
:101B40006E65787065637465642053533830204344
:101B50004F4E46494720746F6B656E3A2025732CB3
:101B6000206174206C696E653A25640A00556E65C3
:101B700078706563746564205353383020434F4E4A
:101B800046494720746F6B656E3A2025732C20619F
:101B900074206C696E653A25640A005761726E693B
:101BA0006E67205353383020505052203E2037204B
:101BB0006174206C696E653A25640A00466174613F
:101BC0006C20535338302041444452455353203EF7
:101BD000203331206174206C696E6520640A0055E1
:101BE0006E65787065637465642053533830205394
:101BF0005441525420746F6B656E3A2025732C202B
:101C00006174206C696E653A25640A00556E6578CA
:101C1000706563746564205052494E5445522043A8
:101C20004F4E46494720746F6B656E3A2025732CE2
:101C3000206174206C696E653A25640A00466174FF
:101C4000616C205052494E54455220414444524503
:101C50005353206F7574206F662072616E67653A0A
:101C600020256C642064697361626C65643A256444
:101C70000A00556E6578706563746564205052493A
:101C80004E54455220746F6B656E3A2025732C209C
:101C90006174206C696E653A25640A00556E65783A
:101CA00070656374656420535441525420746F6BA3
:101CB000656E3A2025732C206174206C696E653A3C
:101CC00025640A00536B697070696E672025732C58
:101CD000206174206C696E653A25640A0052656162
:101CE000645F436F6E6669673A206F70656E282582
:101CF0007329206661696C65640A005265616469D4
:101D00006E673A2025730A005761726E696E673AF2
:101D10002025732042595445535F5045525F534527
:101D200043544F5220213D203235362C2041646AE5
:101D3000757374696E6720746F203235360A0057E8
:101D400061726E696E673A2025732042595445537B
:101D50005F5045525F424C4F434B20213D2032356E
:101D6000362C2041646A757374696E6720746F2025
:101D70003235360A0068706469725F706172616D35
:101D8000657465727320696E76616C69642054595C
:101D900050450A00616C6C6F635F646576696365CA
:101DA0003A20696E76616C696420747970653A25B1
:101DB000643A25730A00616C6C6F635F64657669D1
:101DC00063653A20446576696365207461626C6579
:101DD0002069732066756C6C0A007365745F6163BB
:101DE000746976655F6465766963653A2825642958
:101DF00020696E76616C696420747970653A256437
:101E00003A25730A007365745F6163746976655F70
:101E10006465766963653A20696E6465783A202561
:101E20006420747970653A25643A25732C207374A4
:101E3000617465203D3D204E554C4C0A007365741D
:101E40005F6163746976655F6465766963653A208E
:101E5000696E64657820256420756E696E697461A9
:101E60006C697A656420747970653A25643A2573E3
:101E70000A007365745F6163746976655F64657693
:101E80006963653A20696E6465783A2564207479DF
:101E900070653A25643A25732C20646576203D3DB3
:101EA000204E554C4C0A007365745F61637469760B
:101EB000655F6465766963653A20696E6465783A42
:101EC000256420616464726573733A20253032584A
:101ED00048206F7574206F662072616E67650A0016
:101EE0007365745F6163746976655F646576696361
:101EF000653A28256429206F7574206F6620726109
:101F00006E67650A00466F756E64204D6F64656C80
:101F10003A2025730A0025732025730A0045727242
:101F20006F723A2068706469722E696E69206E6FF4
:101F30007420666F756E64210A005B53533830203D
:101F4000556E6B6E6F776E2053433A2025303258B2
:101F5000482C206C697374656E3A25303258482CD1
:101F60002074616C6B3A25303258485D0A005B532F
:101F700053383020534320556E6B6E6F776E3A2086
:101F800025303258482C206C697374656E3A2530C0
:101F90003258482C2074616C6B3A25303258485DB9
:101FA0000A005B53533830205472616E7370617253
:101FB000656E745D0A005B416D69676F20436C65F7
:101FC00061725D0A005B53533830205265706F7246
:101FD000742053746174655D0A005B535330302084
:101FE000457865637574652053746174655D0A0096
:101FF0005B5353383020436F6D6D616E64205374B2
:102000006174655D0A005B47504942204572726FFA
:10201000722052657475726E202D20577269746536
:10202000204552524F525D0A005B416D69676F2037
:10203000436C6561725D0A005B47504942205265FE
:102040006164204572726F725D0A005B53533830D1
:10205000205344435D0A005B53533830207173743E
:10206000617420253032585D0A005B5353383020AC
:1020700071737461742073656E64204641494C45E8
:10208000445D0A005B53533830205365656B3A2535
:1020900030386C58485D0A005B5353383020536524
:1020A000656B204F564552464C4F57206174202592
:1020B00030386C58485D0A005B53533830205472F6
:1020C000616E73706172656E7420436F6D6D616EC9
:1020D000642C204572726F72206174202825642957
:1020E000206F662028256429204F5020436F6465A7
:1020F000735D0A005B5353383020496E76616C691A
:1021000064204F5020436F646520282530325848A2
:10211000295D0A005B535338302043616E63656C60
:1021200020282564295D0A005B535338302043681A
:10213000616E6E656C20496E646570656E64656E77
:102140007420436C65617220282564295D0A005B58
:1021500053533830205772697465204C6F6F70622A
:1021600061636B202D20544F444F5D0A005B535335
:1021700038302052656164204C6F6F706261636B10
:10218000202D20544F444F5D0A005B5353383020BC
:1021900048502D4942205061726974792043686526
:1021A000636B696E67202D20544F444F5D0A005BBE
:1021B0004750494220627566666572204F56455207
:1021C000464C4F57215D0A005B47504942205265FB
:1021D0006164204552524F525D0A005B53533830C0
:1021E000204578656375746520436F6D6D616E641D
:1021F0002C204572726F722061742028256429207A
:102200006F662028256429204F5020436F64657332
:102210005D0A005B5353383020496E76616C696407
:10222000204F5020436F64652028253032584829BC
:102230005D0A005B5353383020496E696174652034
:10224000446961676E6F73746963202D20544F4435
:102250004F5D0A005B5353383020526571756573CA
:1022600074205374617475735D0A005B5353383086
:1022700020446F6F72204C6F636B202D20544F44AD
:102280004F5D0A005B5353383020446F6F72205506
:102290006E4C6F636B202D20544F444F5D0A005BE2
:1022A0005353383020536574205374617475732010
:1022B0004D61736B202D20544F444F5D0A005B53DA
:1022C00053383020496E697469616C697A65204DB4
:1022D0006564696120544F444F5D0A005B53533875
:1022E000302044657363726962655D0A005B535315
:1022F00038302056616C6964617465204B657920C3
:102300002D20544F444F5D0A005B53533830205208
:10231000656C656173652044656E696564204E4F28
:102320002D4F505D0A005B535338302052656C6569
:10233000617365204E4F2D4F505D0A005B5353383B
:1023400030204C6F6361746520616E642056657245
:10235000696679202D20544F444F5D0A005B53532A
:102360003830205365742052657475726E20416454
:102370006472657373696E67202D20544F444F5DFE
:102380000A005B53533830205365742052656C65E6
:10239000617365204E4F2D4F505D0A005B535338DB
:1023A000302053657420525053204E4F2D4F505DB6
:1023B0000A005B53533830204E4F2D4F505D0A00BA
:1023C0005B5353383020536574204C656E677468D6
:1023D0003A282530386C5848295D0A005B53533839
:1023E000302053657420416464726573733A282504
:1023F00030386C5848295D0A005B53533830204C04
:102400006F6361746520616E642057726974655DE5
:102410000A005B53533830204C6F63617465206150
:102420006E6420526561645D0A005B53533830204E
:1024300053657420566F6C756D653A2028256429A4
:102440005D0A005B535338302053657420556E6924
:10245000743A282564295D0A005B4750494220628E
:102460007566666572204F564552464C4F57215D42
:102470000A005B5353383020436F6D6D616E6420EA
:10248000537461746520475049422052656164204D
:102490004552524F525D0A005B5353383020566FFD
:1024A0006C756D653A256420696E76616C69645D52
:1024B0000A005B5353383020554E49543A25642066
:1024C000696E76616C69645D0A005B535338302035
:1024D000446573637269626520566F6C756D652023
:1024E0004641494C45445D0A005B53533830204413
:1024F0006573637269626520556E6974204641494F
:102500004C45445D0A005B53533830204465736387
:102510007269626520436F6E74726F6C6C657220B5
:102520004641494C45445D0A005B535338302044D2
:10253000657363726962655D0A005B5353383020CE
:1025400053656E6420537461747573204641494C21
:1025500045445D0A005B535338302053656E642058
:102560005374617475735D0A002020202025643A3D
:1025700025730A0025733A0A005B53533830204C08
:102580006F6361746520616E6420577269746520A1
:1025900057726F746520546F74616C28256C78488D
:1025A000295D0A005B53533830204C6F63617465BA
:1025B00020616E6420577269746520444944204E3E
:1025C0004F542046494E4953485D0A005B535338E7
:1025D00030204C6F6361746520616E6420577269AE
:1025E00074652077726F7465282530325848295DEC
:1025F0000A005B4469736B205772697465204572E9
:10260000726F725D0A005B475049422052656164F7
:10261000204572726F725D0A005B53533830204C54
:102620006F6361746520616E642057726974652000
:102630006174202530386C584828256C5848295D2D
:102640000A005B53533830204275666665726564D4
:10265000205265616420546F74616C28256C584861
:10266000292062797465735D0A005B53533830200A
:1026700042756666657265642052656164204449EE
:1026800044204E4F542046494E4953485D0A005B52
:10269000535338302047504942205772697465209F
:1026A0005772726F725D0A005B5353383020446971
:1026B000736B2052656164204572726F725D0A000F
:1026C0005B53533830204469736B2052656164203A
:1026D00025303258482062797465735D0A005B5377
:1026E000533830204C6F6361746520616E642052F2
:1026F000656164206174202530386C584828256C49
:102700005848295D0A005B535338302045584543EB
:102710002073746174653A2564206572726F725D0E
:102720000A005B5353383020253032584820494E38
:1027300049545D0A005B414D49474F204578656328
:102740007574652052657175657374204C6F676987
:1027500063616C20416464726573735D0A005B4160
:102760004D49474F204578696375746520526571FE
:10277000756573742053746174757320556E62753A
:102780006666657265645D0A005B414D49474F208E
:10279000457865637574652052657175657374203D
:1027A0005374617475732042756666657265645D05
:1027B0000A005B414D49474F204578656375746554
:1027C0002057726974652042756666657265645D3E
:1027D0000A005B414D49474F204578656375746534
:1027E00020496E697469616C697A655D0A005B41B4
:1027F0004D49474F20457865637574652057726968
:10280000746520556E62756666657265645D0A0062
:102810005B414D49474F204578656375746520528B
:102820006561642042756666657265645D0A005B79
:10283000414D49474F204578656375746520526561
:10284000616420556E62756666657265645D0A0036
:102850005B414D49474F204578656375746520435A
:102860006F6C64204C6F616420526561645D0A0086
:102870005B414D49474F2045786563757465282550
:1028800030325848293A206C697374656E3A2530A5
:102890003258482C2074616C6B3A25303258485DB0
:1028A0000A005B414D49474F20466F726D61745D70
:1028B0000A005B414D49474F2052656164204275D3
:1028C00066666572656420436F6D6D616E645D0A56
:1028D000005B414D49474F20526571756573742007
:1028E00053746174757320556E62756666657265A2
:1028F0006420436F6D6D616E645D0A005B414D49FC
:10290000474F205772697465204275666665726527
:102910006420436F6D6D616E645D0A005B414D49DB
:10292000474F2052657175657374204C6F676963FA
:10293000616C204164647265737320436F6D6D61D7
:102940006E645D0A005B414D49474F20496E6974D2
:1029500069616C697A6520436F6D6D616E645D0AB3
:10296000005B414D49474F20577269746520556E91
:10297000627566666572656420436F6D6D616E6435
:102980005D0A005B414D49474F2056657269667983
:102990005D0A005B414D49474F20526561642055F7
:1029A0006E627566666572656420436F6D6D616EFB
:1029B000645D0A005B414D49474F20526571756562
:1029C0007374205374617475732042756666657202
:1029D000656420436F6D6D616E645D0A005B414DFF
:1029E00049474F205365656B206C656E3D365D0A27
:1029F000005B414D49474F205365656B206C656E08
:102A00003D355D0A005B414D49474F20436F6C6483
:102A1000204C6F6164205265616420436F6D6D616D
:102A20006E645D0A005B414D49474F20436F6D6DF9
:102A3000616E64282530325848293A20475049426F
:102A400020726561642062797465733A253032586A
:102A5000485D0A005B414D49474F20436F6D6D61F2
:102A60006E643A4750494220726561642065727213
:102A70006F725D0A005B414D49474F20436F6D6D9A
:102A8000616E643A47504942207265616420657204
:102A9000726F725D0A005B414D49474F5F436F6D36
:102AA0006D616E643A4750494220777269746520BF
:102AB0006572726F725D0A005B414D49474F20435A
:102AC0006F6D6D616E64282530325848293A206C4C
:102AD000697374656E3A25303258482C2074616CE5
:102AE0006B3A25303258485D0A005B452020204172
:102AF0006D69676F204552524F52207365636F6E48
:102B0000646172793A2025303258482C2073746100
:102B100074653A25303258482C206C697374656EA0
:102B2000696E673A25303258482C2074616C6B69A5
:102B30006E673A25303258485D0A005B554E542086
:102B4000416D69676F20544F444F207365636F6E0A
:102B5000646172793A2025303258482C20737461B0
:102B600074653A25303258482C206C697374656E50
:102B7000696E673A25303258482C2074616C6B6955
:102B80006E673A25303258485D0A005B5420202099
:102B9000416D69676F20544F444F207365636F6EBA
:102BA000646172793A2025303258482C2073746160
:102BB00074653A25303258482C206C697374656E00
:102BC000696E673A25303258482C2074616C6B6905
:102BD0006E673A25303258485D0A005B4C20202051
:102BE000416D69676F20544F444F207365636F6E6A
:102BF000646172793A2025303258482C2073746110
:102C000074653A25303258482C206C697374656EAF
:102C1000696E673A25303258482C2074616C6B69B4
:102C20006E673A25303258485D0A005B5520416D89
:102C300069676F20544F444F207365636F6E646102
:102C400072793A2025303258482C207374617465AB
:102C50003A25303258482C206F70636F64653A25EE
:102C6000303258482C206C656E3A2533642C206C29
:102C7000697374656E696E673A25303258482C2046
:102C800074616C6B696E673A25303258485D0A0092
:102C90005B554E5420416D69676F20544F444F205F
:102CA0007365636F6E646172793A202530325848DB
:102CB0002C2073746174653A25303258482C206F8B
:102CC00070636F64653A25303258482C206C656E0D
:102CD0003A2533642C206C697374656E696E673AAB
:102CE00025303258482C2074616C6B696E673A2528
:102CF000303258485D0A005B54202020416D6967DE
:102D00006F20544F444F207365636F6E6461727916
:102D10003A2025303258482C2073746174653A2566
:102D2000303258482C206F70636F64653A2530321A
:102D300058482C206C656E3A2533642C206C6973DE
:102D400074656E696E673A25303258482C2074617C
:102D50006C6B696E673A25303258485D0A005B4CEF
:102D6000202020416D69676F20544F444F207365C8
:102D7000636F6E646172793A2025303258482C2096
:102D800073746174653A25303258482C206F706333
:102D90006F64653A25303258482C206C656E3A25B0
:102DA00033642C206C697374656E696E673A2530E4
:102DB0003258482C2074616C6B696E673A2530324A
:102DC00058485D0A005B414D49474F20436C65619F
:102DD000725D0A005B44534A2025303258485D0A30
:102DE000005B41494D474F3A2044534A2073656E7A
:102DF00064206661696C65645D0A005B414D49470A
:102E00004F205772697465204750494220726561AE
:102E100064206572726F725D0A005B414D49474FD5
:102E20002047504942207772697465206572726F3D
:102E3000725D0A005B414D49474F20466F726D61DC
:102E40007420446F6E655D0A005B414D49474F2019
:102E5000666F726D61745D0A005B414D49474F209A
:102E600025732C20503A2530386C78482C20553A60
:102E7000256420433A256420483A256420533A25A6
:102E8000645D0A005B414D49474F20766572696673
:102E90007920503A2530386C58482C20736563747B
:102EA0006F72733A25303458485D0A005B414D49D2
:102EB000474F20257320706F73204F564552464C64
:102EC0004F575D0A005B414D49474F2047504942EB
:102ED000207772697465206572726F725D0A005B9B
:102EE000414D49474F2073656E642073746174755A
:102EF000735D0A005B414D49474F204750494220CE
:102F00007772697465206572726F725D0A005B4149
:102F10004D49474F2073656E64206C6F676963612C
:102F20006C20616464726573735D0A005B414D4996
:102F3000474F207265717565737420737461747581
:102F4000735D0A005B5343205052494E5445522052
:102F500054616C6B3A2025303258485D0A005B534F
:102F600043205052494E544552204C697374656E4B
:102F70003A2025303258485D0A002530386C640DFF
:102F8000007772697465206661696C65643A2077C0
:102F9000616E7465642025642C20676F743A256423
:102FA0000A000A444F4E453A202530386C640A0026
:102FB0004552524F522064757272696E6720777263
:102FC0006974650A0065786974696E672E2E2E0A29
:102FD00000436170747572696E6720706C6F742045
:102FE000746F3A25730A002F706C6F742D25303280
:102FF000642573253034642D2530326425303264E5
:10300000253032642E706C740009466F726D6174E5
:10301000696E673A2077726F746520256C6420733F
:103020006563746F72730A006C69665F63726561D1
:1030300074655F696D6167653A20736563746F726B
:103040007320697320300A006C69665F6372656182
:1030500074655F696D6167653A2064697273656361
:10306000746F727320697320300A006C69665F6345
:1030700072656174655F696D6167653A206C696648
:103080006C6162656C20697320656D7074790A00EB
:103090006C69665F6372656174655F696D616765C0
:1030A0003A206C6966696D6167656E616D6520695E
:1030B0007320656D7074790A0072656E616D656468
:1030C0003A202531307320746F20253130730A0087
:1030D0006C69665F72656E616D653A5B25735D2034
:1030E0006C6966206E616D653A5B25735D206E6F5D
:1030F0007420666F756E640A006C69665F72656E37
:10310000616D655F66696C653A206E6577206C69F4
:10311000666E616D6520636F6E7461696E732062A7
:10312000616420636861726163746572730A006C24
:1031300069665F72656E616D655F66696C653A2090
:103140006E6577206C69666E616D652069732065B8
:103150006D7074790A006C69665F72656E616D6589
:103160005F66696C653A206F6C64206C69666E619D
:103170006D6520697320656D7074790A006C6966ED
:103180005F72656E616D655F66696C653A206C693A
:1031900066696D6167656E616D6520697320656D37
:1031A0007074790A0044656C657465643A20253151
:1031B00030730A004C494620696D6167653A5B25AA
:1031C000735D206C6966206E616D653A5B25735D89
:1031D000206E6F7420666F756E640A004C4946203D
:1031E000696D6167653A5B25735D2C204C4946200B
:1031F0006E616D653A5B25735D0A006C69665F649C
:10320000656C5F66696C653A206C69666E616D65B8
:1032100020697320656D7074790A006C69665F645B
:10322000656C5F66696C653A206C6966696D61679B
:10323000656E616D6520697320656D7074790A0033
:103240000957726F74653A2025386C640A00095773
:10325000726F74653A2025386C640D004C49462025
:10326000696D6167653A5B25735D2C206E6F742014
:10327000656E6F756768206672656520737061633F
:103280006520666F723A5B25735D0A0046696C655E
:10329000206E6F7420666F756E643A25730A004C59
:1032A000494620696D6167653A5B25735D2C204C4A
:1032B0004946206E616D653A5B25735D2C20757300
:1032C00065722066696C653A5B25735D0A006C69FE
:1032D000665F6164643A207573657266696C652027
:1032E000697320656D7074790A006C69665F61644A
:1032F000643A206C69666E616D6520697320656D46
:103300007074790A006C69665F6164643A206C6964
:1033100066696D6167656E616D6520697320656DB5
:103320007074790A000957726F74653A2025386CF9
:10333000640A000957726F74653A2025386C640D71
:103340000046696C65206E6F7420666F756E643A16
:1033500025730A004C494620696D616765206E6FD0
:103360007420666F756E643A25730A000957726F90
:1033700074653A2025386C640A006C69665F65786C
:1033800074726163745F653031305F61735F617364
:103390006369693A207772697465206572726F7229
:1033A0000A000957726F74653A2025386C640D0065
:1033B0006C69665F657874726163745F6530313023
:1033C0005F61735F61736369693A207772697465DD
:1033D000206572726F720A006C69665F657874723C
:1033E0006163745F653031305F61735F617363691E
:1033F000693A20756E657870656374656420636FE3
:103400006E74726F6C20627974653A5B2530325845
:10341000485D2040206F66667365743A2025386CDD
:10342000782C20696E643A25303258480A006C695D
:10343000665F657874726163745F653031305F61B7
:10344000735F61736369693A20737472696E672090
:10345000746F6F206269672073697A65203D20254B
:10346000640A0045787472616374696E673A202556
:10347000730A0046696C65202573206861732077A4
:10348000726F6E6720747970653A5B2530345848E6
:103490005D206578706563746564203078453031EF
:1034A000302E2E3078453031330A004C49462046C4
:1034B000696C65206E6F7420666F756E643A257353
:1034C0000A004C494620696D616765206E6F742063
:1034D000666F756E643A25730A000957726F7465DA
:1034E0003A2025386C640A0046696C652053656390
:1034F000746F72733A202020202025346C78480A9B
:1035000000466972737420536563746F723A2020A9
:1035100020202025346C78480A00496E6465783A8A
:103520002020202020202020202020202534640A54
:10353000004E616D653A2020202020202020202090
:103540002020202025730A004E657720446972658B
:1035500063746F727920496E666F726D6174696F02
:103560006E2041465445522077726974650A004CBA
:10357000494620696D6167653A5B25735D2C206E55
:103580006F7420656E6F756768206672656520735D
:103590007061636520666F723A5B25735D0A004C4B
:1035A000494620696D6167653A5B25735D2C204C47
:1035B0004946206E616D653A5B25735D2C207573FD
:1035C00065722066696C653A5B25735D0A006C69FB
:1035D000665F6164645F61736369695F66696C6596
:1035E0005F61735F653031303A207573657266696B
:1035F0006C65206E6F7420666F756E640A006C696E
:10360000665F6164645F61736369695F66696C6565
:103610005F61735F653031303A207573657266693A
:103620006C6520697320656D7074790A006C696639
:103630005F6164645F61736369695F66696C655F3C
:1036400061735F653031303A206C69666E616D651B
:1036500020697320656D7074790A006C69665F611A
:1036600064645F61736369695F66696C655F6173F8
:103670005F653031303A206C6966696D6167656EEF
:10368000616D6520697320656D7074790A00095752
:10369000726F74653A2025386C640D000957726F9B
:1036A00074653A2025386C640D000957726F746593
:1036B0003A2025386C640D00457870656374656444
:1036C00020736563746F7220626F756E6472792CFB
:1036D000206F66667365743A25640A006C69665FDC
:1036E000653031305F6461705F736563746F723A27
:1036F00020657870656374656420736563746F72A8
:1037000020626F756E6472793A206F6666736574B5
:103710003A25640A006C69665F66696E645F666973
:103720006C653A5B25735D206C69666C6162656CE3
:1037300020746F6F206269670A006C69665F666952
:103740006E645F66696C653A5B25735D20696E76B1
:10375000616C696420636861726163746572730A85
:103760000025386C64204672656520736563746F4C
:1037700072730A0025386C64205573656420736584
:1037800063746F72730A0025386C64204469722078
:1037900020736563746F72730A0025386C6420446B
:1037A0006972202073746172740A0025386C642079
:1037B0005075726765640A0025386C642046696C30
:1037C00065730A000A00252D31307320202530341E
:1037D000586820202020202025386C586820202080
:1037E00025396C6425632020202020202534642086
:1037F000202025730A004C49462044697265637491
:103800006F72793A5B25735D207761726E696E67BE
:103810002046696C6542797465733A256C64206151
:103820007320736563746F72733A256C6420213D55
:103830002046696C65536563746F72733A256C64D6
:103840000A004E414D4520202020202020202054D9
:10385000595045202020535441525420534543543D
:103860004F52202020202020202053495A4520203C
:10387000202052454353495A452020204441544575
:103880000A00566F6C756D653A5B25735D20446167
:1038900074653A5B25735D0A006C69665F6F7065DD
:1038A0006E5F766F6C756D653A5B25735D20657232
:1038B000726F72206469726563746F7279206368D5
:1038C00065636B206661696C65640A006C69665F9C
:1038D0006F70656E5F766F6C756D653A5B25735DB5
:1038E000206572726F7220766F6C756D65207661DF
:1038F0006C6964617465206661696C65640A006C5A
:1039000069665F6F70656E5F766F6C756D653A5B4B
:1039100025735D206572726F722072656164207616
:103920006F6C756D6520686561646572206661699C
:103930006C65640A006C69665F6F70656E5F766FB8
:103940006C756D653A5B25735D206572726F7220D0
:10395000766F6C756D652068656164657220617253
:10396000656120746F6F20736D616C6C3A5B256CC0
:10397000645D0A006C69665F6E65776469723A20FF
:10398000696E6465783A5B25645D20616464696E84
:10399000672061743A5B256C645D746F207075728A
:1039A0006765642073706163653A5B256C645D20B4
:1039B000736563746F72732C20667265653A5B255C
:1039C0006C645D0A006C69665F6E65776469723A63
:1039D000206E6F7420656E6F75676820667265650E
:1039E0002073706163653A5B256C645D0A006C69E5
:1039F000665F6E65776469723A206E6F7420656EDB
:103A00006F75676820667265652073706163653ADB
:103A10005B256C645D20666F722073697A653A5B22
:103A2000256C645D0A006C69665F7570646174651D
:103A30005F667265653A5B25735D206572726F72B1
:103A40002070726576696F7573207265636F72643A
:103A50002066696C652061726561206F7665726CA5
:103A60006170732074686973206F6E653A5B2573AB
:103A70005D0A006C69665F636865636B5F646972A9
:103A80003A206572726F722C20696E6465783A25EF
:103A9000640A006C69665F636865636B6469726978
:103AA0006E6465783A5B25735D2064697265636F47
:103AB000727920696E6465783A5B25645D206F7564
:103AC00074206F6620626F756E64730A0009577206
:103AD0006F74653A20256C640A000957726F74652B
:103AE0003A20256C640D000957726F74653A2025E1
:103AF0006C640D000957726F74653A20256C640D73
:103B0000004372656174696E673A25732C204C61BD
:103B100062656C3A5B25735D2C2044697265637441
:103B20006F727920537461727420256C642C204468
:103B300069726563746F72792053697A653A2025DA
:103B40006C642C2046696C6520536563746F7273D6
:103B50003A256C640A004C494620446972656374D6
:103B60006F72793A5B25735D20696E76616C69646A
:103B700020736563746F722073697A653A256C648B
:103B80000A004C4946204469726563746F72793A41
:103B90005B25735D20696E76616C69642046696C93
:103BA000654279746573203D3D20300A004C4946DA
:103BB000204469726563746F72793A5B25735D2086
:103BC0007761726E696E672046696C6542797465CB
:103BD000733A256C6420617320736563746F72732C
:103BE0003A256C64203C2046696C65536563746FAC
:103BF00072733A256C640A004C4946204469726528
:103C000063746F72793A5B25735D20696E76616CBF
:103C100069642046696C6542797465733A256C6401
:103C200020617320736563746F72733A256C64202E
:103C30003E2046696C65536563746F72733A256CF8
:103C4000640A004C4946204469726563746F727956
:103C50003A5B25735D20696E76616C696420566FEE
:103C60006C756D65204E756D6265723A2558680AEF
:103C7000004C4946204469726563746F72793A5BFF
:103C800025735D20696E76616C696420656E6420C1
:103C9000736563746F723A256C5868203E20746FA8
:103CA00074616C20736563746F72733A256C586825
:103CB0000A004C4946204469726563746F72793A10
:103CC0005B25735D20696E76616C69642073746135
:103CD000727420736563746F723A256C5868203C67
:103CE0002066696520617265612073746172743A3F
:103CF000256C58680A004C49462044697265637413
:103D00006F72793A5B25735D20696E76616C6964C8
:103D1000204E616D650A004C494620566F6C756DEA
:103D20006520696E76616C69642066696C652073D4
:103D300074617274203E20696D6167652073697AD1
:103D4000650A004C494620566F6C756D6520696E9A
:103D500076616C6964204469726563746F7279205E
:103D6000536563746F7220436F756E74203C20310D
:103D70000A004C494620566F6C756D6520696E7659
:103D8000616C696420737461727420736563746F0D
:103D9000723A256C640A004C494620566F6C756D6A
:103DA0006520696E76616C69642062797465732040
:103DB0006174206F66667365742032322632332058
:103DC00073686F756C64206265207A65726F0A0093
:103DD0004C494620566F6C756D6520696E76616C36
:103DE0006964206279746573206174206F666673FC
:103DF00065742031342631352073686F756C64200A
:103E00006265207A65726F0A004C494620566572D9
:103E100073696F6E3A202530345848203E20310AAD
:103E2000004C494620566F6C756D6520696E766151
:103E30006C69642053797374656D33303030204978
:103E400044202825303458482920657870656374EB
:103E500065642031303030480A004C494620566FA6
:103E60006C756D6520696E76616C696420566F6C47
:103E7000756D65204E616D65000A0044495220460B
:103E8000696C6520446174653A2020202020202040
:103E90002025730A004449522046696C65207365E9
:103EA00063746F722073697A653A20253858680AFE
:103EB000004449522046696C652062797465733A02
:103EC0002020202020202025386C58680A004449F2
:103ED000522046696C6520736563746F72733A2073
:103EE0002020202025386C58680A0044495220467A
:103EF000696C652073746172743A20202020202040
:103F00002025386C58680A004449522046696C657F
:103F100020566F6C756D65233A20202020202538AF
:103F200058680A004449522046696C6520547970EB
:103F3000653A2020202020202020253858680A00BB
:103F40004449522046696C65204E616D653A2020D7
:103F500020202020202025730A00564F4C20446149
:103F600074653A202020202020202020202020209E
:103F700025730A00564F4C204C49465665727369AA
:103F80006F6E3A20202020202020253858680A0013
:103F9000564F4C20333030304C494669643A20202B
:103FA000202020202020253858680A00564F4C2019
:103FB00044697220736563746F72733A2020202005
:103FC000202025386C58680A00564F4C20446972EE
:103FD0002073746172743A20202020202020202534
:103FE000386C58680A00564F4C204C494669643A70
:103FF0002020202020202020202020202538586824
:104000000A00564F4C204C6162656C3A20202020FB
:10401000202020202020202025730A004C49462003
:104020007075726765643A202020202020202020AF
:10403000202025386C58680A004C49462066696C77
:1040400065733A20202020202020202020202025B9
:10405000386C58680A004C494620667265653A20FB
:1040600020202020202020202020202025386C58AF
:10407000680A004C494620757365643A2020202068
:1040800020202020202020202025386C58680A007D
:104090004C49462066696C6520736563746F727362
:1040A0003A202020202025386C58680A004C4946C8
:1040B0002066696C6573746172743A202020202038
:1040C00020202025386C58680A004C494620627927
:1040D0007465733A202020202020202020202020DA
:1040E00025386C58680A004C494620736563746F24
:1040F00072733A2020202020202020202025386C98
:1041000058680A004C4946206E616D653A202020AF
:104110002020202020202020202025730A000A258E
:10412000730A006C69665F77726974653A2057722A
:104130006974653A5B25735D206F66667365743AD2
:104140005B256C645D2077726974653A5B25645DFC
:104150002065787065637465643A5B25645D0A0068
:104160006C69665F726561643A20726561643A5B8E
:1041700025735D206F66667365743A5B256C645DBC
:104180002077726974653A5B256C645D2065787090
:1041900065637465643A5B25645D0A006C69665FFB
:1041A000726561645F6D73673A202573205365659E
:1041B0006B206572726F7220256C640A006C6966F0
:1041C0005F737461743A2043616E27742073746165
:1041D000743A25730A006C69665F6F70656E3A20E9
:1041E00043616E2774206F70656E3A5B25735D20A6
:1041F0006D6F64653A5B25735D0A006C69665F6686
:104200007265653A204E554C4C20706F696E74652E
:10421000720A006C69665F63616C6C6F633A5B2560
:104220006C645D206E6F7420656E6F7567682066C4
:10423000726565206D656D6F72790A004469736BF4
:104240003A202573206E6F7420666F756E64206946
:104250006E2068706469722E696E690A006C696606
:1042600020616464206C6966696D616765206C69B2
:10427000666E616D652066726F6D5F6173636969FB
:104280005F66696C650A6C69662061646462696E68
:10429000206C6966696D616765206C69666E616D29
:1042A000652066726F6D5F6C69665F66696C650A32
:1042B0006C696620637265617465206C6966696DFE
:1042C000616765206C6162656C2064697265637406
:1042D0006F72795F736563746F7273207365637453
:1042E0006F72730A6C6966206372656174656469D4
:1042F000736B206C6966696D616765206C616265CE
:104300006C206D6F64656C0A6C69662064656C2056
:104310006C6966696D616765206E616D650A6C69BF
:104320006620646972206C6966696D6167650A6CF4
:1043300069662065787472616374206C6966696D62
:10434000616765206C69666E616D6520746F5F6181
:10435000736369695F66696C650A6C696620657874
:10436000747261637462696E206C6966696D6167FD
:1043700065206C69666E616D6520746F5F6C69663F
:104380005F66696C650A202020206578747261631D
:10439000747320612066696C6520696E746F20619A
:1043A000207369676C652066696C65204C494620FE
:1043B000696D6167650A6C69662072656E616D651D
:1043C000206C6966696D616765206F6C646C6966F5
:1043D0006E616D65206E65776C69666E616D650AEC
:1043E000557365202D64206166746572206669725C
:1043F0007374206B6579776F726420276C69662708
:104400002061626F766520666F72204C4946206697
:10441000696C6573797374656D206465627567672F
:10442000696E670A0A006C69662068656C700A002C
:104430005374617274696E67204750494220544139
:10444000534B0A0064656275676C6576656C202065
:10445000203D2025303478480A00475049422053F7
:104460007461746520696E697420646F6E650A00FA
:10447000475049422046696C6520696E6974206422
:104480006F6E650A00475049422054696D6572207D
:10449000696E697469616C697A65640A004750499C
:1044A000422054696D65722053657475700A00501E
:1044B00072696E74657220696E697469616C697A7B
:1044C00065640A00475049422062757320696E692D
:1044D0007469616C697A65640A004D4D4320696EA8
:1044E000697469616C697A65640A004D4D4320699D
:1044F0006E697469616C697A696E67207374617240
:10450000740A00493243204C4344206973204E4FC3
:1045100054206174746163686564210A0049324300
:10452000204C434420696E697469616C697A6174D6
:10453000696F6E20446F6E650A00493243204C4318
:104540004420696E697469616C697A6174696F6E1F
:104550002073746172740A0053595354454D5F546B
:1045600041534B5F434F554E5445525F5245533A6A
:10457000256C640A00436C6F636B20636C65617229
:1045800065640A00696E697469616C697A696E674D
:10459000205254430A00696E697469616C697A69D2
:1045A0006E6720493243206275730A00696E697430
:1045B00069616C697A696E6720535049206275732E
:1045C0000A002020204C617374207570646174654A
:1045D000642066696C653A2025730A002020204714
:1045E0004954206C617374207075736865643A2057
:1045F000202025730A002D3E2068747470733A2FB2
:104600002F6769746875622E636F6D2F6D61676FB8
:1046100072652F687038356469736B0A0020474EE5
:10462000552076657273696F6E20330A0020284327
:104630002920323031342D32303230206279204D11
:10464000696B6520476F72650A0048503835204411
:1046500069736B20616E64204465766963652045EB
:104660006D756C61746F720A005265717565737453
:104670006564204261756420526174653A20256C3E
:10468000642C2041637475616C3A20256C640A00C7
:1046900043505520436C6F636B203D20256C750A99
:1046A0000053746172740A004572726F723A5B252E
:1046B000735D0A000A3E0064656C61795F7465731E
:1046C00074730A68656C700A6D656D0A736574644D
:1046D0006174650A74696D650A72657365740A0AA6
:1046E000004D792064656C6179730A0053797374A5
:1046F000656D2064656C6179730A000A00202020D2
:104700004C61737420757064617465642066696CB3
:10471000653A2025730A00202020474954206C6107
:104720007374207075736865643A20202025730ABD
:10473000002D3E2068747470733A2F2F6769746877
:1047400075622E636F6D2F6D61676F72652F687074
:1047500038356469736B0A0020474E5520766572C0
:1047600073696F6E20330A002028632920323031AC
:10477000342D32303230206279204D696B6520470C
:104780006F72650A0048503835204469736B2061A8
:104790006E642044657669636520456D756C61744F
:1047A0006F720A005374616E6420616C6F6E6520D5
:1047B00076657273696F6E206F66204C494620756E
:1047C00074696C697469657320666F72206C696EB8
:1047D00075780A0011241FBECFEFD0E4DEBFCDBF35
:1047E00017E1A0E0B1E0E8E5F2ED01E00BBF02C0A7
:1047F00007900D92AE30B107D9F721E2AEE0B7E1F4
:1048000001C01D92A634B207E1F70E944DE10C945D
:104810002AE90C9400002F923F924F925F926F9280
:104820007F928F929F92AF92BF92CF92DF92EF9240
:10483000FF920F931F93CF93DF93CDB7DEB76097AF
:104840000FB6F894DEBF0FBECDBF7C011B016A011D
:10485000FC0117821682838181FF44C39E012F5F72
:104860003F4F3901F7019381F10193FD859193FF4A
:1048700081911F01882309F431C3853239F493FDF6
:10488000859193FF81911F01853239F4B70190E042
:104890000E94B37656016501E5CF10E0512C912CB2
:1048A000FFE1F915D8F08B3279F038F4803279F0E5
:1048B0008332A1F4F92DF0612EC08D3261F0803386
:1048C00069F4292D21602DC0392D3260932E892D58
:1048D0008460982E2AC0E92DE86015C097FC2DC091
:1048E00020ED280F2A3088F496FE06C03AE0139F88
:1048F000200D1124122F19C08AE0589E200D11247A
:10490000522EE92DE0629E2E10C08E3231F496FCBC
:10491000E5C2F92DF0649F2E08C08C3621F4292DB4
:104920002068922E02C0883641F4F10193FD8591F2
:1049300093FF81911F018111B3CF9BEB980F9330AF
:1049400020F4992D9061805E07C09BE9980F933009
:1049500008F066C1992D9F7E96FF16E09F73992EF1
:10496000853619F49064992E08C0863621F4392FC3
:104970003068932E02C01111115097FE07C01C33EE
:1049800050F444244394410E27E00BC0183038F013
:1049900027E017E005C027E09CE3492E02C0212F45
:1049A000412C560184E0A80EB11CF6016081718192
:1049B00082819381042DA3010E94D7E76C01F981C4
:1049C000FC87F0FF02C0F3FF06C091FC06C092FE18
:1049D00006C000E205C00DE203C00BE201C000E02A
:1049E0008C858C7019F001115AC29BC297FE10C0C1
:1049F0004C0CFC85F4FF04C08A81813309F44A948D
:104A0000141474F528E0241578F588E0482E2CC09D
:104A100096FC2AC0812F90E08C159D059CF03CEF00
:104A2000C3163FEFD30674F0892D8068982E0AC014
:104A3000E2E0F0E0EC0FFD1FE10FF11D808180331B
:104A400019F411501111F4CF97FE0EC04424439471
:104A5000410E812F90E0C816D9062CF41C1904C011
:104A60004424439401C010E097FE06C01C141D04AA
:104A700034F4C601019605C085E090E002C081E0F3
:104A800090E001110196112331F0212F30E02F5FCA
:104A90003F4F820F931F252D30E08217930714F4A8
:104AA000581A01C0512C892D897049F4552039F0CC
:104AB000B70180E290E00E94B3765A94F7CF0023CA
:104AC00029F0B701802F90E00E94B37693FC09C0D3
:104AD000552039F0B70180E390E00E94B3765A94F4
:104AE000F7CF97FE4CC04601D7FE02C0812C912C17
:104AF000C60188199909F301E80FF91FFE87ED87B0
:104B0000960124193109388B2F87012F10E0119558
:104B1000019511093FEF8316930629F4B7018EE240
:104B200090E00E94B376C814D9044CF08F85988920
:104B30008815990524F4ED85FE85818101C080E307
:104B4000F1E08F1A91082D853E852F5F3F4F3E87FC
:104B50002D87801691062CF0B70190E00E94B37665
:104B6000D9CFC814D90441F49A81963320F49533EF
:104B700019F43C8534FF81E3B70190E04EC08A818F
:104B8000813319F09C859F7E9C87B70190E00E943D
:104B9000B376111105C094FC18C085E690E017C0EB
:104BA000B7018EE290E00E94B3761E5F82E001E0E2
:104BB000080FF301E80FF11D8081B70190E00E941A
:104BC000B376802F0113F3CFE6CF85E490E0B701F1
:104BD0000E94B376D7FC06C0C114D10441F4EC8521
:104BE000E4FF05C0D194C194D1088DE201C08BE2ED
:104BF000B70190E00E94B37680E32AE0C216D104A8
:104C00002CF08F5FFAE0CF1AD108F7CFB70190E010
:104C10000E94B376B701C601C0960E94B37654C114
:104C2000833631F0833779F0833509F056C020C0E0
:104C3000560132E0A30EB11CF6018081898301E0A8
:104C400010E0630112C05601F2E0AF0EB11CF60194
:104C5000C080D18096FE03C0612F70E002C06FEF6C
:104C60007FEFC6010E94C1E88C01F92DFF7714C0C7
:104C7000560122E0A20EB11CF601C080D18096FE42
:104C800003C0612F70E002C06FEF7FEFC6010E948A
:104C9000AFE88C01F92DF0689F2EF3FD1AC0852D29
:104CA00090E008171907A8F4B70180E290E00E948D
:104CB000B3765A94F4CFF60197FC859197FE8191D3
:104CC0006F01B70190E00E94B37651105A940150E1
:104CD00011090115110579F7F7C0843611F08936ED
:104CE00061F5560197FE09C024E0A20EB11CF60141
:104CF00060817181828193810AC0F2E0AF0EB11CA4
:104D0000F60160817181072E000C880B990BF92D3B
:104D1000FF769F2E97FF09C09095809570956195BD
:104D20007F4F8F4F9F4FF0689F2E2AE030E0A30106
:104D30000E94CCE8C82EC6183FC0092D853721F443
:104D40000F7E2AE030E01DC0097F8F3691F018F405
:104D5000883559F0C3C0803719F0883711F0BEC0CC
:104D6000006104FF09C0046007C094FE08C006602B
:104D700006C028E030E005C020E130E002C020E1BC
:104D800032E0560107FF09C084E0A80EB11CF6010D
:104D9000608171818281938108C0F2E0AF0EB11C05
:104DA000F6016081718180E090E0A3010E94CCE86F
:104DB000C82EC6180F77902E96FE0BC0092D0E7FB9
:104DC000C11650F494FE0AC092FC08C0092D0E7E54
:104DD00005C0DC2C092D03C0DC2C01C0D12E04FF42
:104DE0000DC0FE01EC0DF11D8081803311F4097EB0
:104DF00009C002FF06C0D394D39404C0802F8678E4
:104E000009F0D39403FD11C000FF06C01C2DD5147A
:104E100080F4150D1D190DC0D51458F4B70180E2AA
:104E200090E00E94B376D394F7CFD51410F45D18B8
:104E300001C0512C04FF10C0B70180E390E00E9434
:104E4000B37602FF17C001FD03C088E790E002C0FF
:104E500088E590E0B7010CC0802F867859F001FFFB
:104E600002C08BE201C080E207FD8DE2B70190E055
:104E70000E94B376C11638F4B70180E390E00E9437
:104E8000B3761150F7CFCA94F301EC0DF11D808178
:104E9000B70190E00E94B376C110F5CF15C0F4E0E1
:104EA000F51560F584E0581A93FE1FC0011127C064
:104EB0002C8523FF2AC006ED11E0392D3071932E89
:104EC000F8018491811124C0552009F4E4CCB70184
:104ED00080E290E00E94B3765A94F6CFF701868183
:104EE000978126C08FEF9FEF23C0B70180E290E04B
:104EF0000E94B3765A945110F8CFD8CF512CB701F5
:104F0000802F90E00E94B376D3CF0AED11E0D5CF89
:104F100091108052B70190E00E94B3760F5F1F4F4F
:104F2000CFCF23E0251510F483E0BDCF512CC0CFA7
:104F300060960FB6F894DEBF0FBECDBFDF91CF9164
:104F40001F910F91FF90EF90DF90CF90BF90AF90A7
:104F50009F908F907F906F905F904F903F902F9099
:104F60000895E82FE695E695E69593E0E99FF00130
:104F7000112432A1282F277081E090E001C0880F12
:104F80002A95EAF7982F9095932392A391A1892BC4
:104F900081A30895E82FE695E695E69593E0E99FCD
:104FA000F001112432A1282F277081E090E001C088
:104FB000880F2A95EAF7932F982B92A391A1892B1A
:104FC00081A30895E7CF0895CF93ADB7BEB71797E4
:104FD0000FB6F894BEBF0FBEADBFC82F80910A01B7
:104FE0008C1799F08F3F89F02C2F30E0EDB7FEB78A
:104FF0003783268390E09583848388ED92E0A0E058
:1050000081839283A3830E9438478C2FC3DF8FEF65
:1050100080930A01ADB7BEB717960FB6F894BEBF1E
:105020000FBEADBFCF910895C2C40895EAC40895DC
:10503000A1E0B0E0EEE1F8E20C94FAE3898361E0EC
:1050400070E0CE010196B3D42196E2E00C9416E410
:10505000CF92DF92EF92FF926B017C01842F9ADF57
:105060008FEF80930A01C701B60174D480E090E00D
:1050700031D48FEFDDDFC0920601D0920701E092BC
:105080000801F0920901FF90EF90DF90CF90089512
:10509000CF92DF92EF92FF92CF93DF93ADB7BEB77F
:1050A00017970FB6F894BEBF0FBEADBF6B017C0162
:1050B000EA0180910A018F3F79F0EDB7FEB7468390
:1050C000D78390E09583848386EF92E0A0E081838C
:1050D0009283A3830E943847809106019091070133
:1050E000A0910801B09109018C159D05AE05BF0581
:1050F00021F0AE01C701B601ABDF8C2F32DFC093C8
:105100000A01ADB7BEB717960FB6F894BEBF0FBE73
:10511000ADBFDF91CF91FF90EF90DF90CF900895DA
:10512000A1E0B0E0E6E9F8E20C94FAE3898361E0FB
:1051300070E0CE0101964FD489812196E2E00C9473
:1051400016E4A2E0B0E0E7EAF8E20C94FAE320917A
:105150004221309143212115310511F426E431E239
:10516000CE010196821B930B2296E2E00C9416E48A
:10517000A9E0B0E0EEEBF8E20C94FAE3E2DF998705
:105180008887EDB7FEB7958384838DE194E0A0E036
:1051900081839283A3830E9438478FEF90E4EDB719
:1051A000FEB7958384838AE094E0A0E081839283B4
:1051B000A3830E943847CE010896EDB7FEB79583CA
:1051C000848387EF93E0A0E081839283A3830E948E
:1051D000384786E491E2EDB7FEB7978386838EE089
:1051E00097E19583848389ED93E0A0E081839283A6
:1051F000A3830E9438478EE097E1EDB7FEB797830F
:10520000868380E091E0958384838BEB93E0A0E03C
:1052100081839283A3830E94384780E090E0EDB7BA
:10522000FEB79783868386E491E2958384838DE934
:1052300093E0A0E081839283A3830E94384780910A
:10524000000190910101EDB7FEB7978386838091AD
:10525000020190910301958384838FE793E0A0E09E
:1052600081839283A3830E94384780914221909149
:105270004321EDB7FEB7958384838BE693E0A0E0EE
:1052800081839283A3830E9438472996E2E00C949D
:1052900016E4EF92FF920F931F93CF93DF93ADB776
:1052A000BEB717970FB6F894BEBF0FBEADBF8C0147
:1052B0007B010E9498E6EC01892B71F4EDB7FEB7F3
:1052C000F782E6821583048380E593E0A0E0818382
:1052D0009283A3830E943847CE01CDB7DEB72796CD
:1052E000E6E00C9412E40F931F93CF93DF9300D06A
:1052F00000D01F928C0161E070E00E9498E6EC0102
:10530000892B61F4EDB7FEB71583048388E393E03E
:10531000A0E081839283A3830E943847CE01CDB75A
:10532000DEB72596E4E00C9414E4ADB7BEB717974A
:105330000FB6F894BEBF0FBEADBF009711F120911C
:105340004221309143212115310511F426E431E247
:1053500041E28634940730F02817390718F00E948C
:105360004AE70FC0EDB7FEB7378326839583848362
:1053700083E193E0A0E081839283A3830E94384776
:10538000F7DEADB7BEB717960FB6F894BEBF0FBE27
:10539000ADBF0895643671058105910558F06456D6
:1053A000710981099109E3EFF1E03197F1F700C04C
:1053B0000000F0CF6A3071058105910548F06A5010
:1053C000710981099109F2E4FA95F1F700C0F2CF71
:1053D000611571058105910549F0615071098109D7
:1053E000910926E02A95F1F700C0F2CF08956115E2
:1053F00071058105910509F441C0E3EFF1E03197B2
:10540000F1F700C00000E3EFF1E03197F1F700C0E1
:105410000000E3EFF1E03197F1F700C00000E3EFA7
:10542000F1E03197F1F700C00000E3EFF1E03197D0
:10543000F1F700C00000E3EFF1E03197F1F700C0B1
:105440000000E3EFF1E03197F1F700C00000E3EF77
:10545000F1E03197F1F700C00000E3EFF1E03197A0
:10546000F1F700C00000E3EFF1E03197F1F700C081
:1054700000006150710981099109B9CF0895811126
:105480000EC0F89410928D1910928C1910928919EF
:1054900010928A1910928B1910928E19789408958F
:1054A0004F925F926F927F928F929F92AF92BF9234
:1054B000CF92DF92EF92FF92CF93DF935A01E901EF
:1054C0000E9436E52B013C0120E030E040E051E451
:1054D0000E94ECE59B01AC0160E876E988E99BE479
:1054E0000E949DE420E030E040E85FE30E9434E465
:1054F0000E944FE60E940AE56B017C01C11480E125
:10550000D806E104F10458F481E090E0F5019183BC
:105510008083812C912CA12C21E4B22E31C0F50185
:105520001182108220E030E040E851E4C301B20172
:105530000E94ECE59B01AC0160E876E988E99BE418
:105540000E949DE420E030E040E85FE30E9434E404
:105550000E944FE60E940AE56B017C01812C912C90
:1055600090E8A92E91E4B92EC114F0E1DF06E10420
:10557000F10430F0CC24CA948FE0D82EE12CF12C29
:10558000C701B6016F5F7F4F8F4F9F4F0E9436E577
:10559000A50194010E94ECE59B01AC0160E876E96D
:1055A00088E99BE40E949DE40E940AE56883798370
:1055B0008A839B83C601DF91CF91FF90EF90DF90AC
:1055C000CF90BF90AF909F908F907F906F905F90A3
:1055D0004F900895A6E0B0E0E0EFFAE20C94FAE311
:1055E0001E821D82811136C0CB01BA019E012F5F40
:1055F0003F4FAE014B5F5F4F53DFF89410928D1910
:1056000010928C191092891910928A1910928B1984
:1056100010928E197894F894589A599A5098519AF1
:1056200028E92093C1002D813E81232B19F022E02F
:105630002093C0009093C5008093C400789462EEDC
:105640007BE287EF9BE20E947C7969817A818B8182
:105650009C8103C060E070E0CB012696E2E00C94F0
:1056600016E4CF93DF9327E5829FC0011124FC014C
:10567000E757F64E83819481803591057CF4308123
:1056800021E0230F2083EF01C30FD11D6E8301960C
:1056900094838383203528F0108203C08581816044
:1056A0008583DF91CF9108951F920F920FB60F92CD
:1056B00011240BB60F922F933F934F935F936F93E9
:1056C0007F938F939F93AF93BF93EF93FF936091DB
:1056D000C60080E0C6DFFF91EF91BF91AF919F912F
:1056E0008F917F916F915F914F913F912F910F908B
:1056F0000BBE0F900FBE0F901F901895811107C021
:10570000F89480918C1990918D19789408958FEF69
:105710009FEF0895811121C080E0F0DF181619066F
:10572000DCF7F894E0918A1991E09E0F90938A1922
:10573000F0E0E757F64E8681903510F010928A1906
:1057400020918C1930918D192150310930938D1988
:1057500020938C19789490E008958FEF9FEF08952F
:10576000D9DF99270895611109C02091C00025FF54
:10577000FCCF282F2F772093C6000895613049F47D
:105780002091C80025FFFCCF282F2F772093CE0033
:1057900008958FEF9FEF0895CF9381110FC0E0DF41
:1057A000C82F60E090E0DFDFCD3029F460E08AE0D0
:1057B00090E0D9DFCAE08C2F90E002C08FEF9FEF1E
:1057C000CF91089580E0E8CF08951F93CF93DF93A2
:1057D000EC01162FC8DFCA30D10521F4612F8DE00E
:1057E00090E0C1DFCE01DF91CF911F910895CF935B
:1057F000DF93EC0160E070E0E8DFCE01DF91CF9154
:1058000008957CCF0895CF92DF92EF92FF926B01C3
:105810007C018091101790911117A0911217B091EF
:1058200013178C159D05AE05BF0509F44EC060E049
:105830007DE281E391E0A70196010E9468E32038B0
:1058400031054105510528F4203431054105510544
:1058500030F08DB58E7F8DBD8CB582601BC08DB54F
:10586000203231054105510528F081608DBD8CB590
:1058700082601FC0203131054105510510F08E7F37
:1058800006C0283031054105510540F081608DBDCD
:105890008CB58D7F8CBD8CB581600EC024303105F8
:1058A0004105510510F08E7F01C081608DBD8CB522
:1058B0008D7F8CBD8CB58E7F8CBDC0921017D09221
:1058C0001117E0921217F0921317FF90EF90DF90EC
:1058D000CF900895CF93DF9300D000D01F92EC01BA
:1058E0008130910571F02CF4892BC1F48CB5877F40
:1058F00011C08230910561F0039781F48CB5886006
:1059000002C08CB5877F8CBD8CB584608CBD12C005
:105910008CB588608CBD8CB58B7FF8CFEDB7FEB7AA
:10592000D583C4838AE294E0A0E081839283A38339
:105930000E943847D0930F17C0930E17CDB7DEB72C
:105940002596E2E00C9416E48EBD0DB407FEFDCF63
:105950008EB50895CF92DF92EF92FF92CF93DF93AF
:105960001F92CDB7DEB76B017C011CBC2F9A279A22
:105970002D9A259A26982C98249A8CB580618CBDF6
:105980008CB580648CBD8DB589838EB5898380E0AC
:1059900090E0A0DFC701B60136DF8FEFD5DF0F90B3
:1059A000DF91CF91FF90EF90DF90CF9008950F930C
:1059B0001F93CF93DF938C01EB011C161D0634F46B
:1059C000F80181918F01C0DF2197F7CFDF91CF914F
:1059D0001F910F9108950F931F93CF93DF938C0125
:1059E000EB011C161D0644F4F8018081ADDFF801BF
:1059F00081938F012197F5CFDF91CF911F910F9167
:105A000008950F931F93CF93DF938C01EB011C1626
:105A10001D063CF48FEF98DFF80181938F012197E9
:105A2000F6CFDF91CF911F910F910895409A419A3F
:105A3000ECEBF0E09081946090838093B9006093E8
:105A4000B800089584E98093BC00089594EA909387
:105A5000BC0024E6629FB0011124615071099B01D2
:105A600040E050E0E4EA2F3F9FEF390741F1411554
:105A70005105F1F49091BC0097FF13C09091B900CB
:105A8000987F903161F0983339F0983041F084E09C
:105A90008093BC0081E00895E093BC0006C041E023
:105AA00050E092E49A95F1F700C021503109DBCF24
:105AB000232B29F484E08093BC0082E00895809336
:105AC000BB0084E88093BC006F3F8FEF780771F0D4
:105AD0002091BC00CB01019727FD06C022E42A9546
